{
    "balance_change": {
        "balanceChanges": [
            {
                "account": "0x19066f7431df29a0910d287c8822936bb7d89e23",
                "assets": [
                    {
                        "address": "0x912ce59144191c1204e64559fe8253a0e49e6548",
                        "amount": "99,970.480362369706458622",
                        "iconUrl": "https://assets.blocksec.com/icon/7f6a46a5986b40212efe533e9172c6ef94bd7276a97c44613fd1b4041e657b61.png",
                        "isERC1155": false,
                        "isERC721": false,
                        "sign": true,
                        "value": "102269.80140827999094"
                    }
                ]
            },
            {
                "account": "0x1e65e48532f6cf9747774777f3f1f6dc6cf0d81b",
                "assets": [
                    {
                        "address": "0x912ce59144191c1204e64559fe8253a0e49e6548",
                        "amount": "99,970.480362369706458622",
                        "iconUrl": "https://assets.blocksec.com/icon/7f6a46a5986b40212efe533e9172c6ef94bd7276a97c44613fd1b4041e657b61.png",
                        "isERC1155": false,
                        "isERC721": false,
                        "sign": false,
                        "value": "102269.80140827999094"
                    }
                ]
            }
        ]
    },
    "profile": {
        "basic_info": {
            "baseFee": "0.01",
            "blockNumber": 206508546,
            "callData": "0xf2afdff30000000000000000000000001e65e48532f6cf9747774777f3f1f6dc6cf0d81b00000000000000000000000000000000000000000000000000000000000000400000000000000000000000000000000000000000000000000000000000000001000000000000000000000000912ce59144191c1204e64559fe8253a0e49e6548",
            "debugEnable": true,
            "errorInfo": "",
            "eventCount": 3,
            "feeRecipient": "0xa4b000000000000000000073657175656e636572",
            "formatValue": "0",
            "gasLimit": 1500000,
            "gasPrice": "0.01",
            "gasUsed": 155873,
            "intTxnCount": 10,
            "internalRevert": false,
            "internalRevertMessage": "",
            "isContractCreation": false,
            "isFlashloan": false,
            "maxFee": "0.01265625",
            "nonce": 2,
            "overwritedBlockNumber": -1,
            "priorityFee": "0",
            "receiver": "0xafa56964335aa8811160b198d1f8b3af1fd5ea45",
            "revertMessage": "",
            "sender": "0x19066f7431df29a0910d287c8822936bb7d89e23",
            "simulationEnable": true,
            "sourceTxnHash": "0xdac6af5695ba00b3d229574dbf7fcc326d16b9f8a52ad2620637d3022956d157",
            "status": true,
            "timestamp": "2024-04-30T21:47:02Z",
            "transactionFee": "0.00000155873",
            "txnHash": "0xdac6af5695ba00b3d229574dbf7fcc326d16b9f8a52ad2620637d3022956d157",
            "txnIndex": 1,
            "type": 2,
            "value": "0"
        },
        "fund_flow": [
            {
                "amount": "99,970.480362369706458622",
                "from": "0x1e65e48532f6cf9747774777f3f1f6dc6cf0d81b",
                "id": 1,
                "isERC1155": false,
                "isERC721": false,
                "isReverted": false,
                "order": 1,
                "to": "0x19066f7431df29a0910d287c8822936bb7d89e23",
                "token": "0x912ce59144191c1204e64559fe8253a0e49e6548"
            }
        ],
        "token_infos": [
            {
                "address": "0x82af49447d8a07e3bd95bd0d56f35241523fbab1",
                "decimals": 18
            },
            {
                "address": "0x912ce59144191c1204e64559fe8253a0e49e6548",
                "decimals": 18
            },
            {
                "address": "0xeeeeeeeeeeeeeeeeeeeeeeeeeeeeeeeeeeeeeeee",
                "decimals": 18
            }
        ]
    },
    "address_label": {
        "labels": [
            {
                "address": "0x0000000000000000000000000000000000000003",
                "label": "Precompiled"
            },
            {
                "address": "0xeeeeeeeeeeeeeeeeeeeeeeeeeeeeeeeeeeeeeeee",
                "label": "Ether"
            },
            {
                "address": "0x912ce59144191c1204e64559fe8253a0e49e6548",
                "label": "TransparentUpgradeableProxy_912c_6548"
            },
            {
                "address": "0xbf5041fc07e1c866d15c749156657b8eed0fb649",
                "label": "0xbf50_RewardDistributor"
            },
            {
                "address": "0x0000000000000000000000000000000000000001",
                "label": "Precompiled"
            },
            {
                "address": "0x0000000000000000000000000000000000000002",
                "label": "Precompiled"
            },
            {
                "address": "0x0000000000000000000000000000000000000004",
                "label": "Precompiled"
            },
            {
                "address": "0xc4ed0a9ea70d5bcc69f748547650d32cc219d882",
                "label": "L2ArbitrumToken"
            },
            {
                "address": "0x32e7af5a8151934f3787d0cd59eb6edd0a736b1d",
                "label": "0x32e7_RewardDistributor"
            }
        ]
    },
    "trace": {
        "accountLabels": null,
        "dataMap": {
            "-1": {
                "invocation": {
                    "address": "0x19066f7431df29a0910d287c8822936bb7d89e23",
                    "callData": "",
                    "decodedMethod": null,
                    "errorInfo": "",
                    "fromAddress": "",
                    "gasUsed": 0,
                    "id": -1,
                    "methodDecoded": false,
                    "operation": "",
                    "output": "",
                    "revert": false,
                    "revertMessage": "",
                    "selector": "",
                    "status": false,
                    "value": ""
                },
                "nodeType": 0
            },
            "0": {
                "invocation": {
                    "address": "0xafa56964335aa8811160b198d1f8b3af1fd5ea45",
                    "callData": "0x0000000000000000000000001e65e48532f6cf9747774777f3f1f6dc6cf0d81b00000000000000000000000000000000000000000000000000000000000000400000000000000000000000000000000000000000000000000000000000000001000000000000000000000000912ce59144191c1204e64559fe8253a0e49e6548",
                    "decodedMethod": null,
                    "errorInfo": "",
                    "fromAddress": "0x19066f7431df29a0910d287c8822936bb7d89e23",
                    "gasUsed": 155873,
                    "id": 0,
                    "methodDecoded": false,
                    "operation": "CALL",
                    "output": "",
                    "revert": false,
                    "revertMessage": "",
                    "selector": "0xf2afdff3",
                    "status": true,
                    "value": "0"
                },
                "nodeType": 0
            },
            "1": {
                "invocation": {
                    "address": "0x1e65e48532f6cf9747774777f3f1f6dc6cf0d81b",
                    "callData": "0x000000000000000000000000afa56964335aa8811160b198d1f8b3af1fd5ea45000000000000000000000000afa56964335aa8811160b198d1f8b3af1fd5ea45000000000000000000000000afa56964335aa8811160b198d1f8b3af1fd5ea45000000000000000000000000afa56964335aa8811160b198d1f8b3af1fd5ea4500000000000000000000000000000000000000000000000000000000000000140000000000000000000000000000000000000000000000000000000000000014",
                    "decodedMethod": {
                        "callParams": [
                            {
                                "name": "_owner",
                                "type": "address",
                                "value": "0xafa56964335aa8811160b198d1f8b3af1fd5ea45"
                            },
                            {
                                "name": "_WNativeAddress",
                                "type": "address",
                                "value": "0xafa56964335aa8811160b198d1f8b3af1fd5ea45"
                            },
                            {
                                "name": "_uniswapHelperAddress",
                                "type": "address",
                                "value": "0xafa56964335aa8811160b198d1f8b3af1fd5ea45"
                            },
                            {
                                "name": "tokenAddress",
                                "type": "address",
                                "value": "0xafa56964335aa8811160b198d1f8b3af1fd5ea45"
                            },
                            {
                                "name": "_swapFee",
                                "type": "uint16",
                                "value": "20"
                            },
                            {
                                "name": "_withdrawFee",
                                "type": "uint16",
                                "value": "20"
                            }
                        ],
                        "constructorArguments": "",
                        "name": "initialize",
                        "returnParams": [],
                        "signature": "initialize(address,address,address,address,uint16,uint16)"
                    },
                    "errorInfo": "",
                    "fromAddress": "0xafa56964335aa8811160b198d1f8b3af1fd5ea45",
                    "gasUsed": 43047,
                    "id": 1,
                    "methodDecoded": true,
                    "operation": "CALL",
                    "output": "",
                    "revert": false,
                    "revertMessage": "",
                    "selector": "0xfb5e556c",
                    "status": true,
                    "value": "0"
                },
                "nodeType": 0
            },
            "10": {
                "invocation": {
                    "address": "0xc4ed0a9ea70d5bcc69f748547650d32cc219d882",
                    "callData": "0x0000000000000000000000001e65e48532f6cf9747774777f3f1f6dc6cf0d81b",
                    "decodedMethod": {
                        "callParams": [
                            {
                                "name": "account",
                                "type": "address",
                                "value": "0x1e65e48532f6cf9747774777f3f1f6dc6cf0d81b"
                            }
                        ],
                        "constructorArguments": "",
                        "name": "balanceOf",
                        "returnParams": [
                            {
                                "decimalAvailable": true,
                                "name": "",
                                "type": "uint256",
                                "value": "99,970,480,362,369,706,458,622"
                            }
                        ],
                        "signature": "balanceOf(address)"
                    },
                    "errorInfo": "",
                    "fromAddress": "0x912ce59144191c1204e64559fe8253a0e49e6548",
                    "gasUsed": 2580,
                    "id": 10,
                    "methodDecoded": true,
                    "operation": "DELEGATECALL",
                    "output": "0x00000000000000000000000000000000000000000000152b691d0f4512997dfe",
                    "revert": false,
                    "revertMessage": "",
                    "selector": "0x70a08231",
                    "status": true,
                    "value": "0"
                },
                "nodeType": 0
            },
            "11": {
                "invocation": {
                    "address": "0x912ce59144191c1204e64559fe8253a0e49e6548",
                    "callData": "0x00000000000000000000000019066f7431df29a0910d287c8822936bb7d89e2300000000000000000000000000000000000000000000152b691d0f4512997dfe",
                    "decodedMethod": {
                        "callParams": [
                            {
                                "name": "to",
                                "type": "address",
                                "value": "0x19066f7431df29a0910d287c8822936bb7d89e23"
                            },
                            {
                                "decimalAvailable": true,
                                "name": "amount",
                                "type": "uint256",
                                "value": "99,970,480,362,369,706,458,622"
                            }
                        ],
                        "constructorArguments": "",
                        "name": "transfer",
                        "returnParams": [
                            {
                                "name": "",
                                "type": "bool",
                                "value": true
                            }
                        ],
                        "signature": "transfer(address,uint256)"
                    },
                    "errorInfo": "",
                    "fromAddress": "0x1e65e48532f6cf9747774777f3f1f6dc6cf0d81b",
                    "gasUsed": 33155,
                    "id": 11,
                    "methodDecoded": true,
                    "operation": "CALL",
                    "output": "0x0000000000000000000000000000000000000000000000000000000000000001",
                    "revert": false,
                    "revertMessage": "",
                    "selector": "0xa9059cbb",
                    "status": true,
                    "value": "0"
                },
                "nodeType": 0
            },
            "12": {
                "invocation": {
                    "address": "0xc4ed0a9ea70d5bcc69f748547650d32cc219d882",
                    "callData": "0x00000000000000000000000019066f7431df29a0910d287c8822936bb7d89e2300000000000000000000000000000000000000000000152b691d0f4512997dfe",
                    "decodedMethod": {
                        "callParams": [
                            {
                                "name": "to",
                                "type": "address",
                                "value": "0x19066f7431df29a0910d287c8822936bb7d89e23"
                            },
                            {
                                "decimalAvailable": true,
                                "name": "amount",
                                "type": "uint256",
                                "value": "99,970,480,362,369,706,458,622"
                            }
                        ],
                        "constructorArguments": "",
                        "name": "transfer",
                        "returnParams": [
                            {
                                "name": "",
                                "type": "bool",
                                "value": true
                            }
                        ],
                        "signature": "transfer(address,uint256)"
                    },
                    "errorInfo": "",
                    "fromAddress": "0x912ce59144191c1204e64559fe8253a0e49e6548",
                    "gasUsed": 32412,
                    "id": 12,
                    "methodDecoded": true,
                    "operation": "DELEGATECALL",
                    "output": "0x0000000000000000000000000000000000000000000000000000000000000001",
                    "revert": false,
                    "revertMessage": "",
                    "selector": "0xa9059cbb",
                    "status": true,
                    "value": "0"
                },
                "nodeType": 0
            },
            "13": {
                "event": {
                    "contract": "0x912ce59144191c1204e64559fe8253a0e49e6548",
                    "decodedLog": {
                        "name": "Transfer",
                        "params": [
                            {
                                "name": "from",
                                "type": "address",
                                "value": "0x1e65e48532f6cf9747774777f3f1f6dc6cf0d81b"
                            },
                            {
                                "name": "to",
                                "type": "address",
                                "value": "0x19066f7431df29a0910d287c8822936bb7d89e23"
                            },
                            {
                                "decimalAvailable": true,
                                "name": "value",
                                "type": "uint256",
                                "value": "99,970,480,362,369,706,458,622"
                            }
                        ],
                        "signature": "Transfer(address,address,uint256)"
                    },
                    "id": 13,
                    "logData": "0x00000000000000000000000000000000000000000000152b691d0f4512997dfe",
                    "logDecoded": true,
                    "operation": "EVENT",
                    "revert": false,
                    "status": true,
                    "topics": [
                        "0xddf252ad1be2c89b69c2b068fc378daa952ba7f163c4a11628f55a4df523b3ef",
                        "0x0000000000000000000000001e65e48532f6cf9747774777f3f1f6dc6cf0d81b",
                        "0x00000000000000000000000019066f7431df29a0910d287c8822936bb7d89e23"
                    ]
                },
                "nodeType": 1
            },
            "2": {
                "invocation": {
                    "address": "0xcc5e04e9092601a99968749b931040e544580948",
                    "callData": "0x000000000000000000000000afa56964335aa8811160b198d1f8b3af1fd5ea45000000000000000000000000afa56964335aa8811160b198d1f8b3af1fd5ea45000000000000000000000000afa56964335aa8811160b198d1f8b3af1fd5ea45000000000000000000000000afa56964335aa8811160b198d1f8b3af1fd5ea4500000000000000000000000000000000000000000000000000000000000000140000000000000000000000000000000000000000000000000000000000000014",
                    "decodedMethod": {
                        "callParams": [
                            {
                                "name": "_owner",
                                "type": "address",
                                "value": "0xafa56964335aa8811160b198d1f8b3af1fd5ea45"
                            },
                            {
                                "name": "_WNativeAddress",
                                "type": "address",
                                "value": "0xafa56964335aa8811160b198d1f8b3af1fd5ea45"
                            },
                            {
                                "name": "_uniswapHelperAddress",
                                "type": "address",
                                "value": "0xafa56964335aa8811160b198d1f8b3af1fd5ea45"
                            },
                            {
                                "name": "tokenAddress",
                                "type": "address",
                                "value": "0xafa56964335aa8811160b198d1f8b3af1fd5ea45"
                            },
                            {
                                "name": "_swapFee",
                                "type": "uint16",
                                "value": "20"
                            },
                            {
                                "name": "_withdrawFee",
                                "type": "uint16",
                                "value": "20"
                            }
                        ],
                        "constructorArguments": "",
                        "name": "initialize",
                        "returnParams": [],
                        "signature": "initialize(address,address,address,address,uint16,uint16)"
                    },
                    "errorInfo": "",
                    "fromAddress": "0x1e65e48532f6cf9747774777f3f1f6dc6cf0d81b",
                    "gasUsed": 38125,
                    "id": 2,
                    "methodDecoded": true,
                    "operation": "DELEGATECALL",
                    "output": "",
                    "revert": false,
                    "revertMessage": "",
                    "selector": "0xfb5e556c",
                    "status": true,
                    "value": "0"
                },
                "nodeType": 0
            },
            "3": {
                "event": {
                    "contract": "0x1e65e48532f6cf9747774777f3f1f6dc6cf0d81b",
                    "decodedLog": {
                        "name": "Initialized",
                        "params": [
                            {
                                "name": "version",
                                "type": "uint8",
                                "value": "1"
                            }
                        ],
                        "signature": "Initialized(uint8)"
                    },
                    "id": 3,
                    "logData": "0x0000000000000000000000000000000000000000000000000000000000000001",
                    "logDecoded": true,
                    "operation": "EVENT",
                    "revert": false,
                    "status": true,
                    "topics": [
                        "0x7f26b83ff96e1f2b6a682f133852f6798a09c465da95921460cefb3847402498"
                    ]
                },
                "nodeType": 1
            },
            "4": {
                "invocation": {
                    "address": "0x1e65e48532f6cf9747774777f3f1f6dc6cf0d81b",
                    "callData": "0x000000000000000000000000afa56964335aa8811160b198d1f8b3af1fd5ea4500000000000000000000000000000000000000000000000000000000000000400000000000000000000000000000000000000000000000000000000000000064fbd28ffb00000000000000000000000000000000000000000000000000000000000000200000000000000000000000000000000000000000000000000000000000000001000000000000000000000000912ce59144191c1204e64559fe8253a0e49e654800000000000000000000000000000000000000000000000000000000",
                    "decodedMethod": {
                        "callParams": [
                            {
                                "name": "newImplementation",
                                "type": "address",
                                "value": "0xafa56964335aa8811160b198d1f8b3af1fd5ea45"
                            },
                            {
                                "name": "data",
                                "type": "bytes",
                                "value": "0xfbd28ffb00000000000000000000000000000000000000000000000000000000000000200000000000000000000000000000000000000000000000000000000000000001000000000000000000000000912ce59144191c1204e64559fe8253a0e49e6548"
                            }
                        ],
                        "constructorArguments": "",
                        "name": "upgradeToAndCall",
                        "returnParams": [],
                        "signature": "upgradeToAndCall(address,bytes)"
                    },
                    "errorInfo": "",
                    "fromAddress": "0xafa56964335aa8811160b198d1f8b3af1fd5ea45",
                    "gasUsed": 58334,
                    "id": 4,
                    "methodDecoded": true,
                    "operation": "CALL",
                    "output": "",
                    "revert": false,
                    "revertMessage": "",
                    "selector": "0x4f1ef286",
                    "status": true,
                    "value": "0"
                },
                "nodeType": 0
            },
            "5": {
                "invocation": {
                    "address": "0xcc5e04e9092601a99968749b931040e544580948",
                    "callData": "0x000000000000000000000000afa56964335aa8811160b198d1f8b3af1fd5ea4500000000000000000000000000000000000000000000000000000000000000400000000000000000000000000000000000000000000000000000000000000064fbd28ffb00000000000000000000000000000000000000000000000000000000000000200000000000000000000000000000000000000000000000000000000000000001000000000000000000000000912ce59144191c1204e64559fe8253a0e49e654800000000000000000000000000000000000000000000000000000000",
                    "decodedMethod": {
                        "callParams": [
                            {
                                "name": "newImplementation",
                                "type": "address",
                                "value": "0xafa56964335aa8811160b198d1f8b3af1fd5ea45"
                            },
                            {
                                "name": "data",
                                "type": "bytes",
                                "value": "0xfbd28ffb00000000000000000000000000000000000000000000000000000000000000200000000000000000000000000000000000000000000000000000000000000001000000000000000000000000912ce59144191c1204e64559fe8253a0e49e6548"
                            }
                        ],
                        "constructorArguments": "",
                        "name": "upgradeToAndCall",
                        "returnParams": [],
                        "signature": "upgradeToAndCall(address,bytes)"
                    },
                    "errorInfo": "",
                    "fromAddress": "0x1e65e48532f6cf9747774777f3f1f6dc6cf0d81b",
                    "gasUsed": 57906,
                    "id": 5,
                    "methodDecoded": true,
                    "operation": "DELEGATECALL",
                    "output": "",
                    "revert": false,
                    "revertMessage": "",
                    "selector": "0x4f1ef286",
                    "status": true,
                    "value": "0"
                },
                "nodeType": 0
            },
            "6": {
                "invocation": {
                    "address": "0xafa56964335aa8811160b198d1f8b3af1fd5ea45",
                    "callData": "0x",
                    "decodedMethod": {
                        "callParams": [],
                        "constructorArguments": "",
                        "name": "proxiableUUID",
                        "returnParams": [
                            {
                                "name": "",
                                "type": "bytes32",
                                "value": "0x360894a13ba1a3210667c828492db98dca3e2076cc3735a920a3ca505d382bbc"
                            }
                        ],
                        "signature": "proxiableUUID()"
                    },
                    "errorInfo": "",
                    "fromAddress": "0x1e65e48532f6cf9747774777f3f1f6dc6cf0d81b",
                    "gasUsed": 315,
                    "id": 6,
                    "methodDecoded": true,
                    "operation": "STATICCALL",
                    "output": "0x360894a13ba1a3210667c828492db98dca3e2076cc3735a920a3ca505d382bbc",
                    "revert": false,
                    "revertMessage": "",
                    "selector": "0x52d1902d",
                    "status": true,
                    "value": "0"
                },
                "nodeType": 0
            },
            "7": {
                "event": {
                    "contract": "0x1e65e48532f6cf9747774777f3f1f6dc6cf0d81b",
                    "decodedLog": {
                        "name": "Upgraded",
                        "params": [
                            {
                                "name": "implementation",
                                "type": "address",
                                "value": "0xafa56964335aa8811160b198d1f8b3af1fd5ea45"
                            }
                        ],
                        "signature": "Upgraded(address)"
                    },
                    "id": 7,
                    "logData": "0x",
                    "logDecoded": true,
                    "operation": "EVENT",
                    "revert": false,
                    "status": true,
                    "topics": [
                        "0xbc7cd75a20ee27fd9adebab32041f755214dbc6bffa90cc0225b39da2e5c2d3b",
                        "0x000000000000000000000000afa56964335aa8811160b198d1f8b3af1fd5ea45"
                    ]
                },
                "nodeType": 1
            },
            "8": {
                "invocation": {
                    "address": "0xafa56964335aa8811160b198d1f8b3af1fd5ea45",
                    "callData": "0x00000000000000000000000000000000000000000000000000000000000000200000000000000000000000000000000000000000000000000000000000000001000000000000000000000000912ce59144191c1204e64559fe8253a0e49e6548",
                    "decodedMethod": null,
                    "errorInfo": "",
                    "fromAddress": "0x1e65e48532f6cf9747774777f3f1f6dc6cf0d81b",
                    "gasUsed": 48188,
                    "id": 8,
                    "methodDecoded": false,
                    "operation": "DELEGATECALL",
                    "output": "",
                    "revert": false,
                    "revertMessage": "",
                    "selector": "0xfbd28ffb",
                    "status": true,
                    "value": "0"
                },
                "nodeType": 0
            },
            "9": {
                "invocation": {
                    "address": "0x912ce59144191c1204e64559fe8253a0e49e6548",
                    "callData": "0x0000000000000000000000001e65e48532f6cf9747774777f3f1f6dc6cf0d81b",
                    "decodedMethod": {
                        "callParams": [
                            {
                                "name": "account",
                                "type": "address",
                                "value": "0x1e65e48532f6cf9747774777f3f1f6dc6cf0d81b"
                            }
                        ],
                        "constructorArguments": "",
                        "name": "balanceOf",
                        "returnParams": [
                            {
                                "decimalAvailable": true,
                                "name": "",
                                "type": "uint256",
                                "value": "99,970,480,362,369,706,458,622"
                            }
                        ],
                        "signature": "balanceOf(address)"
                    },
                    "errorInfo": "",
                    "fromAddress": "0x1e65e48532f6cf9747774777f3f1f6dc6cf0d81b",
                    "gasUsed": 9820,
                    "id": 9,
                    "methodDecoded": true,
                    "operation": "STATICCALL",
                    "output": "0x00000000000000000000000000000000000000000000152b691d0f4512997dfe",
                    "revert": false,
                    "revertMessage": "",
                    "selector": "0x70a08231",
                    "status": true,
                    "value": "0"
                },
                "nodeType": 0
            }
        },
        "gasFlame": [
            {
                "children": [
                    {
                        "children": [
                            {
                                "children": [
                                    {
                                        "children": [
                                            {
                                                "children": [
                                                    {
                                                        "children": [],
                                                        "depth": 2,
                                                        "name": "initialize",
                                                        "value": 38125
                                                    }
                                                ],
                                                "depth": 1,
                                                "name": "initialize",
                                                "value": 43047
                                            },
                                            {
                                                "children": [
                                                    {
                                                        "children": [
                                                            {
                                                                "children": [],
                                                                "depth": 3,
                                                                "name": "proxiableUUID",
                                                                "value": 315
                                                            },
                                                            {
                                                                "children": [
                                                                    {
                                                                        "children": [
                                                                            {
                                                                                "children": [],
                                                                                "depth": 5,
                                                                                "name": "balanceOf",
                                                                                "value": 2580
                                                                            }
                                                                        ],
                                                                        "depth": 4,
                                                                        "name": "balanceOf",
                                                                        "value": 9820
                                                                    },
                                                                    {
                                                                        "children": [
                                                                            {
                                                                                "children": [],
                                                                                "depth": 5,
                                                                                "name": "transfer",
                                                                                "value": 32412
                                                                            }
                                                                        ],
                                                                        "depth": 4,
                                                                        "name": "transfer",
                                                                        "value": 33155
                                                                    }
                                                                ],
                                                                "depth": 3,
                                                                "name": "0xfbd28ffb",
                                                                "value": 48188
                                                            }
                                                        ],
                                                        "depth": 2,
                                                        "name": "upgradeToAndCall",
                                                        "value": 57906
                                                    }
                                                ],
                                                "depth": 1,
                                                "name": "upgradeToAndCall",
                                                "value": 58334
                                            }
                                        ],
                                        "depth": 0,
                                        "name": "L2 Executed Gas",
                                        "value": 112511
                                    },
                                    {
                                        "children": [],
                                        "depth": 0,
                                        "name": "L2 Initial Gas",
                                        "value": 22080
                                    }
                                ],
                                "depth": -1,
                                "name": "L2 Actual Gas Used",
                                "value": 134591
                            },
                            {
                                "children": [],
                                "depth": -1,
                                "name": "L2 Refunded Gas",
                                "value": 0
                            }
                        ],
                        "depth": -2,
                        "name": "L2 Total Gas",
                        "value": 134591
                    },
                    {
                        "children": [
                            {
                                "children": [],
                                "depth": -1,
                                "name": "L1 Actual Gas Used",
                                "value": 26082
                            },
                            {
                                "children": [],
                                "depth": -1,
                                "name": "L1 Refunded Gas",
                                "value": 0
                            }
                        ],
                        "depth": -2,
                        "name": "L1 Total Gas",
                        "value": 26082
                    }
                ],
                "depth": -3,
                "name": "Total Gas",
                "value": 160673
            }
        ],
        "isConfirmed": true,
        "mainTrace": [
            {
                "children": [
                    {
                        "children": [
                            {
                                "children": [
                                    {
                                        "children": [
                                            {
                                                "children": [],
                                                "depth": 3,
                                                "id": 3,
                                                "order": 3
                                            }
                                        ],
                                        "depth": 2,
                                        "id": 2,
                                        "order": 2
                                    }
                                ],
                                "depth": 1,
                                "id": 1,
                                "order": 1
                            },
                            {
                                "children": [
                                    {
                                        "children": [
                                            {
                                                "children": [],
                                                "depth": 3,
                                                "id": 6,
                                                "order": 6
                                            },
                                            {
                                                "children": [],
                                                "depth": 3,
                                                "id": 7,
                                                "order": 7
                                            },
                                            {
                                                "children": [
                                                    {
                                                        "children": [
                                                            {
                                                                "children": [],
                                                                "depth": 5,
                                                                "id": 10,
                                                                "order": 10
                                                            }
                                                        ],
                                                        "depth": 4,
                                                        "id": 9,
                                                        "order": 9
                                                    },
                                                    {
                                                        "children": [
                                                            {
                                                                "children": [
                                                                    {
                                                                        "children": [],
                                                                        "depth": 6,
                                                                        "id": 13,
                                                                        "order": 13
                                                                    }
                                                                ],
                                                                "depth": 5,
                                                                "id": 12,
                                                                "order": 12
                                                            }
                                                        ],
                                                        "depth": 4,
                                                        "id": 11,
                                                        "order": 11
                                                    }
                                                ],
                                                "depth": 3,
                                                "id": 8,
                                                "order": 8
                                            }
                                        ],
                                        "depth": 2,
                                        "id": 5,
                                        "order": 5
                                    }
                                ],
                                "depth": 1,
                                "id": 4,
                                "order": 4
                            }
                        ],
                        "depth": 0,
                        "id": 0,
                        "order": 0
                    }
                ],
                "depth": -1,
                "id": -1,
                "order": -1
            }
        ],
        "mainTraceNodeCount": 14,
        "parentIdMap": {
            "0": -1,
            "1": 0,
            "10": 9,
            "11": 8,
            "12": 11,
            "13": 12,
            "2": 1,
            "3": 2,
            "4": 0,
            "5": 4,
            "6": 5,
            "7": 5,
            "8": 5,
            "9": 8
        },
        "tidyTrace": [
            {
                "children": [
                    {
                        "children": [
                            {
                                "children": [
                                    {
                                        "children": [
                                            {
                                                "children": [],
                                                "depth": 3,
                                                "id": 3,
                                                "order": 3
                                            }
                                        ],
                                        "depth": 2,
                                        "id": 2,
                                        "order": 2
                                    }
                                ],
                                "depth": 1,
                                "id": 1,
                                "order": 1
                            },
                            {
                                "children": [
                                    {
                                        "children": [
                                            {
                                                "children": [],
                                                "depth": 3,
                                                "id": 7,
                                                "order": 7
                                            },
                                            {
                                                "children": [
                                                    {
                                                        "children": [
                                                            {
                                                                "children": [
                                                                    {
                                                                        "children": [],
                                                                        "depth": 6,
                                                                        "id": 13,
                                                                        "order": 13
                                                                    }
                                                                ],
                                                                "depth": 5,
                                                                "id": 12,
                                                                "order": 12
                                                            }
                                                        ],
                                                        "depth": 4,
                                                        "id": 11,
                                                        "order": 11
                                                    }
                                                ],
                                                "depth": 3,
                                                "id": 8,
                                                "order": 8
                                            }
                                        ],
                                        "depth": 2,
                                        "id": 5,
                                        "order": 5
                                    }
                                ],
                                "depth": 1,
                                "id": 4,
                                "order": 4
                            }
                        ],
                        "depth": 0,
                        "id": 0,
                        "order": 0
                    }
                ],
                "depth": -1,
                "id": -1,
                "order": -1
            }
        ],
        "tidyTraceNodeCount": 11
    },
    "state_change": {
        "stateChanges": [
            {
                "address": "0x1e65e48532f6cf9747774777f3f1f6dc6cf0d81b",
                "erc": "",
                "slots": [
                    {
                        "current": "0x000000000000000000000000afa56964335aa8811160b198d1f8b3af1fd5ea45",
                        "key": "0x0000000000000000000000000000000000000000000000000000000000000002",
                        "prev": "0x00000000000000000000000046adcf744d7c532d55cd899df3c7b0e64e1a587c"
                    },
                    {
                        "current": "0x000000000000000000000000afa56964335aa8811160b198d1f8b3af1fd5ea45",
                        "key": "0x0000000000000000000000000000000000000000000000000000000000000003",
                        "prev": "0x00000000000000000000000027428dd2d3dd32a4d7f7c497eaaa23130d894911"
                    },
                    {
                        "current": "0x000000000000000000000000afa56964335aa8811160b198d1f8b3af1fd5ea45",
                        "key": "0x0000000000000000000000000000000000000000000000000000000000000004",
                        "prev": "0x0000000000000000000000007856493b59cdb1685757a6dcce12425f6a6666a0"
                    },
                    {
                        "current": "0x000000000000000000000000afa56964335aa8811160b198d1f8b3af1fd5ea45",
                        "key": "0x360894a13ba1a3210667c828492db98dca3e2076cc3735a920a3ca505d382bbc",
                        "prev": "0x000000000000000000000000cc5e04e9092601a99968749b931040e544580948"
                    },
                    {
                        "current": "0x00000000000000afa56964335aa8811160b198d1f8b3af1fd5ea450014001401",
                        "key": "0x0000000000000000000000000000000000000000000000000000000000000000",
                        "prev": "0x00000000000000b1ea97c9f68978905fb1bf5089e71a073bc4f5c80017001e01"
                    },
                    {
                        "current": "0x000000000000000000000000eeeeeeeeeeeeeeeeeeeeeeeeeeeeeeeeeeeeeeee",
                        "key": "0x0000000000000000000000000000000000000000000000000000000000000009",
                        "prev": "0x000000000000000000000000615e4beebc106829df114d80c9029ee8a131157b"
                    },
                    {
                        "current": "0x0000000000000000000000000000000000000000000000000000000000000101",
                        "key": "0x000000000000000000000000000000000000000000000000000000000000000b",
                        "prev": "0x0000000000000000000000000000000000000000000000000000000000000001"
                    },
                    {
                        "current": "0x000000000000000000000000afa56964335aa8811160b198d1f8b3af1fd5ea45",
                        "key": "0x0000000000000000000000000000000000000000000000000000000000000001",
                        "prev": "0x000000000000000000000000de842eadcd27f2913a0802179edd9c07b14edd6e"
                    }
                ],
                "storageVariables": [
                    {
                        "name": "logic contract address(EIP1967)",
                        "type": "address",
                        "value": {
                            "current": "0xafa56964335aa8811160b198d1f8b3af1fd5ea45",
                            "prev": "0xcc5e04e9092601a99968749b931040e544580948",
                            "typeTag": 1
                        }
                    }
                ]
            },
            {
                "address": "0x912ce59144191c1204e64559fe8253a0e49e6548",
                "erc": "ERC-20",
                "slots": [
                    {
                        "current": "0x0000000000000000000000000000000000000000000000000000000000000000",
                        "key": "0x17fbb18a0c8dd0927cb28979706a16aca0abdab7daedf33420b2436cbf41edf5",
                        "prev": "0x00000000000000000000000000000000000000000000152b691d0f4512997dfe"
                    },
                    {
                        "current": "0x00000000000000000000000000000000000000000000152b691d0f4512997dfe",
                        "key": "0x1fcabeb4a19d0df765bfc285384659526808a8d8551f98d461b319ea2aac67ef",
                        "prev": "0x0000000000000000000000000000000000000000000000000000000000000000"
                    }
                ],
                "storageVariables": [
                    {
                        "name": "_balances",
                        "type": "mapping(address => uint256)",
                        "value": {
                            "pairs": [
                                {
                                    "key": "0x19066f7431df29a0910d287c8822936bb7d89e23",
                                    "value": {
                                        "current": "99970480362369706458622",
                                        "prev": "0",
                                        "typeTag": 1
                                    }
                                },
                                {
                                    "key": "0x1e65e48532f6cf9747774777f3f1f6dc6cf0d81b",
                                    "value": {
                                        "current": "0",
                                        "prev": "99970480362369706458622",
                                        "typeTag": 1
                                    }
                                }
                            ],
                            "typeTag": 4
                        }
                    }
                ]
            }
        ]
    }
}