{
    "balance_change": {
        "balanceChanges": [
            {
                "account": "0x1bf68a9d1eaee7826b3593c20a0ca93293cb489a",
                "assets": [
                    {
                        "address": "0x2260fac5e5542a773aa44fbcfedf7c193bc2c599",
                        "amount": "230.879",
                        "iconUrl": "https://assets.blocksec.com/icon/878f2983cb21c5816eb5879d9b6f7a3fe2eb6fce7560c367a0315527852a8a84.png",
                        "isERC1155": false,
                        "isERC721": false,
                        "sign": false,
                        "value": "9817898.5960000000005"
                    }
                ]
            },
            {
                "account": "0x9ca536d01b9e78dd30de9d7457867f8898634049",
                "assets": [
                    {
                        "address": "0x2260fac5e5542a773aa44fbcfedf7c193bc2c599",
                        "amount": "230.879",
                        "iconUrl": "https://assets.blocksec.com/icon/878f2983cb21c5816eb5879d9b6f7a3fe2eb6fce7560c367a0315527852a8a84.png",
                        "isERC1155": false,
                        "isERC721": false,
                        "sign": true,
                        "value": "9817898.5960000000005"
                    }
                ]
            }
        ]
    },
    "profile": {
        "basic_info": {
            "baseFee": "18.452084253",
            "blockNumber": 18908050,
            "callData": "0x2ac5ab1b000000000000000000000000b5680a55d627c52de992e3ea52a86f19da475399000000000000000000000000000000000000000000000000000000000000016000000000000000000000000000000000000000000000000000000000000001a00000000000000000000000009ca536d01b9e78dd30de9d7457867f88986340490000000000000000000000002260fac5e5542a773aa44fbcfedf7c193bc2c59900000000000000000000000000000000000000000000000000000000000001e0000000000000000000000000000000000000000000000000000000000000024000000000000000000000000000000000000000000000000000000000000002c000000000000000000000000000000000000000000000000000000000000002e000000000000000000000000000000000000000000000000000000000000003e000000000000000000000000000000000000000000000000000000000000004e000000000000000000000000000000000000000000000000000000000000000054f5242495400000000000000000000000000000000000000000000000000000000000000000000000000000000000000000000000000000000000000000000149263e7873613ddc598a701709875634819176aff000000000000000000000000000000000000000000000000000000000000000000000000000000000000000250f408f4b0fb17bf4f5143de4bd95802410d00422f008e9deef06fb101a0f060f7f60c98b04d45c371bcccf6aa12ebcd844fca6b17e7cd77503d6159d60a1aaa000000000000000000000000000000000000000000000000000000000000000300000000000000000000000000000000000000000000000000000005602565600000000000000000000000000000000000000000000000000000000000000008000000000000000000000000000000000000000000000000000000000000221f00000000000000000000000000000000000000000000000000000000000000000000000000000000000000000000000000000000000000000000000000000007000000000000000000000000000000000000000000000000000000000000001b000000000000000000000000000000000000000000000000000000000000001c000000000000000000000000000000000000000000000000000000000000001c000000000000000000000000000000000000000000000000000000000000001b000000000000000000000000000000000000000000000000000000000000001c000000000000000000000000000000000000000000000000000000000000001c000000000000000000000000000000000000000000000000000000000000001b00000000000000000000000000000000000000000000000000000000000000073ef06a27b3565a82b6d72af184ca3d787e3dd8fc0bd56bb0e7dce2faf920257df1d81597f32c9376e90d22b9a1f121f1a99a1c191f8e930ed0de6df7b759a1543b7169e2ee2b73dcfbabae1400b811b95616cb5dc547b8b7b7c6aeb37b5b906bd4b7fd0617b28e1eeb018e1dbf924e662d1a0520cad96af2fcf496e16f4c58c6e06c17f1a6630bfa47f0fe0cfba02f40f0901e2412713e4c7f46ae17a25dc92cdecb2622da70fee1c343b93dc946eb855fd32c59b293c0765cb94a71e62aeff3ff7c705149017ce467d05717eadb0a2718aedc7a1799ad153d05e8fc48be853e00000000000000000000000000000000000000000000000000000000000000070cc266abfa2ba924ffa7dab0cd8f7bb1a14891ec74dea53927c09296d1c6ac7c739fe72bab59a2eead1e36fdf71441e0407332c508165e460a2cde5418858e1b18303ee09818b0575ea4a5c2ed25b1e78523aa2b387a9c7c9c23b0d906ff9e0737da521031f0a65dd8466d4def41c44a69796f696965c42f9705447286c0ac9a5443cf63033ab211f205076622b2426b994ce3706c1ee2464a68ef168c7639bb725fa18d06acb4f6f8a5b143bca088d76f77d9531765dea6799b484373d0641b6b6ddbaaafc5f0580b670ad9d0913ca4c60df2753151a499117086aa725cf2c7",
            "debugEnable": true,
            "errorInfo": "",
            "eventCount": 2,
            "feeRecipient": "0x95222290dd7278aa3ddd389cc1e1d165cc4bafe5",
            "formatValue": "0",
            "gasLimit": 174977,
            "gasPrice": "300",
            "gasUsed": 172919,
            "intTxnCount": 15,
            "internalRevert": false,
            "internalRevertMessage": "",
            "isContractCreation": false,
            "isFlashloan": false,
            "maxFee": "",
            "nonce": 66,
            "overwritedBlockNumber": -1,
            "priorityFee": "",
            "receiver": "0x1bf68a9d1eaee7826b3593c20a0ca93293cb489a",
            "revertMessage": "",
            "sender": "0x9263e7873613ddc598a701709875634819176aff",
            "simulationEnable": true,
            "sourceTxnHash": "0xe0bada18fdc56dec125c31b1636490f85ba66016318060a066ed7050ff7271f9",
            "status": true,
            "timestamp": "2023-12-31T21:10:59Z",
            "transactionFee": "0.0518757",
            "txnHash": "0xe0bada18fdc56dec125c31b1636490f85ba66016318060a066ed7050ff7271f9",
            "txnIndex": 30,
            "type": 0,
            "value": "0"
        },
        "fund_flow": [
            {
                "amount": "230.879",
                "from": "0x1bf68a9d1eaee7826b3593c20a0ca93293cb489a",
                "id": 1,
                "isERC1155": false,
                "isERC721": false,
                "isReverted": false,
                "order": 1,
                "to": "0x9ca536d01b9e78dd30de9d7457867f8898634049",
                "token": "0x2260fac5e5542a773aa44fbcfedf7c193bc2c599"
            }
        ],
        "token_infos": [
            {
                "address": "0x2260fac5e5542a773aa44fbcfedf7c193bc2c599",
                "decimals": 8
            },
            {
                "address": "0xc02aaa39b223fe8d0a0e5c4f27ead9083c756cc2",
                "decimals": 18
            },
            {
                "address": "0xeeeeeeeeeeeeeeeeeeeeeeeeeeeeeeeeeeeeeeee",
                "decimals": 18
            }
        ]
    },
    "address_label": {
        "labels": [
            {
                "address": "0xc3430bc8c2c05fc6b42114bf7f82a3e2f3ee9454",
                "label": "EthVaultImpl"
            },
            {
                "address": "0x0000000000000000000000000000000000000002",
                "label": "Precompiled"
            },
            {
                "address": "0x0000000000000000000000000000000000000001",
                "label": "Precompiled"
            },
            {
                "address": "0x0000000000000000000000000000000000000004",
                "label": "Precompiled"
            },
            {
                "address": "0xeeeeeeeeeeeeeeeeeeeeeeeeeeeeeeeeeeeeeeee",
                "label": "Ether"
            },
            {
                "address": "0x1bf68a9d1eaee7826b3593c20a0ca93293cb489a",
                "label": "Orbit Chain: Bridge"
            },
            {
                "address": "0x9263e7873613ddc598a701709875634819176aff",
                "label": "Fake_Phishing270353"
            },
            {
                "address": "0x9ca536d01b9e78dd30de9d7457867f8898634049",
                "label": "Orbit Bridge Exploiter 2"
            },
            {
                "address": "0x0000000000000000000000000000000000000003",
                "label": "Precompiled"
            },
            {
                "address": "0x2260fac5e5542a773aa44fbcfedf7c193bc2c599",
                "label": "Wrapped BTC: WBTC Token"
            }
        ]
    },
    "trace": {
        "accountLabels": null,
        "dataMap": {
            "-1": {
                "invocation": {
                    "address": "0x9263e7873613ddc598a701709875634819176aff",
                    "callData": "",
                    "decodedMethod": null,
                    "errorInfo": "",
                    "fromAddress": "",
                    "gasUsed": 0,
                    "id": -1,
                    "methodDecoded": false,
                    "operation": "",
                    "output": "",
                    "revert": false,
                    "revertMessage": "",
                    "selector": "",
                    "status": false,
                    "value": ""
                },
                "nodeType": 0
            },
            "0": {
                "invocation": {
                    "address": "0x1bf68a9d1eaee7826b3593c20a0ca93293cb489a",
                    "callData": "0x000000000000000000000000b5680a55d627c52de992e3ea52a86f19da475399000000000000000000000000000000000000000000000000000000000000016000000000000000000000000000000000000000000000000000000000000001a00000000000000000000000009ca536d01b9e78dd30de9d7457867f88986340490000000000000000000000002260fac5e5542a773aa44fbcfedf7c193bc2c59900000000000000000000000000000000000000000000000000000000000001e0000000000000000000000000000000000000000000000000000000000000024000000000000000000000000000000000000000000000000000000000000002c000000000000000000000000000000000000000000000000000000000000002e000000000000000000000000000000000000000000000000000000000000003e000000000000000000000000000000000000000000000000000000000000004e000000000000000000000000000000000000000000000000000000000000000054f5242495400000000000000000000000000000000000000000000000000000000000000000000000000000000000000000000000000000000000000000000149263e7873613ddc598a701709875634819176aff000000000000000000000000000000000000000000000000000000000000000000000000000000000000000250f408f4b0fb17bf4f5143de4bd95802410d00422f008e9deef06fb101a0f060f7f60c98b04d45c371bcccf6aa12ebcd844fca6b17e7cd77503d6159d60a1aaa000000000000000000000000000000000000000000000000000000000000000300000000000000000000000000000000000000000000000000000005602565600000000000000000000000000000000000000000000000000000000000000008000000000000000000000000000000000000000000000000000000000000221f00000000000000000000000000000000000000000000000000000000000000000000000000000000000000000000000000000000000000000000000000000007000000000000000000000000000000000000000000000000000000000000001b000000000000000000000000000000000000000000000000000000000000001c000000000000000000000000000000000000000000000000000000000000001c000000000000000000000000000000000000000000000000000000000000001b000000000000000000000000000000000000000000000000000000000000001c000000000000000000000000000000000000000000000000000000000000001c000000000000000000000000000000000000000000000000000000000000001b00000000000000000000000000000000000000000000000000000000000000073ef06a27b3565a82b6d72af184ca3d787e3dd8fc0bd56bb0e7dce2faf920257df1d81597f32c9376e90d22b9a1f121f1a99a1c191f8e930ed0de6df7b759a1543b7169e2ee2b73dcfbabae1400b811b95616cb5dc547b8b7b7c6aeb37b5b906bd4b7fd0617b28e1eeb018e1dbf924e662d1a0520cad96af2fcf496e16f4c58c6e06c17f1a6630bfa47f0fe0cfba02f40f0901e2412713e4c7f46ae17a25dc92cdecb2622da70fee1c343b93dc946eb855fd32c59b293c0765cb94a71e62aeff3ff7c705149017ce467d05717eadb0a2718aedc7a1799ad153d05e8fc48be853e00000000000000000000000000000000000000000000000000000000000000070cc266abfa2ba924ffa7dab0cd8f7bb1a14891ec74dea53927c09296d1c6ac7c739fe72bab59a2eead1e36fdf71441e0407332c508165e460a2cde5418858e1b18303ee09818b0575ea4a5c2ed25b1e78523aa2b387a9c7c9c23b0d906ff9e0737da521031f0a65dd8466d4def41c44a69796f696965c42f9705447286c0ac9a5443cf63033ab211f205076622b2426b994ce3706c1ee2464a68ef168c7639bb725fa18d06acb4f6f8a5b143bca088d76f77d9531765dea6799b484373d0641b6b6ddbaaafc5f0580b670ad9d0913ca4c60df2753151a499117086aa725cf2c7",
                    "decodedMethod": {
                        "callParams": [
                            {
                                "name": "hubContract",
                                "type": "address",
                                "value": "0xb5680a55d627c52de992e3ea52a86f19da475399"
                            },
                            {
                                "name": "fromChain",
                                "type": "string",
                                "value": "ORBIT"
                            },
                            {
                                "name": "fromAddr",
                                "type": "bytes",
                                "value": "0x9263e7873613ddc598a701709875634819176aff"
                            },
                            {
                                "name": "toAddr",
                                "type": "address",
                                "value": "0x9ca536d01b9e78dd30de9d7457867f8898634049"
                            },
                            {
                                "name": "token",
                                "type": "address",
                                "value": "0x2260fac5e5542a773aa44fbcfedf7c193bc2c599"
                            },
                            {
                                "name": "bytes32s",
                                "type": "bytes32[]",
                                "value": [
                                    "0x50f408f4b0fb17bf4f5143de4bd95802410d00422f008e9deef06fb101a0f060",
                                    "0xf7f60c98b04d45c371bcccf6aa12ebcd844fca6b17e7cd77503d6159d60a1aaa"
                                ]
                            },
                            {
                                "name": "uints",
                                "type": "uint256[]",
                                "value": [
                                    "23,087,900,000",
                                    "8",
                                    "8,735"
                                ]
                            },
                            {
                                "name": "data",
                                "type": "bytes",
                                "value": "0x"
                            },
                            {
                                "name": "v",
                                "type": "uint8[]",
                                "value": [
                                    "27",
                                    "28",
                                    "28",
                                    "27",
                                    "28",
                                    "28",
                                    "27"
                                ]
                            },
                            {
                                "name": "r",
                                "type": "bytes32[]",
                                "value": [
                                    "0x3ef06a27b3565a82b6d72af184ca3d787e3dd8fc0bd56bb0e7dce2faf920257d",
                                    "0xf1d81597f32c9376e90d22b9a1f121f1a99a1c191f8e930ed0de6df7b759a154",
                                    "0x3b7169e2ee2b73dcfbabae1400b811b95616cb5dc547b8b7b7c6aeb37b5b906b",
                                    "0xd4b7fd0617b28e1eeb018e1dbf924e662d1a0520cad96af2fcf496e16f4c58c6",
                                    "0xe06c17f1a6630bfa47f0fe0cfba02f40f0901e2412713e4c7f46ae17a25dc92c",
                                    "0xdecb2622da70fee1c343b93dc946eb855fd32c59b293c0765cb94a71e62aeff3",
                                    "0xff7c705149017ce467d05717eadb0a2718aedc7a1799ad153d05e8fc48be853e"
                                ]
                            },
                            {
                                "name": "s",
                                "type": "bytes32[]",
                                "value": [
                                    "0x0cc266abfa2ba924ffa7dab0cd8f7bb1a14891ec74dea53927c09296d1c6ac7c",
                                    "0x739fe72bab59a2eead1e36fdf71441e0407332c508165e460a2cde5418858e1b",
                                    "0x18303ee09818b0575ea4a5c2ed25b1e78523aa2b387a9c7c9c23b0d906ff9e07",
                                    "0x37da521031f0a65dd8466d4def41c44a69796f696965c42f9705447286c0ac9a",
                                    "0x5443cf63033ab211f205076622b2426b994ce3706c1ee2464a68ef168c7639bb",
                                    "0x725fa18d06acb4f6f8a5b143bca088d76f77d9531765dea6799b484373d0641b",
                                    "0x6b6ddbaaafc5f0580b670ad9d0913ca4c60df2753151a499117086aa725cf2c7"
                                ]
                            }
                        ],
                        "constructorArguments": "",
                        "name": "withdraw",
                        "returnParams": [],
                        "signature": "withdraw(address,string,bytes,address,address,bytes32[],uint256[],bytes,uint8[],bytes32[],bytes32[])"
                    },
                    "errorInfo": "",
                    "fromAddress": "0x9263e7873613ddc598a701709875634819176aff",
                    "gasUsed": 172919,
                    "id": 0,
                    "methodDecoded": true,
                    "operation": "CALL",
                    "output": "",
                    "revert": false,
                    "revertMessage": "",
                    "selector": "0x2ac5ab1b",
                    "status": true,
                    "value": "0"
                },
                "nodeType": 0
            },
            "1": {
                "invocation": {
                    "address": "0xc3430bc8c2c05fc6b42114bf7f82a3e2f3ee9454",
                    "callData": "0x000000000000000000000000b5680a55d627c52de992e3ea52a86f19da475399000000000000000000000000000000000000000000000000000000000000016000000000000000000000000000000000000000000000000000000000000001a00000000000000000000000009ca536d01b9e78dd30de9d7457867f88986340490000000000000000000000002260fac5e5542a773aa44fbcfedf7c193bc2c59900000000000000000000000000000000000000000000000000000000000001e0000000000000000000000000000000000000000000000000000000000000024000000000000000000000000000000000000000000000000000000000000002c000000000000000000000000000000000000000000000000000000000000002e000000000000000000000000000000000000000000000000000000000000003e000000000000000000000000000000000000000000000000000000000000004e000000000000000000000000000000000000000000000000000000000000000054f5242495400000000000000000000000000000000000000000000000000000000000000000000000000000000000000000000000000000000000000000000149263e7873613ddc598a701709875634819176aff000000000000000000000000000000000000000000000000000000000000000000000000000000000000000250f408f4b0fb17bf4f5143de4bd95802410d00422f008e9deef06fb101a0f060f7f60c98b04d45c371bcccf6aa12ebcd844fca6b17e7cd77503d6159d60a1aaa000000000000000000000000000000000000000000000000000000000000000300000000000000000000000000000000000000000000000000000005602565600000000000000000000000000000000000000000000000000000000000000008000000000000000000000000000000000000000000000000000000000000221f00000000000000000000000000000000000000000000000000000000000000000000000000000000000000000000000000000000000000000000000000000007000000000000000000000000000000000000000000000000000000000000001b000000000000000000000000000000000000000000000000000000000000001c000000000000000000000000000000000000000000000000000000000000001c000000000000000000000000000000000000000000000000000000000000001b000000000000000000000000000000000000000000000000000000000000001c000000000000000000000000000000000000000000000000000000000000001c000000000000000000000000000000000000000000000000000000000000001b00000000000000000000000000000000000000000000000000000000000000073ef06a27b3565a82b6d72af184ca3d787e3dd8fc0bd56bb0e7dce2faf920257df1d81597f32c9376e90d22b9a1f121f1a99a1c191f8e930ed0de6df7b759a1543b7169e2ee2b73dcfbabae1400b811b95616cb5dc547b8b7b7c6aeb37b5b906bd4b7fd0617b28e1eeb018e1dbf924e662d1a0520cad96af2fcf496e16f4c58c6e06c17f1a6630bfa47f0fe0cfba02f40f0901e2412713e4c7f46ae17a25dc92cdecb2622da70fee1c343b93dc946eb855fd32c59b293c0765cb94a71e62aeff3ff7c705149017ce467d05717eadb0a2718aedc7a1799ad153d05e8fc48be853e00000000000000000000000000000000000000000000000000000000000000070cc266abfa2ba924ffa7dab0cd8f7bb1a14891ec74dea53927c09296d1c6ac7c739fe72bab59a2eead1e36fdf71441e0407332c508165e460a2cde5418858e1b18303ee09818b0575ea4a5c2ed25b1e78523aa2b387a9c7c9c23b0d906ff9e0737da521031f0a65dd8466d4def41c44a69796f696965c42f9705447286c0ac9a5443cf63033ab211f205076622b2426b994ce3706c1ee2464a68ef168c7639bb725fa18d06acb4f6f8a5b143bca088d76f77d9531765dea6799b484373d0641b6b6ddbaaafc5f0580b670ad9d0913ca4c60df2753151a499117086aa725cf2c7",
                    "decodedMethod": {
                        "callParams": [
                            {
                                "name": "hubContract",
                                "type": "address",
                                "value": "0xb5680a55d627c52de992e3ea52a86f19da475399"
                            },
                            {
                                "name": "fromChain",
                                "type": "string",
                                "value": "ORBIT"
                            },
                            {
                                "name": "fromAddr",
                                "type": "bytes",
                                "value": "0x9263e7873613ddc598a701709875634819176aff"
                            },
                            {
                                "name": "toAddr",
                                "type": "address",
                                "value": "0x9ca536d01b9e78dd30de9d7457867f8898634049"
                            },
                            {
                                "name": "token",
                                "type": "address",
                                "value": "0x2260fac5e5542a773aa44fbcfedf7c193bc2c599"
                            },
                            {
                                "name": "bytes32s",
                                "type": "bytes32[]",
                                "value": [
                                    "0x50f408f4b0fb17bf4f5143de4bd95802410d00422f008e9deef06fb101a0f060",
                                    "0xf7f60c98b04d45c371bcccf6aa12ebcd844fca6b17e7cd77503d6159d60a1aaa"
                                ]
                            },
                            {
                                "name": "uints",
                                "type": "uint256[]",
                                "value": [
                                    "23,087,900,000",
                                    "8",
                                    "8,735"
                                ]
                            },
                            {
                                "name": "data",
                                "type": "bytes",
                                "value": "0x"
                            },
                            {
                                "name": "v",
                                "type": "uint8[]",
                                "value": [
                                    "27",
                                    "28",
                                    "28",
                                    "27",
                                    "28",
                                    "28",
                                    "27"
                                ]
                            },
                            {
                                "name": "r",
                                "type": "bytes32[]",
                                "value": [
                                    "0x3ef06a27b3565a82b6d72af184ca3d787e3dd8fc0bd56bb0e7dce2faf920257d",
                                    "0xf1d81597f32c9376e90d22b9a1f121f1a99a1c191f8e930ed0de6df7b759a154",
                                    "0x3b7169e2ee2b73dcfbabae1400b811b95616cb5dc547b8b7b7c6aeb37b5b906b",
                                    "0xd4b7fd0617b28e1eeb018e1dbf924e662d1a0520cad96af2fcf496e16f4c58c6",
                                    "0xe06c17f1a6630bfa47f0fe0cfba02f40f0901e2412713e4c7f46ae17a25dc92c",
                                    "0xdecb2622da70fee1c343b93dc946eb855fd32c59b293c0765cb94a71e62aeff3",
                                    "0xff7c705149017ce467d05717eadb0a2718aedc7a1799ad153d05e8fc48be853e"
                                ]
                            },
                            {
                                "name": "s",
                                "type": "bytes32[]",
                                "value": [
                                    "0x0cc266abfa2ba924ffa7dab0cd8f7bb1a14891ec74dea53927c09296d1c6ac7c",
                                    "0x739fe72bab59a2eead1e36fdf71441e0407332c508165e460a2cde5418858e1b",
                                    "0x18303ee09818b0575ea4a5c2ed25b1e78523aa2b387a9c7c9c23b0d906ff9e07",
                                    "0x37da521031f0a65dd8466d4def41c44a69796f696965c42f9705447286c0ac9a",
                                    "0x5443cf63033ab211f205076622b2426b994ce3706c1ee2464a68ef168c7639bb",
                                    "0x725fa18d06acb4f6f8a5b143bca088d76f77d9531765dea6799b484373d0641b",
                                    "0x6b6ddbaaafc5f0580b670ad9d0913ca4c60df2753151a499117086aa725cf2c7"
                                ]
                            }
                        ],
                        "constructorArguments": "",
                        "name": "withdraw",
                        "returnParams": [],
                        "signature": "withdraw(address,string,bytes,address,address,bytes32[],uint256[],bytes,uint8[],bytes32[],bytes32[])"
                    },
                    "errorInfo": "",
                    "fromAddress": "0x1bf68a9d1eaee7826b3593c20a0ca93293cb489a",
                    "gasUsed": 132308,
                    "id": 1,
                    "methodDecoded": true,
                    "operation": "DELEGATECALL",
                    "output": "",
                    "revert": false,
                    "revertMessage": "",
                    "selector": "0x2ac5ab1b",
                    "status": true,
                    "value": "0"
                },
                "nodeType": 0
            },
            "10": {
                "invocation": {
                    "address": "0x0000000000000000000000000000000000000001",
                    "callData": "0xd9450793ff2e0e75391e0b3117f55bfdd6d377974e6797ffbf7b763d000000000000000000000000000000000000000000000000000000000000001bd4b7fd0617b28e1eeb018e1dbf924e662d1a0520cad96af2fcf496e16f4c58c637da521031f0a65dd8466d4def41c44a69796f696965c42f9705447286c0ac9a",
                    "decodedMethod": {
                        "callParams": [
                            {
                                "name": "hash",
                                "type": "bytes32",
                                "value": "0x8df324c6d9450793ff2e0e75391e0b3117f55bfdd6d377974e6797ffbf7b763d"
                            },
                            {
                                "name": "v",
                                "type": "uint256",
                                "value": "27"
                            },
                            {
                                "name": "r",
                                "type": "bytes32",
                                "value": "0xd4b7fd0617b28e1eeb018e1dbf924e662d1a0520cad96af2fcf496e16f4c58c6"
                            },
                            {
                                "name": "s",
                                "type": "bytes32",
                                "value": "0x37da521031f0a65dd8466d4def41c44a69796f696965c42f9705447286c0ac9a"
                            }
                        ],
                        "constructorArguments": "",
                        "name": "ecrecover",
                        "returnParams": [
                            {
                                "name": "",
                                "type": "address",
                                "value": "0x7f4b332611818ae13c76f9222e2229f274ded9bd"
                            }
                        ],
                        "signature": "ecrecover(bytes32,uint256,bytes32,bytes32)"
                    },
                    "errorInfo": "",
                    "fromAddress": "0x1bf68a9d1eaee7826b3593c20a0ca93293cb489a",
                    "gasUsed": 3000,
                    "id": 10,
                    "methodDecoded": true,
                    "operation": "STATICCALL",
                    "output": "0x0000000000000000000000007f4b332611818ae13c76f9222e2229f274ded9bd",
                    "revert": false,
                    "revertMessage": "",
                    "selector": "0x8df324c6",
                    "status": true,
                    "value": "0"
                },
                "nodeType": 0
            },
            "11": {
                "invocation": {
                    "address": "0x0000000000000000000000000000000000000001",
                    "callData": "0xd9450793ff2e0e75391e0b3117f55bfdd6d377974e6797ffbf7b763d000000000000000000000000000000000000000000000000000000000000001ce06c17f1a6630bfa47f0fe0cfba02f40f0901e2412713e4c7f46ae17a25dc92c5443cf63033ab211f205076622b2426b994ce3706c1ee2464a68ef168c7639bb",
                    "decodedMethod": {
                        "callParams": [
                            {
                                "name": "hash",
                                "type": "bytes32",
                                "value": "0x8df324c6d9450793ff2e0e75391e0b3117f55bfdd6d377974e6797ffbf7b763d"
                            },
                            {
                                "name": "v",
                                "type": "uint256",
                                "value": "28"
                            },
                            {
                                "name": "r",
                                "type": "bytes32",
                                "value": "0xe06c17f1a6630bfa47f0fe0cfba02f40f0901e2412713e4c7f46ae17a25dc92c"
                            },
                            {
                                "name": "s",
                                "type": "bytes32",
                                "value": "0x5443cf63033ab211f205076622b2426b994ce3706c1ee2464a68ef168c7639bb"
                            }
                        ],
                        "constructorArguments": "",
                        "name": "ecrecover",
                        "returnParams": [
                            {
                                "name": "",
                                "type": "address",
                                "value": "0x3924ac70075078a7713f543b72e3f8817ecec646"
                            }
                        ],
                        "signature": "ecrecover(bytes32,uint256,bytes32,bytes32)"
                    },
                    "errorInfo": "",
                    "fromAddress": "0x1bf68a9d1eaee7826b3593c20a0ca93293cb489a",
                    "gasUsed": 3000,
                    "id": 11,
                    "methodDecoded": true,
                    "operation": "STATICCALL",
                    "output": "0x0000000000000000000000003924ac70075078a7713f543b72e3f8817ecec646",
                    "revert": false,
                    "revertMessage": "",
                    "selector": "0x8df324c6",
                    "status": true,
                    "value": "0"
                },
                "nodeType": 0
            },
            "12": {
                "invocation": {
                    "address": "0x0000000000000000000000000000000000000001",
                    "callData": "0xd9450793ff2e0e75391e0b3117f55bfdd6d377974e6797ffbf7b763d000000000000000000000000000000000000000000000000000000000000001cdecb2622da70fee1c343b93dc946eb855fd32c59b293c0765cb94a71e62aeff3725fa18d06acb4f6f8a5b143bca088d76f77d9531765dea6799b484373d0641b",
                    "decodedMethod": {
                        "callParams": [
                            {
                                "name": "hash",
                                "type": "bytes32",
                                "value": "0x8df324c6d9450793ff2e0e75391e0b3117f55bfdd6d377974e6797ffbf7b763d"
                            },
                            {
                                "name": "v",
                                "type": "uint256",
                                "value": "28"
                            },
                            {
                                "name": "r",
                                "type": "bytes32",
                                "value": "0xdecb2622da70fee1c343b93dc946eb855fd32c59b293c0765cb94a71e62aeff3"
                            },
                            {
                                "name": "s",
                                "type": "bytes32",
                                "value": "0x725fa18d06acb4f6f8a5b143bca088d76f77d9531765dea6799b484373d0641b"
                            }
                        ],
                        "constructorArguments": "",
                        "name": "ecrecover",
                        "returnParams": [
                            {
                                "name": "",
                                "type": "address",
                                "value": "0x3b6590ff12ba188e465395e1610d8368613054b0"
                            }
                        ],
                        "signature": "ecrecover(bytes32,uint256,bytes32,bytes32)"
                    },
                    "errorInfo": "",
                    "fromAddress": "0x1bf68a9d1eaee7826b3593c20a0ca93293cb489a",
                    "gasUsed": 3000,
                    "id": 12,
                    "methodDecoded": true,
                    "operation": "STATICCALL",
                    "output": "0x0000000000000000000000003b6590ff12ba188e465395e1610d8368613054b0",
                    "revert": false,
                    "revertMessage": "",
                    "selector": "0x8df324c6",
                    "status": true,
                    "value": "0"
                },
                "nodeType": 0
            },
            "13": {
                "invocation": {
                    "address": "0x0000000000000000000000000000000000000001",
                    "callData": "0xd9450793ff2e0e75391e0b3117f55bfdd6d377974e6797ffbf7b763d000000000000000000000000000000000000000000000000000000000000001bff7c705149017ce467d05717eadb0a2718aedc7a1799ad153d05e8fc48be853e6b6ddbaaafc5f0580b670ad9d0913ca4c60df2753151a499117086aa725cf2c7",
                    "decodedMethod": {
                        "callParams": [
                            {
                                "name": "hash",
                                "type": "bytes32",
                                "value": "0x8df324c6d9450793ff2e0e75391e0b3117f55bfdd6d377974e6797ffbf7b763d"
                            },
                            {
                                "name": "v",
                                "type": "uint256",
                                "value": "27"
                            },
                            {
                                "name": "r",
                                "type": "bytes32",
                                "value": "0xff7c705149017ce467d05717eadb0a2718aedc7a1799ad153d05e8fc48be853e"
                            },
                            {
                                "name": "s",
                                "type": "bytes32",
                                "value": "0x6b6ddbaaafc5f0580b670ad9d0913ca4c60df2753151a499117086aa725cf2c7"
                            }
                        ],
                        "constructorArguments": "",
                        "name": "ecrecover",
                        "returnParams": [
                            {
                                "name": "",
                                "type": "address",
                                "value": "0x67c3c784c49d9ab8757adb71491df1a1b38fbfa8"
                            }
                        ],
                        "signature": "ecrecover(bytes32,uint256,bytes32,bytes32)"
                    },
                    "errorInfo": "",
                    "fromAddress": "0x1bf68a9d1eaee7826b3593c20a0ca93293cb489a",
                    "gasUsed": 3000,
                    "id": 13,
                    "methodDecoded": true,
                    "operation": "STATICCALL",
                    "output": "0x00000000000000000000000067c3c784c49d9ab8757adb71491df1a1b38fbfa8",
                    "revert": false,
                    "revertMessage": "",
                    "selector": "0x8df324c6",
                    "status": true,
                    "value": "0"
                },
                "nodeType": 0
            },
            "14": {
                "event": {
                    "contract": "0x1bf68a9d1eaee7826b3593c20a0ca93293cb489a",
                    "decodedLog": {
                        "name": "Withdraw",
                        "params": [
                            {
                                "name": "fromChain",
                                "type": "string",
                                "value": "ORBIT"
                            },
                            {
                                "name": "fromAddr",
                                "type": "bytes",
                                "value": "0x9263e7873613ddc598a701709875634819176aff"
                            },
                            {
                                "name": "toAddr",
                                "type": "bytes",
                                "value": "0x9ca536d01b9e78dd30de9d7457867f8898634049"
                            },
                            {
                                "name": "token",
                                "type": "bytes",
                                "value": "0x2260fac5e5542a773aa44fbcfedf7c193bc2c599"
                            },
                            {
                                "name": "bytes32s",
                                "type": "bytes32[]",
                                "value": [
                                    "0x50f408f4b0fb17bf4f5143de4bd95802410d00422f008e9deef06fb101a0f060",
                                    "0xf7f60c98b04d45c371bcccf6aa12ebcd844fca6b17e7cd77503d6159d60a1aaa"
                                ]
                            },
                            {
                                "name": "uints",
                                "type": "uint256[]",
                                "value": [
                                    "23,087,900,000",
                                    "8",
                                    "8,735"
                                ]
                            },
                            {
                                "name": "data",
                                "type": "bytes",
                                "value": "0x"
                            }
                        ],
                        "signature": "Withdraw(string,bytes,bytes,bytes,bytes32[],uint256[],bytes)"
                    },
                    "id": 14,
                    "logData": "0x00000000000000000000000000000000000000000000000000000000000000e00000000000000000000000000000000000000000000000000000000000000120000000000000000000000000000000000000000000000000000000000000016000000000000000000000000000000000000000000000000000000000000001a000000000000000000000000000000000000000000000000000000000000001e0000000000000000000000000000000000000000000000000000000000000024000000000000000000000000000000000000000000000000000000000000002c000000000000000000000000000000000000000000000000000000000000000054f5242495400000000000000000000000000000000000000000000000000000000000000000000000000000000000000000000000000000000000000000000149263e7873613ddc598a701709875634819176aff00000000000000000000000000000000000000000000000000000000000000000000000000000000000000149ca536d01b9e78dd30de9d7457867f889863404900000000000000000000000000000000000000000000000000000000000000000000000000000000000000142260fac5e5542a773aa44fbcfedf7c193bc2c599000000000000000000000000000000000000000000000000000000000000000000000000000000000000000250f408f4b0fb17bf4f5143de4bd95802410d00422f008e9deef06fb101a0f060f7f60c98b04d45c371bcccf6aa12ebcd844fca6b17e7cd77503d6159d60a1aaa000000000000000000000000000000000000000000000000000000000000000300000000000000000000000000000000000000000000000000000005602565600000000000000000000000000000000000000000000000000000000000000008000000000000000000000000000000000000000000000000000000000000221f0000000000000000000000000000000000000000000000000000000000000000",
                    "logDecoded": true,
                    "operation": "EVENT",
                    "revert": false,
                    "status": true,
                    "topics": [
                        "0xa866edf1861d39a9973d7892f3869e1bb4b76bc00d216872c1dd2bc547f2da2e"
                    ]
                },
                "nodeType": 1
            },
            "15": {
                "invocation": {
                    "address": "0x2260fac5e5542a773aa44fbcfedf7c193bc2c599",
                    "callData": "0x0000000000000000000000001bf68a9d1eaee7826b3593c20a0ca93293cb489a",
                    "decodedMethod": {
                        "callParams": [
                            {
                                "name": "_owner",
                                "type": "address",
                                "value": "0x1bf68a9d1eaee7826b3593c20a0ca93293cb489a"
                            }
                        ],
                        "constructorArguments": "",
                        "name": "balanceOf",
                        "returnParams": [
                            {
                                "decimalAvailable": true,
                                "name": "",
                                "type": "uint256",
                                "value": "28,760,310,355"
                            }
                        ],
                        "signature": "balanceOf(address)"
                    },
                    "errorInfo": "",
                    "fromAddress": "0x1bf68a9d1eaee7826b3593c20a0ca93293cb489a",
                    "gasUsed": 2795,
                    "id": 15,
                    "methodDecoded": true,
                    "operation": "STATICCALL",
                    "output": "0x00000000000000000000000000000000000000000000000000000006b23f8253",
                    "revert": false,
                    "revertMessage": "",
                    "selector": "0x70a08231",
                    "status": true,
                    "value": "0"
                },
                "nodeType": 0
            },
            "16": {
                "invocation": {
                    "address": "0x2260fac5e5542a773aa44fbcfedf7c193bc2c599",
                    "callData": "0x0000000000000000000000009ca536d01b9e78dd30de9d7457867f88986340490000000000000000000000000000000000000000000000000000000560256560",
                    "decodedMethod": {
                        "callParams": [
                            {
                                "name": "_to",
                                "type": "address",
                                "value": "0x9ca536d01b9e78dd30de9d7457867f8898634049"
                            },
                            {
                                "decimalAvailable": true,
                                "name": "_value",
                                "type": "uint256",
                                "value": "23,087,900,000"
                            }
                        ],
                        "constructorArguments": "",
                        "name": "transfer",
                        "returnParams": [
                            {
                                "name": "",
                                "type": "bool",
                                "value": true
                            }
                        ],
                        "signature": "transfer(address,uint256)"
                    },
                    "errorInfo": "",
                    "fromAddress": "0x1bf68a9d1eaee7826b3593c20a0ca93293cb489a",
                    "gasUsed": 13703,
                    "id": 16,
                    "methodDecoded": true,
                    "operation": "CALL",
                    "output": "0x0000000000000000000000000000000000000000000000000000000000000001",
                    "revert": false,
                    "revertMessage": "",
                    "selector": "0xa9059cbb",
                    "status": true,
                    "value": "0"
                },
                "nodeType": 0
            },
            "17": {
                "event": {
                    "contract": "0x2260fac5e5542a773aa44fbcfedf7c193bc2c599",
                    "decodedLog": {
                        "name": "Transfer",
                        "params": [
                            {
                                "name": "from",
                                "type": "address",
                                "value": "0x1bf68a9d1eaee7826b3593c20a0ca93293cb489a"
                            },
                            {
                                "name": "to",
                                "type": "address",
                                "value": "0x9ca536d01b9e78dd30de9d7457867f8898634049"
                            },
                            {
                                "decimalAvailable": true,
                                "name": "value",
                                "type": "uint256",
                                "value": "23,087,900,000"
                            }
                        ],
                        "signature": "Transfer(address,address,uint256)"
                    },
                    "id": 17,
                    "logData": "0x0000000000000000000000000000000000000000000000000000000560256560",
                    "logDecoded": true,
                    "operation": "EVENT",
                    "revert": false,
                    "status": true,
                    "topics": [
                        "0xddf252ad1be2c89b69c2b068fc378daa952ba7f163c4a11628f55a4df523b3ef",
                        "0x0000000000000000000000001bf68a9d1eaee7826b3593c20a0ca93293cb489a",
                        "0x0000000000000000000000009ca536d01b9e78dd30de9d7457867f8898634049"
                    ]
                },
                "nodeType": 1
            },
            "2": {
                "invocation": {
                    "address": "0x0000000000000000000000000000000000000002",
                    "callData": "0x1eaee7826b3593c20a0ca93293cb489a4f52424954",
                    "decodedMethod": {
                        "callParams": [
                            {
                                "name": "data",
                                "type": "bytes",
                                "value": "0x1bf68a9d1eaee7826b3593c20a0ca93293cb489a4f52424954"
                            }
                        ],
                        "constructorArguments": "",
                        "name": "sha256hash",
                        "returnParams": [
                            {
                                "name": "hash",
                                "type": "bytes32",
                                "value": "0xb18557931ff79edd3f4f9f4679b4538562f57b62aadb370d1b78a81df9dd56bb"
                            }
                        ],
                        "signature": "sha256hash(bytes)"
                    },
                    "errorInfo": "",
                    "fromAddress": "0x1bf68a9d1eaee7826b3593c20a0ca93293cb489a",
                    "gasUsed": 72,
                    "id": 2,
                    "methodDecoded": true,
                    "operation": "STATICCALL",
                    "output": "0xb18557931ff79edd3f4f9f4679b4538562f57b62aadb370d1b78a81df9dd56bb",
                    "revert": false,
                    "revertMessage": "",
                    "selector": "0x1bf68a9d",
                    "status": true,
                    "value": "0"
                },
                "nodeType": 0
            },
            "3": {
                "invocation": {
                    "address": "0x0000000000000000000000000000000000000002",
                    "callData": "0x1eaee7826b3593c20a0ca93293cb489a4f52424954",
                    "decodedMethod": {
                        "callParams": [
                            {
                                "name": "data",
                                "type": "bytes",
                                "value": "0x1bf68a9d1eaee7826b3593c20a0ca93293cb489a4f52424954"
                            }
                        ],
                        "constructorArguments": "",
                        "name": "sha256hash",
                        "returnParams": [
                            {
                                "name": "hash",
                                "type": "bytes32",
                                "value": "0xb18557931ff79edd3f4f9f4679b4538562f57b62aadb370d1b78a81df9dd56bb"
                            }
                        ],
                        "signature": "sha256hash(bytes)"
                    },
                    "errorInfo": "",
                    "fromAddress": "0x1bf68a9d1eaee7826b3593c20a0ca93293cb489a",
                    "gasUsed": 72,
                    "id": 3,
                    "methodDecoded": true,
                    "operation": "STATICCALL",
                    "output": "0xb18557931ff79edd3f4f9f4679b4538562f57b62aadb370d1b78a81df9dd56bb",
                    "revert": false,
                    "revertMessage": "",
                    "selector": "0x1bf68a9d",
                    "status": true,
                    "value": "0"
                },
                "nodeType": 0
            },
            "4": {
                "invocation": {
                    "address": "0x0000000000000000000000000000000000000002",
                    "callData": "0xd627c52de992e3ea52a86f19da4753994554481bf68a9d1eaee7826b3593c20a0ca93293cb489a",
                    "decodedMethod": {
                        "callParams": [
                            {
                                "name": "data",
                                "type": "bytes",
                                "value": "0xb5680a55d627c52de992e3ea52a86f19da4753994554481bf68a9d1eaee7826b3593c20a0ca93293cb489a"
                            }
                        ],
                        "constructorArguments": "",
                        "name": "sha256hash",
                        "returnParams": [
                            {
                                "name": "hash",
                                "type": "bytes32",
                                "value": "0x50f408f4b0fb17bf4f5143de4bd95802410d00422f008e9deef06fb101a0f060"
                            }
                        ],
                        "signature": "sha256hash(bytes)"
                    },
                    "errorInfo": "",
                    "fromAddress": "0x1bf68a9d1eaee7826b3593c20a0ca93293cb489a",
                    "gasUsed": 84,
                    "id": 4,
                    "methodDecoded": true,
                    "operation": "STATICCALL",
                    "output": "0x50f408f4b0fb17bf4f5143de4bd95802410d00422f008e9deef06fb101a0f060",
                    "revert": false,
                    "revertMessage": "",
                    "selector": "0xb5680a55",
                    "status": true,
                    "value": "0"
                },
                "nodeType": 0
            },
            "5": {
                "invocation": {
                    "address": "0x0000000000000000000000000000000000000002",
                    "callData": "0x1eaee7826b3593c20a0ca93293cb489a4f52424954",
                    "decodedMethod": {
                        "callParams": [
                            {
                                "name": "data",
                                "type": "bytes",
                                "value": "0x1bf68a9d1eaee7826b3593c20a0ca93293cb489a4f52424954"
                            }
                        ],
                        "constructorArguments": "",
                        "name": "sha256hash",
                        "returnParams": [
                            {
                                "name": "hash",
                                "type": "bytes32",
                                "value": "0xb18557931ff79edd3f4f9f4679b4538562f57b62aadb370d1b78a81df9dd56bb"
                            }
                        ],
                        "signature": "sha256hash(bytes)"
                    },
                    "errorInfo": "",
                    "fromAddress": "0x1bf68a9d1eaee7826b3593c20a0ca93293cb489a",
                    "gasUsed": 72,
                    "id": 5,
                    "methodDecoded": true,
                    "operation": "STATICCALL",
                    "output": "0xb18557931ff79edd3f4f9f4679b4538562f57b62aadb370d1b78a81df9dd56bb",
                    "revert": false,
                    "revertMessage": "",
                    "selector": "0x1bf68a9d",
                    "status": true,
                    "value": "0"
                },
                "nodeType": 0
            },
            "6": {
                "invocation": {
                    "address": "0x0000000000000000000000000000000000000002",
                    "callData": "0xd627c52de992e3ea52a86f19da4753994f524249544554489263e7873613ddc598a701709875634819176aff9ca536d01b9e78dd30de9d7457867f88986340492260fac5e5542a773aa44fbcfedf7c193bc2c59950f408f4b0fb17bf4f5143de4bd95802410d00422f008e9deef06fb101a0f060f7f60c98b04d45c371bcccf6aa12ebcd844fca6b17e7cd77503d6159d60a1aaa00000000000000000000000000000000000000000000000000000005602565600000000000000000000000000000000000000000000000000000000000000008000000000000000000000000000000000000000000000000000000000000221f",
                    "decodedMethod": {
                        "callParams": [
                            {
                                "name": "data",
                                "type": "bytes",
                                "value": "0xb5680a55d627c52de992e3ea52a86f19da4753994f524249544554489263e7873613ddc598a701709875634819176aff9ca536d01b9e78dd30de9d7457867f88986340492260fac5e5542a773aa44fbcfedf7c193bc2c59950f408f4b0fb17bf4f5143de4bd95802410d00422f008e9deef06fb101a0f060f7f60c98b04d45c371bcccf6aa12ebcd844fca6b17e7cd77503d6159d60a1aaa00000000000000000000000000000000000000000000000000000005602565600000000000000000000000000000000000000000000000000000000000000008000000000000000000000000000000000000000000000000000000000000221f"
                            }
                        ],
                        "constructorArguments": "",
                        "name": "sha256hash",
                        "returnParams": [
                            {
                                "name": "hash",
                                "type": "bytes32",
                                "value": "0x8df324c6d9450793ff2e0e75391e0b3117f55bfdd6d377974e6797ffbf7b763d"
                            }
                        ],
                        "signature": "sha256hash(bytes)"
                    },
                    "errorInfo": "",
                    "fromAddress": "0x1bf68a9d1eaee7826b3593c20a0ca93293cb489a",
                    "gasUsed": 156,
                    "id": 6,
                    "methodDecoded": true,
                    "operation": "STATICCALL",
                    "output": "0x8df324c6d9450793ff2e0e75391e0b3117f55bfdd6d377974e6797ffbf7b763d",
                    "revert": false,
                    "revertMessage": "",
                    "selector": "0xb5680a55",
                    "status": true,
                    "value": "0"
                },
                "nodeType": 0
            },
            "7": {
                "invocation": {
                    "address": "0x0000000000000000000000000000000000000001",
                    "callData": "0xd9450793ff2e0e75391e0b3117f55bfdd6d377974e6797ffbf7b763d000000000000000000000000000000000000000000000000000000000000001b3ef06a27b3565a82b6d72af184ca3d787e3dd8fc0bd56bb0e7dce2faf920257d0cc266abfa2ba924ffa7dab0cd8f7bb1a14891ec74dea53927c09296d1c6ac7c",
                    "decodedMethod": {
                        "callParams": [
                            {
                                "name": "hash",
                                "type": "bytes32",
                                "value": "0x8df324c6d9450793ff2e0e75391e0b3117f55bfdd6d377974e6797ffbf7b763d"
                            },
                            {
                                "name": "v",
                                "type": "uint256",
                                "value": "27"
                            },
                            {
                                "name": "r",
                                "type": "bytes32",
                                "value": "0x3ef06a27b3565a82b6d72af184ca3d787e3dd8fc0bd56bb0e7dce2faf920257d"
                            },
                            {
                                "name": "s",
                                "type": "bytes32",
                                "value": "0x0cc266abfa2ba924ffa7dab0cd8f7bb1a14891ec74dea53927c09296d1c6ac7c"
                            }
                        ],
                        "constructorArguments": "",
                        "name": "ecrecover",
                        "returnParams": [
                            {
                                "name": "",
                                "type": "address",
                                "value": "0xa6dc28cbcb2f8060a00b4fa67f9b67775ac5a3a1"
                            }
                        ],
                        "signature": "ecrecover(bytes32,uint256,bytes32,bytes32)"
                    },
                    "errorInfo": "",
                    "fromAddress": "0x1bf68a9d1eaee7826b3593c20a0ca93293cb489a",
                    "gasUsed": 3000,
                    "id": 7,
                    "methodDecoded": true,
                    "operation": "STATICCALL",
                    "output": "0x000000000000000000000000a6dc28cbcb2f8060a00b4fa67f9b67775ac5a3a1",
                    "revert": false,
                    "revertMessage": "",
                    "selector": "0x8df324c6",
                    "status": true,
                    "value": "0"
                },
                "nodeType": 0
            },
            "8": {
                "invocation": {
                    "address": "0x0000000000000000000000000000000000000001",
                    "callData": "0xd9450793ff2e0e75391e0b3117f55bfdd6d377974e6797ffbf7b763d000000000000000000000000000000000000000000000000000000000000001cf1d81597f32c9376e90d22b9a1f121f1a99a1c191f8e930ed0de6df7b759a154739fe72bab59a2eead1e36fdf71441e0407332c508165e460a2cde5418858e1b",
                    "decodedMethod": {
                        "callParams": [
                            {
                                "name": "hash",
                                "type": "bytes32",
                                "value": "0x8df324c6d9450793ff2e0e75391e0b3117f55bfdd6d377974e6797ffbf7b763d"
                            },
                            {
                                "name": "v",
                                "type": "uint256",
                                "value": "28"
                            },
                            {
                                "name": "r",
                                "type": "bytes32",
                                "value": "0xf1d81597f32c9376e90d22b9a1f121f1a99a1c191f8e930ed0de6df7b759a154"
                            },
                            {
                                "name": "s",
                                "type": "bytes32",
                                "value": "0x739fe72bab59a2eead1e36fdf71441e0407332c508165e460a2cde5418858e1b"
                            }
                        ],
                        "constructorArguments": "",
                        "name": "ecrecover",
                        "returnParams": [
                            {
                                "name": "",
                                "type": "address",
                                "value": "0x8a3f117ef3b40f1661dedf7f28fc33e7b6fae4f8"
                            }
                        ],
                        "signature": "ecrecover(bytes32,uint256,bytes32,bytes32)"
                    },
                    "errorInfo": "",
                    "fromAddress": "0x1bf68a9d1eaee7826b3593c20a0ca93293cb489a",
                    "gasUsed": 3000,
                    "id": 8,
                    "methodDecoded": true,
                    "operation": "STATICCALL",
                    "output": "0x0000000000000000000000008a3f117ef3b40f1661dedf7f28fc33e7b6fae4f8",
                    "revert": false,
                    "revertMessage": "",
                    "selector": "0x8df324c6",
                    "status": true,
                    "value": "0"
                },
                "nodeType": 0
            },
            "9": {
                "invocation": {
                    "address": "0x0000000000000000000000000000000000000001",
                    "callData": "0xd9450793ff2e0e75391e0b3117f55bfdd6d377974e6797ffbf7b763d000000000000000000000000000000000000000000000000000000000000001c3b7169e2ee2b73dcfbabae1400b811b95616cb5dc547b8b7b7c6aeb37b5b906b18303ee09818b0575ea4a5c2ed25b1e78523aa2b387a9c7c9c23b0d906ff9e07",
                    "decodedMethod": {
                        "callParams": [
                            {
                                "name": "hash",
                                "type": "bytes32",
                                "value": "0x8df324c6d9450793ff2e0e75391e0b3117f55bfdd6d377974e6797ffbf7b763d"
                            },
                            {
                                "name": "v",
                                "type": "uint256",
                                "value": "28"
                            },
                            {
                                "name": "r",
                                "type": "bytes32",
                                "value": "0x3b7169e2ee2b73dcfbabae1400b811b95616cb5dc547b8b7b7c6aeb37b5b906b"
                            },
                            {
                                "name": "s",
                                "type": "bytes32",
                                "value": "0x18303ee09818b0575ea4a5c2ed25b1e78523aa2b387a9c7c9c23b0d906ff9e07"
                            }
                        ],
                        "constructorArguments": "",
                        "name": "ecrecover",
                        "returnParams": [
                            {
                                "name": "",
                                "type": "address",
                                "value": "0x1c0cd56f1c3e2cf13b9b44dbe5529104bade543e"
                            }
                        ],
                        "signature": "ecrecover(bytes32,uint256,bytes32,bytes32)"
                    },
                    "errorInfo": "",
                    "fromAddress": "0x1bf68a9d1eaee7826b3593c20a0ca93293cb489a",
                    "gasUsed": 3000,
                    "id": 9,
                    "methodDecoded": true,
                    "operation": "STATICCALL",
                    "output": "0x0000000000000000000000001c0cd56f1c3e2cf13b9b44dbe5529104bade543e",
                    "revert": false,
                    "revertMessage": "",
                    "selector": "0x8df324c6",
                    "status": true,
                    "value": "0"
                },
                "nodeType": 0
            }
        },
        "gasFlame": [
            {
                "children": [
                    {
                        "children": [
                            {
                                "children": [],
                                "depth": 0,
                                "name": "Initial Gas",
                                "value": 34664
                            },
                            {
                                "children": [
                                    {
                                        "children": [
                                            {
                                                "children": [],
                                                "depth": 2,
                                                "name": "sha256hash",
                                                "value": 72
                                            },
                                            {
                                                "children": [],
                                                "depth": 2,
                                                "name": "sha256hash",
                                                "value": 72
                                            },
                                            {
                                                "children": [],
                                                "depth": 2,
                                                "name": "sha256hash",
                                                "value": 84
                                            },
                                            {
                                                "children": [],
                                                "depth": 2,
                                                "name": "sha256hash",
                                                "value": 72
                                            },
                                            {
                                                "children": [],
                                                "depth": 2,
                                                "name": "sha256hash",
                                                "value": 156
                                            },
                                            {
                                                "children": [],
                                                "depth": 2,
                                                "name": "ecrecover",
                                                "value": 3000
                                            },
                                            {
                                                "children": [],
                                                "depth": 2,
                                                "name": "ecrecover",
                                                "value": 3000
                                            },
                                            {
                                                "children": [],
                                                "depth": 2,
                                                "name": "ecrecover",
                                                "value": 3000
                                            },
                                            {
                                                "children": [],
                                                "depth": 2,
                                                "name": "ecrecover",
                                                "value": 3000
                                            },
                                            {
                                                "children": [],
                                                "depth": 2,
                                                "name": "ecrecover",
                                                "value": 3000
                                            },
                                            {
                                                "children": [],
                                                "depth": 2,
                                                "name": "ecrecover",
                                                "value": 3000
                                            },
                                            {
                                                "children": [],
                                                "depth": 2,
                                                "name": "ecrecover",
                                                "value": 3000
                                            },
                                            {
                                                "children": [],
                                                "depth": 2,
                                                "name": "balanceOf",
                                                "value": 2795
                                            },
                                            {
                                                "children": [],
                                                "depth": 2,
                                                "name": "transfer",
                                                "value": 13703
                                            }
                                        ],
                                        "depth": 1,
                                        "name": "withdraw",
                                        "value": 132308
                                    }
                                ],
                                "depth": 0,
                                "name": "Executed Gas",
                                "value": 138255
                            }
                        ],
                        "depth": -1,
                        "name": "Actual Gas Used",
                        "value": 172919
                    },
                    {
                        "children": [],
                        "depth": -1,
                        "name": "Refunded Gas",
                        "value": 0
                    }
                ],
                "depth": -2,
                "name": "Total Gas",
                "value": 172919
            }
        ],
        "isConfirmed": true,
        "mainTrace": [
            {
                "children": [
                    {
                        "children": [
                            {
                                "children": [
                                    {
                                        "children": [],
                                        "depth": 2,
                                        "id": 2,
                                        "order": 2
                                    },
                                    {
                                        "children": [],
                                        "depth": 2,
                                        "id": 3,
                                        "order": 3
                                    },
                                    {
                                        "children": [],
                                        "depth": 2,
                                        "id": 4,
                                        "order": 4
                                    },
                                    {
                                        "children": [],
                                        "depth": 2,
                                        "id": 5,
                                        "order": 5
                                    },
                                    {
                                        "children": [],
                                        "depth": 2,
                                        "id": 6,
                                        "order": 6
                                    },
                                    {
                                        "children": [],
                                        "depth": 2,
                                        "id": 7,
                                        "order": 7
                                    },
                                    {
                                        "children": [],
                                        "depth": 2,
                                        "id": 8,
                                        "order": 8
                                    },
                                    {
                                        "children": [],
                                        "depth": 2,
                                        "id": 9,
                                        "order": 9
                                    },
                                    {
                                        "children": [],
                                        "depth": 2,
                                        "id": 10,
                                        "order": 10
                                    },
                                    {
                                        "children": [],
                                        "depth": 2,
                                        "id": 11,
                                        "order": 11
                                    },
                                    {
                                        "children": [],
                                        "depth": 2,
                                        "id": 12,
                                        "order": 12
                                    },
                                    {
                                        "children": [],
                                        "depth": 2,
                                        "id": 13,
                                        "order": 13
                                    },
                                    {
                                        "children": [],
                                        "depth": 2,
                                        "id": 14,
                                        "order": 14
                                    },
                                    {
                                        "children": [],
                                        "depth": 2,
                                        "id": 15,
                                        "order": 15
                                    },
                                    {
                                        "children": [
                                            {
                                                "children": [],
                                                "depth": 3,
                                                "id": 17,
                                                "order": 17
                                            }
                                        ],
                                        "depth": 2,
                                        "id": 16,
                                        "order": 16
                                    }
                                ],
                                "depth": 1,
                                "id": 1,
                                "order": 1
                            }
                        ],
                        "depth": 0,
                        "id": 0,
                        "order": 0
                    }
                ],
                "depth": -1,
                "id": -1,
                "order": -1
            }
        ],
        "mainTraceNodeCount": 18,
        "parentIdMap": {
            "0": -1,
            "1": 0,
            "10": 1,
            "11": 1,
            "12": 1,
            "13": 1,
            "14": 1,
            "15": 1,
            "16": 1,
            "17": 16,
            "2": 1,
            "3": 1,
            "4": 1,
            "5": 1,
            "6": 1,
            "7": 1,
            "8": 1,
            "9": 1
        },
        "tidyTrace": [
            {
                "children": [
                    {
                        "children": [
                            {
                                "children": [
                                    {
                                        "children": [],
                                        "depth": 2,
                                        "id": 14,
                                        "order": 14
                                    },
                                    {
                                        "children": [
                                            {
                                                "children": [],
                                                "depth": 3,
                                                "id": 17,
                                                "order": 17
                                            }
                                        ],
                                        "depth": 2,
                                        "id": 16,
                                        "order": 16
                                    }
                                ],
                                "depth": 1,
                                "id": 1,
                                "order": 1
                            }
                        ],
                        "depth": 0,
                        "id": 0,
                        "order": 0
                    }
                ],
                "depth": -1,
                "id": -1,
                "order": -1
            }
        ],
        "tidyTraceNodeCount": 5
    },
    "state_change": {
        "stateChanges": [
            {
                "address": "0x1bf68a9d1eaee7826b3593c20a0ca93293cb489a",
                "erc": "",
                "slots": [
                    {
                        "current": "0x0000000000000000000000000000000000000000000000000000000000000001",
                        "key": "0xcefb184f3ae3d818b4a9906bbb0c8c5ec042694476dfdbcce9be7cf21e4625de",
                        "prev": "0x0000000000000000000000000000000000000000000000000000000000000000"
                    }
                ],
                "storageVariables": [
                    {
                        "name": "isUsedWithdrawal",
                        "type": "mapping(bytes32 => bool)",
                        "value": {
                            "pairs": [
                                {
                                    "key": "0x8df324c6d9450793ff2e0e75391e0b3117f55bfdd6d377974e6797ffbf7b763d",
                                    "value": {
                                        "current": "true",
                                        "prev": "false",
                                        "typeTag": 1
                                    }
                                }
                            ],
                            "typeTag": 4
                        }
                    }
                ]
            },
            {
                "address": "0x2260fac5e5542a773aa44fbcfedf7c193bc2c599",
                "erc": "ERC-20",
                "slots": [
                    {
                        "current": "0x00000000000000000000000000000000000000000000000000000001521a1cf3",
                        "key": "0xa0bbaafc831a29fc05ab0d59f55cc902786a1f97d1af8abacd98807f17e6f558",
                        "prev": "0x00000000000000000000000000000000000000000000000000000006b23f8253"
                    },
                    {
                        "current": "0x000000000000000000000000000000000000000000000000000000056037d736",
                        "key": "0x38df0fcd2c0a0df108cfe8a6ae4850ca1cdfd082e4b6cb9f9fdf3e7a2fa0f8b5",
                        "prev": "0x00000000000000000000000000000000000000000000000000000000001271d6"
                    }
                ],
                "storageVariables": [
                    {
                        "name": "balances",
                        "type": "mapping(address => uint256)",
                        "value": {
                            "pairs": [
                                {
                                    "key": "0x1bf68a9d1eaee7826b3593c20a0ca93293cb489a",
                                    "value": {
                                        "current": "5672410355",
                                        "prev": "28760310355",
                                        "typeTag": 1
                                    }
                                },
                                {
                                    "key": "0x9ca536d01b9e78dd30de9d7457867f8898634049",
                                    "value": {
                                        "current": "23089108790",
                                        "prev": "1208790",
                                        "typeTag": 1
                                    }
                                }
                            ],
                            "typeTag": 4
                        }
                    }
                ]
            }
        ]
    }
}