{
    "balance_change": {
        "balanceChanges": [
            {
                "account": "0x0cfc28d16d07219249c6d6d6ae24e7132ee4caa7",
                "assets": [
                    {
                        "address": "0xeeeeeeeeeeeeeeeeeeeeeeeeeeeeeeeeeeeeeeee",
                        "amount": "0.15",
                        "iconUrl": "https://assets.blocksec.com/image/1663669189317-3.png",
                        "isERC1155": false,
                        "isERC721": false,
                        "sign": false,
                        "value": "488.80050000000001093"
                    }
                ]
            },
            {
                "account": "0x579ed0e3996e192fcd64d85daef7f985566dde3e",
                "assets": [
                    {
                        "address": "0xeeeeeeeeeeeeeeeeeeeeeeeeeeeeeeeeeeeeeeee",
                        "amount": "0.15",
                        "iconUrl": "https://assets.blocksec.com/image/1663669189317-3.png",
                        "isERC1155": false,
                        "isERC721": false,
                        "sign": true,
                        "value": "488.80050000000001093"
                    }
                ]
            }
        ]
    },
    "profile": {
        "basic_info": {
            "baseFee": "10.280835986",
            "blockNumber": 19723701,
            "callData": "0xf340fa0100000000000000000000000019ae49b9f38dd836317363839a5f6bfbfa7e319a",
            "debugEnable": true,
            "errorInfo": "",
            "eventCount": 1,
            "feeRecipient": "0x95222290dd7278aa3ddd389cc1e1d165cc4bafe5",
            "formatValue": "0.15",
            "gasLimit": 188039,
            "gasPrice": "10.300835986",
            "gasUsed": 177155,
            "intTxnCount": 4,
            "internalRevert": false,
            "internalRevertMessage": "",
            "isContractCreation": false,
            "isFlashloan": false,
            "maxFee": "15",
            "nonce": 2,
            "overwritedBlockNumber": -1,
            "priorityFee": "0.02",
            "receiver": "0x899266243fd2b9a0426b58bd6d534c6b813ef27a",
            "revertMessage": "",
            "sender": "0x0cfc28d16d07219249c6d6d6ae24e7132ee4caa7",
            "simulationEnable": true,
            "sourceTxnHash": "0xe09d350d8574ac1728ab5797e3aa46841f6c97239940db010943f23ad4acf7ae",
            "status": true,
            "timestamp": "2024-04-24T07:18:35Z",
            "transactionFee": "0.00182484459909983",
            "txnHash": "0xe09d350d8574ac1728ab5797e3aa46841f6c97239940db010943f23ad4acf7ae",
            "txnIndex": 128,
            "type": 2,
            "value": "150000000000000000"
        },
        "fund_flow": [
            {
                "amount": "0.15",
                "from": "0x0cfc28d16d07219249c6d6d6ae24e7132ee4caa7",
                "id": 1,
                "isERC1155": false,
                "isERC721": false,
                "isReverted": false,
                "order": 1,
                "to": "0x899266243fd2b9a0426b58bd6d534c6b813ef27a",
                "token": "0xeeeeeeeeeeeeeeeeeeeeeeeeeeeeeeeeeeeeeeee"
            },
            {
                "amount": "0.15",
                "from": "0x899266243fd2b9a0426b58bd6d534c6b813ef27a",
                "id": 2,
                "isERC1155": false,
                "isERC721": false,
                "isReverted": false,
                "order": 2,
                "to": "0x47ddb6a433b76117a98fbeab5320d8b67d468e31",
                "token": "0xeeeeeeeeeeeeeeeeeeeeeeeeeeeeeeeeeeeeeeee"
            },
            {
                "amount": "0.15",
                "from": "0x47ddb6a433b76117a98fbeab5320d8b67d468e31",
                "id": 3,
                "isERC1155": false,
                "isERC721": false,
                "isReverted": false,
                "order": 3,
                "to": "0x579ed0e3996e192fcd64d85daef7f985566dde3e",
                "token": "0xeeeeeeeeeeeeeeeeeeeeeeeeeeeeeeeeeeeeeeee"
            }
        ],
        "token_infos": [
            {
                "address": "0xc02aaa39b223fe8d0a0e5c4f27ead9083c756cc2",
                "decimals": 18
            },
            {
                "address": "0xeeeeeeeeeeeeeeeeeeeeeeeeeeeeeeeeeeeeeeee",
                "decimals": 18
            }
        ]
    },
    "address_label": {
        "labels": [
            {
                "address": "0x0cfc28d16d07219249c6d6d6ae24e7132ee4caa7",
                "label": "SaitaChain Exploiter"
            },
            {
                "address": "0x19ae49b9f38dd836317363839a5f6bfbfa7e319a",
                "label": "Saitachain: STC Token"
            },
            {
                "address": "0x47ddb6a433b76117a98fbeab5320d8b67d468e31",
                "label": "OwnedUpgradeabilityXBridgeProxy"
            },
            {
                "address": "0x0000000000000000000000000000000000000001",
                "label": "Precompiled"
            },
            {
                "address": "0x0000000000000000000000000000000000000002",
                "label": "Precompiled"
            },
            {
                "address": "0x0000000000000000000000000000000000000003",
                "label": "Precompiled"
            },
            {
                "address": "0x0000000000000000000000000000000000000004",
                "label": "Precompiled"
            },
            {
                "address": "0xeeeeeeeeeeeeeeeeeeeeeeeeeeeeeeeeeeeeeeee",
                "label": "Ether"
            },
            {
                "address": "0x354cca2f55dde182d36fe34d673430e226a3cb8c",
                "label": "XBridge"
            }
        ]
    },
    "trace": {
        "accountLabels": null,
        "dataMap": {
            "-1": {
                "invocation": {
                    "address": "0x0cfc28d16d07219249c6d6d6ae24e7132ee4caa7",
                    "callData": "",
                    "decodedMethod": null,
                    "errorInfo": "",
                    "fromAddress": "",
                    "gasUsed": 0,
                    "id": -1,
                    "methodDecoded": false,
                    "operation": "",
                    "output": "",
                    "revert": false,
                    "revertMessage": "",
                    "selector": "",
                    "status": false,
                    "value": ""
                },
                "nodeType": 0
            },
            "0": {
                "invocation": {
                    "address": "0x899266243fd2b9a0426b58bd6d534c6b813ef27a",
                    "callData": "0x00000000000000000000000019ae49b9f38dd836317363839a5f6bfbfa7e319a",
                    "decodedMethod": {
                        "callParams": [
                            {
                                "name": "_referer",
                                "type": "address",
                                "value": "0x19ae49b9f38dd836317363839a5f6bfbfa7e319a"
                            }
                        ],
                        "constructorArguments": "",
                        "name": "deposit",
                        "returnParams": [],
                        "signature": "deposit(address)"
                    },
                    "errorInfo": "",
                    "fromAddress": "0x0cfc28d16d07219249c6d6d6ae24e7132ee4caa7",
                    "gasUsed": 177155,
                    "id": 0,
                    "methodDecoded": true,
                    "operation": "CALL",
                    "output": "",
                    "revert": false,
                    "revertMessage": "",
                    "selector": "0xf340fa01",
                    "status": true,
                    "value": "0.15"
                },
                "nodeType": 0
            },
            "1": {
                "invocation": {
                    "address": "0x445d2656e557e19800b2a3b9be547db56ed3c8d4",
                    "callData": "0x00000000000000000000000019ae49b9f38dd836317363839a5f6bfbfa7e319a",
                    "decodedMethod": {
                        "callParams": [
                            {
                                "name": "_referer",
                                "type": "address",
                                "value": "0x19ae49b9f38dd836317363839a5f6bfbfa7e319a"
                            }
                        ],
                        "constructorArguments": "",
                        "name": "deposit",
                        "returnParams": [],
                        "signature": "deposit(address)"
                    },
                    "errorInfo": "",
                    "fromAddress": "0x899266243fd2b9a0426b58bd6d534c6b813ef27a",
                    "gasUsed": 153466,
                    "id": 1,
                    "methodDecoded": true,
                    "operation": "DELEGATECALL",
                    "output": "",
                    "revert": false,
                    "revertMessage": "",
                    "selector": "0xf340fa01",
                    "status": true,
                    "value": "0.15"
                },
                "nodeType": 0
            },
            "2": {
                "invocation": {
                    "address": "0x47ddb6a433b76117a98fbeab5320d8b67d468e31",
                    "callData": "0x00000000000000000000000019ae49b9f38dd836317363839a5f6bfbfa7e319a0000000000000000000000000000000000000000000000000000000000014fb000000000000000000000000019ae49b9f38dd836317363839a5f6bfbfa7e319a000000000000000000000000000000000000000000000000000000000001765e0000000000000000000000000000000000000000000000000000000000000000",
                    "decodedMethod": {
                        "callParams": [
                            {
                                "name": "baseToken",
                                "type": "(address,uint256)",
                                "value": [
                                    {
                                        "name": "token",
                                        "type": "address",
                                        "value": "0x19ae49b9f38dd836317363839a5f6bfbfa7e319a"
                                    },
                                    {
                                        "name": "chain",
                                        "type": "uint256",
                                        "value": "85,936"
                                    }
                                ]
                            },
                            {
                                "name": "correspondingToken",
                                "type": "(address,uint256)",
                                "value": [
                                    {
                                        "name": "token",
                                        "type": "address",
                                        "value": "0x19ae49b9f38dd836317363839a5f6bfbfa7e319a"
                                    },
                                    {
                                        "name": "chain",
                                        "type": "uint256",
                                        "value": "95,838"
                                    }
                                ]
                            },
                            {
                                "name": "_isMintable",
                                "type": "bool",
                                "value": false
                            }
                        ],
                        "constructorArguments": "",
                        "name": "listToken",
                        "returnParams": [],
                        "signature": "listToken((address,uint256),(address,uint256),bool)"
                    },
                    "errorInfo": "",
                    "fromAddress": "0x899266243fd2b9a0426b58bd6d534c6b813ef27a",
                    "gasUsed": 138047,
                    "id": 2,
                    "methodDecoded": true,
                    "operation": "CALL",
                    "output": "",
                    "revert": false,
                    "revertMessage": "",
                    "selector": "0x7c242a0f",
                    "status": true,
                    "value": "0.15"
                },
                "nodeType": 0
            },
            "3": {
                "invocation": {
                    "address": "0x354cca2f55dde182d36fe34d673430e226a3cb8c",
                    "callData": "0x00000000000000000000000019ae49b9f38dd836317363839a5f6bfbfa7e319a0000000000000000000000000000000000000000000000000000000000014fb000000000000000000000000019ae49b9f38dd836317363839a5f6bfbfa7e319a000000000000000000000000000000000000000000000000000000000001765e0000000000000000000000000000000000000000000000000000000000000000",
                    "decodedMethod": {
                        "callParams": [
                            {
                                "name": "baseToken",
                                "type": "(address,uint256)",
                                "value": [
                                    {
                                        "name": "token",
                                        "type": "address",
                                        "value": "0x19ae49b9f38dd836317363839a5f6bfbfa7e319a"
                                    },
                                    {
                                        "name": "chain",
                                        "type": "uint256",
                                        "value": "85,936"
                                    }
                                ]
                            },
                            {
                                "name": "correspondingToken",
                                "type": "(address,uint256)",
                                "value": [
                                    {
                                        "name": "token",
                                        "type": "address",
                                        "value": "0x19ae49b9f38dd836317363839a5f6bfbfa7e319a"
                                    },
                                    {
                                        "name": "chain",
                                        "type": "uint256",
                                        "value": "95,838"
                                    }
                                ]
                            },
                            {
                                "name": "_isMintable",
                                "type": "bool",
                                "value": false
                            }
                        ],
                        "constructorArguments": "",
                        "name": "listToken",
                        "returnParams": [],
                        "signature": "listToken((address,uint256),(address,uint256),bool)"
                    },
                    "errorInfo": "",
                    "fromAddress": "0x47ddb6a433b76117a98fbeab5320d8b67d468e31",
                    "gasUsed": 130785,
                    "id": 3,
                    "methodDecoded": true,
                    "operation": "DELEGATECALL",
                    "output": "",
                    "revert": false,
                    "revertMessage": "",
                    "selector": "0x7c242a0f",
                    "status": true,
                    "value": "0.15"
                },
                "nodeType": 0
            },
            "4": {
                "invocation": {
                    "address": "0x579ed0e3996e192fcd64d85daef7f985566dde3e",
                    "callData": "0x",
                    "decodedMethod": null,
                    "errorInfo": "",
                    "fromAddress": "0x47ddb6a433b76117a98fbeab5320d8b67d468e31",
                    "gasUsed": 0,
                    "id": 4,
                    "methodDecoded": false,
                    "operation": "CALL",
                    "output": "",
                    "revert": false,
                    "revertMessage": "",
                    "selector": "fallback",
                    "status": true,
                    "value": "0.15"
                },
                "nodeType": 0
            },
            "5": {
                "event": {
                    "contract": "0x47ddb6a433b76117a98fbeab5320d8b67d468e31",
                    "decodedLog": {
                        "name": "TokenListed",
                        "params": [
                            {
                                "name": "baseToken",
                                "type": "address",
                                "value": "0x19ae49b9f38dd836317363839a5f6bfbfa7e319a"
                            },
                            {
                                "name": "correspondingToken",
                                "type": "address",
                                "value": "0x19ae49b9f38dd836317363839a5f6bfbfa7e319a"
                            },
                            {
                                "name": "user",
                                "type": "address",
                                "value": "0x899266243fd2b9a0426b58bd6d534c6b813ef27a"
                            },
                            {
                                "name": "baseTokenChain",
                                "type": "uint256",
                                "value": "85,936"
                            },
                            {
                                "name": "correspondingTokenChain",
                                "type": "uint256",
                                "value": "95,838"
                            },
                            {
                                "name": "isMintable",
                                "type": "bool",
                                "value": false
                            }
                        ],
                        "signature": "TokenListed(address,uint256,address,uint256,bool,address)"
                    },
                    "id": 5,
                    "logData": "0x0000000000000000000000000000000000000000000000000000000000014fb0000000000000000000000000000000000000000000000000000000000001765e0000000000000000000000000000000000000000000000000000000000000000",
                    "logDecoded": true,
                    "operation": "EVENT",
                    "revert": false,
                    "status": true,
                    "topics": [
                        "0x2c77a82144bdfced090e1946cf209e1730d693834f2cc87a805d041417b34b47",
                        "0x00000000000000000000000019ae49b9f38dd836317363839a5f6bfbfa7e319a",
                        "0x00000000000000000000000019ae49b9f38dd836317363839a5f6bfbfa7e319a",
                        "0x000000000000000000000000899266243fd2b9a0426b58bd6d534c6b813ef27a"
                    ]
                },
                "nodeType": 1
            }
        },
        "gasFlame": [
            {
                "children": [
                    {
                        "children": [
                            {
                                "children": [],
                                "depth": 0,
                                "name": "Initial Gas",
                                "value": 21432
                            },
                            {
                                "children": [
                                    {
                                        "children": [
                                            {
                                                "children": [
                                                    {
                                                        "children": [
                                                            {
                                                                "children": [],
                                                                "depth": 4,
                                                                "name": "fallback",
                                                                "value": 0
                                                            }
                                                        ],
                                                        "depth": 3,
                                                        "name": "listToken",
                                                        "value": 130785
                                                    }
                                                ],
                                                "depth": 2,
                                                "name": "listToken",
                                                "value": 138047
                                            }
                                        ],
                                        "depth": 1,
                                        "name": "deposit",
                                        "value": 153466
                                    }
                                ],
                                "depth": 0,
                                "name": "Executed Gas",
                                "value": 158523
                            }
                        ],
                        "depth": -1,
                        "name": "Actual Gas Used",
                        "value": 177155
                    },
                    {
                        "children": [],
                        "depth": -1,
                        "name": "Refunded Gas",
                        "value": 2800
                    }
                ],
                "depth": -2,
                "name": "Total Gas",
                "value": 179955
            }
        ],
        "isConfirmed": true,
        "mainTrace": [
            {
                "children": [
                    {
                        "children": [
                            {
                                "children": [
                                    {
                                        "children": [
                                            {
                                                "children": [
                                                    {
                                                        "children": [],
                                                        "depth": 4,
                                                        "id": 4,
                                                        "order": 4
                                                    },
                                                    {
                                                        "children": [],
                                                        "depth": 4,
                                                        "id": 5,
                                                        "order": 5
                                                    }
                                                ],
                                                "depth": 3,
                                                "id": 3,
                                                "order": 3
                                            }
                                        ],
                                        "depth": 2,
                                        "id": 2,
                                        "order": 2
                                    }
                                ],
                                "depth": 1,
                                "id": 1,
                                "order": 1
                            }
                        ],
                        "depth": 0,
                        "id": 0,
                        "order": 0
                    }
                ],
                "depth": -1,
                "id": -1,
                "order": -1
            }
        ],
        "mainTraceNodeCount": 6,
        "parentIdMap": {
            "0": -1,
            "1": 0,
            "2": 1,
            "3": 2,
            "4": 3,
            "5": 3
        },
        "tidyTrace": [
            {
                "children": [
                    {
                        "children": [
                            {
                                "children": [
                                    {
                                        "children": [
                                            {
                                                "children": [
                                                    {
                                                        "children": [],
                                                        "depth": 4,
                                                        "id": 4,
                                                        "order": 4
                                                    },
                                                    {
                                                        "children": [],
                                                        "depth": 4,
                                                        "id": 5,
                                                        "order": 5
                                                    }
                                                ],
                                                "depth": 3,
                                                "id": 3,
                                                "order": 3
                                            }
                                        ],
                                        "depth": 2,
                                        "id": 2,
                                        "order": 2
                                    }
                                ],
                                "depth": 1,
                                "id": 1,
                                "order": 1
                            }
                        ],
                        "depth": 0,
                        "id": 0,
                        "order": 0
                    }
                ],
                "depth": -1,
                "id": -1,
                "order": -1
            }
        ],
        "tidyTraceNodeCount": 6
    },
    "state_change": {
        "stateChanges": [
            {
                "address": "0x47ddb6a433b76117a98fbeab5320d8b67d468e31",
                "erc": "",
                "slots": [
                    {
                        "current": "0x000000000000000000000000899266243fd2b9a0426b58bd6d534c6b813ef27a",
                        "key": "0xf1867c6902cb8db3e11315b450a98919b099e646e1104d373b45217b05918d57",
                        "prev": "0x0000000000000000000000000000000000000000000000000000000000000000"
                    },
                    {
                        "current": "0x000000000000000000000000899266243fd2b9a0426b58bd6d534c6b813ef27a",
                        "key": "0x3266726d19f59856c944b4b0e637c2eff82474c7ecc12a1a3fdee91c1a2f0550",
                        "prev": "0x000000000000000000000000fe6bb1654227fa21b8a65a6a89f6489fc3cc2fcd"
                    },
                    {
                        "current": "0x00000000000000000000000019ae49b9f38dd836317363839a5f6bfbfa7e319a",
                        "key": "0x30374f0546acc9c3ca7df42e0dac5098193b58e95d89d0517f2bd368594586a2",
                        "prev": "0x0000000000000000000000000000000000000000000000000000000000000000"
                    },
                    {
                        "current": "0x00000000000000000000000019ae49b9f38dd836317363839a5f6bfbfa7e319a",
                        "key": "0xb98092798d24e50ac842a2bad69d7c585ab2d2b62b68eed0b9188eac440c5b23",
                        "prev": "0x0000000000000000000000000000000000000000000000000000000000000000"
                    },
                    {
                        "current": "0x000000000000000000000000899266243fd2b9a0426b58bd6d534c6b813ef27a",
                        "key": "0x975e4284ef97a1fabdfee06aa309ae3cf8d4cf547833b1a3cc6d080f5d40228f",
                        "prev": "0x0000000000000000000000000000000000000000000000000000000000000000"
                    }
                ],
                "storageVariables": [
                    {
                        "name": "tokenOwnerWithChainId",
                        "type": "mapping(uint256 => mapping(uint256 => mapping(address => mapping(address => address))))",
                        "value": {
                            "pairs": [
                                {
                                    "key": "85936",
                                    "value": {
                                        "pairs": [
                                            {
                                                "key": "95838",
                                                "value": {
                                                    "pairs": [
                                                        {
                                                            "key": "0x19ae49b9f38dd836317363839a5f6bfbfa7e319a",
                                                            "value": {
                                                                "pairs": [
                                                                    {
                                                                        "key": "0x19ae49b9f38dd836317363839a5f6bfbfa7e319a",
                                                                        "value": {
                                                                            "current": "0x899266243fd2b9a0426b58bd6d534c6b813ef27a",
                                                                            "prev": "0x0000000000000000000000000000000000000000",
                                                                            "typeTag": 1
                                                                        }
                                                                    }
                                                                ],
                                                                "typeTag": 4
                                                            }
                                                        }
                                                    ],
                                                    "typeTag": 4
                                                }
                                            }
                                        ],
                                        "typeTag": 4
                                    }
                                },
                                {
                                    "key": "95838",
                                    "value": {
                                        "pairs": [
                                            {
                                                "key": "85936",
                                                "value": {
                                                    "pairs": [
                                                        {
                                                            "key": "0x19ae49b9f38dd836317363839a5f6bfbfa7e319a",
                                                            "value": {
                                                                "pairs": [
                                                                    {
                                                                        "key": "0x19ae49b9f38dd836317363839a5f6bfbfa7e319a",
                                                                        "value": {
                                                                            "current": "0x899266243fd2b9a0426b58bd6d534c6b813ef27a",
                                                                            "prev": "0x0000000000000000000000000000000000000000",
                                                                            "typeTag": 1
                                                                        }
                                                                    }
                                                                ],
                                                                "typeTag": 4
                                                            }
                                                        }
                                                    ],
                                                    "typeTag": 4
                                                }
                                            }
                                        ],
                                        "typeTag": 4
                                    }
                                }
                            ],
                            "typeTag": 4
                        }
                    },
                    {
                        "name": "_tokenOwner",
                        "type": "mapping(address => address)",
                        "value": {
                            "pairs": [
                                {
                                    "key": "0x19ae49b9f38dd836317363839a5f6bfbfa7e319a",
                                    "value": {
                                        "current": "0x899266243fd2b9a0426b58bd6d534c6b813ef27a",
                                        "prev": "0xfe6bb1654227fa21b8a65a6a89f6489fc3cc2fcd",
                                        "typeTag": 1
                                    }
                                }
                            ],
                            "typeTag": 4
                        }
                    },
                    {
                        "name": "tokenToTokenWithChainId",
                        "type": "mapping(uint256 => mapping(uint256 => mapping(address => address)))",
                        "value": {
                            "pairs": [
                                {
                                    "key": "85936",
                                    "value": {
                                        "pairs": [
                                            {
                                                "key": "95838",
                                                "value": {
                                                    "pairs": [
                                                        {
                                                            "key": "0x19ae49b9f38dd836317363839a5f6bfbfa7e319a",
                                                            "value": {
                                                                "current": "0x19ae49b9f38dd836317363839a5f6bfbfa7e319a",
                                                                "prev": "0x0000000000000000000000000000000000000000",
                                                                "typeTag": 1
                                                            }
                                                        }
                                                    ],
                                                    "typeTag": 4
                                                }
                                            }
                                        ],
                                        "typeTag": 4
                                    }
                                },
                                {
                                    "key": "95838",
                                    "value": {
                                        "pairs": [
                                            {
                                                "key": "85936",
                                                "value": {
                                                    "pairs": [
                                                        {
                                                            "key": "0x19ae49b9f38dd836317363839a5f6bfbfa7e319a",
                                                            "value": {
                                                                "current": "0x19ae49b9f38dd836317363839a5f6bfbfa7e319a",
                                                                "prev": "0x0000000000000000000000000000000000000000",
                                                                "typeTag": 1
                                                            }
                                                        }
                                                    ],
                                                    "typeTag": 4
                                                }
                                            }
                                        ],
                                        "typeTag": 4
                                    }
                                }
                            ],
                            "typeTag": 4
                        }
                    }
                ]
            }
        ]
    }
}