{
    "balance_change": {
        "balanceChanges": [
            {
                "account": "0x25d3e7e85108d03b0e778c4b5853b02206871d72",
                "assets": [
                    {
                        "address": "0x55d398326f99059ff775485246999027b3197955",
                        "amount": "5,955.466788004705247296",
                        "iconUrl": "https://assets.blocksec.com/icon/810ebed5-1cb7-4a60-827d-c7eb0c438c0e.png",
                        "isERC1155": false,
                        "isERC721": false,
                        "sign": true,
                        "value": "5957.044987"
                    }
                ]
            },
            {
                "account": "0xac899ef647533e0de91e269202f1169d7d47ae92",
                "assets": [
                    {
                        "address": "0x55d398326f99059ff775485246999027b3197955",
                        "amount": "5,955.466788004705247296",
                        "iconUrl": "https://assets.blocksec.com/icon/810ebed5-1cb7-4a60-827d-c7eb0c438c0e.png",
                        "isERC1155": false,
                        "isERC721": false,
                        "sign": false,
                        "value": "5957.044987"
                    }
                ]
            }
        ]
    },
    "profile": {
        "basic_info": {
            "baseFee": "",
            "blockNumber": 29469588,
            "callData": "0x95439c8e00000000000000000000000000000000000000000000000000000000000275d4000000000000000000000000ac899ef647533e0de91e269202f1169d7d47ae92",
            "debugEnable": true,
            "errorInfo": "",
            "eventCount": 11,
            "feeRecipient": "0xd1d6bf74282782b0b3eb1413c901d6ecf02e8e28",
            "formatValue": "0",
            "gasLimit": 99023000,
            "gasPrice": "4",
            "gasUsed": 181998,
            "intTxnCount": 20,
            "internalRevert": false,
            "internalRevertMessage": "",
            "isContractCreation": false,
            "isFlashloan": true,
            "maxFee": "",
            "nonce": 31,
            "overwritedBlockNumber": -1,
            "priorityFee": "",
            "receiver": "0x25d3e7e85108d03b0e778c4b5853b02206871d72",
            "revertMessage": "",
            "sender": "0xab90a897cf6c56c69a4579ead3c900260dfba02d",
            "simulationEnable": true,
            "sourceTxnHash": "0xe1bf84b7a57498c0573361b20b16077cc933e4c47aa0821bcea5b158a60ef505",
            "status": true,
            "timestamp": "2023-06-27T14:13:39Z",
            "transactionFee": "0.000727992",
            "txnHash": "0xe1bf84b7a57498c0573361b20b16077cc933e4c47aa0821bcea5b158a60ef505",
            "txnIndex": 8,
            "type": 0,
            "value": "0"
        },
        "fund_flow": [
            {
                "amount": "1,243,763.239827755213151683",
                "from": "0x9ad32e3054268b849b84a8dbcc7c8f7c52e4e69a",
                "id": 1,
                "isERC1155": false,
                "isERC721": false,
                "isReverted": false,
                "order": 1,
                "to": "0x25d3e7e85108d03b0e778c4b5853b02206871d72",
                "token": "0x55d398326f99059ff775485246999027b3197955"
            },
            {
                "amount": "5,955.466788004705247296",
                "from": "0x25d3e7e85108d03b0e778c4b5853b02206871d72",
                "id": 2,
                "isERC1155": false,
                "isERC721": false,
                "isReverted": false,
                "order": 2,
                "to": "0xac899ef647533e0de91e269202f1169d7d47ae92",
                "token": "0x55d398326f99059ff775485246999027b3197955"
            },
            {
                "amount": "11,910.933576009410494592",
                "from": "0xac899ef647533e0de91e269202f1169d7d47ae92",
                "id": 3,
                "isERC1155": false,
                "isERC721": false,
                "isReverted": false,
                "order": 3,
                "to": "0x25d3e7e85108d03b0e778c4b5853b02206871d72",
                "token": "0x55d398326f99059ff775485246999027b3197955"
            },
            {
                "amount": "1,243,763.239827755213151683",
                "from": "0x25d3e7e85108d03b0e778c4b5853b02206871d72",
                "id": 4,
                "isERC1155": false,
                "isERC721": false,
                "isReverted": false,
                "order": 4,
                "to": "0x9ad32e3054268b849b84a8dbcc7c8f7c52e4e69a",
                "token": "0x55d398326f99059ff775485246999027b3197955"
            }
        ],
        "token_infos": [
            {
                "address": "0xeeeeeeeeeeeeeeeeeeeeeeeeeeeeeeeeeeeeeeee",
                "decimals": 18
            },
            {
                "address": "0x55d398326f99059ff775485246999027b3197955",
                "decimals": 18
            },
            {
                "address": "0xbb4cdb9cbd36b01bd1cbaebf2de08d9173bc095c",
                "decimals": 18
            }
        ]
    },
    "address_label": {
        "labels": [
            {
                "address": "0x2170ed0880ac9a755fd29b2688956bd959f933f8",
                "label": "Ethereum: ETH Token"
            },
            {
                "address": "0x9ad32e3054268b849b84a8dbcc7c8f7c52e4e69a",
                "label": "DPPOracle"
            },
            {
                "address": "0x55d398326f99059ff775485246999027b3197955",
                "label": "BUSD-T Stablecoin"
            },
            {
                "address": "0x0000000000000000000000000000000000000001",
                "label": "Precompiled"
            },
            {
                "address": "0x0000000000000000000000000000000000000002",
                "label": "Precompiled"
            },
            {
                "address": "0x0000000000000000000000000000000000000003",
                "label": "Precompiled"
            },
            {
                "address": "0x0000000000000000000000000000000000000004",
                "label": "Precompiled"
            },
            {
                "address": "0xeeeeeeeeeeeeeeeeeeeeeeeeeeeeeeeeeeeeeeee",
                "label": "BNB"
            }
        ]
    },
    "trace": {
        "accountLabels": null,
        "dataMap": {
            "-1": {
                "invocation": {
                    "address": "0xab90a897cf6c56c69a4579ead3c900260dfba02d",
                    "callData": "",
                    "decodedMethod": null,
                    "errorInfo": "",
                    "fromAddress": "",
                    "gasUsed": 0,
                    "id": -1,
                    "methodDecoded": false,
                    "operation": "",
                    "output": "",
                    "revert": false,
                    "revertMessage": "",
                    "selector": "",
                    "status": false,
                    "value": ""
                },
                "nodeType": 0
            },
            "0": {
                "invocation": {
                    "address": "0x25d3e7e85108d03b0e778c4b5853b02206871d72",
                    "callData": "0x00000000000000000000000000000000000000000000000000000000000275d4000000000000000000000000ac899ef647533e0de91e269202f1169d7d47ae92",
                    "decodedMethod": null,
                    "errorInfo": "",
                    "fromAddress": "0xab90a897cf6c56c69a4579ead3c900260dfba02d",
                    "gasUsed": 181998,
                    "id": 0,
                    "methodDecoded": false,
                    "operation": "CALL",
                    "output": "",
                    "revert": false,
                    "revertMessage": "",
                    "selector": "0x95439c8e",
                    "status": true,
                    "value": "0"
                },
                "nodeType": 0
            },
            "1": {
                "invocation": {
                    "address": "0x55d398326f99059ff775485246999027b3197955",
                    "callData": "0x0000000000000000000000009ad32e3054268b849b84a8dbcc7c8f7c52e4e69a",
                    "decodedMethod": {
                        "callParams": [
                            {
                                "name": "account",
                                "type": "address",
                                "value": "0x9ad32e3054268b849b84a8dbcc7c8f7c52e4e69a"
                            }
                        ],
                        "constructorArguments": "",
                        "name": "balanceOf",
                        "returnParams": [
                            {
                                "decimalAvailable": true,
                                "name": "",
                                "type": "uint256",
                                "value": "1,243,763,239,827,755,213,151,683"
                            }
                        ],
                        "signature": "balanceOf(address)"
                    },
                    "errorInfo": "",
                    "fromAddress": "0x25d3e7e85108d03b0e778c4b5853b02206871d72",
                    "gasUsed": 1231,
                    "id": 1,
                    "methodDecoded": true,
                    "operation": "STATICCALL",
                    "output": "0x0000000000000000000000000000000000000000000107608a53534676ae5dc3",
                    "revert": false,
                    "revertMessage": "",
                    "selector": "0x70a08231",
                    "status": true,
                    "value": "0"
                },
                "nodeType": 0
            },
            "10": {
                "invocation": {
                    "address": "0x55d398326f99059ff775485246999027b3197955",
                    "callData": "0x000000000000000000000000ac899ef647533e0de91e269202f1169d7d47ae92000000000000000000000000000000000000000000000142d8b45246610aa040",
                    "decodedMethod": {
                        "callParams": [
                            {
                                "name": "spender",
                                "type": "address",
                                "value": "0xac899ef647533e0de91e269202f1169d7d47ae92"
                            },
                            {
                                "decimalAvailable": true,
                                "name": "amount",
                                "type": "uint256",
                                "value": "5,955,466,788,004,705,247,296"
                            }
                        ],
                        "constructorArguments": "",
                        "name": "approve",
                        "returnParams": [
                            {
                                "name": "",
                                "type": "bool",
                                "value": true
                            }
                        ],
                        "signature": "approve(address,uint256)"
                    },
                    "errorInfo": "",
                    "fromAddress": "0xac899ef647533e0de91e269202f1169d7d47ae92",
                    "gasUsed": 7462,
                    "id": 10,
                    "methodDecoded": true,
                    "operation": "CALL",
                    "output": "0x0000000000000000000000000000000000000000000000000000000000000001",
                    "revert": false,
                    "revertMessage": "",
                    "selector": "0x095ea7b3",
                    "status": true,
                    "value": "0"
                },
                "nodeType": 0
            },
            "11": {
                "event": {
                    "contract": "0x55d398326f99059ff775485246999027b3197955",
                    "decodedLog": {
                        "name": "Approval",
                        "params": [
                            {
                                "name": "owner",
                                "type": "address",
                                "value": "0xac899ef647533e0de91e269202f1169d7d47ae92"
                            },
                            {
                                "name": "spender",
                                "type": "address",
                                "value": "0xac899ef647533e0de91e269202f1169d7d47ae92"
                            },
                            {
                                "decimalAvailable": true,
                                "name": "value",
                                "type": "uint256",
                                "value": "5,955,466,788,004,705,247,296"
                            }
                        ],
                        "signature": "Approval(address,address,uint256)"
                    },
                    "id": 11,
                    "logData": "0x000000000000000000000000000000000000000000000142d8b45246610aa040",
                    "logDecoded": true,
                    "operation": "EVENT",
                    "revert": false,
                    "status": true,
                    "topics": [
                        "0x8c5be1e5ebec7d5bd14f71427d1e84f3dd0314c0f7b2291e5b200ac8c7c3b925",
                        "0x000000000000000000000000ac899ef647533e0de91e269202f1169d7d47ae92",
                        "0x000000000000000000000000ac899ef647533e0de91e269202f1169d7d47ae92"
                    ]
                },
                "nodeType": 1
            },
            "12": {
                "invocation": {
                    "address": "0x55d398326f99059ff775485246999027b3197955",
                    "callData": "0x00000000000000000000000025d3e7e85108d03b0e778c4b5853b02206871d72000000000000000000000000ac899ef647533e0de91e269202f1169d7d47ae92000000000000000000000000000000000000000000000142d8b45246610aa040",
                    "decodedMethod": {
                        "callParams": [
                            {
                                "name": "sender",
                                "type": "address",
                                "value": "0x25d3e7e85108d03b0e778c4b5853b02206871d72"
                            },
                            {
                                "name": "recipient",
                                "type": "address",
                                "value": "0xac899ef647533e0de91e269202f1169d7d47ae92"
                            },
                            {
                                "decimalAvailable": true,
                                "name": "amount",
                                "type": "uint256",
                                "value": "5,955,466,788,004,705,247,296"
                            }
                        ],
                        "constructorArguments": "",
                        "name": "transferFrom",
                        "returnParams": [
                            {
                                "name": "",
                                "type": "bool",
                                "value": true
                            }
                        ],
                        "signature": "transferFrom(address,address,uint256)"
                    },
                    "errorInfo": "",
                    "fromAddress": "0xac899ef647533e0de91e269202f1169d7d47ae92",
                    "gasUsed": 14434,
                    "id": 12,
                    "methodDecoded": true,
                    "operation": "CALL",
                    "output": "0x0000000000000000000000000000000000000000000000000000000000000001",
                    "revert": false,
                    "revertMessage": "",
                    "selector": "0x23b872dd",
                    "status": true,
                    "value": "0"
                },
                "nodeType": 0
            },
            "13": {
                "event": {
                    "contract": "0x55d398326f99059ff775485246999027b3197955",
                    "decodedLog": {
                        "name": "Transfer",
                        "params": [
                            {
                                "name": "from",
                                "type": "address",
                                "value": "0x25d3e7e85108d03b0e778c4b5853b02206871d72"
                            },
                            {
                                "name": "to",
                                "type": "address",
                                "value": "0xac899ef647533e0de91e269202f1169d7d47ae92"
                            },
                            {
                                "decimalAvailable": true,
                                "name": "value",
                                "type": "uint256",
                                "value": "5,955,466,788,004,705,247,296"
                            }
                        ],
                        "signature": "Transfer(address,address,uint256)"
                    },
                    "id": 13,
                    "logData": "0x000000000000000000000000000000000000000000000142d8b45246610aa040",
                    "logDecoded": true,
                    "operation": "EVENT",
                    "revert": false,
                    "status": true,
                    "topics": [
                        "0xddf252ad1be2c89b69c2b068fc378daa952ba7f163c4a11628f55a4df523b3ef",
                        "0x00000000000000000000000025d3e7e85108d03b0e778c4b5853b02206871d72",
                        "0x000000000000000000000000ac899ef647533e0de91e269202f1169d7d47ae92"
                    ]
                },
                "nodeType": 1
            },
            "14": {
                "event": {
                    "contract": "0x55d398326f99059ff775485246999027b3197955",
                    "decodedLog": {
                        "name": "Approval",
                        "params": [
                            {
                                "name": "owner",
                                "type": "address",
                                "value": "0x25d3e7e85108d03b0e778c4b5853b02206871d72"
                            },
                            {
                                "name": "spender",
                                "type": "address",
                                "value": "0xac899ef647533e0de91e269202f1169d7d47ae92"
                            },
                            {
                                "decimalAvailable": true,
                                "name": "value",
                                "type": "uint256",
                                "value": "115,792,089,237,316,195,423,570,985,008,687,907,853,269,984,665,640,564,033,502,117,219,908,424,392,639"
                            }
                        ],
                        "signature": "Approval(address,address,uint256)"
                    },
                    "id": 14,
                    "logData": "0xfffffffffffffffffffffffffffffffffffffffffffffebd274badb99ef55fbf",
                    "logDecoded": true,
                    "operation": "EVENT",
                    "revert": false,
                    "status": true,
                    "topics": [
                        "0x8c5be1e5ebec7d5bd14f71427d1e84f3dd0314c0f7b2291e5b200ac8c7c3b925",
                        "0x00000000000000000000000025d3e7e85108d03b0e778c4b5853b02206871d72",
                        "0x000000000000000000000000ac899ef647533e0de91e269202f1169d7d47ae92"
                    ]
                },
                "nodeType": 1
            },
            "15": {
                "invocation": {
                    "address": "0xac899ef647533e0de91e269202f1169d7d47ae92",
                    "callData": "0x0000000000000000000000000000000000000000000000000000000000000000000000000000000000000000000000000000000000000142d8b45246610aa040",
                    "decodedMethod": {
                        "callParams": [
                            {
                                "name": "tokenId",
                                "type": "uint256",
                                "value": "0"
                            },
                            {
                                "name": "amount",
                                "type": "uint256",
                                "value": "5,955,466,788,004,705,247,296"
                            }
                        ],
                        "constructorArguments": "",
                        "name": "claim",
                        "returnParams": [],
                        "signature": "claim(uint256,uint256)"
                    },
                    "errorInfo": "",
                    "fromAddress": "0x25d3e7e85108d03b0e778c4b5853b02206871d72",
                    "gasUsed": 41422,
                    "id": 15,
                    "methodDecoded": true,
                    "operation": "CALL",
                    "output": "",
                    "revert": false,
                    "revertMessage": "",
                    "selector": "0xc3490263",
                    "status": true,
                    "value": "0"
                },
                "nodeType": 0
            },
            "16": {
                "invocation": {
                    "address": "0x55d398326f99059ff775485246999027b3197955",
                    "callData": "0x00000000000000000000000025d3e7e85108d03b0e778c4b5853b02206871d72000000000000000000000000000000000000000000000142d8b45246610aa040",
                    "decodedMethod": {
                        "callParams": [
                            {
                                "name": "spender",
                                "type": "address",
                                "value": "0x25d3e7e85108d03b0e778c4b5853b02206871d72"
                            },
                            {
                                "decimalAvailable": true,
                                "name": "amount",
                                "type": "uint256",
                                "value": "5,955,466,788,004,705,247,296"
                            }
                        ],
                        "constructorArguments": "",
                        "name": "approve",
                        "returnParams": [
                            {
                                "name": "",
                                "type": "bool",
                                "value": true
                            }
                        ],
                        "signature": "approve(address,uint256)"
                    },
                    "errorInfo": "",
                    "fromAddress": "0xac899ef647533e0de91e269202f1169d7d47ae92",
                    "gasUsed": 22462,
                    "id": 16,
                    "methodDecoded": true,
                    "operation": "CALL",
                    "output": "0x0000000000000000000000000000000000000000000000000000000000000001",
                    "revert": false,
                    "revertMessage": "",
                    "selector": "0x095ea7b3",
                    "status": true,
                    "value": "0"
                },
                "nodeType": 0
            },
            "17": {
                "event": {
                    "contract": "0x55d398326f99059ff775485246999027b3197955",
                    "decodedLog": {
                        "name": "Approval",
                        "params": [
                            {
                                "name": "owner",
                                "type": "address",
                                "value": "0xac899ef647533e0de91e269202f1169d7d47ae92"
                            },
                            {
                                "name": "spender",
                                "type": "address",
                                "value": "0x25d3e7e85108d03b0e778c4b5853b02206871d72"
                            },
                            {
                                "decimalAvailable": true,
                                "name": "value",
                                "type": "uint256",
                                "value": "5,955,466,788,004,705,247,296"
                            }
                        ],
                        "signature": "Approval(address,address,uint256)"
                    },
                    "id": 17,
                    "logData": "0x000000000000000000000000000000000000000000000142d8b45246610aa040",
                    "logDecoded": true,
                    "operation": "EVENT",
                    "revert": false,
                    "status": true,
                    "topics": [
                        "0x8c5be1e5ebec7d5bd14f71427d1e84f3dd0314c0f7b2291e5b200ac8c7c3b925",
                        "0x000000000000000000000000ac899ef647533e0de91e269202f1169d7d47ae92",
                        "0x00000000000000000000000025d3e7e85108d03b0e778c4b5853b02206871d72"
                    ]
                },
                "nodeType": 1
            },
            "18": {
                "invocation": {
                    "address": "0x55d398326f99059ff775485246999027b3197955",
                    "callData": "0x00000000000000000000000025d3e7e85108d03b0e778c4b5853b02206871d72000000000000000000000000000000000000000000000142d8b45246610aa040",
                    "decodedMethod": {
                        "callParams": [
                            {
                                "name": "recipient",
                                "type": "address",
                                "value": "0x25d3e7e85108d03b0e778c4b5853b02206871d72"
                            },
                            {
                                "decimalAvailable": true,
                                "name": "amount",
                                "type": "uint256",
                                "value": "5,955,466,788,004,705,247,296"
                            }
                        ],
                        "constructorArguments": "",
                        "name": "transfer",
                        "returnParams": [
                            {
                                "name": "",
                                "type": "bool",
                                "value": true
                            }
                        ],
                        "signature": "transfer(address,uint256)"
                    },
                    "errorInfo": "",
                    "fromAddress": "0xac899ef647533e0de91e269202f1169d7d47ae92",
                    "gasUsed": 6071,
                    "id": 18,
                    "methodDecoded": true,
                    "operation": "CALL",
                    "output": "0x0000000000000000000000000000000000000000000000000000000000000001",
                    "revert": false,
                    "revertMessage": "",
                    "selector": "0xa9059cbb",
                    "status": true,
                    "value": "0"
                },
                "nodeType": 0
            },
            "19": {
                "event": {
                    "contract": "0x55d398326f99059ff775485246999027b3197955",
                    "decodedLog": {
                        "name": "Transfer",
                        "params": [
                            {
                                "name": "from",
                                "type": "address",
                                "value": "0xac899ef647533e0de91e269202f1169d7d47ae92"
                            },
                            {
                                "name": "to",
                                "type": "address",
                                "value": "0x25d3e7e85108d03b0e778c4b5853b02206871d72"
                            },
                            {
                                "decimalAvailable": true,
                                "name": "value",
                                "type": "uint256",
                                "value": "5,955,466,788,004,705,247,296"
                            }
                        ],
                        "signature": "Transfer(address,address,uint256)"
                    },
                    "id": 19,
                    "logData": "0x000000000000000000000000000000000000000000000142d8b45246610aa040",
                    "logDecoded": true,
                    "operation": "EVENT",
                    "revert": false,
                    "status": true,
                    "topics": [
                        "0xddf252ad1be2c89b69c2b068fc378daa952ba7f163c4a11628f55a4df523b3ef",
                        "0x000000000000000000000000ac899ef647533e0de91e269202f1169d7d47ae92",
                        "0x00000000000000000000000025d3e7e85108d03b0e778c4b5853b02206871d72"
                    ]
                },
                "nodeType": 1
            },
            "2": {
                "invocation": {
                    "address": "0x9ad32e3054268b849b84a8dbcc7c8f7c52e4e69a",
                    "callData": "0x00000000000000000000000000000000000000000000000000000000000000000000000000000000000000000000000000000000000107608a53534676ae5dc300000000000000000000000025d3e7e85108d03b0e778c4b5853b02206871d7200000000000000000000000000000000000000000000000000000000000000800000000000000000000000000000000000000000000000000000000000000020000000000000000000000000ac899ef647533e0de91e269202f1169d7d47ae92",
                    "decodedMethod": {
                        "callParams": [
                            {
                                "name": "baseAmount",
                                "type": "uint256",
                                "value": "0"
                            },
                            {
                                "name": "quoteAmount",
                                "type": "uint256",
                                "value": "1,243,763,239,827,755,213,151,683"
                            },
                            {
                                "name": "_assetTo",
                                "type": "address",
                                "value": "0x25d3e7e85108d03b0e778c4b5853b02206871d72"
                            },
                            {
                                "name": "data",
                                "type": "bytes",
                                "value": "0x000000000000000000000000ac899ef647533e0de91e269202f1169d7d47ae92"
                            }
                        ],
                        "constructorArguments": "",
                        "name": "flashLoan",
                        "returnParams": [],
                        "signature": "flashLoan(uint256,uint256,address,bytes)"
                    },
                    "errorInfo": "",
                    "fromAddress": "0x25d3e7e85108d03b0e778c4b5853b02206871d72",
                    "gasUsed": 219435,
                    "id": 2,
                    "methodDecoded": true,
                    "operation": "CALL",
                    "output": "",
                    "revert": false,
                    "revertMessage": "",
                    "selector": "0xd0a494e4",
                    "status": true,
                    "value": "0"
                },
                "nodeType": 0
            },
            "20": {
                "invocation": {
                    "address": "0x55d398326f99059ff775485246999027b3197955",
                    "callData": "0x000000000000000000000000ac899ef647533e0de91e269202f1169d7d47ae9200000000000000000000000025d3e7e85108d03b0e778c4b5853b02206871d72",
                    "decodedMethod": {
                        "callParams": [
                            {
                                "name": "owner",
                                "type": "address",
                                "value": "0xac899ef647533e0de91e269202f1169d7d47ae92"
                            },
                            {
                                "name": "spender",
                                "type": "address",
                                "value": "0x25d3e7e85108d03b0e778c4b5853b02206871d72"
                            }
                        ],
                        "constructorArguments": "",
                        "name": "allowance",
                        "returnParams": [
                            {
                                "decimalAvailable": true,
                                "name": "",
                                "type": "uint256",
                                "value": "5,955,466,788,004,705,247,296"
                            }
                        ],
                        "signature": "allowance(address,address)"
                    },
                    "errorInfo": "",
                    "fromAddress": "0x25d3e7e85108d03b0e778c4b5853b02206871d72",
                    "gasUsed": 1338,
                    "id": 20,
                    "methodDecoded": true,
                    "operation": "STATICCALL",
                    "output": "0x000000000000000000000000000000000000000000000142d8b45246610aa040",
                    "revert": false,
                    "revertMessage": "",
                    "selector": "0xdd62ed3e",
                    "status": true,
                    "value": "0"
                },
                "nodeType": 0
            },
            "21": {
                "invocation": {
                    "address": "0x55d398326f99059ff775485246999027b3197955",
                    "callData": "0x000000000000000000000000ac899ef647533e0de91e269202f1169d7d47ae9200000000000000000000000025d3e7e85108d03b0e778c4b5853b02206871d72000000000000000000000000000000000000000000000142d8b45246610aa040",
                    "decodedMethod": {
                        "callParams": [
                            {
                                "name": "sender",
                                "type": "address",
                                "value": "0xac899ef647533e0de91e269202f1169d7d47ae92"
                            },
                            {
                                "name": "recipient",
                                "type": "address",
                                "value": "0x25d3e7e85108d03b0e778c4b5853b02206871d72"
                            },
                            {
                                "decimalAvailable": true,
                                "name": "amount",
                                "type": "uint256",
                                "value": "5,955,466,788,004,705,247,296"
                            }
                        ],
                        "constructorArguments": "",
                        "name": "transferFrom",
                        "returnParams": [
                            {
                                "name": "",
                                "type": "bool",
                                "value": true
                            }
                        ],
                        "signature": "transferFrom(address,address,uint256)"
                    },
                    "errorInfo": "",
                    "fromAddress": "0x25d3e7e85108d03b0e778c4b5853b02206871d72",
                    "gasUsed": 14434,
                    "id": 21,
                    "methodDecoded": true,
                    "operation": "CALL",
                    "output": "0x0000000000000000000000000000000000000000000000000000000000000001",
                    "revert": false,
                    "revertMessage": "",
                    "selector": "0x23b872dd",
                    "status": true,
                    "value": "0"
                },
                "nodeType": 0
            },
            "22": {
                "event": {
                    "contract": "0x55d398326f99059ff775485246999027b3197955",
                    "decodedLog": {
                        "name": "Transfer",
                        "params": [
                            {
                                "name": "from",
                                "type": "address",
                                "value": "0xac899ef647533e0de91e269202f1169d7d47ae92"
                            },
                            {
                                "name": "to",
                                "type": "address",
                                "value": "0x25d3e7e85108d03b0e778c4b5853b02206871d72"
                            },
                            {
                                "decimalAvailable": true,
                                "name": "value",
                                "type": "uint256",
                                "value": "5,955,466,788,004,705,247,296"
                            }
                        ],
                        "signature": "Transfer(address,address,uint256)"
                    },
                    "id": 22,
                    "logData": "0x000000000000000000000000000000000000000000000142d8b45246610aa040",
                    "logDecoded": true,
                    "operation": "EVENT",
                    "revert": false,
                    "status": true,
                    "topics": [
                        "0xddf252ad1be2c89b69c2b068fc378daa952ba7f163c4a11628f55a4df523b3ef",
                        "0x000000000000000000000000ac899ef647533e0de91e269202f1169d7d47ae92",
                        "0x00000000000000000000000025d3e7e85108d03b0e778c4b5853b02206871d72"
                    ]
                },
                "nodeType": 1
            },
            "23": {
                "event": {
                    "contract": "0x55d398326f99059ff775485246999027b3197955",
                    "decodedLog": {
                        "name": "Approval",
                        "params": [
                            {
                                "name": "owner",
                                "type": "address",
                                "value": "0xac899ef647533e0de91e269202f1169d7d47ae92"
                            },
                            {
                                "name": "spender",
                                "type": "address",
                                "value": "0x25d3e7e85108d03b0e778c4b5853b02206871d72"
                            },
                            {
                                "decimalAvailable": true,
                                "name": "value",
                                "type": "uint256",
                                "value": "0"
                            }
                        ],
                        "signature": "Approval(address,address,uint256)"
                    },
                    "id": 23,
                    "logData": "0x0000000000000000000000000000000000000000000000000000000000000000",
                    "logDecoded": true,
                    "operation": "EVENT",
                    "revert": false,
                    "status": true,
                    "topics": [
                        "0x8c5be1e5ebec7d5bd14f71427d1e84f3dd0314c0f7b2291e5b200ac8c7c3b925",
                        "0x000000000000000000000000ac899ef647533e0de91e269202f1169d7d47ae92",
                        "0x00000000000000000000000025d3e7e85108d03b0e778c4b5853b02206871d72"
                    ]
                },
                "nodeType": 1
            },
            "24": {
                "invocation": {
                    "address": "0x55d398326f99059ff775485246999027b3197955",
                    "callData": "0x00000000000000000000000025d3e7e85108d03b0e778c4b5853b02206871d72",
                    "decodedMethod": {
                        "callParams": [
                            {
                                "name": "account",
                                "type": "address",
                                "value": "0x25d3e7e85108d03b0e778c4b5853b02206871d72"
                            }
                        ],
                        "constructorArguments": "",
                        "name": "balanceOf",
                        "returnParams": [
                            {
                                "decimalAvailable": true,
                                "name": "",
                                "type": "uint256",
                                "value": "1,249,718,706,615,759,918,398,979"
                            }
                        ],
                        "signature": "balanceOf(address)"
                    },
                    "errorInfo": "",
                    "fromAddress": "0x25d3e7e85108d03b0e778c4b5853b02206871d72",
                    "gasUsed": 1231,
                    "id": 24,
                    "methodDecoded": true,
                    "operation": "STATICCALL",
                    "output": "0x0000000000000000000000000000000000000000000108a36307a58cd7b8fe03",
                    "revert": false,
                    "revertMessage": "",
                    "selector": "0x70a08231",
                    "status": true,
                    "value": "0"
                },
                "nodeType": 0
            },
            "25": {
                "invocation": {
                    "address": "0x55d398326f99059ff775485246999027b3197955",
                    "callData": "0x0000000000000000000000009ad32e3054268b849b84a8dbcc7c8f7c52e4e69a0000000000000000000000000000000000000000000107608a53534676ae5dc3",
                    "decodedMethod": {
                        "callParams": [
                            {
                                "name": "recipient",
                                "type": "address",
                                "value": "0x9ad32e3054268b849b84a8dbcc7c8f7c52e4e69a"
                            },
                            {
                                "decimalAvailable": true,
                                "name": "amount",
                                "type": "uint256",
                                "value": "1,243,763,239,827,755,213,151,683"
                            }
                        ],
                        "constructorArguments": "",
                        "name": "transfer",
                        "returnParams": [
                            {
                                "name": "",
                                "type": "bool",
                                "value": true
                            }
                        ],
                        "signature": "transfer(address,uint256)"
                    },
                    "errorInfo": "",
                    "fromAddress": "0x25d3e7e85108d03b0e778c4b5853b02206871d72",
                    "gasUsed": 6071,
                    "id": 25,
                    "methodDecoded": true,
                    "operation": "CALL",
                    "output": "0x0000000000000000000000000000000000000000000000000000000000000001",
                    "revert": false,
                    "revertMessage": "",
                    "selector": "0xa9059cbb",
                    "status": true,
                    "value": "0"
                },
                "nodeType": 0
            },
            "26": {
                "event": {
                    "contract": "0x55d398326f99059ff775485246999027b3197955",
                    "decodedLog": {
                        "name": "Transfer",
                        "params": [
                            {
                                "name": "from",
                                "type": "address",
                                "value": "0x25d3e7e85108d03b0e778c4b5853b02206871d72"
                            },
                            {
                                "name": "to",
                                "type": "address",
                                "value": "0x9ad32e3054268b849b84a8dbcc7c8f7c52e4e69a"
                            },
                            {
                                "decimalAvailable": true,
                                "name": "value",
                                "type": "uint256",
                                "value": "1,243,763,239,827,755,213,151,683"
                            }
                        ],
                        "signature": "Transfer(address,address,uint256)"
                    },
                    "id": 26,
                    "logData": "0x0000000000000000000000000000000000000000000107608a53534676ae5dc3",
                    "logDecoded": true,
                    "operation": "EVENT",
                    "revert": false,
                    "status": true,
                    "topics": [
                        "0xddf252ad1be2c89b69c2b068fc378daa952ba7f163c4a11628f55a4df523b3ef",
                        "0x00000000000000000000000025d3e7e85108d03b0e778c4b5853b02206871d72",
                        "0x0000000000000000000000009ad32e3054268b849b84a8dbcc7c8f7c52e4e69a"
                    ]
                },
                "nodeType": 1
            },
            "27": {
                "invocation": {
                    "address": "0x2170ed0880ac9a755fd29b2688956bd959f933f8",
                    "callData": "0x0000000000000000000000009ad32e3054268b849b84a8dbcc7c8f7c52e4e69a",
                    "decodedMethod": {
                        "callParams": [
                            {
                                "name": "account",
                                "type": "address",
                                "value": "0x9ad32e3054268b849b84a8dbcc7c8f7c52e4e69a"
                            }
                        ],
                        "constructorArguments": "",
                        "name": "balanceOf",
                        "returnParams": [
                            {
                                "decimalAvailable": true,
                                "name": "",
                                "type": "uint256",
                                "value": "7,264,852,556,979,292,191"
                            }
                        ],
                        "signature": "balanceOf(address)"
                    },
                    "errorInfo": "",
                    "fromAddress": "0x9ad32e3054268b849b84a8dbcc7c8f7c52e4e69a",
                    "gasUsed": 1231,
                    "id": 27,
                    "methodDecoded": true,
                    "operation": "STATICCALL",
                    "output": "0x00000000000000000000000000000000000000000000000064d1f0e8e456c81f",
                    "revert": false,
                    "revertMessage": "",
                    "selector": "0x70a08231",
                    "status": true,
                    "value": "0"
                },
                "nodeType": 0
            },
            "28": {
                "invocation": {
                    "address": "0x55d398326f99059ff775485246999027b3197955",
                    "callData": "0x0000000000000000000000009ad32e3054268b849b84a8dbcc7c8f7c52e4e69a",
                    "decodedMethod": {
                        "callParams": [
                            {
                                "name": "account",
                                "type": "address",
                                "value": "0x9ad32e3054268b849b84a8dbcc7c8f7c52e4e69a"
                            }
                        ],
                        "constructorArguments": "",
                        "name": "balanceOf",
                        "returnParams": [
                            {
                                "decimalAvailable": true,
                                "name": "",
                                "type": "uint256",
                                "value": "1,243,763,239,827,755,213,151,683"
                            }
                        ],
                        "signature": "balanceOf(address)"
                    },
                    "errorInfo": "",
                    "fromAddress": "0x9ad32e3054268b849b84a8dbcc7c8f7c52e4e69a",
                    "gasUsed": 1231,
                    "id": 28,
                    "methodDecoded": true,
                    "operation": "STATICCALL",
                    "output": "0x0000000000000000000000000000000000000000000107608a53534676ae5dc3",
                    "revert": false,
                    "revertMessage": "",
                    "selector": "0x70a08231",
                    "status": true,
                    "value": "0"
                },
                "nodeType": 0
            },
            "29": {
                "invocation": {
                    "address": "0x2170ed0880ac9a755fd29b2688956bd959f933f8",
                    "callData": "0x0000000000000000000000009ad32e3054268b849b84a8dbcc7c8f7c52e4e69a",
                    "decodedMethod": {
                        "callParams": [
                            {
                                "name": "account",
                                "type": "address",
                                "value": "0x9ad32e3054268b849b84a8dbcc7c8f7c52e4e69a"
                            }
                        ],
                        "constructorArguments": "",
                        "name": "balanceOf",
                        "returnParams": [
                            {
                                "decimalAvailable": true,
                                "name": "",
                                "type": "uint256",
                                "value": "7,264,852,556,979,292,191"
                            }
                        ],
                        "signature": "balanceOf(address)"
                    },
                    "errorInfo": "",
                    "fromAddress": "0x9ad32e3054268b849b84a8dbcc7c8f7c52e4e69a",
                    "gasUsed": 1231,
                    "id": 29,
                    "methodDecoded": true,
                    "operation": "STATICCALL",
                    "output": "0x00000000000000000000000000000000000000000000000064d1f0e8e456c81f",
                    "revert": false,
                    "revertMessage": "",
                    "selector": "0x70a08231",
                    "status": true,
                    "value": "0"
                },
                "nodeType": 0
            },
            "3": {
                "invocation": {
                    "address": "0x55d398326f99059ff775485246999027b3197955",
                    "callData": "0x00000000000000000000000025d3e7e85108d03b0e778c4b5853b02206871d720000000000000000000000000000000000000000000107608a53534676ae5dc3",
                    "decodedMethod": {
                        "callParams": [
                            {
                                "name": "recipient",
                                "type": "address",
                                "value": "0x25d3e7e85108d03b0e778c4b5853b02206871d72"
                            },
                            {
                                "decimalAvailable": true,
                                "name": "amount",
                                "type": "uint256",
                                "value": "1,243,763,239,827,755,213,151,683"
                            }
                        ],
                        "constructorArguments": "",
                        "name": "transfer",
                        "returnParams": [
                            {
                                "name": "",
                                "type": "bool",
                                "value": true
                            }
                        ],
                        "signature": "transfer(address,uint256)"
                    },
                    "errorInfo": "",
                    "fromAddress": "0x9ad32e3054268b849b84a8dbcc7c8f7c52e4e69a",
                    "gasUsed": 29471,
                    "id": 3,
                    "methodDecoded": true,
                    "operation": "CALL",
                    "output": "0x0000000000000000000000000000000000000000000000000000000000000001",
                    "revert": false,
                    "revertMessage": "",
                    "selector": "0xa9059cbb",
                    "status": true,
                    "value": "0"
                },
                "nodeType": 0
            },
            "30": {
                "invocation": {
                    "address": "0x55d398326f99059ff775485246999027b3197955",
                    "callData": "0x0000000000000000000000009ad32e3054268b849b84a8dbcc7c8f7c52e4e69a",
                    "decodedMethod": {
                        "callParams": [
                            {
                                "name": "account",
                                "type": "address",
                                "value": "0x9ad32e3054268b849b84a8dbcc7c8f7c52e4e69a"
                            }
                        ],
                        "constructorArguments": "",
                        "name": "balanceOf",
                        "returnParams": [
                            {
                                "decimalAvailable": true,
                                "name": "",
                                "type": "uint256",
                                "value": "1,243,763,239,827,755,213,151,683"
                            }
                        ],
                        "signature": "balanceOf(address)"
                    },
                    "errorInfo": "",
                    "fromAddress": "0x9ad32e3054268b849b84a8dbcc7c8f7c52e4e69a",
                    "gasUsed": 1231,
                    "id": 30,
                    "methodDecoded": true,
                    "operation": "STATICCALL",
                    "output": "0x0000000000000000000000000000000000000000000107608a53534676ae5dc3",
                    "revert": false,
                    "revertMessage": "",
                    "selector": "0x70a08231",
                    "status": true,
                    "value": "0"
                },
                "nodeType": 0
            },
            "31": {
                "event": {
                    "contract": "0x9ad32e3054268b849b84a8dbcc7c8f7c52e4e69a",
                    "decodedLog": {
                        "name": "DODOFlashLoan",
                        "params": [
                            {
                                "name": "borrower",
                                "type": "address",
                                "value": "0x25d3e7e85108d03b0e778c4b5853b02206871d72"
                            },
                            {
                                "name": "assetTo",
                                "type": "address",
                                "value": "0x25d3e7e85108d03b0e778c4b5853b02206871d72"
                            },
                            {
                                "name": "baseAmount",
                                "type": "uint256",
                                "value": "0"
                            },
                            {
                                "name": "quoteAmount",
                                "type": "uint256",
                                "value": "1,243,763,239,827,755,213,151,683"
                            }
                        ],
                        "signature": "DODOFlashLoan(address,address,uint256,uint256)"
                    },
                    "id": 31,
                    "logData": "0x00000000000000000000000025d3e7e85108d03b0e778c4b5853b02206871d7200000000000000000000000025d3e7e85108d03b0e778c4b5853b02206871d7200000000000000000000000000000000000000000000000000000000000000000000000000000000000000000000000000000000000107608a53534676ae5dc3",
                    "logDecoded": true,
                    "operation": "EVENT",
                    "revert": false,
                    "status": true,
                    "topics": [
                        "0x0b82e93068db15abd9fbb2682c65462ea8a0a10582dce93a5664818e296f54eb"
                    ]
                },
                "nodeType": 1
            },
            "4": {
                "event": {
                    "contract": "0x55d398326f99059ff775485246999027b3197955",
                    "decodedLog": {
                        "name": "Transfer",
                        "params": [
                            {
                                "name": "from",
                                "type": "address",
                                "value": "0x9ad32e3054268b849b84a8dbcc7c8f7c52e4e69a"
                            },
                            {
                                "name": "to",
                                "type": "address",
                                "value": "0x25d3e7e85108d03b0e778c4b5853b02206871d72"
                            },
                            {
                                "decimalAvailable": true,
                                "name": "value",
                                "type": "uint256",
                                "value": "1,243,763,239,827,755,213,151,683"
                            }
                        ],
                        "signature": "Transfer(address,address,uint256)"
                    },
                    "id": 4,
                    "logData": "0x0000000000000000000000000000000000000000000107608a53534676ae5dc3",
                    "logDecoded": true,
                    "operation": "EVENT",
                    "revert": false,
                    "status": true,
                    "topics": [
                        "0xddf252ad1be2c89b69c2b068fc378daa952ba7f163c4a11628f55a4df523b3ef",
                        "0x0000000000000000000000009ad32e3054268b849b84a8dbcc7c8f7c52e4e69a",
                        "0x00000000000000000000000025d3e7e85108d03b0e778c4b5853b02206871d72"
                    ]
                },
                "nodeType": 1
            },
            "5": {
                "invocation": {
                    "address": "0x25d3e7e85108d03b0e778c4b5853b02206871d72",
                    "callData": "0x00000000000000000000000025d3e7e85108d03b0e778c4b5853b02206871d7200000000000000000000000000000000000000000000000000000000000000000000000000000000000000000000000000000000000107608a53534676ae5dc300000000000000000000000000000000000000000000000000000000000000800000000000000000000000000000000000000000000000000000000000000020000000000000000000000000ac899ef647533e0de91e269202f1169d7d47ae92",
                    "decodedMethod": {
                        "callParams": [
                            {
                                "name": "sender",
                                "type": "address",
                                "value": "0x25d3e7e85108d03b0e778c4b5853b02206871d72"
                            },
                            {
                                "name": "baseAmount",
                                "type": "uint256",
                                "value": "0"
                            },
                            {
                                "name": "quoteAmount",
                                "type": "uint256",
                                "value": "1,243,763,239,827,755,213,151,683"
                            },
                            {
                                "name": "data",
                                "type": "bytes",
                                "value": "0x000000000000000000000000ac899ef647533e0de91e269202f1169d7d47ae92"
                            }
                        ],
                        "constructorArguments": "",
                        "name": "DPPFlashLoanCall",
                        "returnParams": [],
                        "signature": "DPPFlashLoanCall(address,uint256,uint256,bytes)"
                    },
                    "errorInfo": "",
                    "fromAddress": "0x9ad32e3054268b849b84a8dbcc7c8f7c52e4e69a",
                    "gasUsed": 154127,
                    "id": 5,
                    "methodDecoded": true,
                    "operation": "CALL",
                    "output": "",
                    "revert": false,
                    "revertMessage": "",
                    "selector": "0x7ed1f1dd",
                    "status": true,
                    "value": "0"
                },
                "nodeType": 0
            },
            "6": {
                "invocation": {
                    "address": "0x55d398326f99059ff775485246999027b3197955",
                    "callData": "0x000000000000000000000000ac899ef647533e0de91e269202f1169d7d47ae92",
                    "decodedMethod": {
                        "callParams": [
                            {
                                "name": "account",
                                "type": "address",
                                "value": "0xac899ef647533e0de91e269202f1169d7d47ae92"
                            }
                        ],
                        "constructorArguments": "",
                        "name": "balanceOf",
                        "returnParams": [
                            {
                                "decimalAvailable": true,
                                "name": "",
                                "type": "uint256",
                                "value": "5,955,466,788,004,705,247,296"
                            }
                        ],
                        "signature": "balanceOf(address)"
                    },
                    "errorInfo": "",
                    "fromAddress": "0x25d3e7e85108d03b0e778c4b5853b02206871d72",
                    "gasUsed": 1231,
                    "id": 6,
                    "methodDecoded": true,
                    "operation": "STATICCALL",
                    "output": "0x000000000000000000000000000000000000000000000142d8b45246610aa040",
                    "revert": false,
                    "revertMessage": "",
                    "selector": "0x70a08231",
                    "status": true,
                    "value": "0"
                },
                "nodeType": 0
            },
            "7": {
                "invocation": {
                    "address": "0x55d398326f99059ff775485246999027b3197955",
                    "callData": "0x000000000000000000000000ac899ef647533e0de91e269202f1169d7d47ae92ffffffffffffffffffffffffffffffffffffffffffffffffffffffffffffffff",
                    "decodedMethod": {
                        "callParams": [
                            {
                                "name": "spender",
                                "type": "address",
                                "value": "0xac899ef647533e0de91e269202f1169d7d47ae92"
                            },
                            {
                                "decimalAvailable": true,
                                "name": "amount",
                                "type": "uint256",
                                "value": "115,792,089,237,316,195,423,570,985,008,687,907,853,269,984,665,640,564,039,457,584,007,913,129,639,935"
                            }
                        ],
                        "constructorArguments": "",
                        "name": "approve",
                        "returnParams": [
                            {
                                "name": "",
                                "type": "bool",
                                "value": true
                            }
                        ],
                        "signature": "approve(address,uint256)"
                    },
                    "errorInfo": "",
                    "fromAddress": "0x25d3e7e85108d03b0e778c4b5853b02206871d72",
                    "gasUsed": 22462,
                    "id": 7,
                    "methodDecoded": true,
                    "operation": "CALL",
                    "output": "0x0000000000000000000000000000000000000000000000000000000000000001",
                    "revert": false,
                    "revertMessage": "",
                    "selector": "0x095ea7b3",
                    "status": true,
                    "value": "0"
                },
                "nodeType": 0
            },
            "8": {
                "event": {
                    "contract": "0x55d398326f99059ff775485246999027b3197955",
                    "decodedLog": {
                        "name": "Approval",
                        "params": [
                            {
                                "name": "owner",
                                "type": "address",
                                "value": "0x25d3e7e85108d03b0e778c4b5853b02206871d72"
                            },
                            {
                                "name": "spender",
                                "type": "address",
                                "value": "0xac899ef647533e0de91e269202f1169d7d47ae92"
                            },
                            {
                                "decimalAvailable": true,
                                "name": "value",
                                "type": "uint256",
                                "value": "115,792,089,237,316,195,423,570,985,008,687,907,853,269,984,665,640,564,039,457,584,007,913,129,639,935"
                            }
                        ],
                        "signature": "Approval(address,address,uint256)"
                    },
                    "id": 8,
                    "logData": "0xffffffffffffffffffffffffffffffffffffffffffffffffffffffffffffffff",
                    "logDecoded": true,
                    "operation": "EVENT",
                    "revert": false,
                    "status": true,
                    "topics": [
                        "0x8c5be1e5ebec7d5bd14f71427d1e84f3dd0314c0f7b2291e5b200ac8c7c3b925",
                        "0x00000000000000000000000025d3e7e85108d03b0e778c4b5853b02206871d72",
                        "0x000000000000000000000000ac899ef647533e0de91e269202f1169d7d47ae92"
                    ]
                },
                "nodeType": 1
            },
            "9": {
                "invocation": {
                    "address": "0xac899ef647533e0de91e269202f1169d7d47ae92",
                    "callData": "0x0000000000000000000000000000000000000000000000000000000000000000000000000000000000000000000000000000000000000142d8b45246610aa040",
                    "decodedMethod": {
                        "callParams": [
                            {
                                "name": "_pid",
                                "type": "uint256",
                                "value": "0"
                            },
                            {
                                "name": "_amount",
                                "type": "uint256",
                                "value": "5,955,466,788,004,705,247,296"
                            }
                        ],
                        "constructorArguments": "",
                        "name": "deposit",
                        "returnParams": [],
                        "signature": "deposit(uint256,uint256)"
                    },
                    "errorInfo": "",
                    "fromAddress": "0x25d3e7e85108d03b0e778c4b5853b02206871d72",
                    "gasUsed": 51363,
                    "id": 9,
                    "methodDecoded": true,
                    "operation": "CALL",
                    "output": "",
                    "revert": false,
                    "revertMessage": "",
                    "selector": "0xe2bbb158",
                    "status": true,
                    "value": "0"
                },
                "nodeType": 0
            }
        },
        "gasFlame": [
            {
                "children": [
                    {
                        "children": [
                            {
                                "children": [],
                                "depth": 0,
                                "name": "Initial Gas",
                                "value": 21596
                            },
                            {
                                "children": [
                                    {
                                        "children": [],
                                        "depth": 1,
                                        "name": "balanceOf",
                                        "value": 1231
                                    },
                                    {
                                        "children": [
                                            {
                                                "children": [],
                                                "depth": 2,
                                                "name": "transfer",
                                                "value": 29471
                                            },
                                            {
                                                "children": [
                                                    {
                                                        "children": [],
                                                        "depth": 3,
                                                        "name": "balanceOf",
                                                        "value": 1231
                                                    },
                                                    {
                                                        "children": [],
                                                        "depth": 3,
                                                        "name": "approve",
                                                        "value": 22462
                                                    },
                                                    {
                                                        "children": [
                                                            {
                                                                "children": [],
                                                                "depth": 4,
                                                                "name": "approve",
                                                                "value": 7462
                                                            },
                                                            {
                                                                "children": [],
                                                                "depth": 4,
                                                                "name": "transferFrom",
                                                                "value": 14434
                                                            }
                                                        ],
                                                        "depth": 3,
                                                        "name": "deposit",
                                                        "value": 51363
                                                    },
                                                    {
                                                        "children": [
                                                            {
                                                                "children": [],
                                                                "depth": 4,
                                                                "name": "approve",
                                                                "value": 22462
                                                            },
                                                            {
                                                                "children": [],
                                                                "depth": 4,
                                                                "name": "transfer",
                                                                "value": 6071
                                                            }
                                                        ],
                                                        "depth": 3,
                                                        "name": "claim",
                                                        "value": 41422
                                                    },
                                                    {
                                                        "children": [],
                                                        "depth": 3,
                                                        "name": "allowance",
                                                        "value": 1338
                                                    },
                                                    {
                                                        "children": [],
                                                        "depth": 3,
                                                        "name": "transferFrom",
                                                        "value": 14434
                                                    },
                                                    {
                                                        "children": [],
                                                        "depth": 3,
                                                        "name": "balanceOf",
                                                        "value": 1231
                                                    },
                                                    {
                                                        "children": [],
                                                        "depth": 3,
                                                        "name": "transfer",
                                                        "value": 6071
                                                    }
                                                ],
                                                "depth": 2,
                                                "name": "DPPFlashLoanCall",
                                                "value": 154127
                                            },
                                            {
                                                "children": [],
                                                "depth": 2,
                                                "name": "balanceOf",
                                                "value": 1231
                                            },
                                            {
                                                "children": [],
                                                "depth": 2,
                                                "name": "balanceOf",
                                                "value": 1231
                                            },
                                            {
                                                "children": [],
                                                "depth": 2,
                                                "name": "balanceOf",
                                                "value": 1231
                                            },
                                            {
                                                "children": [],
                                                "depth": 2,
                                                "name": "balanceOf",
                                                "value": 1231
                                            }
                                        ],
                                        "depth": 1,
                                        "name": "flashLoan",
                                        "value": 219435
                                    }
                                ],
                                "depth": 0,
                                "name": "Executed Gas",
                                "value": 226402
                            }
                        ],
                        "depth": -1,
                        "name": "Actual Gas Used",
                        "value": 181998
                    },
                    {
                        "children": [],
                        "depth": -1,
                        "name": "Refunded Gas",
                        "value": 66000
                    }
                ],
                "depth": -2,
                "name": "Total Gas",
                "value": 247998
            }
        ],
        "isConfirmed": true,
        "mainTrace": [
            {
                "children": [
                    {
                        "children": [
                            {
                                "children": [],
                                "depth": 1,
                                "id": 1,
                                "order": 1
                            },
                            {
                                "children": [
                                    {
                                        "children": [
                                            {
                                                "children": [],
                                                "depth": 3,
                                                "id": 4,
                                                "order": 4
                                            }
                                        ],
                                        "depth": 2,
                                        "id": 3,
                                        "order": 3
                                    },
                                    {
                                        "children": [
                                            {
                                                "children": [],
                                                "depth": 3,
                                                "id": 6,
                                                "order": 6
                                            },
                                            {
                                                "children": [
                                                    {
                                                        "children": [],
                                                        "depth": 4,
                                                        "id": 8,
                                                        "order": 8
                                                    }
                                                ],
                                                "depth": 3,
                                                "id": 7,
                                                "order": 7
                                            },
                                            {
                                                "children": [
                                                    {
                                                        "children": [
                                                            {
                                                                "children": [],
                                                                "depth": 5,
                                                                "id": 11,
                                                                "order": 11
                                                            }
                                                        ],
                                                        "depth": 4,
                                                        "id": 10,
                                                        "order": 10
                                                    },
                                                    {
                                                        "children": [
                                                            {
                                                                "children": [],
                                                                "depth": 5,
                                                                "id": 13,
                                                                "order": 13
                                                            },
                                                            {
                                                                "children": [],
                                                                "depth": 5,
                                                                "id": 14,
                                                                "order": 14
                                                            }
                                                        ],
                                                        "depth": 4,
                                                        "id": 12,
                                                        "order": 12
                                                    }
                                                ],
                                                "depth": 3,
                                                "id": 9,
                                                "order": 9
                                            },
                                            {
                                                "children": [
                                                    {
                                                        "children": [
                                                            {
                                                                "children": [],
                                                                "depth": 5,
                                                                "id": 17,
                                                                "order": 17
                                                            }
                                                        ],
                                                        "depth": 4,
                                                        "id": 16,
                                                        "order": 16
                                                    },
                                                    {
                                                        "children": [
                                                            {
                                                                "children": [],
                                                                "depth": 5,
                                                                "id": 19,
                                                                "order": 19
                                                            }
                                                        ],
                                                        "depth": 4,
                                                        "id": 18,
                                                        "order": 18
                                                    }
                                                ],
                                                "depth": 3,
                                                "id": 15,
                                                "order": 15
                                            },
                                            {
                                                "children": [],
                                                "depth": 3,
                                                "id": 20,
                                                "order": 20
                                            },
                                            {
                                                "children": [
                                                    {
                                                        "children": [],
                                                        "depth": 4,
                                                        "id": 22,
                                                        "order": 22
                                                    },
                                                    {
                                                        "children": [],
                                                        "depth": 4,
                                                        "id": 23,
                                                        "order": 23
                                                    }
                                                ],
                                                "depth": 3,
                                                "id": 21,
                                                "order": 21
                                            },
                                            {
                                                "children": [],
                                                "depth": 3,
                                                "id": 24,
                                                "order": 24
                                            },
                                            {
                                                "children": [
                                                    {
                                                        "children": [],
                                                        "depth": 4,
                                                        "id": 26,
                                                        "order": 26
                                                    }
                                                ],
                                                "depth": 3,
                                                "id": 25,
                                                "order": 25
                                            }
                                        ],
                                        "depth": 2,
                                        "id": 5,
                                        "order": 5
                                    },
                                    {
                                        "children": [],
                                        "depth": 2,
                                        "id": 27,
                                        "order": 27
                                    },
                                    {
                                        "children": [],
                                        "depth": 2,
                                        "id": 28,
                                        "order": 28
                                    },
                                    {
                                        "children": [],
                                        "depth": 2,
                                        "id": 29,
                                        "order": 29
                                    },
                                    {
                                        "children": [],
                                        "depth": 2,
                                        "id": 30,
                                        "order": 30
                                    },
                                    {
                                        "children": [],
                                        "depth": 2,
                                        "id": 31,
                                        "order": 31
                                    }
                                ],
                                "depth": 1,
                                "id": 2,
                                "order": 2
                            }
                        ],
                        "depth": 0,
                        "id": 0,
                        "order": 0
                    }
                ],
                "depth": -1,
                "id": -1,
                "order": -1
            }
        ],
        "mainTraceNodeCount": 32,
        "parentIdMap": {
            "0": -1,
            "1": 0,
            "10": 9,
            "11": 10,
            "12": 9,
            "13": 12,
            "14": 12,
            "15": 5,
            "16": 15,
            "17": 16,
            "18": 15,
            "19": 18,
            "2": 0,
            "20": 5,
            "21": 5,
            "22": 21,
            "23": 21,
            "24": 5,
            "25": 5,
            "26": 25,
            "27": 2,
            "28": 2,
            "29": 2,
            "3": 2,
            "30": 2,
            "31": 2,
            "4": 3,
            "5": 2,
            "6": 5,
            "7": 5,
            "8": 7,
            "9": 5
        },
        "tidyTrace": [
            {
                "children": [
                    {
                        "children": [
                            {
                                "children": [
                                    {
                                        "children": [
                                            {
                                                "children": [],
                                                "depth": 3,
                                                "id": 4,
                                                "order": 4
                                            }
                                        ],
                                        "depth": 2,
                                        "id": 3,
                                        "order": 3
                                    },
                                    {
                                        "children": [
                                            {
                                                "children": [
                                                    {
                                                        "children": [],
                                                        "depth": 4,
                                                        "id": 8,
                                                        "order": 8
                                                    }
                                                ],
                                                "depth": 3,
                                                "id": 7,
                                                "order": 7
                                            },
                                            {
                                                "children": [
                                                    {
                                                        "children": [
                                                            {
                                                                "children": [],
                                                                "depth": 5,
                                                                "id": 11,
                                                                "order": 11
                                                            }
                                                        ],
                                                        "depth": 4,
                                                        "id": 10,
                                                        "order": 10
                                                    },
                                                    {
                                                        "children": [
                                                            {
                                                                "children": [],
                                                                "depth": 5,
                                                                "id": 13,
                                                                "order": 13
                                                            },
                                                            {
                                                                "children": [],
                                                                "depth": 5,
                                                                "id": 14,
                                                                "order": 14
                                                            }
                                                        ],
                                                        "depth": 4,
                                                        "id": 12,
                                                        "order": 12
                                                    }
                                                ],
                                                "depth": 3,
                                                "id": 9,
                                                "order": 9
                                            },
                                            {
                                                "children": [
                                                    {
                                                        "children": [
                                                            {
                                                                "children": [],
                                                                "depth": 5,
                                                                "id": 17,
                                                                "order": 17
                                                            }
                                                        ],
                                                        "depth": 4,
                                                        "id": 16,
                                                        "order": 16
                                                    },
                                                    {
                                                        "children": [
                                                            {
                                                                "children": [],
                                                                "depth": 5,
                                                                "id": 19,
                                                                "order": 19
                                                            }
                                                        ],
                                                        "depth": 4,
                                                        "id": 18,
                                                        "order": 18
                                                    }
                                                ],
                                                "depth": 3,
                                                "id": 15,
                                                "order": 15
                                            },
                                            {
                                                "children": [
                                                    {
                                                        "children": [],
                                                        "depth": 4,
                                                        "id": 22,
                                                        "order": 22
                                                    },
                                                    {
                                                        "children": [],
                                                        "depth": 4,
                                                        "id": 23,
                                                        "order": 23
                                                    }
                                                ],
                                                "depth": 3,
                                                "id": 21,
                                                "order": 21
                                            },
                                            {
                                                "children": [
                                                    {
                                                        "children": [],
                                                        "depth": 4,
                                                        "id": 26,
                                                        "order": 26
                                                    }
                                                ],
                                                "depth": 3,
                                                "id": 25,
                                                "order": 25
                                            }
                                        ],
                                        "depth": 2,
                                        "id": 5,
                                        "order": 5
                                    },
                                    {
                                        "children": [],
                                        "depth": 2,
                                        "id": 31,
                                        "order": 31
                                    }
                                ],
                                "depth": 1,
                                "id": 2,
                                "order": 2
                            }
                        ],
                        "depth": 0,
                        "id": 0,
                        "order": 0
                    }
                ],
                "depth": -1,
                "id": -1,
                "order": -1
            }
        ],
        "tidyTraceNodeCount": 24
    },
    "state_change": {
        "stateChanges": [
            {
                "address": "0x55d398326f99059ff775485246999027b3197955",
                "erc": "ERC-20",
                "slots": [
                    {
                        "current": "0x000000000000000000000000000000000000000000000142d8b45246610aa040",
                        "key": "0xa5d499fc5f4ad19c2841497e5462b48c99d45cb7bd3d351ec78e200a6cb7edf1",
                        "prev": "0x0000000000000000000000000000000000000000000000000000000000000000"
                    },
                    {
                        "current": "0xfffffffffffffffffffffffffffffffffffffffffffffebd274badb99ef55fbf",
                        "key": "0x8fd4ee1f9181dce3a7089a51df36b21c7edd677fd55c084e8dcf42e58d96a519",
                        "prev": "0x0000000000000000000000000000000000000000000000000000000000000000"
                    },
                    {
                        "current": "0x000000000000000000000000000000000000000000000142d8b45246610aa040",
                        "key": "0xf539c1faad42a0617c3daa7b13970995923716a63033120ba9df15c6ffd18c10",
                        "prev": "0x0000000000000000000000000000000000000000000000007ce66c50e2840000"
                    },
                    {
                        "current": "0x0000000000000000000000000000000000000000000000000000000000000000",
                        "key": "0xdc2360dee3d9de71b71f1e86fe478e57079951113e469247a18963834f2f0a28",
                        "prev": "0x000000000000000000000000000000000000000000000142d8b45246610aa040"
                    }
                ],
                "storageVariables": [
                    {
                        "name": "_balances",
                        "type": "mapping(address => uint256)",
                        "value": {
                            "pairs": [
                                {
                                    "key": "0x25d3e7e85108d03b0e778c4b5853b02206871d72",
                                    "value": {
                                        "current": "5955466788004705247296",
                                        "prev": "0",
                                        "typeTag": 1
                                    }
                                },
                                {
                                    "key": "0xac899ef647533e0de91e269202f1169d7d47ae92",
                                    "value": {
                                        "current": "0",
                                        "prev": "5955466788004705247296",
                                        "typeTag": 1
                                    }
                                }
                            ],
                            "typeTag": 4
                        }
                    },
                    {
                        "name": "_allowances",
                        "type": "mapping(address => mapping(address => uint256))",
                        "value": {
                            "pairs": [
                                {
                                    "key": "0x25d3e7e85108d03b0e778c4b5853b02206871d72",
                                    "value": {
                                        "pairs": [
                                            {
                                                "key": "0xac899ef647533e0de91e269202f1169d7d47ae92",
                                                "value": {
                                                    "current": "115792089237316195423570985008687907853269984665640564033502117219908424392639",
                                                    "prev": "0",
                                                    "typeTag": 1
                                                }
                                            }
                                        ],
                                        "typeTag": 4
                                    }
                                },
                                {
                                    "key": "0xac899ef647533e0de91e269202f1169d7d47ae92",
                                    "value": {
                                        "pairs": [
                                            {
                                                "key": "0xac899ef647533e0de91e269202f1169d7d47ae92",
                                                "value": {
                                                    "current": "5955466788004705247296",
                                                    "prev": "9000000000000000000",
                                                    "typeTag": 1
                                                }
                                            }
                                        ],
                                        "typeTag": 4
                                    }
                                }
                            ],
                            "typeTag": 4
                        }
                    }
                ]
            }
        ]
    }
}