{
    "balance_change": {
        "balanceChanges": [
            {
                "account": "0x19066f7431df29a0910d287c8822936bb7d89e23",
                "assets": [
                    {
                        "address": "0xeeeeeeeeeeeeeeeeeeeeeeeeeeeeeeeeeeeeeeee",
                        "amount": "479.393838338750964434",
                        "iconUrl": "https://assets.blocksec.com/image/1663669189317-3.png",
                        "isERC1155": false,
                        "isERC721": false,
                        "sign": true,
                        "value": "1443114.4774961069826"
                    }
                ]
            },
            {
                "account": "0xfc7599cffea9de127a9f9c748ccb451a34d2f063",
                "assets": [
                    {
                        "address": "0xeeeeeeeeeeeeeeeeeeeeeeeeeeeeeeeeeeeeeeee",
                        "amount": "479.393838338750964434",
                        "iconUrl": "https://assets.blocksec.com/image/1663669189317-3.png",
                        "isERC1155": false,
                        "isERC721": false,
                        "sign": false,
                        "value": "1443114.4774961069826"
                    }
                ]
            }
        ]
    },
    "profile": {
        "basic_info": {
            "baseFee": "8.363487326",
            "blockNumber": 19771059,
            "callData": "0xf2afdff3000000000000000000000000fc7599cffea9de127a9f9c748ccb451a34d2f06300000000000000000000000000000000000000000000000000000000000000400000000000000000000000000000000000000000000000000000000000000001000000000000000000000000912ce59144191c1204e64559fe8253a0e49e6548",
            "debugEnable": true,
            "errorInfo": "",
            "eventCount": 2,
            "feeRecipient": "0x388c818ca8b9251b393131c08a736a67ccb19297",
            "formatValue": "0",
            "gasLimit": 1500000,
            "gasPrice": "40",
            "gasUsed": 91104,
            "intTxnCount": 7,
            "internalRevert": false,
            "internalRevertMessage": "",
            "isContractCreation": false,
            "isFlashloan": false,
            "maxFee": "",
            "nonce": 1,
            "overwritedBlockNumber": -1,
            "priorityFee": "",
            "receiver": "0x1da4bc596bfb1087f2f7999b0340fcba03c47fbd",
            "revertMessage": "",
            "sender": "0x19066f7431df29a0910d287c8822936bb7d89e23",
            "simulationEnable": true,
            "sourceTxnHash": "0xe2912b8bf34d561983f2ae95f34e33ecc7792a2905a3e317fcc98052bce66431",
            "status": true,
            "timestamp": "2024-04-30T22:19:11Z",
            "transactionFee": "0.00364416",
            "txnHash": "0xe2912b8bf34d561983f2ae95f34e33ecc7792a2905a3e317fcc98052bce66431",
            "txnIndex": 3,
            "type": 0,
            "value": "0"
        },
        "fund_flow": [
            {
                "amount": "479.393838338750964434",
                "from": "0xfc7599cffea9de127a9f9c748ccb451a34d2f063",
                "id": 1,
                "isERC1155": false,
                "isERC721": false,
                "isReverted": false,
                "order": 1,
                "to": "0x19066f7431df29a0910d287c8822936bb7d89e23",
                "token": "0xeeeeeeeeeeeeeeeeeeeeeeeeeeeeeeeeeeeeeeee"
            }
        ],
        "token_infos": [
            {
                "address": "0xeeeeeeeeeeeeeeeeeeeeeeeeeeeeeeeeeeeeeeee",
                "decimals": 18
            },
            {
                "address": "0xc02aaa39b223fe8d0a0e5c4f27ead9083c756cc2",
                "decimals": 18
            }
        ]
    },
    "address_label": {
        "labels": [
            {
                "address": "0x19066f7431df29a0910d287c8822936bb7d89e23",
                "label": "Pike Finance Exploiter"
            },
            {
                "address": "0x388c818ca8b9251b393131c08a736a67ccb19297",
                "label": "LidoExecutionLayerRewardsVault"
            },
            {
                "address": "0x0000000000000000000000000000000000000001",
                "label": "Precompiled"
            },
            {
                "address": "0x0000000000000000000000000000000000000002",
                "label": "Precompiled"
            },
            {
                "address": "0x0000000000000000000000000000000000000003",
                "label": "Precompiled"
            },
            {
                "address": "0x0000000000000000000000000000000000000004",
                "label": "Precompiled"
            },
            {
                "address": "0xeeeeeeeeeeeeeeeeeeeeeeeeeeeeeeeeeeeeeeee",
                "label": "Ether"
            }
        ]
    },
    "trace": {
        "accountLabels": null,
        "dataMap": {
            "-1": {
                "invocation": {
                    "address": "0x19066f7431df29a0910d287c8822936bb7d89e23",
                    "callData": "",
                    "decodedMethod": null,
                    "errorInfo": "",
                    "fromAddress": "",
                    "gasUsed": 0,
                    "id": -1,
                    "methodDecoded": false,
                    "operation": "",
                    "output": "",
                    "revert": false,
                    "revertMessage": "",
                    "selector": "",
                    "status": false,
                    "value": ""
                },
                "nodeType": 0
            },
            "0": {
                "invocation": {
                    "address": "0x1da4bc596bfb1087f2f7999b0340fcba03c47fbd",
                    "callData": "0x000000000000000000000000fc7599cffea9de127a9f9c748ccb451a34d2f06300000000000000000000000000000000000000000000000000000000000000400000000000000000000000000000000000000000000000000000000000000001000000000000000000000000912ce59144191c1204e64559fe8253a0e49e6548",
                    "decodedMethod": null,
                    "errorInfo": "",
                    "fromAddress": "0x19066f7431df29a0910d287c8822936bb7d89e23",
                    "gasUsed": 91104,
                    "id": 0,
                    "methodDecoded": false,
                    "operation": "CALL",
                    "output": "",
                    "revert": false,
                    "revertMessage": "",
                    "selector": "0xf2afdff3",
                    "status": true,
                    "value": "0"
                },
                "nodeType": 0
            },
            "1": {
                "invocation": {
                    "address": "0xfc7599cffea9de127a9f9c748ccb451a34d2f063",
                    "callData": "0x0000000000000000000000001da4bc596bfb1087f2f7999b0340fcba03c47fbd0000000000000000000000001da4bc596bfb1087f2f7999b0340fcba03c47fbd0000000000000000000000001da4bc596bfb1087f2f7999b0340fcba03c47fbd0000000000000000000000001da4bc596bfb1087f2f7999b0340fcba03c47fbd00000000000000000000000000000000000000000000000000000000000000140000000000000000000000000000000000000000000000000000000000000014",
                    "decodedMethod": {
                        "callParams": [
                            {
                                "name": "_owner",
                                "type": "address",
                                "value": "0x1da4bc596bfb1087f2f7999b0340fcba03c47fbd"
                            },
                            {
                                "name": "_WNativeAddress",
                                "type": "address",
                                "value": "0x1da4bc596bfb1087f2f7999b0340fcba03c47fbd"
                            },
                            {
                                "name": "_uniswapHelperAddress",
                                "type": "address",
                                "value": "0x1da4bc596bfb1087f2f7999b0340fcba03c47fbd"
                            },
                            {
                                "name": "tokenAddress",
                                "type": "address",
                                "value": "0x1da4bc596bfb1087f2f7999b0340fcba03c47fbd"
                            },
                            {
                                "name": "_swapFee",
                                "type": "uint16",
                                "value": "20"
                            },
                            {
                                "name": "_withdrawFee",
                                "type": "uint16",
                                "value": "20"
                            }
                        ],
                        "constructorArguments": "",
                        "name": "initialize",
                        "returnParams": [],
                        "signature": "initialize(address,address,address,address,uint16,uint16)"
                    },
                    "errorInfo": "",
                    "fromAddress": "0x1da4bc596bfb1087f2f7999b0340fcba03c47fbd",
                    "gasUsed": 40247,
                    "id": 1,
                    "methodDecoded": true,
                    "operation": "CALL",
                    "output": "",
                    "revert": false,
                    "revertMessage": "",
                    "selector": "0xfb5e556c",
                    "status": true,
                    "value": "0"
                },
                "nodeType": 0
            },
            "2": {
                "invocation": {
                    "address": "0xb30c120eb92c120bf11b358b4b9961e6679b6ae7",
                    "callData": "0x0000000000000000000000001da4bc596bfb1087f2f7999b0340fcba03c47fbd0000000000000000000000001da4bc596bfb1087f2f7999b0340fcba03c47fbd0000000000000000000000001da4bc596bfb1087f2f7999b0340fcba03c47fbd0000000000000000000000001da4bc596bfb1087f2f7999b0340fcba03c47fbd00000000000000000000000000000000000000000000000000000000000000140000000000000000000000000000000000000000000000000000000000000014",
                    "decodedMethod": {
                        "callParams": [
                            {
                                "name": "_owner",
                                "type": "address",
                                "value": "0x1da4bc596bfb1087f2f7999b0340fcba03c47fbd"
                            },
                            {
                                "name": "_WNativeAddress",
                                "type": "address",
                                "value": "0x1da4bc596bfb1087f2f7999b0340fcba03c47fbd"
                            },
                            {
                                "name": "_uniswapHelperAddress",
                                "type": "address",
                                "value": "0x1da4bc596bfb1087f2f7999b0340fcba03c47fbd"
                            },
                            {
                                "name": "tokenAddress",
                                "type": "address",
                                "value": "0x1da4bc596bfb1087f2f7999b0340fcba03c47fbd"
                            },
                            {
                                "name": "_swapFee",
                                "type": "uint16",
                                "value": "20"
                            },
                            {
                                "name": "_withdrawFee",
                                "type": "uint16",
                                "value": "20"
                            }
                        ],
                        "constructorArguments": "",
                        "name": "initialize",
                        "returnParams": [],
                        "signature": "initialize(address,address,address,address,uint16,uint16)"
                    },
                    "errorInfo": "",
                    "fromAddress": "0xfc7599cffea9de127a9f9c748ccb451a34d2f063",
                    "gasUsed": 35325,
                    "id": 2,
                    "methodDecoded": true,
                    "operation": "DELEGATECALL",
                    "output": "",
                    "revert": false,
                    "revertMessage": "",
                    "selector": "0xfb5e556c",
                    "status": true,
                    "value": "0"
                },
                "nodeType": 0
            },
            "3": {
                "event": {
                    "contract": "0xfc7599cffea9de127a9f9c748ccb451a34d2f063",
                    "decodedLog": {
                        "name": "Initialized",
                        "params": [
                            {
                                "name": "version",
                                "type": "uint8",
                                "value": "1"
                            }
                        ],
                        "signature": "Initialized(uint8)"
                    },
                    "id": 3,
                    "logData": "0x0000000000000000000000000000000000000000000000000000000000000001",
                    "logDecoded": true,
                    "operation": "EVENT",
                    "revert": false,
                    "status": true,
                    "topics": [
                        "0x7f26b83ff96e1f2b6a682f133852f6798a09c465da95921460cefb3847402498"
                    ]
                },
                "nodeType": 1
            },
            "4": {
                "invocation": {
                    "address": "0xfc7599cffea9de127a9f9c748ccb451a34d2f063",
                    "callData": "0x0000000000000000000000001da4bc596bfb1087f2f7999b0340fcba03c47fbd00000000000000000000000000000000000000000000000000000000000000400000000000000000000000000000000000000000000000000000000000000064fbd28ffb00000000000000000000000000000000000000000000000000000000000000200000000000000000000000000000000000000000000000000000000000000001000000000000000000000000912ce59144191c1204e64559fe8253a0e49e654800000000000000000000000000000000000000000000000000000000",
                    "decodedMethod": {
                        "callParams": [
                            {
                                "name": "newImplementation",
                                "type": "address",
                                "value": "0x1da4bc596bfb1087f2f7999b0340fcba03c47fbd"
                            },
                            {
                                "name": "data",
                                "type": "bytes",
                                "value": "0xfbd28ffb00000000000000000000000000000000000000000000000000000000000000200000000000000000000000000000000000000000000000000000000000000001000000000000000000000000912ce59144191c1204e64559fe8253a0e49e6548"
                            }
                        ],
                        "constructorArguments": "",
                        "name": "upgradeToAndCall",
                        "returnParams": [],
                        "signature": "upgradeToAndCall(address,bytes)"
                    },
                    "errorInfo": "",
                    "fromAddress": "0x1da4bc596bfb1087f2f7999b0340fcba03c47fbd",
                    "gasUsed": 17647,
                    "id": 4,
                    "methodDecoded": true,
                    "operation": "CALL",
                    "output": "",
                    "revert": false,
                    "revertMessage": "",
                    "selector": "0x4f1ef286",
                    "status": true,
                    "value": "0"
                },
                "nodeType": 0
            },
            "5": {
                "invocation": {
                    "address": "0xb30c120eb92c120bf11b358b4b9961e6679b6ae7",
                    "callData": "0x0000000000000000000000001da4bc596bfb1087f2f7999b0340fcba03c47fbd00000000000000000000000000000000000000000000000000000000000000400000000000000000000000000000000000000000000000000000000000000064fbd28ffb00000000000000000000000000000000000000000000000000000000000000200000000000000000000000000000000000000000000000000000000000000001000000000000000000000000912ce59144191c1204e64559fe8253a0e49e654800000000000000000000000000000000000000000000000000000000",
                    "decodedMethod": {
                        "callParams": [
                            {
                                "name": "newImplementation",
                                "type": "address",
                                "value": "0x1da4bc596bfb1087f2f7999b0340fcba03c47fbd"
                            },
                            {
                                "name": "data",
                                "type": "bytes",
                                "value": "0xfbd28ffb00000000000000000000000000000000000000000000000000000000000000200000000000000000000000000000000000000000000000000000000000000001000000000000000000000000912ce59144191c1204e64559fe8253a0e49e6548"
                            }
                        ],
                        "constructorArguments": "",
                        "name": "upgradeToAndCall",
                        "returnParams": [],
                        "signature": "upgradeToAndCall(address,bytes)"
                    },
                    "errorInfo": "",
                    "fromAddress": "0xfc7599cffea9de127a9f9c748ccb451a34d2f063",
                    "gasUsed": 17219,
                    "id": 5,
                    "methodDecoded": true,
                    "operation": "DELEGATECALL",
                    "output": "",
                    "revert": false,
                    "revertMessage": "",
                    "selector": "0x4f1ef286",
                    "status": true,
                    "value": "0"
                },
                "nodeType": 0
            },
            "6": {
                "invocation": {
                    "address": "0x1da4bc596bfb1087f2f7999b0340fcba03c47fbd",
                    "callData": "0x",
                    "decodedMethod": {
                        "callParams": [],
                        "constructorArguments": "",
                        "name": "proxiableUUID",
                        "returnParams": [
                            {
                                "name": "",
                                "type": "bytes32",
                                "value": "0x360894a13ba1a3210667c828492db98dca3e2076cc3735a920a3ca505d382bbc"
                            }
                        ],
                        "signature": "proxiableUUID()"
                    },
                    "errorInfo": "",
                    "fromAddress": "0xfc7599cffea9de127a9f9c748ccb451a34d2f063",
                    "gasUsed": 315,
                    "id": 6,
                    "methodDecoded": true,
                    "operation": "STATICCALL",
                    "output": "0x360894a13ba1a3210667c828492db98dca3e2076cc3735a920a3ca505d382bbc",
                    "revert": false,
                    "revertMessage": "",
                    "selector": "0x52d1902d",
                    "status": true,
                    "value": "0"
                },
                "nodeType": 0
            },
            "7": {
                "event": {
                    "contract": "0xfc7599cffea9de127a9f9c748ccb451a34d2f063",
                    "decodedLog": {
                        "name": "Upgraded",
                        "params": [
                            {
                                "name": "implementation",
                                "type": "address",
                                "value": "0x1da4bc596bfb1087f2f7999b0340fcba03c47fbd"
                            }
                        ],
                        "signature": "Upgraded(address)"
                    },
                    "id": 7,
                    "logData": "0x",
                    "logDecoded": true,
                    "operation": "EVENT",
                    "revert": false,
                    "status": true,
                    "topics": [
                        "0xbc7cd75a20ee27fd9adebab32041f755214dbc6bffa90cc0225b39da2e5c2d3b",
                        "0x0000000000000000000000001da4bc596bfb1087f2f7999b0340fcba03c47fbd"
                    ]
                },
                "nodeType": 1
            },
            "8": {
                "invocation": {
                    "address": "0x1da4bc596bfb1087f2f7999b0340fcba03c47fbd",
                    "callData": "0x00000000000000000000000000000000000000000000000000000000000000200000000000000000000000000000000000000000000000000000000000000001000000000000000000000000912ce59144191c1204e64559fe8253a0e49e6548",
                    "decodedMethod": null,
                    "errorInfo": "",
                    "fromAddress": "0xfc7599cffea9de127a9f9c748ccb451a34d2f063",
                    "gasUsed": 7501,
                    "id": 8,
                    "methodDecoded": false,
                    "operation": "DELEGATECALL",
                    "output": "",
                    "revert": false,
                    "revertMessage": "",
                    "selector": "0xfbd28ffb",
                    "status": true,
                    "value": "0"
                },
                "nodeType": 0
            },
            "9": {
                "invocation": {
                    "address": "0x19066f7431df29a0910d287c8822936bb7d89e23",
                    "callData": "0x",
                    "decodedMethod": null,
                    "errorInfo": "",
                    "fromAddress": "0xfc7599cffea9de127a9f9c748ccb451a34d2f063",
                    "gasUsed": 0,
                    "id": 9,
                    "methodDecoded": false,
                    "operation": "CALL",
                    "output": "",
                    "revert": false,
                    "revertMessage": "",
                    "selector": "fallback",
                    "status": true,
                    "value": "479.393838338750964434"
                },
                "nodeType": 0
            }
        },
        "gasFlame": [
            {
                "children": [
                    {
                        "children": [
                            {
                                "children": [],
                                "depth": 0,
                                "name": "Initial Gas",
                                "value": 22080
                            },
                            {
                                "children": [
                                    {
                                        "children": [
                                            {
                                                "children": [],
                                                "depth": 2,
                                                "name": "initialize",
                                                "value": 35325
                                            }
                                        ],
                                        "depth": 1,
                                        "name": "initialize",
                                        "value": 40247
                                    },
                                    {
                                        "children": [
                                            {
                                                "children": [
                                                    {
                                                        "children": [],
                                                        "depth": 3,
                                                        "name": "proxiableUUID",
                                                        "value": 315
                                                    },
                                                    {
                                                        "children": [
                                                            {
                                                                "children": [],
                                                                "depth": 4,
                                                                "name": "fallback",
                                                                "value": 0
                                                            }
                                                        ],
                                                        "depth": 3,
                                                        "name": "0xfbd28ffb",
                                                        "value": 7501
                                                    }
                                                ],
                                                "depth": 2,
                                                "name": "upgradeToAndCall",
                                                "value": 17219
                                            }
                                        ],
                                        "depth": 1,
                                        "name": "upgradeToAndCall",
                                        "value": 17647
                                    }
                                ],
                                "depth": 0,
                                "name": "Executed Gas",
                                "value": 69024
                            }
                        ],
                        "depth": -1,
                        "name": "Actual Gas Used",
                        "value": 91104
                    },
                    {
                        "children": [],
                        "depth": -1,
                        "name": "Refunded Gas",
                        "value": 0
                    }
                ],
                "depth": -2,
                "name": "Total Gas",
                "value": 91104
            }
        ],
        "isConfirmed": true,
        "mainTrace": [
            {
                "children": [
                    {
                        "children": [
                            {
                                "children": [
                                    {
                                        "children": [
                                            {
                                                "children": [],
                                                "depth": 3,
                                                "id": 3,
                                                "order": 3
                                            }
                                        ],
                                        "depth": 2,
                                        "id": 2,
                                        "order": 2
                                    }
                                ],
                                "depth": 1,
                                "id": 1,
                                "order": 1
                            },
                            {
                                "children": [
                                    {
                                        "children": [
                                            {
                                                "children": [],
                                                "depth": 3,
                                                "id": 6,
                                                "order": 6
                                            },
                                            {
                                                "children": [],
                                                "depth": 3,
                                                "id": 7,
                                                "order": 7
                                            },
                                            {
                                                "children": [
                                                    {
                                                        "children": [],
                                                        "depth": 4,
                                                        "id": 9,
                                                        "order": 9
                                                    }
                                                ],
                                                "depth": 3,
                                                "id": 8,
                                                "order": 8
                                            }
                                        ],
                                        "depth": 2,
                                        "id": 5,
                                        "order": 5
                                    }
                                ],
                                "depth": 1,
                                "id": 4,
                                "order": 4
                            }
                        ],
                        "depth": 0,
                        "id": 0,
                        "order": 0
                    }
                ],
                "depth": -1,
                "id": -1,
                "order": -1
            }
        ],
        "mainTraceNodeCount": 10,
        "parentIdMap": {
            "0": -1,
            "1": 0,
            "2": 1,
            "3": 2,
            "4": 0,
            "5": 4,
            "6": 5,
            "7": 5,
            "8": 5,
            "9": 8
        },
        "tidyTrace": [
            {
                "children": [
                    {
                        "children": [
                            {
                                "children": [
                                    {
                                        "children": [
                                            {
                                                "children": [],
                                                "depth": 3,
                                                "id": 3,
                                                "order": 3
                                            }
                                        ],
                                        "depth": 2,
                                        "id": 2,
                                        "order": 2
                                    }
                                ],
                                "depth": 1,
                                "id": 1,
                                "order": 1
                            },
                            {
                                "children": [
                                    {
                                        "children": [
                                            {
                                                "children": [],
                                                "depth": 3,
                                                "id": 7,
                                                "order": 7
                                            },
                                            {
                                                "children": [
                                                    {
                                                        "children": [],
                                                        "depth": 4,
                                                        "id": 9,
                                                        "order": 9
                                                    }
                                                ],
                                                "depth": 3,
                                                "id": 8,
                                                "order": 8
                                            }
                                        ],
                                        "depth": 2,
                                        "id": 5,
                                        "order": 5
                                    }
                                ],
                                "depth": 1,
                                "id": 4,
                                "order": 4
                            }
                        ],
                        "depth": 0,
                        "id": 0,
                        "order": 0
                    }
                ],
                "depth": -1,
                "id": -1,
                "order": -1
            }
        ],
        "tidyTraceNodeCount": 9
    },
    "state_change": {
        "stateChanges": [
            {
                "address": "0xfc7599cffea9de127a9f9c748ccb451a34d2f063",
                "erc": "",
                "slots": [
                    {
                        "current": "0x0000000000000000000000000000000000000000000000000000000000000101",
                        "key": "0x000000000000000000000000000000000000000000000000000000000000000b",
                        "prev": "0x0000000000000000000000000000000000000000000000000000000000000001"
                    },
                    {
                        "current": "0x0000000000000000000000001da4bc596bfb1087f2f7999b0340fcba03c47fbd",
                        "key": "0x0000000000000000000000000000000000000000000000000000000000000001",
                        "prev": "0x000000000000000000000000c933f7df0cf39909cec3eb4d507caabbefd45432"
                    },
                    {
                        "current": "0x0000000000000000000000001da4bc596bfb1087f2f7999b0340fcba03c47fbd",
                        "key": "0x360894a13ba1a3210667c828492db98dca3e2076cc3735a920a3ca505d382bbc",
                        "prev": "0x000000000000000000000000b30c120eb92c120bf11b358b4b9961e6679b6ae7"
                    },
                    {
                        "current": "0x0000000000000000000000001da4bc596bfb1087f2f7999b0340fcba03c47fbd",
                        "key": "0x0000000000000000000000000000000000000000000000000000000000000002",
                        "prev": "0x00000000000000000000000046adcf744d7c532d55cd899df3c7b0e64e1a587c"
                    },
                    {
                        "current": "0x0000000000000000000000001da4bc596bfb1087f2f7999b0340fcba03c47fbd",
                        "key": "0x0000000000000000000000000000000000000000000000000000000000000003",
                        "prev": "0x00000000000000000000000027428dd2d3dd32a4d7f7c497eaaa23130d894911"
                    },
                    {
                        "current": "0x0000000000000000000000001da4bc596bfb1087f2f7999b0340fcba03c47fbd",
                        "key": "0x0000000000000000000000000000000000000000000000000000000000000004",
                        "prev": "0x00000000000000000000000054fd7ba87ddbdb4b8a28aee34ab8ffc4004687de"
                    },
                    {
                        "current": "0x000000000000001da4bc596bfb1087f2f7999b0340fcba03c47fbd0014001401",
                        "key": "0x0000000000000000000000000000000000000000000000000000000000000000",
                        "prev": "0x00000000000000b1ea97c9f68978905fb1bf5089e71a073bc4f5c80002001e01"
                    }
                ],
                "storageVariables": [
                    {
                        "name": "logic contract address(EIP1967)",
                        "type": "address",
                        "value": {
                            "current": "0x1da4bc596bfb1087f2f7999b0340fcba03c47fbd",
                            "prev": "0xb30c120eb92c120bf11b358b4b9961e6679b6ae7",
                            "typeTag": 1
                        }
                    }
                ]
            }
        ]
    }
}