{
    "balance_change": {
        "balanceChanges": [
            {
                "account": "0xfa2731d0bede684993ab1109db7ecf5bf33e8051",
                "assets": [
                    {
                        "address": "0xeeeeeeeeeeeeeeeeeeeeeeeeeeeeeeeeeeeeeeee",
                        "amount": "274.686613834949640784",
                        "iconUrl": "https://assets.blocksec.com/image/1663669189317-3.png",
                        "isERC1155": false,
                        "isERC721": false,
                        "sign": true,
                        "value": "856040.0229"
                    }
                ]
            },
            {
                "account": "0x3ee505ba316879d246a8fd2b3d7ee63b51b44fab",
                "assets": [
                    {
                        "address": "0xc02aaa39b223fe8d0a0e5c4f27ead9083c756cc2",
                        "amount": "308.636644758370382903",
                        "iconUrl": "https://assets.blocksec.com/icon/f1cb2d02c471d545bbc7722daf3277fd852d98e63d118771af7047bd8256c516.png",
                        "isERC1155": false,
                        "isERC721": false,
                        "sign": false,
                        "value": "1135909.0096357452019"
                    }
                ]
            },
            {
                "account": "0xc02aaa39b223fe8d0a0e5c4f27ead9083c756cc2",
                "assets": [
                    {
                        "address": "0xc02aaa39b223fe8d0a0e5c4f27ead9083c756cc2",
                        "amount": "308.636644758370382903",
                        "iconUrl": "https://assets.blocksec.com/icon/f1cb2d02c471d545bbc7722daf3277fd852d98e63d118771af7047bd8256c516.png",
                        "isERC1155": false,
                        "isERC721": false,
                        "sign": true,
                        "value": "1135909.0096357452019"
                    },
                    {
                        "address": "0xeeeeeeeeeeeeeeeeeeeeeeeeeeeeeeeeeeeeeeee",
                        "amount": "308.636644758370382903",
                        "iconUrl": "https://assets.blocksec.com/image/1663669189317-3.png",
                        "isERC1155": false,
                        "isERC721": false,
                        "sign": false,
                        "value": "961842.7226"
                    }
                ]
            },
            {
                "account": "0xea674fdde714fd979de3edf0f56aa9716b898ec8",
                "assets": [
                    {
                        "address": "0xeeeeeeeeeeeeeeeeeeeeeeeeeeeeeeeeeeeeeeee",
                        "amount": "33.95003092342074212",
                        "iconUrl": "https://assets.blocksec.com/image/1663669189317-3.png",
                        "isERC1155": false,
                        "isERC721": false,
                        "sign": true,
                        "value": "105802.6995"
                    }
                ]
            }
        ]
    },
    "profile": {
        "basic_info": {
            "baseFee": "163.522510305",
            "blockNumber": 14037237,
            "callData": "0x455a31910000000000000000000000003ee505ba316879d246a8fd2b3d7ee63b51b44fab000000000000000000000000000000000000000000000010bb31a12e4317f437000000000000000000000000000000000000000000000000000000000000000b",
            "debugEnable": true,
            "errorInfo": "",
            "eventCount": 4,
            "feeRecipient": "0xea674fdde714fd979de3edf0f56aa9716b898ec8",
            "formatValue": "0",
            "gasLimit": 700000,
            "gasPrice": "163.522510305",
            "gasUsed": 81544,
            "intTxnCount": 11,
            "internalRevert": false,
            "internalRevertMessage": "",
            "isContractCreation": false,
            "isFlashloan": false,
            "maxFee": "217.730473099",
            "nonce": 73,
            "overwritedBlockNumber": -1,
            "priorityFee": "0",
            "receiver": "0xb5c827fdbbee6f6e9df3a5cb499aedf5927de1b8",
            "revertMessage": "",
            "sender": "0xfa2731d0bede684993ab1109db7ecf5bf33e8051",
            "simulationEnable": true,
            "sourceTxnHash": "0xe50ed602bd916fc304d53c4fed236698b71691a95774ff0aeeb74b699c6227f7",
            "status": true,
            "timestamp": "2022-01-19T17:12:38Z",
            "transactionFee": "0.01333427958031092",
            "txnHash": "0xe50ed602bd916fc304d53c4fed236698b71691a95774ff0aeeb74b699c6227f7",
            "txnIndex": 0,
            "type": 2,
            "value": "0"
        },
        "fund_flow": [
            {
                "amount": "308.636644758370382903",
                "from": "0x3ee505ba316879d246a8fd2b3d7ee63b51b44fab",
                "id": 1,
                "isERC1155": false,
                "isERC721": false,
                "isReverted": false,
                "order": 1,
                "to": "0xb5c827fdbbee6f6e9df3a5cb499aedf5927de1b8",
                "token": "0xc02aaa39b223fe8d0a0e5c4f27ead9083c756cc2"
            },
            {
                "amount": "308.636644758370382903",
                "from": "0xc02aaa39b223fe8d0a0e5c4f27ead9083c756cc2",
                "id": 2,
                "isERC1155": false,
                "isERC721": false,
                "isReverted": false,
                "order": 2,
                "to": "0xb5c827fdbbee6f6e9df3a5cb499aedf5927de1b8",
                "token": "0xeeeeeeeeeeeeeeeeeeeeeeeeeeeeeeeeeeeeeeee"
            },
            {
                "amount": "308.636644758370382903",
                "from": "0xb5c827fdbbee6f6e9df3a5cb499aedf5927de1b8",
                "id": 3,
                "isERC1155": false,
                "isERC721": false,
                "isReverted": false,
                "order": 3,
                "to": "0xc02aaa39b223fe8d0a0e5c4f27ead9083c756cc2",
                "token": "0xc02aaa39b223fe8d0a0e5c4f27ead9083c756cc2"
            },
            {
                "amount": "33.95003092342074212",
                "from": "0xb5c827fdbbee6f6e9df3a5cb499aedf5927de1b8",
                "id": 4,
                "isERC1155": false,
                "isERC721": false,
                "isReverted": false,
                "order": 4,
                "to": "0xea674fdde714fd979de3edf0f56aa9716b898ec8",
                "token": "0xeeeeeeeeeeeeeeeeeeeeeeeeeeeeeeeeeeeeeeee"
            },
            {
                "amount": "274.686613834949640784",
                "from": "0xb5c827fdbbee6f6e9df3a5cb499aedf5927de1b8",
                "id": 5,
                "isERC1155": false,
                "isERC721": false,
                "isReverted": false,
                "order": 5,
                "to": "0xfa2731d0bede684993ab1109db7ecf5bf33e8051",
                "token": "0xeeeeeeeeeeeeeeeeeeeeeeeeeeeeeeeeeeeeeeee"
            }
        ],
        "token_infos": [
            {
                "address": "0xc02aaa39b223fe8d0a0e5c4f27ead9083c756cc2",
                "decimals": 18
            },
            {
                "address": "0xeeeeeeeeeeeeeeeeeeeeeeeeeeeeeeeeeeeeeeee",
                "decimals": 18
            }
        ]
    },
    "address_label": {
        "labels": [
            {
                "address": "0x6b7a87899490ece95443e979ca9485cbe7e71522",
                "label": "Multichain: Router V4"
            },
            {
                "address": "0xb5c827fdbbee6f6e9df3a5cb499aedf5927de1b8",
                "label": "Multichain Exploiter 6"
            },
            {
                "address": "0xea674fdde714fd979de3edf0f56aa9716b898ec8",
                "label": "Ethermine"
            },
            {
                "address": "0x0000000000000000000000000000000000000001",
                "label": "Precompiled"
            },
            {
                "address": "0x0000000000000000000000000000000000000002",
                "label": "Precompiled"
            },
            {
                "address": "0xeeeeeeeeeeeeeeeeeeeeeeeeeeeeeeeeeeeeeeee",
                "label": "Ether"
            },
            {
                "address": "0xc02aaa39b223fe8d0a0e5c4f27ead9083c756cc2",
                "label": "Wrapped Ether (WETH)"
            },
            {
                "address": "0xfa2731d0bede684993ab1109db7ecf5bf33e8051",
                "label": "Multichain Exploiter 4 (Whitehat)"
            },
            {
                "address": "0x0000000000000000000000000000000000000003",
                "label": "Precompiled"
            },
            {
                "address": "0x0000000000000000000000000000000000000004",
                "label": "Precompiled"
            }
        ]
    },
    "trace": {
        "accountLabels": null,
        "dataMap": {
            "-1": {
                "invocation": {
                    "address": "0xfa2731d0bede684993ab1109db7ecf5bf33e8051",
                    "callData": "",
                    "decodedMethod": null,
                    "errorInfo": "",
                    "fromAddress": "",
                    "gasUsed": 0,
                    "id": -1,
                    "methodDecoded": false,
                    "operation": "",
                    "output": "",
                    "revert": false,
                    "revertMessage": "",
                    "selector": "",
                    "status": false,
                    "value": ""
                },
                "nodeType": 0
            },
            "0": {
                "invocation": {
                    "address": "0xb5c827fdbbee6f6e9df3a5cb499aedf5927de1b8",
                    "callData": "0x0000000000000000000000003ee505ba316879d246a8fd2b3d7ee63b51b44fab000000000000000000000000000000000000000000000010bb31a12e4317f437000000000000000000000000000000000000000000000000000000000000000b",
                    "decodedMethod": null,
                    "errorInfo": "",
                    "fromAddress": "0xfa2731d0bede684993ab1109db7ecf5bf33e8051",
                    "gasUsed": 81544,
                    "id": 0,
                    "methodDecoded": false,
                    "operation": "CALL",
                    "output": "",
                    "revert": false,
                    "revertMessage": "",
                    "selector": "0x455a3191",
                    "status": true,
                    "value": "0"
                },
                "nodeType": 0
            },
            "1": {
                "invocation": {
                    "address": "0xc02aaa39b223fe8d0a0e5c4f27ead9083c756cc2",
                    "callData": "0x0000000000000000000000003ee505ba316879d246a8fd2b3d7ee63b51b44fab",
                    "decodedMethod": {
                        "callParams": [
                            {
                                "name": "",
                                "type": "address",
                                "value": "0x3ee505ba316879d246a8fd2b3d7ee63b51b44fab"
                            }
                        ],
                        "constructorArguments": "",
                        "name": "balanceOf",
                        "returnParams": [
                            {
                                "decimalAvailable": true,
                                "name": "",
                                "type": "uint256",
                                "value": "308,636,644,758,370,382,903"
                            }
                        ],
                        "signature": "balanceOf(address)"
                    },
                    "errorInfo": "",
                    "fromAddress": "0xb5c827fdbbee6f6e9df3a5cb499aedf5927de1b8",
                    "gasUsed": 2534,
                    "id": 1,
                    "methodDecoded": true,
                    "operation": "STATICCALL",
                    "output": "0x000000000000000000000000000000000000000000000010bb31a12e4317f437",
                    "revert": false,
                    "revertMessage": "",
                    "selector": "0x70a08231",
                    "status": true,
                    "value": "0"
                },
                "nodeType": 0
            },
            "10": {
                "event": {
                    "contract": "0x6b7a87899490ece95443e979ca9485cbe7e71522",
                    "decodedLog": {
                        "name": "LogAnySwapOut",
                        "params": [
                            {
                                "name": "token",
                                "type": "address",
                                "value": "0xb5c827fdbbee6f6e9df3a5cb499aedf5927de1b8"
                            },
                            {
                                "name": "from",
                                "type": "address",
                                "value": "0x3ee505ba316879d246a8fd2b3d7ee63b51b44fab"
                            },
                            {
                                "name": "to",
                                "type": "address",
                                "value": "0xb5c827fdbbee6f6e9df3a5cb499aedf5927de1b8"
                            },
                            {
                                "name": "amount",
                                "type": "uint256",
                                "value": "308,636,644,758,370,382,903"
                            },
                            {
                                "name": "fromChainID",
                                "type": "uint256",
                                "value": "1"
                            },
                            {
                                "name": "toChainID",
                                "type": "uint256",
                                "value": "56"
                            }
                        ],
                        "signature": "LogAnySwapOut(address,address,address,uint256,uint256,uint256)"
                    },
                    "id": 10,
                    "logData": "0x000000000000000000000000000000000000000000000010bb31a12e4317f43700000000000000000000000000000000000000000000000000000000000000010000000000000000000000000000000000000000000000000000000000000038",
                    "logDecoded": true,
                    "operation": "EVENT",
                    "revert": false,
                    "status": true,
                    "topics": [
                        "0x97116cf6cd4f6412bb47914d6db18da9e16ab2142f543b86e207c24fbd16b23a",
                        "0x000000000000000000000000b5c827fdbbee6f6e9df3a5cb499aedf5927de1b8",
                        "0x0000000000000000000000003ee505ba316879d246a8fd2b3d7ee63b51b44fab",
                        "0x000000000000000000000000b5c827fdbbee6f6e9df3a5cb499aedf5927de1b8"
                    ]
                },
                "nodeType": 1
            },
            "11": {
                "invocation": {
                    "address": "0xc02aaa39b223fe8d0a0e5c4f27ead9083c756cc2",
                    "callData": "0x000000000000000000000000000000000000000000000010bb31a12e4317f437",
                    "decodedMethod": {
                        "callParams": [
                            {
                                "name": "wad",
                                "type": "uint256",
                                "value": "308,636,644,758,370,382,903"
                            }
                        ],
                        "constructorArguments": "",
                        "name": "withdraw",
                        "returnParams": [],
                        "signature": "withdraw(uint256)"
                    },
                    "errorInfo": "",
                    "fromAddress": "0xb5c827fdbbee6f6e9df3a5cb499aedf5927de1b8",
                    "gasUsed": 9195,
                    "id": 11,
                    "methodDecoded": true,
                    "operation": "CALL",
                    "output": "",
                    "revert": false,
                    "revertMessage": "",
                    "selector": "0x2e1a7d4d",
                    "status": true,
                    "value": "0"
                },
                "nodeType": 0
            },
            "12": {
                "invocation": {
                    "address": "0xb5c827fdbbee6f6e9df3a5cb499aedf5927de1b8",
                    "callData": "0x",
                    "decodedMethod": null,
                    "errorInfo": "",
                    "fromAddress": "0xc02aaa39b223fe8d0a0e5c4f27ead9083c756cc2",
                    "gasUsed": 55,
                    "id": 12,
                    "methodDecoded": false,
                    "operation": "CALL",
                    "output": "",
                    "revert": false,
                    "revertMessage": "",
                    "selector": "fallback",
                    "status": true,
                    "value": "308.636644758370382903"
                },
                "nodeType": 0
            },
            "13": {
                "event": {
                    "contract": "0xc02aaa39b223fe8d0a0e5c4f27ead9083c756cc2",
                    "decodedLog": {
                        "name": "Withdrawal",
                        "params": [
                            {
                                "name": "src",
                                "type": "address",
                                "value": "0xb5c827fdbbee6f6e9df3a5cb499aedf5927de1b8"
                            },
                            {
                                "name": "wad",
                                "type": "uint256",
                                "value": "308,636,644,758,370,382,903"
                            }
                        ],
                        "signature": "Withdrawal(address,uint256)"
                    },
                    "id": 13,
                    "logData": "0x000000000000000000000000000000000000000000000010bb31a12e4317f437",
                    "logDecoded": true,
                    "operation": "EVENT",
                    "revert": false,
                    "status": true,
                    "topics": [
                        "0x7fcf532c15f0a6db0bd6d0e038bea71d30d808c7d98cb3bf7268a95bf5081b65",
                        "0x000000000000000000000000b5c827fdbbee6f6e9df3a5cb499aedf5927de1b8"
                    ]
                },
                "nodeType": 1
            },
            "14": {
                "invocation": {
                    "address": "0xea674fdde714fd979de3edf0f56aa9716b898ec8",
                    "callData": "0x",
                    "decodedMethod": null,
                    "errorInfo": "",
                    "fromAddress": "0xb5c827fdbbee6f6e9df3a5cb499aedf5927de1b8",
                    "gasUsed": 0,
                    "id": 14,
                    "methodDecoded": false,
                    "operation": "CALL",
                    "output": "",
                    "revert": false,
                    "revertMessage": "",
                    "selector": "fallback",
                    "status": true,
                    "value": "33.950030923420742119"
                },
                "nodeType": 0
            },
            "15": {
                "invocation": {
                    "address": "0xfa2731d0bede684993ab1109db7ecf5bf33e8051",
                    "callData": "0x",
                    "decodedMethod": null,
                    "errorInfo": "",
                    "fromAddress": "0xb5c827fdbbee6f6e9df3a5cb499aedf5927de1b8",
                    "gasUsed": 0,
                    "id": 15,
                    "methodDecoded": false,
                    "operation": "CALL",
                    "output": "",
                    "revert": false,
                    "revertMessage": "",
                    "selector": "fallback",
                    "status": true,
                    "value": "274.686613834949640784"
                },
                "nodeType": 0
            },
            "2": {
                "invocation": {
                    "address": "0x6b7a87899490ece95443e979ca9485cbe7e71522",
                    "callData": "0x0000000000000000000000003ee505ba316879d246a8fd2b3d7ee63b51b44fab000000000000000000000000b5c827fdbbee6f6e9df3a5cb499aedf5927de1b8000000000000000000000000b5c827fdbbee6f6e9df3a5cb499aedf5927de1b8000000000000000000000000000000000000000000000010bb31a12e4317f4370000000000000000000000000000000000000000000000056bc75e2d631000000000000000000000000000000000000000000000000000000000000000000000300000000000000000000000000000000000000000000000000000000000000030000000000000000000000000000000000000000000000000000000000000000000000000000000000000000000000000000000000000000000000000000038",
                    "decodedMethod": {
                        "callParams": [
                            {
                                "name": "from",
                                "type": "address",
                                "value": "0x3ee505ba316879d246a8fd2b3d7ee63b51b44fab"
                            },
                            {
                                "name": "token",
                                "type": "address",
                                "value": "0xb5c827fdbbee6f6e9df3a5cb499aedf5927de1b8"
                            },
                            {
                                "name": "to",
                                "type": "address",
                                "value": "0xb5c827fdbbee6f6e9df3a5cb499aedf5927de1b8"
                            },
                            {
                                "name": "amount",
                                "type": "uint256",
                                "value": "308,636,644,758,370,382,903"
                            },
                            {
                                "name": "deadline",
                                "type": "uint256",
                                "value": "100,000,000,000,000,000,000"
                            },
                            {
                                "name": "v",
                                "type": "uint8",
                                "value": "0"
                            },
                            {
                                "name": "r",
                                "type": "bytes32",
                                "value": "0x3000000000000000000000000000000000000000000000000000000000000000"
                            },
                            {
                                "name": "s",
                                "type": "bytes32",
                                "value": "0x3000000000000000000000000000000000000000000000000000000000000000"
                            },
                            {
                                "name": "toChainID",
                                "type": "uint256",
                                "value": "56"
                            }
                        ],
                        "constructorArguments": "",
                        "name": "anySwapOutUnderlyingWithPermit",
                        "returnParams": [],
                        "signature": "anySwapOutUnderlyingWithPermit(address,address,address,uint256,uint256,uint8,bytes32,bytes32,uint256)"
                    },
                    "errorInfo": "",
                    "fromAddress": "0xb5c827fdbbee6f6e9df3a5cb499aedf5927de1b8",
                    "gasUsed": 42762,
                    "id": 2,
                    "methodDecoded": true,
                    "operation": "CALL",
                    "output": "",
                    "revert": false,
                    "revertMessage": "",
                    "selector": "0x8d7d3eea",
                    "status": true,
                    "value": "0"
                },
                "nodeType": 0
            },
            "3": {
                "invocation": {
                    "address": "0xb5c827fdbbee6f6e9df3a5cb499aedf5927de1b8",
                    "callData": "0x",
                    "decodedMethod": {
                        "callParams": [],
                        "constructorArguments": "",
                        "name": "underlying",
                        "returnParams": [
                            {
                                "name": "",
                                "type": "address",
                                "value": "0xc02aaa39b223fe8d0a0e5c4f27ead9083c756cc2"
                            }
                        ],
                        "signature": "underlying()"
                    },
                    "errorInfo": "",
                    "fromAddress": "0x6b7a87899490ece95443e979ca9485cbe7e71522",
                    "gasUsed": 297,
                    "id": 3,
                    "methodDecoded": true,
                    "operation": "STATICCALL",
                    "output": "0x000000000000000000000000c02aaa39b223fe8d0a0e5c4f27ead9083c756cc2",
                    "revert": false,
                    "revertMessage": "",
                    "selector": "0x6f307dc3",
                    "status": true,
                    "value": "0"
                },
                "nodeType": 0
            },
            "4": {
                "invocation": {
                    "address": "0xc02aaa39b223fe8d0a0e5c4f27ead9083c756cc2",
                    "callData": "0x0000000000000000000000003ee505ba316879d246a8fd2b3d7ee63b51b44fab0000000000000000000000006b7a87899490ece95443e979ca9485cbe7e71522000000000000000000000000000000000000000000000010bb31a12e4317f4370000000000000000000000000000000000000000000000056bc75e2d63100000000000000000000000000000000000000000000000000000000000000000000030000000000000000000000000000000000000000000000000000000000000003000000000000000000000000000000000000000000000000000000000000000",
                    "decodedMethod": {
                        "callParams": [
                            {
                                "name": "owner",
                                "type": "address",
                                "value": "0x3ee505ba316879d246a8fd2b3d7ee63b51b44fab"
                            },
                            {
                                "name": "spender",
                                "type": "address",
                                "value": "0x6b7a87899490ece95443e979ca9485cbe7e71522"
                            },
                            {
                                "name": "value",
                                "type": "uint256",
                                "value": "308,636,644,758,370,382,903"
                            },
                            {
                                "name": "deadline",
                                "type": "uint256",
                                "value": "100,000,000,000,000,000,000"
                            },
                            {
                                "name": "v",
                                "type": "uint8",
                                "value": "0"
                            },
                            {
                                "name": "r",
                                "type": "bytes32",
                                "value": "0x3000000000000000000000000000000000000000000000000000000000000000"
                            },
                            {
                                "name": "s",
                                "type": "bytes32",
                                "value": "0x3000000000000000000000000000000000000000000000000000000000000000"
                            }
                        ],
                        "constructorArguments": "",
                        "name": "permit",
                        "returnParams": [],
                        "signature": "permit(address,address,uint256,uint256,uint8,bytes32,bytes32)"
                    },
                    "errorInfo": "",
                    "fromAddress": "0x6b7a87899490ece95443e979ca9485cbe7e71522",
                    "gasUsed": 4096,
                    "id": 4,
                    "methodDecoded": true,
                    "operation": "CALL",
                    "output": "",
                    "revert": false,
                    "revertMessage": "",
                    "selector": "0xd505accf",
                    "status": true,
                    "value": "0"
                },
                "nodeType": 0
            },
            "5": {
                "event": {
                    "contract": "0xc02aaa39b223fe8d0a0e5c4f27ead9083c756cc2",
                    "decodedLog": {
                        "name": "Deposit",
                        "params": [
                            {
                                "name": "dst",
                                "type": "address",
                                "value": "0x6b7a87899490ece95443e979ca9485cbe7e71522"
                            },
                            {
                                "name": "wad",
                                "type": "uint256",
                                "value": "0"
                            }
                        ],
                        "signature": "Deposit(address,uint256)"
                    },
                    "id": 5,
                    "logData": "0x0000000000000000000000000000000000000000000000000000000000000000",
                    "logDecoded": true,
                    "operation": "EVENT",
                    "revert": false,
                    "status": true,
                    "topics": [
                        "0xe1fffcc4923d04b559f4d29a8bfc6cda04eb5b0d3c460751c2402c5c5cc9109c",
                        "0x0000000000000000000000006b7a87899490ece95443e979ca9485cbe7e71522"
                    ]
                },
                "nodeType": 1
            },
            "6": {
                "invocation": {
                    "address": "0xc02aaa39b223fe8d0a0e5c4f27ead9083c756cc2",
                    "callData": "0x0000000000000000000000003ee505ba316879d246a8fd2b3d7ee63b51b44fab000000000000000000000000b5c827fdbbee6f6e9df3a5cb499aedf5927de1b8000000000000000000000000000000000000000000000010bb31a12e4317f437",
                    "decodedMethod": {
                        "callParams": [
                            {
                                "name": "src",
                                "type": "address",
                                "value": "0x3ee505ba316879d246a8fd2b3d7ee63b51b44fab"
                            },
                            {
                                "name": "dst",
                                "type": "address",
                                "value": "0xb5c827fdbbee6f6e9df3a5cb499aedf5927de1b8"
                            },
                            {
                                "decimalAvailable": true,
                                "name": "wad",
                                "type": "uint256",
                                "value": "308,636,644,758,370,382,903"
                            }
                        ],
                        "constructorArguments": "",
                        "name": "transferFrom",
                        "returnParams": [
                            {
                                "name": "",
                                "type": "bool",
                                "value": true
                            }
                        ],
                        "signature": "transferFrom(address,address,uint256)"
                    },
                    "errorInfo": "",
                    "fromAddress": "0x6b7a87899490ece95443e979ca9485cbe7e71522",
                    "gasUsed": 30125,
                    "id": 6,
                    "methodDecoded": true,
                    "operation": "CALL",
                    "output": "0x0000000000000000000000000000000000000000000000000000000000000001",
                    "revert": false,
                    "revertMessage": "",
                    "selector": "0x23b872dd",
                    "status": true,
                    "value": "0"
                },
                "nodeType": 0
            },
            "7": {
                "event": {
                    "contract": "0xc02aaa39b223fe8d0a0e5c4f27ead9083c756cc2",
                    "decodedLog": {
                        "name": "Transfer",
                        "params": [
                            {
                                "name": "src",
                                "type": "address",
                                "value": "0x3ee505ba316879d246a8fd2b3d7ee63b51b44fab"
                            },
                            {
                                "name": "dst",
                                "type": "address",
                                "value": "0xb5c827fdbbee6f6e9df3a5cb499aedf5927de1b8"
                            },
                            {
                                "decimalAvailable": true,
                                "name": "wad",
                                "type": "uint256",
                                "value": "308,636,644,758,370,382,903"
                            }
                        ],
                        "signature": "Transfer(address,address,uint256)"
                    },
                    "id": 7,
                    "logData": "0x000000000000000000000000000000000000000000000010bb31a12e4317f437",
                    "logDecoded": true,
                    "operation": "EVENT",
                    "revert": false,
                    "status": true,
                    "topics": [
                        "0xddf252ad1be2c89b69c2b068fc378daa952ba7f163c4a11628f55a4df523b3ef",
                        "0x0000000000000000000000003ee505ba316879d246a8fd2b3d7ee63b51b44fab",
                        "0x000000000000000000000000b5c827fdbbee6f6e9df3a5cb499aedf5927de1b8"
                    ]
                },
                "nodeType": 1
            },
            "8": {
                "invocation": {
                    "address": "0xb5c827fdbbee6f6e9df3a5cb499aedf5927de1b8",
                    "callData": "0x000000000000000000000000000000000000000000000010bb31a12e4317f4370000000000000000000000003ee505ba316879d246a8fd2b3d7ee63b51b44fab",
                    "decodedMethod": {
                        "callParams": [
                            {
                                "name": "amount",
                                "type": "uint256",
                                "value": "308,636,644,758,370,382,903"
                            },
                            {
                                "name": "to",
                                "type": "address",
                                "value": "0x3ee505ba316879d246a8fd2b3d7ee63b51b44fab"
                            }
                        ],
                        "constructorArguments": "",
                        "name": "depositVault",
                        "returnParams": [
                            {
                                "name": "",
                                "type": "uint256",
                                "value": "0"
                            }
                        ],
                        "signature": "depositVault(uint256,address)"
                    },
                    "errorInfo": "",
                    "fromAddress": "0x6b7a87899490ece95443e979ca9485cbe7e71522",
                    "gasUsed": 490,
                    "id": 8,
                    "methodDecoded": true,
                    "operation": "CALL",
                    "output": "0x0000000000000000000000000000000000000000000000000000000000000000",
                    "revert": false,
                    "revertMessage": "",
                    "selector": "0xbebbf4d0",
                    "status": true,
                    "value": "0"
                },
                "nodeType": 0
            },
            "9": {
                "invocation": {
                    "address": "0xb5c827fdbbee6f6e9df3a5cb499aedf5927de1b8",
                    "callData": "0x0000000000000000000000003ee505ba316879d246a8fd2b3d7ee63b51b44fab000000000000000000000000000000000000000000000010bb31a12e4317f437",
                    "decodedMethod": {
                        "callParams": [
                            {
                                "name": "account",
                                "type": "address",
                                "value": "0x3ee505ba316879d246a8fd2b3d7ee63b51b44fab"
                            },
                            {
                                "name": "amount",
                                "type": "uint256",
                                "value": "308,636,644,758,370,382,903"
                            }
                        ],
                        "constructorArguments": "",
                        "name": "burn",
                        "returnParams": [],
                        "signature": "burn(address,uint256)"
                    },
                    "errorInfo": "",
                    "fromAddress": "0x6b7a87899490ece95443e979ca9485cbe7e71522",
                    "gasUsed": 470,
                    "id": 9,
                    "methodDecoded": true,
                    "operation": "CALL",
                    "output": "0x0000000000000000000000000000000000000000000000000000000000000001",
                    "revert": false,
                    "revertMessage": "",
                    "selector": "0x9dc29fac",
                    "status": true,
                    "value": "0"
                },
                "nodeType": 0
            }
        },
        "gasFlame": [
            {
                "children": [
                    {
                        "children": [
                            {
                                "children": [],
                                "depth": 0,
                                "name": "Initial Gas",
                                "value": 21808
                            },
                            {
                                "children": [
                                    {
                                        "children": [],
                                        "depth": 1,
                                        "name": "balanceOf",
                                        "value": 2534
                                    },
                                    {
                                        "children": [
                                            {
                                                "children": [],
                                                "depth": 2,
                                                "name": "underlying",
                                                "value": 297
                                            },
                                            {
                                                "children": [],
                                                "depth": 2,
                                                "name": "permit",
                                                "value": 4096
                                            },
                                            {
                                                "children": [],
                                                "depth": 2,
                                                "name": "transferFrom",
                                                "value": 30125
                                            },
                                            {
                                                "children": [],
                                                "depth": 2,
                                                "name": "depositVault",
                                                "value": 490
                                            },
                                            {
                                                "children": [],
                                                "depth": 2,
                                                "name": "burn",
                                                "value": 470
                                            }
                                        ],
                                        "depth": 1,
                                        "name": "anySwapOutUnderlyingWithPermit",
                                        "value": 42762
                                    },
                                    {
                                        "children": [
                                            {
                                                "children": [],
                                                "depth": 2,
                                                "name": "fallback",
                                                "value": 55
                                            }
                                        ],
                                        "depth": 1,
                                        "name": "withdraw",
                                        "value": 9195
                                    },
                                    {
                                        "children": [],
                                        "depth": 1,
                                        "name": "fallback",
                                        "value": 0
                                    },
                                    {
                                        "children": [],
                                        "depth": 1,
                                        "name": "fallback",
                                        "value": 0
                                    }
                                ],
                                "depth": 0,
                                "name": "Executed Gas",
                                "value": 80122
                            }
                        ],
                        "depth": -1,
                        "name": "Actual Gas Used",
                        "value": 81544
                    },
                    {
                        "children": [],
                        "depth": -1,
                        "name": "Refunded Gas",
                        "value": 20386
                    }
                ],
                "depth": -2,
                "name": "Total Gas",
                "value": 101930
            }
        ],
        "isConfirmed": true,
        "mainTrace": [
            {
                "children": [
                    {
                        "children": [
                            {
                                "children": [],
                                "depth": 1,
                                "id": 1,
                                "order": 1
                            },
                            {
                                "children": [
                                    {
                                        "children": [],
                                        "depth": 2,
                                        "id": 3,
                                        "order": 3
                                    },
                                    {
                                        "children": [
                                            {
                                                "children": [],
                                                "depth": 3,
                                                "id": 5,
                                                "order": 5
                                            }
                                        ],
                                        "depth": 2,
                                        "id": 4,
                                        "order": 4
                                    },
                                    {
                                        "children": [
                                            {
                                                "children": [],
                                                "depth": 3,
                                                "id": 7,
                                                "order": 7
                                            }
                                        ],
                                        "depth": 2,
                                        "id": 6,
                                        "order": 6
                                    },
                                    {
                                        "children": [],
                                        "depth": 2,
                                        "id": 8,
                                        "order": 8
                                    },
                                    {
                                        "children": [],
                                        "depth": 2,
                                        "id": 9,
                                        "order": 9
                                    },
                                    {
                                        "children": [],
                                        "depth": 2,
                                        "id": 10,
                                        "order": 10
                                    }
                                ],
                                "depth": 1,
                                "id": 2,
                                "order": 2
                            },
                            {
                                "children": [
                                    {
                                        "children": [],
                                        "depth": 2,
                                        "id": 12,
                                        "order": 12
                                    },
                                    {
                                        "children": [],
                                        "depth": 2,
                                        "id": 13,
                                        "order": 13
                                    }
                                ],
                                "depth": 1,
                                "id": 11,
                                "order": 11
                            },
                            {
                                "children": [],
                                "depth": 1,
                                "id": 14,
                                "order": 14
                            },
                            {
                                "children": [],
                                "depth": 1,
                                "id": 15,
                                "order": 15
                            }
                        ],
                        "depth": 0,
                        "id": 0,
                        "order": 0
                    }
                ],
                "depth": -1,
                "id": -1,
                "order": -1
            }
        ],
        "mainTraceNodeCount": 16,
        "parentIdMap": {
            "0": -1,
            "1": 0,
            "10": 2,
            "11": 0,
            "12": 11,
            "13": 11,
            "14": 0,
            "15": 0,
            "2": 0,
            "3": 2,
            "4": 2,
            "5": 4,
            "6": 2,
            "7": 6,
            "8": 2,
            "9": 2
        },
        "tidyTrace": [
            {
                "children": [
                    {
                        "children": [
                            {
                                "children": [
                                    {
                                        "children": [
                                            {
                                                "children": [],
                                                "depth": 3,
                                                "id": 5,
                                                "order": 5
                                            }
                                        ],
                                        "depth": 2,
                                        "id": 4,
                                        "order": 4
                                    },
                                    {
                                        "children": [
                                            {
                                                "children": [],
                                                "depth": 3,
                                                "id": 7,
                                                "order": 7
                                            }
                                        ],
                                        "depth": 2,
                                        "id": 6,
                                        "order": 6
                                    },
                                    {
                                        "children": [],
                                        "depth": 2,
                                        "id": 8,
                                        "order": 8
                                    },
                                    {
                                        "children": [],
                                        "depth": 2,
                                        "id": 9,
                                        "order": 9
                                    },
                                    {
                                        "children": [],
                                        "depth": 2,
                                        "id": 10,
                                        "order": 10
                                    }
                                ],
                                "depth": 1,
                                "id": 2,
                                "order": 2
                            },
                            {
                                "children": [
                                    {
                                        "children": [],
                                        "depth": 2,
                                        "id": 12,
                                        "order": 12
                                    },
                                    {
                                        "children": [],
                                        "depth": 2,
                                        "id": 13,
                                        "order": 13
                                    }
                                ],
                                "depth": 1,
                                "id": 11,
                                "order": 11
                            },
                            {
                                "children": [],
                                "depth": 1,
                                "id": 14,
                                "order": 14
                            },
                            {
                                "children": [],
                                "depth": 1,
                                "id": 15,
                                "order": 15
                            }
                        ],
                        "depth": 0,
                        "id": 0,
                        "order": 0
                    }
                ],
                "depth": -1,
                "id": -1,
                "order": -1
            }
        ],
        "tidyTraceNodeCount": 14
    },
    "state_change": {
        "stateChanges": [
            {
                "address": "0xc02aaa39b223fe8d0a0e5c4f27ead9083c756cc2",
                "erc": "ERC-20",
                "slots": [
                    {
                        "current": "0x0000000000000000000000000000000000000000000000000000000000000000",
                        "key": "0x7e747fd430ac81663592b4c1b161a0cef7065f22548fa3b1d7804f4641a68219",
                        "prev": "0x000000000000000000000000000000000000000000000010bb31a12e4317f437"
                    }
                ],
                "storageVariables": [
                    {
                        "name": "balanceOf",
                        "type": "mapping(address => uint256)",
                        "value": {
                            "pairs": [
                                {
                                    "key": "0x3ee505ba316879d246a8fd2b3d7ee63b51b44fab",
                                    "value": {
                                        "current": "0",
                                        "prev": "308636644758370382903",
                                        "typeTag": 1
                                    }
                                }
                            ],
                            "typeTag": 4
                        }
                    }
                ]
            }
        ]
    }
}