{
    "balance_change": {
        "balanceChanges": [
            {
                "account": "0x0000000000000000000000000000000000000000",
                "assets": [
                    {
                        "address": "0x75ac62ea5d058a7f88f0c3a5f8f73195277c93da",
                        "amount": "167,200,000",
                        "iconUrl": "",
                        "isERC1155": false,
                        "isERC721": false,
                        "sign": false,
                        "value": ""
                    }
                ]
            },
            {
                "account": "0x66e915f192ef3d121ad518f0fb37a74fed1c090a",
                "assets": [
                    {
                        "address": "0x75ac62ea5d058a7f88f0c3a5f8f73195277c93da",
                        "amount": "167,200,000",
                        "iconUrl": "",
                        "isERC1155": false,
                        "isERC721": false,
                        "sign": true,
                        "value": ""
                    }
                ]
            }
        ]
    },
    "profile": {
        "basic_info": {
            "baseFee": "0.26405766",
            "blockNumber": 14279786,
            "callData": "0xbbdb9f6100000000000000000000000075ac62ea5d058a7f88f0c3a5f8f73195277c93da00000000000000000000000066e915f192ef3d121ad518f0fb37a74fed1c090a",
            "debugEnable": false,
            "errorInfo": "",
            "eventCount": 1,
            "feeRecipient": "0x4200000000000000000000000000000000000011",
            "formatValue": "0",
            "gasLimit": 120388,
            "gasPrice": "3.26405766",
            "gasUsed": 113407,
            "intTxnCount": 3,
            "internalRevert": false,
            "internalRevertMessage": "",
            "isContractCreation": false,
            "isFlashloan": false,
            "maxFee": "3.526342084",
            "nonce": 2,
            "overwritedBlockNumber": -1,
            "priorityFee": "3",
            "receiver": "0xa2209b48506c4e7f3a879ec1c1c2c4ee16c2c017",
            "revertMessage": "",
            "sender": "0x7a5eb99c993f4c075c222f9327abc7426cfae386",
            "simulationEnable": false,
            "sourceTxnHash": "0xe63a8df8759f41937432cd34c590d85af61b3343cf438796c6ed2c8f5b906f62",
            "status": true,
            "timestamp": "2024-05-10T13:48:39Z",
            "transactionFee": "0.00037016698704762",
            "txnHash": "0xe63a8df8759f41937432cd34c590d85af61b3343cf438796c6ed2c8f5b906f62",
            "txnIndex": 1,
            "type": 2,
            "value": "0"
        },
        "fund_flow": [
            {
                "amount": "167,200,000",
                "from": "0x0000000000000000000000000000000000000000",
                "id": 1,
                "isERC1155": false,
                "isERC721": false,
                "isReverted": false,
                "order": 1,
                "to": "0x66e915f192ef3d121ad518f0fb37a74fed1c090a",
                "token": "0x75ac62ea5d058a7f88f0c3a5f8f73195277c93da"
            }
        ],
        "token_infos": [
            {
                "address": "0x4200000000000000000000000000000000000006",
                "decimals": 18
            },
            {
                "address": "0x75ac62ea5d058a7f88f0c3a5f8f73195277c93da",
                "decimals": 18
            },
            {
                "address": "0xeeeeeeeeeeeeeeeeeeeeeeeeeeeeeeeeeeeeeeee",
                "decimals": 18
            }
        ]
    },
    "address_label": {
        "labels": [
            {
                "address": "0xeeeeeeeeeeeeeeeeeeeeeeeeeeeeeeeeeeeeeeee",
                "label": "Ether"
            },
            {
                "address": "0x0000000000000000000000000000000000000000",
                "label": "Null: 0x000...000"
            },
            {
                "address": "0x75ac62ea5d058a7f88f0c3a5f8f73195277c93da",
                "label": "TSURU"
            },
            {
                "address": "0x0000000000000000000000000000000000000001",
                "label": "Precompiled"
            },
            {
                "address": "0x0000000000000000000000000000000000000002",
                "label": "Precompiled"
            },
            {
                "address": "0x0000000000000000000000000000000000000003",
                "label": "Precompiled"
            },
            {
                "address": "0x0000000000000000000000000000000000000004",
                "label": "Precompiled"
            }
        ]
    },
    "trace": {
        "accountLabels": null,
        "dataMap": {
            "-1": {
                "invocation": {
                    "address": "0x7a5eb99c993f4c075c222f9327abc7426cfae386",
                    "callData": "",
                    "decodedMethod": null,
                    "errorInfo": "",
                    "fromAddress": "",
                    "gasUsed": 0,
                    "id": -1,
                    "methodDecoded": false,
                    "operation": "",
                    "output": "",
                    "revert": false,
                    "revertMessage": "",
                    "selector": "",
                    "status": false,
                    "value": ""
                },
                "nodeType": 0
            },
            "0": {
                "invocation": {
                    "address": "0xa2209b48506c4e7f3a879ec1c1c2c4ee16c2c017",
                    "callData": "0x00000000000000000000000075ac62ea5d058a7f88f0c3a5f8f73195277c93da00000000000000000000000066e915f192ef3d121ad518f0fb37a74fed1c090a",
                    "decodedMethod": null,
                    "errorInfo": "",
                    "fromAddress": "0x7a5eb99c993f4c075c222f9327abc7426cfae386",
                    "gasUsed": 113407,
                    "id": 0,
                    "methodDecoded": false,
                    "operation": "CALL",
                    "output": "",
                    "revert": false,
                    "revertMessage": "",
                    "selector": "0xbbdb9f61",
                    "status": true,
                    "value": "0"
                },
                "nodeType": 0
            },
            "1": {
                "invocation": {
                    "address": "0x66e915f192ef3d121ad518f0fb37a74fed1c090a",
                    "callData": "",
                    "decodedMethod": null,
                    "errorInfo": "",
                    "fromAddress": "0xa2209b48506c4e7f3a879ec1c1c2c4ee16c2c017",
                    "gasUsed": 22266,
                    "id": 1,
                    "methodDecoded": false,
                    "operation": "CALL",
                    "output": "",
                    "revert": false,
                    "revertMessage": "",
                    "selector": "0x218684fc",
                    "status": true,
                    "value": "0"
                },
                "nodeType": 0
            },
            "2": {
                "invocation": {
                    "address": "0x75ac62ea5d058a7f88f0c3a5f8f73195277c93da",
                    "callData": "",
                    "decodedMethod": {
                        "callParams": [],
                        "constructorArguments": "",
                        "name": "totalSupply",
                        "returnParams": [
                            {
                                "name": "",
                                "type": "uint256",
                                "value": "264,079,600,000,000,000,000,000,000"
                            }
                        ],
                        "signature": "totalSupply()"
                    },
                    "errorInfo": "",
                    "fromAddress": "0xa2209b48506c4e7f3a879ec1c1c2c4ee16c2c017",
                    "gasUsed": 2544,
                    "id": 2,
                    "methodDecoded": true,
                    "operation": "STATICCALL",
                    "output": "0x000000000000000000000000000000000000000000da7107cd2c2a2e0dc00000",
                    "revert": false,
                    "revertMessage": "",
                    "selector": "0x18160ddd",
                    "status": true,
                    "value": "0"
                },
                "nodeType": 0
            },
            "3": {
                "invocation": {
                    "address": "0x75ac62ea5d058a7f88f0c3a5f8f73195277c93da",
                    "callData": "0x000000000000000000000000000000000000000000000000000000000000000000000000000000000000000066e915f192ef3d121ad518f0fb37a74fed1c090a000000000000000000000000000000000000000000000000000000000000000000000000000000000000000000000000000000000000000000000000000001a200000000000000000000000000000000000000000000000000000000000000a00000000000000000000000000000000000000000000000000000000000000000",
                    "decodedMethod": {
                        "callParams": [
                            {
                                "name": "",
                                "type": "address",
                                "value": "0x0000000000000000000000000000000000000000"
                            },
                            {
                                "name": "from",
                                "type": "address",
                                "value": "0x66e915f192ef3d121ad518f0fb37a74fed1c090a"
                            },
                            {
                                "name": "id",
                                "type": "uint256",
                                "value": "0"
                            },
                            {
                                "name": "amount",
                                "type": "uint256",
                                "value": "418"
                            },
                            {
                                "name": "",
                                "type": "bytes",
                                "value": "0x"
                            }
                        ],
                        "constructorArguments": "",
                        "name": "onERC1155Received",
                        "returnParams": [
                            {
                                "name": "",
                                "type": "bytes4",
                                "value": "0xf23a6e61"
                            }
                        ],
                        "signature": "onERC1155Received(address,address,uint256,uint256,bytes)"
                    },
                    "errorInfo": "",
                    "fromAddress": "0xa2209b48506c4e7f3a879ec1c1c2c4ee16c2c017",
                    "gasUsed": 62796,
                    "id": 3,
                    "methodDecoded": true,
                    "operation": "CALL",
                    "output": "0xf23a6e6100000000000000000000000000000000000000000000000000000000",
                    "revert": false,
                    "revertMessage": "",
                    "selector": "0xf23a6e61",
                    "status": true,
                    "value": "0"
                },
                "nodeType": 0
            },
            "4": {
                "event": {
                    "contract": "0x75ac62ea5d058a7f88f0c3a5f8f73195277c93da",
                    "decodedLog": {
                        "name": "Transfer",
                        "params": [
                            {
                                "name": "from",
                                "type": "address",
                                "value": "0x0000000000000000000000000000000000000000"
                            },
                            {
                                "name": "to",
                                "type": "address",
                                "value": "0x66e915f192ef3d121ad518f0fb37a74fed1c090a"
                            },
                            {
                                "decimalAvailable": true,
                                "name": "value",
                                "type": "uint256",
                                "value": "167,200,000,000,000,000,000,000,000"
                            }
                        ],
                        "signature": "Transfer(address,address,uint256)"
                    },
                    "id": 4,
                    "logData": "0x0000000000000000000000000000000000000000008a4dfa29777199f4000000",
                    "logDecoded": true,
                    "operation": "EVENT",
                    "revert": false,
                    "status": true,
                    "topics": [
                        "0xddf252ad1be2c89b69c2b068fc378daa952ba7f163c4a11628f55a4df523b3ef",
                        "0x0000000000000000000000000000000000000000000000000000000000000000",
                        "0x00000000000000000000000066e915f192ef3d121ad518f0fb37a74fed1c090a"
                    ]
                },
                "nodeType": 1
            }
        },
        "gasFlame": [
            {
                "children": [
                    {
                        "children": [],
                        "depth": 1,
                        "name": "0x218684fc",
                        "value": 22266
                    },
                    {
                        "children": [],
                        "depth": 1,
                        "name": "totalSupply",
                        "value": 2544
                    },
                    {
                        "children": [],
                        "depth": 1,
                        "name": "onERC1155Received",
                        "value": 62796
                    }
                ],
                "depth": 0,
                "name": "Actual Gas Used",
                "value": 113407
            }
        ],
        "isConfirmed": true,
        "mainTrace": [
            {
                "children": [
                    {
                        "children": [
                            {
                                "children": [],
                                "depth": 1,
                                "id": 1,
                                "order": 1
                            },
                            {
                                "children": [],
                                "depth": 1,
                                "id": 2,
                                "order": 2
                            },
                            {
                                "children": [
                                    {
                                        "children": [],
                                        "depth": 2,
                                        "id": 4,
                                        "order": 4
                                    }
                                ],
                                "depth": 1,
                                "id": 3,
                                "order": 3
                            }
                        ],
                        "depth": 0,
                        "id": 0,
                        "order": 0
                    }
                ],
                "depth": -1,
                "id": -1,
                "order": -1
            }
        ],
        "mainTraceNodeCount": 5,
        "parentIdMap": {
            "0": -1,
            "1": 0,
            "2": 0,
            "3": 0,
            "4": 3
        },
        "tidyTrace": [
            {
                "children": [
                    {
                        "children": [
                            {
                                "children": [],
                                "depth": 1,
                                "id": 1,
                                "order": 1
                            },
                            {
                                "children": [
                                    {
                                        "children": [],
                                        "depth": 2,
                                        "id": 4,
                                        "order": 4
                                    }
                                ],
                                "depth": 1,
                                "id": 3,
                                "order": 3
                            }
                        ],
                        "depth": 0,
                        "id": 0,
                        "order": 0
                    }
                ],
                "depth": -1,
                "id": -1,
                "order": -1
            }
        ],
        "tidyTraceNodeCount": 4
    },
    "state_change": {
        "stateChanges": []
    }
}