{
    "balance_change": {
        "balanceChanges": [
            {
                "account": "0x4afcd19bb978eaf4f993814298504ed285df1181",
                "assets": [
                    {
                        "address": "0xd74f5255d557944cf7dd0e45ff521520002d5748",
                        "amount": "11",
                        "iconUrl": "",
                        "isERC1155": false,
                        "isERC721": false,
                        "sign": false,
                        "value": "11.077560999999999103"
                    }
                ]
            },
            {
                "account": "0x5c978df5f8af72298fe1c2c8c2c05476a10f2539",
                "assets": [
                    {
                        "address": "0xd74f5255d557944cf7dd0e45ff521520002d5748",
                        "amount": "11",
                        "iconUrl": "",
                        "isERC1155": false,
                        "isERC721": false,
                        "sign": true,
                        "value": "11.077560999999999103"
                    }
                ]
            }
        ]
    },
    "profile": {
        "basic_info": {
            "baseFee": "0.1",
            "blockNumber": 57803397,
            "callData": "0xa9059cbb0000000000000000000000005c978df5f8af72298fe1c2c8c2c05476a10f253900000000000000000000000000000000000000000000000098a7d9b8314c0000",
            "debugEnable": true,
            "errorInfo": "",
            "eventCount": 3,
            "feeRecipient": "0xa4b000000000000000000073657175656e636572",
            "formatValue": "0",
            "gasLimit": 762003,
            "gasPrice": "0.1",
            "gasUsed": 622559,
            "intTxnCount": 1,
            "internalRevert": false,
            "internalRevertMessage": "",
            "isContractCreation": false,
            "isFlashloan": false,
            "maxFee": "0.135",
            "nonce": 489,
            "overwritedBlockNumber": -1,
            "priorityFee": "0",
            "receiver": "0xd74f5255d557944cf7dd0e45ff521520002d5748",
            "revertMessage": "",
            "sender": "0x4afcd19bb978eaf4f993814298504ed285df1181",
            "simulationEnable": true,
            "sourceTxnHash": "0xe74641b4b7e9c9eb7ab46082f322efbc510b8d39af609d934f41c41d7057fe49",
            "status": true,
            "timestamp": "2023-02-03T23:25:59Z",
            "transactionFee": "0.0000622559",
            "txnHash": "0xe74641b4b7e9c9eb7ab46082f322efbc510b8d39af609d934f41c41d7057fe49",
            "txnIndex": 2,
            "type": 2,
            "value": "0"
        },
        "fund_flow": [
            {
                "amount": "11",
                "from": "0x4afcd19bb978eaf4f993814298504ed285df1181",
                "id": 1,
                "isERC1155": false,
                "isERC721": false,
                "isReverted": false,
                "order": 1,
                "to": "0x5c978df5f8af72298fe1c2c8c2c05476a10f2539",
                "token": "0xd74f5255d557944cf7dd0e45ff521520002d5748"
            }
        ],
        "token_infos": [
            {
                "address": "0x82af49447d8a07e3bd95bd0d56f35241523fbab1",
                "decimals": 18
            },
            {
                "address": "0xd74f5255d557944cf7dd0e45ff521520002d5748",
                "decimals": 18
            },
            {
                "address": "0xeeeeeeeeeeeeeeeeeeeeeeeeeeeeeeeeeeeeeeee",
                "decimals": 18
            }
        ]
    },
    "address_label": {
        "labels": [
            {
                "address": "0xd74f5255d557944cf7dd0e45ff521520002d5748",
                "label": "Sperax: USDs Token"
            },
            {
                "address": "0x4afcd19bb978eaf4f993814298504ed285df1181",
                "label": "SperaxUSD Exploiter"
            },
            {
                "address": "0x0000000000000000000000000000000000000001",
                "label": "Precompiled"
            },
            {
                "address": "0x0000000000000000000000000000000000000002",
                "label": "Precompiled"
            },
            {
                "address": "0x0000000000000000000000000000000000000003",
                "label": "Precompiled"
            },
            {
                "address": "0x0000000000000000000000000000000000000004",
                "label": "Precompiled"
            },
            {
                "address": "0xeeeeeeeeeeeeeeeeeeeeeeeeeeeeeeeeeeeeeeee",
                "label": "Ether"
            },
            {
                "address": "0x5c978df5f8af72298fe1c2c8c2c05476a10f2539",
                "label": "SperaxUSD Exploiter MultiSig"
            }
        ]
    },
    "trace": {
        "accountLabels": null,
        "dataMap": {
            "-1": {
                "invocation": {
                    "address": "0x4afcd19bb978eaf4f993814298504ed285df1181",
                    "callData": "",
                    "decodedMethod": null,
                    "errorInfo": "",
                    "fromAddress": "",
                    "gasUsed": 0,
                    "id": -1,
                    "methodDecoded": false,
                    "operation": "",
                    "output": "",
                    "revert": false,
                    "revertMessage": "",
                    "selector": "",
                    "status": false,
                    "value": ""
                },
                "nodeType": 0
            },
            "0": {
                "invocation": {
                    "address": "0xd74f5255d557944cf7dd0e45ff521520002d5748",
                    "callData": "0x0000000000000000000000005c978df5f8af72298fe1c2c8c2c05476a10f253900000000000000000000000000000000000000000000000098a7d9b8314c0000",
                    "decodedMethod": {
                        "callParams": [
                            {
                                "name": "recipient",
                                "type": "address",
                                "value": "0x5c978df5f8af72298fe1c2c8c2c05476a10f2539"
                            },
                            {
                                "decimalAvailable": true,
                                "name": "amount",
                                "type": "uint256",
                                "value": "11,000,000,000,000,000,000"
                            }
                        ],
                        "constructorArguments": "",
                        "name": "transfer",
                        "returnParams": [
                            {
                                "name": "",
                                "type": "bool",
                                "value": true
                            }
                        ],
                        "signature": "transfer(address,uint256)"
                    },
                    "errorInfo": "",
                    "fromAddress": "0x4afcd19bb978eaf4f993814298504ed285df1181",
                    "gasUsed": 622559,
                    "id": 0,
                    "methodDecoded": true,
                    "operation": "CALL",
                    "output": "0x0000000000000000000000000000000000000000000000000000000000000001",
                    "revert": false,
                    "revertMessage": "",
                    "selector": "0xa9059cbb",
                    "status": true,
                    "value": "0"
                },
                "nodeType": 0
            },
            "1": {
                "invocation": {
                    "address": "0x97a7e6cf949114fe4711018485d757b9c4962307",
                    "callData": "0x0000000000000000000000005c978df5f8af72298fe1c2c8c2c05476a10f253900000000000000000000000000000000000000000000000098a7d9b8314c0000",
                    "decodedMethod": {
                        "callParams": [
                            {
                                "name": "recipient",
                                "type": "address",
                                "value": "0x5c978df5f8af72298fe1c2c8c2c05476a10f2539"
                            },
                            {
                                "decimalAvailable": true,
                                "name": "amount",
                                "type": "uint256",
                                "value": "11,000,000,000,000,000,000"
                            }
                        ],
                        "constructorArguments": "",
                        "name": "transfer",
                        "returnParams": [
                            {
                                "name": "",
                                "type": "bool",
                                "value": true
                            }
                        ],
                        "signature": "transfer(address,uint256)"
                    },
                    "errorInfo": "",
                    "fromAddress": "0xd74f5255d557944cf7dd0e45ff521520002d5748",
                    "gasUsed": 91089,
                    "id": 1,
                    "methodDecoded": true,
                    "operation": "DELEGATECALL",
                    "output": "0x0000000000000000000000000000000000000000000000000000000000000001",
                    "revert": false,
                    "revertMessage": "",
                    "selector": "0xa9059cbb",
                    "status": true,
                    "value": "0"
                },
                "nodeType": 0
            },
            "2": {
                "event": {
                    "contract": "0xd74f5255d557944cf7dd0e45ff521520002d5748",
                    "decodedLog": null,
                    "id": 2,
                    "logData": "0x0000000000000000000000005c978df5f8af72298fe1c2c8c2c05476a10f25390000000000000000000000000000000000000000000000000000000000000000",
                    "logDecoded": false,
                    "operation": "EVENT",
                    "revert": false,
                    "status": true,
                    "topics": [
                        "0x08fa806bd030445e8e404bce43cba31d6e73d90c55137f78740e2209973be75d"
                    ]
                },
                "nodeType": 1
            },
            "3": {
                "event": {
                    "contract": "0xd74f5255d557944cf7dd0e45ff521520002d5748",
                    "decodedLog": null,
                    "id": 3,
                    "logData": "0x0000000000000000000000004afcd19bb978eaf4f993814298504ed285df11810000000000000000000000000000000000000000000000000000000000000000",
                    "logDecoded": false,
                    "operation": "EVENT",
                    "revert": false,
                    "status": true,
                    "topics": [
                        "0x08fa806bd030445e8e404bce43cba31d6e73d90c55137f78740e2209973be75d"
                    ]
                },
                "nodeType": 1
            },
            "4": {
                "event": {
                    "contract": "0xd74f5255d557944cf7dd0e45ff521520002d5748",
                    "decodedLog": {
                        "name": "Transfer",
                        "params": [
                            {
                                "name": "from",
                                "type": "address",
                                "value": "0x4afcd19bb978eaf4f993814298504ed285df1181"
                            },
                            {
                                "name": "to",
                                "type": "address",
                                "value": "0x5c978df5f8af72298fe1c2c8c2c05476a10f2539"
                            },
                            {
                                "decimalAvailable": true,
                                "name": "value",
                                "type": "uint256",
                                "value": "11,000,000,000,000,000,000"
                            }
                        ],
                        "signature": "Transfer(address,address,uint256)"
                    },
                    "id": 4,
                    "logData": "0x00000000000000000000000000000000000000000000000098a7d9b8314c0000",
                    "logDecoded": true,
                    "operation": "EVENT",
                    "revert": false,
                    "status": true,
                    "topics": [
                        "0xddf252ad1be2c89b69c2b068fc378daa952ba7f163c4a11628f55a4df523b3ef",
                        "0x0000000000000000000000004afcd19bb978eaf4f993814298504ed285df1181",
                        "0x0000000000000000000000005c978df5f8af72298fe1c2c8c2c05476a10f2539"
                    ]
                },
                "nodeType": 1
            }
        },
        "gasFlame": [
            {
                "children": [
                    {
                        "children": [
                            {
                                "children": [
                                    {
                                        "children": [
                                            {
                                                "children": [],
                                                "depth": 1,
                                                "name": "transfer",
                                                "value": 91089
                                            }
                                        ],
                                        "depth": 0,
                                        "name": "L2 Executed Gas",
                                        "value": 98401
                                    },
                                    {
                                        "children": [],
                                        "depth": 0,
                                        "name": "L2 Initial Gas",
                                        "value": 21632
                                    }
                                ],
                                "depth": -1,
                                "name": "L2 Actual Gas Used",
                                "value": 120033
                            },
                            {
                                "children": [],
                                "depth": -1,
                                "name": "L2 Refunded Gas",
                                "value": 0
                            }
                        ],
                        "depth": -2,
                        "name": "L2 Total Gas",
                        "value": 120033
                    },
                    {
                        "children": [
                            {
                                "children": [],
                                "depth": -1,
                                "name": "L1 Actual Gas Used",
                                "value": 502526
                            },
                            {
                                "children": [],
                                "depth": -1,
                                "name": "L1 Refunded Gas",
                                "value": 0
                            }
                        ],
                        "depth": -2,
                        "name": "L1 Total Gas",
                        "value": 502526
                    }
                ],
                "depth": -3,
                "name": "Total Gas",
                "value": 622559
            }
        ],
        "isConfirmed": true,
        "mainTrace": [
            {
                "children": [
                    {
                        "children": [
                            {
                                "children": [
                                    {
                                        "children": [],
                                        "depth": 2,
                                        "id": 2,
                                        "order": 2
                                    },
                                    {
                                        "children": [],
                                        "depth": 2,
                                        "id": 3,
                                        "order": 3
                                    },
                                    {
                                        "children": [],
                                        "depth": 2,
                                        "id": 4,
                                        "order": 4
                                    }
                                ],
                                "depth": 1,
                                "id": 1,
                                "order": 1
                            }
                        ],
                        "depth": 0,
                        "id": 0,
                        "order": 0
                    }
                ],
                "depth": -1,
                "id": -1,
                "order": -1
            }
        ],
        "mainTraceNodeCount": 5,
        "parentIdMap": {
            "0": -1,
            "1": 0,
            "2": 1,
            "3": 1,
            "4": 1
        },
        "tidyTrace": [
            {
                "children": [
                    {
                        "children": [
                            {
                                "children": [
                                    {
                                        "children": [],
                                        "depth": 2,
                                        "id": 2,
                                        "order": 2
                                    },
                                    {
                                        "children": [],
                                        "depth": 2,
                                        "id": 3,
                                        "order": 3
                                    },
                                    {
                                        "children": [],
                                        "depth": 2,
                                        "id": 4,
                                        "order": 4
                                    }
                                ],
                                "depth": 1,
                                "id": 1,
                                "order": 1
                            }
                        ],
                        "depth": 0,
                        "id": 0,
                        "order": 0
                    }
                ],
                "depth": -1,
                "id": -1,
                "order": -1
            }
        ],
        "tidyTraceNodeCount": 5
    },
    "state_change": {
        "stateChanges": [
            {
                "address": "0xd74f5255d557944cf7dd0e45ff521520002d5748",
                "erc": "",
                "slots": [
                    {
                        "current": "0x0000000000000000000000000000000000000000000000000000000000000001",
                        "key": "0x6cab44f1226318631849170d84d74ce38b3874a56691eeb8f8b8e89beb673626",
                        "prev": "0x0000000000000000000000000000000000000000000000000000000000000000"
                    },
                    {
                        "current": "0x0000000000000000000000000000000000000000000000000000000000000001",
                        "key": "0xfc389fe118a9f3fcd92fc67be9da46f4f74ed67dd12a2d28ab2fc93f2be0685d",
                        "prev": "0x0000000000000000000000000000000000000000000000000000000000000000"
                    },
                    {
                        "current": "0x0000000000000000000000000000000000000000779bd170020329880dd4bdda",
                        "key": "0x65782b05598849a02d3a5c8e809571f670dd3bc513f15c1784b9fc411011a5a9",
                        "prev": "0x00000000000000000000000000000000000000000000000289b0168e92faff90"
                    },
                    {
                        "current": "0x00000000000000000000000000000000000000001fa898555d6d9a55ec72e226",
                        "key": "0x4af424bd7ef99be6b6a0e44aa16802a564ee95c858e6224eee1158afd6e58be8",
                        "prev": "0x0000000000000000000000000000000000000000000000000000000000000000"
                    }
                ],
                "storageVariables": []
            }
        ]
    }
}