{
    "balance_change": {
        "balanceChanges": [
            {
                "account": "0x098b716b8aaf21512996dc57eb0615e2383e2f96",
                "assets": [
                    {
                        "address": "0xa0b86991c6218b36c1d19d4a2e9eb0ce3606eb48",
                        "amount": "25,500,000",
                        "iconUrl": "https://assets.blocksec.com/icon/0347a86cc07dbd03fdc5db01a4e5ac7e1217f90e0b6e4bb0f75cbcca09160989.png",
                        "isERC1155": false,
                        "isERC721": false,
                        "sign": true,
                        "value": "25491202.499999998987"
                    }
                ]
            },
            {
                "account": "0x1a2a1c938ce3ec39b6d47113c7955baa9dd454f2",
                "assets": [
                    {
                        "address": "0xa0b86991c6218b36c1d19d4a2e9eb0ce3606eb48",
                        "amount": "25,500,000",
                        "iconUrl": "https://assets.blocksec.com/icon/0347a86cc07dbd03fdc5db01a4e5ac7e1217f90e0b6e4bb0f75cbcca09160989.png",
                        "isERC1155": false,
                        "isERC721": false,
                        "sign": false,
                        "value": "25491202.499999998987"
                    }
                ]
            }
        ]
    },
    "profile": {
        "basic_info": {
            "baseFee": "35.133023164",
            "blockNumber": 14442840,
            "callData": "0x993e1c4200000000000000000000000000000000000000000000000000000000001e8481000000000000000000000000098b716b8aaf21512996dc57eb0615e2383e2f96000000000000000000000000a0b86991c6218b36c1d19d4a2e9eb0ce3606eb48000000000000000000000000000000000000000000000000000017312e71180000000000000000000000000000000000000000000000000000000000000000a0000000000000000000000000000000000000000000000000000000000000014a016734b276131c27fa94464db17b44ca517b0a9134b15ee4b776596725741cc7836beea1681dda98a83406515981e1d315d5eba13a0173a5a9688f9f920d7a3f7a1c01155c24a2d7a2ffb02530cf58da40c528301dfc22b21b16267dbf4eba2cd3d087276142bddd1d82404b2e75bd12993606a0c7c7626aa74c4d90bd7e4558fbe4261c01067c5aaba1b8e5bb686cda9efdae909aff86dc83f5be79f13af3ee677fb1791175e0b03401bdf7aa6e604eb995c7670384e6fadef3d687a00fd6d33cd47a0dde1c01dad673b6630394d15f8cca8975351d8272390a6c8bb1cb07cc2b04e8d7ea7a867e56a99e9d0c17a8e0629cebda86ee5a5f8b42610494ad0ed0245ffe9b5287631c012f1fb5b4c2b3718ea69197a5239316fbb9b805be3cdf8420324765ab53144b006b3148921458e629ea254df2c383175ca250e6442b8904a0f50ffdf465f6aa6f1b00000000000000000000000000000000000000000000",
            "debugEnable": true,
            "errorInfo": "",
            "eventCount": 2,
            "feeRecipient": "0xea674fdde714fd979de3edf0f56aa9716b898ec8",
            "formatValue": "0",
            "gasLimit": 880000,
            "gasPrice": "100",
            "gasUsed": 219782,
            "intTxnCount": 21,
            "internalRevert": false,
            "internalRevertMessage": "",
            "isContractCreation": false,
            "isFlashloan": false,
            "maxFee": "100",
            "nonce": 1,
            "overwritedBlockNumber": -1,
            "priorityFee": "80",
            "receiver": "0x1a2a1c938ce3ec39b6d47113c7955baa9dd454f2",
            "revertMessage": "",
            "sender": "0x098b716b8aaf21512996dc57eb0615e2383e2f96",
            "simulationEnable": true,
            "sourceTxnHash": "0xed2c72ef1a552ddaec6dd1f5cddf0b59a8f37f82bdda5257d9c7c37db7bb9b08",
            "status": true,
            "timestamp": "2022-03-23T13:31:04Z",
            "transactionFee": "0.0219782",
            "txnHash": "0xed2c72ef1a552ddaec6dd1f5cddf0b59a8f37f82bdda5257d9c7c37db7bb9b08",
            "txnIndex": 9,
            "type": 2,
            "value": "0"
        },
        "fund_flow": [
            {
                "amount": "25,500,000",
                "from": "0x1a2a1c938ce3ec39b6d47113c7955baa9dd454f2",
                "id": 1,
                "isERC1155": false,
                "isERC721": false,
                "isReverted": false,
                "order": 1,
                "to": "0x098b716b8aaf21512996dc57eb0615e2383e2f96",
                "token": "0xa0b86991c6218b36c1d19d4a2e9eb0ce3606eb48"
            }
        ],
        "token_infos": [
            {
                "address": "0xa0b86991c6218b36c1d19d4a2e9eb0ce3606eb48",
                "decimals": 6
            },
            {
                "address": "0xc02aaa39b223fe8d0a0e5c4f27ead9083c756cc2",
                "decimals": 18
            },
            {
                "address": "0xeeeeeeeeeeeeeeeeeeeeeeeeeeeeeeeeeeeeeeee",
                "decimals": 18
            }
        ]
    },
    "address_label": {
        "labels": [
            {
                "address": "0xeeeeeeeeeeeeeeeeeeeeeeeeeeeeeeeeeeeeeeee",
                "label": "Ether"
            },
            {
                "address": "0x33e71e649abdc09f650ad44139674828a2075ad2",
                "label": "Registry"
            },
            {
                "address": "0xa2327a938febf5fec13bacfb16ae10ecbc4cbdcf",
                "label": "FiatTokenV2_1"
            },
            {
                "address": "0x8407dc57739bcda7aa53ca6f12f82f9d51c2f21e",
                "label": "MainchainGatewayManager"
            },
            {
                "address": "0x0000000000000000000000000000000000000003",
                "label": "Precompiled"
            },
            {
                "address": "0x0000000000000000000000000000000000000004",
                "label": "Precompiled"
            },
            {
                "address": "0xc02aaa39b223fe8d0a0e5c4f27ead9083c756cc2",
                "label": "Wrapped Ether (WETH)"
            },
            {
                "address": "0x0000000000000000000000000000000000000002",
                "label": "Precompiled"
            },
            {
                "address": "0xa0b86991c6218b36c1d19d4a2e9eb0ce3606eb48",
                "label": "Circle: USDC Token"
            },
            {
                "address": "0x42b19dca30fd612b1757682c074497847f2b57e0",
                "label": "MainchainValidator"
            },
            {
                "address": "0x0000000000000000000000000000000000000001",
                "label": "Precompiled"
            },
            {
                "address": "0x098b716b8aaf21512996dc57eb0615e2383e2f96",
                "label": "Ronin Bridge Exploiter"
            },
            {
                "address": "0x1a2a1c938ce3ec39b6d47113c7955baa9dd454f2",
                "label": "Axie Infinity: Ronin Bridge"
            }
        ]
    },
    "trace": {
        "accountLabels": null,
        "dataMap": {
            "-1": {
                "invocation": {
                    "address": "0x098b716b8aaf21512996dc57eb0615e2383e2f96",
                    "callData": "",
                    "decodedMethod": null,
                    "errorInfo": "",
                    "fromAddress": "",
                    "gasUsed": 0,
                    "id": -1,
                    "methodDecoded": false,
                    "operation": "",
                    "output": "",
                    "revert": false,
                    "revertMessage": "",
                    "selector": "",
                    "status": false,
                    "value": ""
                },
                "nodeType": 0
            },
            "0": {
                "invocation": {
                    "address": "0x1a2a1c938ce3ec39b6d47113c7955baa9dd454f2",
                    "callData": "0x00000000000000000000000000000000000000000000000000000000001e8481000000000000000000000000098b716b8aaf21512996dc57eb0615e2383e2f96000000000000000000000000a0b86991c6218b36c1d19d4a2e9eb0ce3606eb48000000000000000000000000000000000000000000000000000017312e71180000000000000000000000000000000000000000000000000000000000000000a0000000000000000000000000000000000000000000000000000000000000014a016734b276131c27fa94464db17b44ca517b0a9134b15ee4b776596725741cc7836beea1681dda98a83406515981e1d315d5eba13a0173a5a9688f9f920d7a3f7a1c01155c24a2d7a2ffb02530cf58da40c528301dfc22b21b16267dbf4eba2cd3d087276142bddd1d82404b2e75bd12993606a0c7c7626aa74c4d90bd7e4558fbe4261c01067c5aaba1b8e5bb686cda9efdae909aff86dc83f5be79f13af3ee677fb1791175e0b03401bdf7aa6e604eb995c7670384e6fadef3d687a00fd6d33cd47a0dde1c01dad673b6630394d15f8cca8975351d8272390a6c8bb1cb07cc2b04e8d7ea7a867e56a99e9d0c17a8e0629cebda86ee5a5f8b42610494ad0ed0245ffe9b5287631c012f1fb5b4c2b3718ea69197a5239316fbb9b805be3cdf8420324765ab53144b006b3148921458e629ea254df2c383175ca250e6442b8904a0f50ffdf465f6aa6f1b00000000000000000000000000000000000000000000",
                    "decodedMethod": {
                        "callParams": [
                            {
                                "name": "_withdrawalId",
                                "type": "uint256",
                                "value": "2,000,001"
                            },
                            {
                                "name": "_user",
                                "type": "address",
                                "value": "0x098b716b8aaf21512996dc57eb0615e2383e2f96"
                            },
                            {
                                "name": "_token",
                                "type": "address",
                                "value": "0xa0b86991c6218b36c1d19d4a2e9eb0ce3606eb48"
                            },
                            {
                                "name": "_amount",
                                "type": "uint256",
                                "value": "25,500,000,000,000"
                            },
                            {
                                "name": "_signatures",
                                "type": "bytes",
                                "value": "0x016734b276131c27fa94464db17b44ca517b0a9134b15ee4b776596725741cc7836beea1681dda98a83406515981e1d315d5eba13a0173a5a9688f9f920d7a3f7a1c01155c24a2d7a2ffb02530cf58da40c528301dfc22b21b16267dbf4eba2cd3d087276142bddd1d82404b2e75bd12993606a0c7c7626aa74c4d90bd7e4558fbe4261c01067c5aaba1b8e5bb686cda9efdae909aff86dc83f5be79f13af3ee677fb1791175e0b03401bdf7aa6e604eb995c7670384e6fadef3d687a00fd6d33cd47a0dde1c01dad673b6630394d15f8cca8975351d8272390a6c8bb1cb07cc2b04e8d7ea7a867e56a99e9d0c17a8e0629cebda86ee5a5f8b42610494ad0ed0245ffe9b5287631c012f1fb5b4c2b3718ea69197a5239316fbb9b805be3cdf8420324765ab53144b006b3148921458e629ea254df2c383175ca250e6442b8904a0f50ffdf465f6aa6f1b"
                            }
                        ],
                        "constructorArguments": "",
                        "name": "withdrawERC20For",
                        "returnParams": [],
                        "signature": "withdrawERC20For(uint256,address,address,uint256,bytes)"
                    },
                    "errorInfo": "",
                    "fromAddress": "0x098b716b8aaf21512996dc57eb0615e2383e2f96",
                    "gasUsed": 219782,
                    "id": 0,
                    "methodDecoded": true,
                    "operation": "CALL",
                    "output": "",
                    "revert": false,
                    "revertMessage": "",
                    "selector": "0x993e1c42",
                    "status": true,
                    "value": "0"
                },
                "nodeType": 0
            },
            "1": {
                "invocation": {
                    "address": "0x8407dc57739bcda7aa53ca6f12f82f9d51c2f21e",
                    "callData": "0x00000000000000000000000000000000000000000000000000000000001e8481000000000000000000000000098b716b8aaf21512996dc57eb0615e2383e2f96000000000000000000000000a0b86991c6218b36c1d19d4a2e9eb0ce3606eb48000000000000000000000000000000000000000000000000000017312e71180000000000000000000000000000000000000000000000000000000000000000a0000000000000000000000000000000000000000000000000000000000000014a016734b276131c27fa94464db17b44ca517b0a9134b15ee4b776596725741cc7836beea1681dda98a83406515981e1d315d5eba13a0173a5a9688f9f920d7a3f7a1c01155c24a2d7a2ffb02530cf58da40c528301dfc22b21b16267dbf4eba2cd3d087276142bddd1d82404b2e75bd12993606a0c7c7626aa74c4d90bd7e4558fbe4261c01067c5aaba1b8e5bb686cda9efdae909aff86dc83f5be79f13af3ee677fb1791175e0b03401bdf7aa6e604eb995c7670384e6fadef3d687a00fd6d33cd47a0dde1c01dad673b6630394d15f8cca8975351d8272390a6c8bb1cb07cc2b04e8d7ea7a867e56a99e9d0c17a8e0629cebda86ee5a5f8b42610494ad0ed0245ffe9b5287631c012f1fb5b4c2b3718ea69197a5239316fbb9b805be3cdf8420324765ab53144b006b3148921458e629ea254df2c383175ca250e6442b8904a0f50ffdf465f6aa6f1b00000000000000000000000000000000000000000000",
                    "decodedMethod": {
                        "callParams": [
                            {
                                "name": "_withdrawalId",
                                "type": "uint256",
                                "value": "2,000,001"
                            },
                            {
                                "name": "_user",
                                "type": "address",
                                "value": "0x098b716b8aaf21512996dc57eb0615e2383e2f96"
                            },
                            {
                                "name": "_token",
                                "type": "address",
                                "value": "0xa0b86991c6218b36c1d19d4a2e9eb0ce3606eb48"
                            },
                            {
                                "name": "_amount",
                                "type": "uint256",
                                "value": "25,500,000,000,000"
                            },
                            {
                                "name": "_signatures",
                                "type": "bytes",
                                "value": "0x016734b276131c27fa94464db17b44ca517b0a9134b15ee4b776596725741cc7836beea1681dda98a83406515981e1d315d5eba13a0173a5a9688f9f920d7a3f7a1c01155c24a2d7a2ffb02530cf58da40c528301dfc22b21b16267dbf4eba2cd3d087276142bddd1d82404b2e75bd12993606a0c7c7626aa74c4d90bd7e4558fbe4261c01067c5aaba1b8e5bb686cda9efdae909aff86dc83f5be79f13af3ee677fb1791175e0b03401bdf7aa6e604eb995c7670384e6fadef3d687a00fd6d33cd47a0dde1c01dad673b6630394d15f8cca8975351d8272390a6c8bb1cb07cc2b04e8d7ea7a867e56a99e9d0c17a8e0629cebda86ee5a5f8b42610494ad0ed0245ffe9b5287631c012f1fb5b4c2b3718ea69197a5239316fbb9b805be3cdf8420324765ab53144b006b3148921458e629ea254df2c383175ca250e6442b8904a0f50ffdf465f6aa6f1b"
                            }
                        ],
                        "constructorArguments": "",
                        "name": "withdrawERC20For",
                        "returnParams": [],
                        "signature": "withdrawERC20For(uint256,address,address,uint256,bytes)"
                    },
                    "errorInfo": "",
                    "fromAddress": "0x1a2a1c938ce3ec39b6d47113c7955baa9dd454f2",
                    "gasUsed": 186831,
                    "id": 1,
                    "methodDecoded": true,
                    "operation": "DELEGATECALL",
                    "output": "",
                    "revert": false,
                    "revertMessage": "",
                    "selector": "0x993e1c42",
                    "status": true,
                    "value": "0"
                },
                "nodeType": 0
            },
            "10": {
                "invocation": {
                    "address": "0x42b19dca30fd612b1757682c074497847f2b57e0",
                    "callData": "0x00000000000000000000000070bb1fb41c8c42f6ddd53a708e2b82209495e455",
                    "decodedMethod": {
                        "callParams": [
                            {
                                "name": "_addr",
                                "type": "address",
                                "value": "0x70bb1fb41c8c42f6ddd53a708e2b82209495e455"
                            }
                        ],
                        "constructorArguments": "",
                        "name": "isValidator",
                        "returnParams": [
                            {
                                "name": "",
                                "type": "bool",
                                "value": true
                            }
                        ],
                        "signature": "isValidator(address)"
                    },
                    "errorInfo": "",
                    "fromAddress": "0x1a2a1c938ce3ec39b6d47113c7955baa9dd454f2",
                    "gasUsed": 2545,
                    "id": 10,
                    "methodDecoded": true,
                    "operation": "STATICCALL",
                    "output": "0x0000000000000000000000000000000000000000000000000000000000000001",
                    "revert": false,
                    "revertMessage": "",
                    "selector": "0xfacd743b",
                    "status": true,
                    "value": "0"
                },
                "nodeType": 0
            },
            "11": {
                "invocation": {
                    "address": "0x0000000000000000000000000000000000000001",
                    "callData": "0x9ec0b442f33f2f83e2191ffba153afe90f7b60bc8618f2251903d4f3000000000000000000000000000000000000000000000000000000000000001cdad673b6630394d15f8cca8975351d8272390a6c8bb1cb07cc2b04e8d7ea7a867e56a99e9d0c17a8e0629cebda86ee5a5f8b42610494ad0ed0245ffe9b528763",
                    "decodedMethod": {
                        "callParams": [
                            {
                                "name": "hash",
                                "type": "bytes32",
                                "value": "0x3f5797649ec0b442f33f2f83e2191ffba153afe90f7b60bc8618f2251903d4f3"
                            },
                            {
                                "name": "v",
                                "type": "uint256",
                                "value": "28"
                            },
                            {
                                "name": "r",
                                "type": "bytes32",
                                "value": "0xdad673b6630394d15f8cca8975351d8272390a6c8bb1cb07cc2b04e8d7ea7a86"
                            },
                            {
                                "name": "s",
                                "type": "bytes32",
                                "value": "0x7e56a99e9d0c17a8e0629cebda86ee5a5f8b42610494ad0ed0245ffe9b528763"
                            }
                        ],
                        "constructorArguments": "",
                        "name": "ecrecover",
                        "returnParams": [
                            {
                                "name": "",
                                "type": "address",
                                "value": "0xb9e59d56fd1632fc250935182bdd5c59188b2302"
                            }
                        ],
                        "signature": "ecrecover(bytes32,uint256,bytes32,bytes32)"
                    },
                    "errorInfo": "",
                    "fromAddress": "0x1a2a1c938ce3ec39b6d47113c7955baa9dd454f2",
                    "gasUsed": 3000,
                    "id": 11,
                    "methodDecoded": true,
                    "operation": "STATICCALL",
                    "output": "0x000000000000000000000000b9e59d56fd1632fc250935182bdd5c59188b2302",
                    "revert": false,
                    "revertMessage": "",
                    "selector": "0x3f579764",
                    "status": true,
                    "value": "0"
                },
                "nodeType": 0
            },
            "12": {
                "invocation": {
                    "address": "0x42b19dca30fd612b1757682c074497847f2b57e0",
                    "callData": "0x000000000000000000000000b9e59d56fd1632fc250935182bdd5c59188b2302",
                    "decodedMethod": {
                        "callParams": [
                            {
                                "name": "_addr",
                                "type": "address",
                                "value": "0xb9e59d56fd1632fc250935182bdd5c59188b2302"
                            }
                        ],
                        "constructorArguments": "",
                        "name": "isValidator",
                        "returnParams": [
                            {
                                "name": "",
                                "type": "bool",
                                "value": true
                            }
                        ],
                        "signature": "isValidator(address)"
                    },
                    "errorInfo": "",
                    "fromAddress": "0x1a2a1c938ce3ec39b6d47113c7955baa9dd454f2",
                    "gasUsed": 2545,
                    "id": 12,
                    "methodDecoded": true,
                    "operation": "STATICCALL",
                    "output": "0x0000000000000000000000000000000000000000000000000000000000000001",
                    "revert": false,
                    "revertMessage": "",
                    "selector": "0xfacd743b",
                    "status": true,
                    "value": "0"
                },
                "nodeType": 0
            },
            "13": {
                "invocation": {
                    "address": "0x0000000000000000000000000000000000000001",
                    "callData": "0x9ec0b442f33f2f83e2191ffba153afe90f7b60bc8618f2251903d4f3000000000000000000000000000000000000000000000000000000000000001b2f1fb5b4c2b3718ea69197a5239316fbb9b805be3cdf8420324765ab53144b006b3148921458e629ea254df2c383175ca250e6442b8904a0f50ffdf465f6aa6f",
                    "decodedMethod": {
                        "callParams": [
                            {
                                "name": "hash",
                                "type": "bytes32",
                                "value": "0x3f5797649ec0b442f33f2f83e2191ffba153afe90f7b60bc8618f2251903d4f3"
                            },
                            {
                                "name": "v",
                                "type": "uint256",
                                "value": "27"
                            },
                            {
                                "name": "r",
                                "type": "bytes32",
                                "value": "0x2f1fb5b4c2b3718ea69197a5239316fbb9b805be3cdf8420324765ab53144b00"
                            },
                            {
                                "name": "s",
                                "type": "bytes32",
                                "value": "0x6b3148921458e629ea254df2c383175ca250e6442b8904a0f50ffdf465f6aa6f"
                            }
                        ],
                        "constructorArguments": "",
                        "name": "ecrecover",
                        "returnParams": [
                            {
                                "name": "",
                                "type": "address",
                                "value": "0xf224beff587362a88d859e899d0d80c080e1e812"
                            }
                        ],
                        "signature": "ecrecover(bytes32,uint256,bytes32,bytes32)"
                    },
                    "errorInfo": "",
                    "fromAddress": "0x1a2a1c938ce3ec39b6d47113c7955baa9dd454f2",
                    "gasUsed": 3000,
                    "id": 13,
                    "methodDecoded": true,
                    "operation": "STATICCALL",
                    "output": "0x000000000000000000000000f224beff587362a88d859e899d0d80c080e1e812",
                    "revert": false,
                    "revertMessage": "",
                    "selector": "0x3f579764",
                    "status": true,
                    "value": "0"
                },
                "nodeType": 0
            },
            "14": {
                "invocation": {
                    "address": "0x42b19dca30fd612b1757682c074497847f2b57e0",
                    "callData": "0x000000000000000000000000f224beff587362a88d859e899d0d80c080e1e812",
                    "decodedMethod": {
                        "callParams": [
                            {
                                "name": "_addr",
                                "type": "address",
                                "value": "0xf224beff587362a88d859e899d0d80c080e1e812"
                            }
                        ],
                        "constructorArguments": "",
                        "name": "isValidator",
                        "returnParams": [
                            {
                                "name": "",
                                "type": "bool",
                                "value": true
                            }
                        ],
                        "signature": "isValidator(address)"
                    },
                    "errorInfo": "",
                    "fromAddress": "0x1a2a1c938ce3ec39b6d47113c7955baa9dd454f2",
                    "gasUsed": 2545,
                    "id": 14,
                    "methodDecoded": true,
                    "operation": "STATICCALL",
                    "output": "0x0000000000000000000000000000000000000000000000000000000000000001",
                    "revert": false,
                    "revertMessage": "",
                    "selector": "0xfacd743b",
                    "status": true,
                    "value": "0"
                },
                "nodeType": 0
            },
            "15": {
                "invocation": {
                    "address": "0x42b19dca30fd612b1757682c074497847f2b57e0",
                    "callData": "0x0000000000000000000000000000000000000000000000000000000000000005",
                    "decodedMethod": {
                        "callParams": [
                            {
                                "name": "_voteCount",
                                "type": "uint256",
                                "value": "5"
                            }
                        ],
                        "constructorArguments": "",
                        "name": "checkThreshold",
                        "returnParams": [
                            {
                                "name": "",
                                "type": "bool",
                                "value": true
                            }
                        ],
                        "signature": "checkThreshold(uint256)"
                    },
                    "errorInfo": "",
                    "fromAddress": "0x1a2a1c938ce3ec39b6d47113c7955baa9dd454f2",
                    "gasUsed": 6872,
                    "id": 15,
                    "methodDecoded": true,
                    "operation": "STATICCALL",
                    "output": "0x0000000000000000000000000000000000000000000000000000000000000001",
                    "revert": false,
                    "revertMessage": "",
                    "selector": "0xdafae408",
                    "status": true,
                    "value": "0"
                },
                "nodeType": 0
            },
            "16": {
                "invocation": {
                    "address": "0x33e71e649abdc09f650ad44139674828a2075ad2",
                    "callData": "0x",
                    "decodedMethod": {
                        "callParams": [],
                        "constructorArguments": "",
                        "name": "WETH_TOKEN",
                        "returnParams": [
                            {
                                "name": "",
                                "type": "string",
                                "value": "WETH_TOKEN"
                            }
                        ],
                        "signature": "WETH_TOKEN()"
                    },
                    "errorInfo": "",
                    "fromAddress": "0x1a2a1c938ce3ec39b6d47113c7955baa9dd454f2",
                    "gasUsed": 668,
                    "id": 16,
                    "methodDecoded": true,
                    "operation": "STATICCALL",
                    "output": "0x0000000000000000000000000000000000000000000000000000000000000020000000000000000000000000000000000000000000000000000000000000000a574554485f544f4b454e00000000000000000000000000000000000000000000",
                    "revert": false,
                    "revertMessage": "",
                    "selector": "0x37d277d4",
                    "status": true,
                    "value": "0"
                },
                "nodeType": 0
            },
            "17": {
                "invocation": {
                    "address": "0x33e71e649abdc09f650ad44139674828a2075ad2",
                    "callData": "0x0000000000000000000000000000000000000000000000000000000000000020000000000000000000000000000000000000000000000000000000000000000a574554485f544f4b454e00000000000000000000000000000000000000000000",
                    "decodedMethod": {
                        "callParams": [
                            {
                                "name": "_name",
                                "type": "string",
                                "value": "WETH_TOKEN"
                            }
                        ],
                        "constructorArguments": "",
                        "name": "getContract",
                        "returnParams": [
                            {
                                "name": "_address",
                                "type": "address",
                                "value": "0xc02aaa39b223fe8d0a0e5c4f27ead9083c756cc2"
                            }
                        ],
                        "signature": "getContract(string)"
                    },
                    "errorInfo": "",
                    "fromAddress": "0x1a2a1c938ce3ec39b6d47113c7955baa9dd454f2",
                    "gasUsed": 3205,
                    "id": 17,
                    "methodDecoded": true,
                    "operation": "STATICCALL",
                    "output": "0x000000000000000000000000c02aaa39b223fe8d0a0e5c4f27ead9083c756cc2",
                    "revert": false,
                    "revertMessage": "",
                    "selector": "0x35817773",
                    "status": true,
                    "value": "0"
                },
                "nodeType": 0
            },
            "18": {
                "invocation": {
                    "address": "0xa0b86991c6218b36c1d19d4a2e9eb0ce3606eb48",
                    "callData": "0x0000000000000000000000001a2a1c938ce3ec39b6d47113c7955baa9dd454f2",
                    "decodedMethod": {
                        "callParams": [
                            {
                                "name": "account",
                                "type": "address",
                                "value": "0x1a2a1c938ce3ec39b6d47113c7955baa9dd454f2"
                            }
                        ],
                        "constructorArguments": "",
                        "name": "balanceOf",
                        "returnParams": [
                            {
                                "decimalAvailable": true,
                                "name": "",
                                "type": "uint256",
                                "value": "25,506,430,198,365"
                            }
                        ],
                        "signature": "balanceOf(address)"
                    },
                    "errorInfo": "",
                    "fromAddress": "0x1a2a1c938ce3ec39b6d47113c7955baa9dd454f2",
                    "gasUsed": 9815,
                    "id": 18,
                    "methodDecoded": true,
                    "operation": "STATICCALL",
                    "output": "0x00000000000000000000000000000000000000000000000000001732adb6225d",
                    "revert": false,
                    "revertMessage": "",
                    "selector": "0x70a08231",
                    "status": true,
                    "value": "0"
                },
                "nodeType": 0
            },
            "19": {
                "invocation": {
                    "address": "0xa2327a938febf5fec13bacfb16ae10ecbc4cbdcf",
                    "callData": "0x0000000000000000000000001a2a1c938ce3ec39b6d47113c7955baa9dd454f2",
                    "decodedMethod": {
                        "callParams": [
                            {
                                "name": "account",
                                "type": "address",
                                "value": "0x1a2a1c938ce3ec39b6d47113c7955baa9dd454f2"
                            }
                        ],
                        "constructorArguments": "",
                        "name": "balanceOf",
                        "returnParams": [
                            {
                                "decimalAvailable": true,
                                "name": "",
                                "type": "uint256",
                                "value": "25,506,430,198,365"
                            }
                        ],
                        "signature": "balanceOf(address)"
                    },
                    "errorInfo": "",
                    "fromAddress": "0xa0b86991c6218b36c1d19d4a2e9eb0ce3606eb48",
                    "gasUsed": 2529,
                    "id": 19,
                    "methodDecoded": true,
                    "operation": "DELEGATECALL",
                    "output": "0x00000000000000000000000000000000000000000000000000001732adb6225d",
                    "revert": false,
                    "revertMessage": "",
                    "selector": "0x70a08231",
                    "status": true,
                    "value": "0"
                },
                "nodeType": 0
            },
            "2": {
                "invocation": {
                    "address": "0x33e71e649abdc09f650ad44139674828a2075ad2",
                    "callData": "0x000000000000000000000000a0b86991c6218b36c1d19d4a2e9eb0ce3606eb4800000000000000000000000000000000000000000000000000000000000000140000000000000000000000000000000000000000000000000000000000000001",
                    "decodedMethod": {
                        "callParams": [
                            {
                                "name": "_token",
                                "type": "address",
                                "value": "0xa0b86991c6218b36c1d19d4a2e9eb0ce3606eb48"
                            },
                            {
                                "name": "_standard",
                                "type": "uint32",
                                "value": "20"
                            },
                            {
                                "name": "_isMainchain",
                                "type": "bool",
                                "value": true
                            }
                        ],
                        "constructorArguments": "",
                        "name": "isTokenMapped",
                        "returnParams": [
                            {
                                "name": "",
                                "type": "bool",
                                "value": true
                            }
                        ],
                        "signature": "isTokenMapped(address,uint32,bool)"
                    },
                    "errorInfo": "",
                    "fromAddress": "0x1a2a1c938ce3ec39b6d47113c7955baa9dd454f2",
                    "gasUsed": 5215,
                    "id": 2,
                    "methodDecoded": true,
                    "operation": "STATICCALL",
                    "output": "0x0000000000000000000000000000000000000000000000000000000000000001",
                    "revert": false,
                    "revertMessage": "",
                    "selector": "0x3579e67a",
                    "status": true,
                    "value": "0"
                },
                "nodeType": 0
            },
            "20": {
                "invocation": {
                    "address": "0xa0b86991c6218b36c1d19d4a2e9eb0ce3606eb48",
                    "callData": "0x000000000000000000000000098b716b8aaf21512996dc57eb0615e2383e2f96000000000000000000000000000000000000000000000000000017312e711800",
                    "decodedMethod": {
                        "callParams": [
                            {
                                "name": "to",
                                "type": "address",
                                "value": "0x098b716b8aaf21512996dc57eb0615e2383e2f96"
                            },
                            {
                                "decimalAvailable": true,
                                "name": "value",
                                "type": "uint256",
                                "value": "25,500,000,000,000"
                            }
                        ],
                        "constructorArguments": "",
                        "name": "transfer",
                        "returnParams": [
                            {
                                "name": "",
                                "type": "bool",
                                "value": true
                            }
                        ],
                        "signature": "transfer(address,uint256)"
                    },
                    "errorInfo": "",
                    "fromAddress": "0x1a2a1c938ce3ec39b6d47113c7955baa9dd454f2",
                    "gasUsed": 35517,
                    "id": 20,
                    "methodDecoded": true,
                    "operation": "CALL",
                    "output": "0x0000000000000000000000000000000000000000000000000000000000000001",
                    "revert": false,
                    "revertMessage": "",
                    "selector": "0xa9059cbb",
                    "status": true,
                    "value": "0"
                },
                "nodeType": 0
            },
            "21": {
                "invocation": {
                    "address": "0xa2327a938febf5fec13bacfb16ae10ecbc4cbdcf",
                    "callData": "0x000000000000000000000000098b716b8aaf21512996dc57eb0615e2383e2f96000000000000000000000000000000000000000000000000000017312e711800",
                    "decodedMethod": {
                        "callParams": [
                            {
                                "name": "to",
                                "type": "address",
                                "value": "0x098b716b8aaf21512996dc57eb0615e2383e2f96"
                            },
                            {
                                "decimalAvailable": true,
                                "name": "value",
                                "type": "uint256",
                                "value": "25,500,000,000,000"
                            }
                        ],
                        "constructorArguments": "",
                        "name": "transfer",
                        "returnParams": [
                            {
                                "name": "",
                                "type": "bool",
                                "value": true
                            }
                        ],
                        "signature": "transfer(address,uint256)"
                    },
                    "errorInfo": "",
                    "fromAddress": "0xa0b86991c6218b36c1d19d4a2e9eb0ce3606eb48",
                    "gasUsed": 34728,
                    "id": 21,
                    "methodDecoded": true,
                    "operation": "DELEGATECALL",
                    "output": "0x0000000000000000000000000000000000000000000000000000000000000001",
                    "revert": false,
                    "revertMessage": "",
                    "selector": "0xa9059cbb",
                    "status": true,
                    "value": "0"
                },
                "nodeType": 0
            },
            "22": {
                "event": {
                    "contract": "0xa0b86991c6218b36c1d19d4a2e9eb0ce3606eb48",
                    "decodedLog": {
                        "name": "Transfer",
                        "params": [
                            {
                                "name": "from",
                                "type": "address",
                                "value": "0x1a2a1c938ce3ec39b6d47113c7955baa9dd454f2"
                            },
                            {
                                "name": "to",
                                "type": "address",
                                "value": "0x098b716b8aaf21512996dc57eb0615e2383e2f96"
                            },
                            {
                                "decimalAvailable": true,
                                "name": "value",
                                "type": "uint256",
                                "value": "25,500,000,000,000"
                            }
                        ],
                        "signature": "Transfer(address,address,uint256)"
                    },
                    "id": 22,
                    "logData": "0x000000000000000000000000000000000000000000000000000017312e711800",
                    "logDecoded": true,
                    "operation": "EVENT",
                    "revert": false,
                    "status": true,
                    "topics": [
                        "0xddf252ad1be2c89b69c2b068fc378daa952ba7f163c4a11628f55a4df523b3ef",
                        "0x0000000000000000000000001a2a1c938ce3ec39b6d47113c7955baa9dd454f2",
                        "0x000000000000000000000000098b716b8aaf21512996dc57eb0615e2383e2f96"
                    ]
                },
                "nodeType": 1
            },
            "23": {
                "event": {
                    "contract": "0x1a2a1c938ce3ec39b6d47113c7955baa9dd454f2",
                    "decodedLog": {
                        "name": "TokenWithdrew",
                        "params": [
                            {
                                "name": "_withdrawId",
                                "type": "uint256",
                                "value": "2,000,001"
                            },
                            {
                                "name": "_owner",
                                "type": "address",
                                "value": "0x098b716b8aaf21512996dc57eb0615e2383e2f96"
                            },
                            {
                                "name": "_tokenAddress",
                                "type": "address",
                                "value": "0xa0b86991c6218b36c1d19d4a2e9eb0ce3606eb48"
                            },
                            {
                                "name": "_tokenNumber",
                                "type": "uint256",
                                "value": "25,500,000,000,000"
                            }
                        ],
                        "signature": "TokenWithdrew(uint256,address,address,uint256)"
                    },
                    "id": 23,
                    "logData": "0x000000000000000000000000000000000000000000000000000017312e711800",
                    "logDecoded": true,
                    "operation": "EVENT",
                    "revert": false,
                    "status": true,
                    "topics": [
                        "0x86174ea401f083b9bb1bdebca3068f27fb023c7091365ed2a8a02b8d75cf0e52",
                        "0x00000000000000000000000000000000000000000000000000000000001e8481",
                        "0x000000000000000000000000098b716b8aaf21512996dc57eb0615e2383e2f96",
                        "0x000000000000000000000000a0b86991c6218b36c1d19d4a2e9eb0ce3606eb48"
                    ]
                },
                "nodeType": 1
            },
            "3": {
                "invocation": {
                    "address": "0x33e71e649abdc09f650ad44139674828a2075ad2",
                    "callData": "0x",
                    "decodedMethod": {
                        "callParams": [],
                        "constructorArguments": "",
                        "name": "VALIDATOR",
                        "returnParams": [
                            {
                                "name": "",
                                "type": "string",
                                "value": "VALIDATOR"
                            }
                        ],
                        "signature": "VALIDATOR()"
                    },
                    "errorInfo": "",
                    "fromAddress": "0x1a2a1c938ce3ec39b6d47113c7955baa9dd454f2",
                    "gasUsed": 690,
                    "id": 3,
                    "methodDecoded": true,
                    "operation": "STATICCALL",
                    "output": "0x0000000000000000000000000000000000000000000000000000000000000020000000000000000000000000000000000000000000000000000000000000000956414c494441544f520000000000000000000000000000000000000000000000",
                    "revert": false,
                    "revertMessage": "",
                    "selector": "0x393df8cb",
                    "status": true,
                    "value": "0"
                },
                "nodeType": 0
            },
            "4": {
                "invocation": {
                    "address": "0x33e71e649abdc09f650ad44139674828a2075ad2",
                    "callData": "0x0000000000000000000000000000000000000000000000000000000000000020000000000000000000000000000000000000000000000000000000000000000956414c494441544f520000000000000000000000000000000000000000000000",
                    "decodedMethod": {
                        "callParams": [
                            {
                                "name": "_name",
                                "type": "string",
                                "value": "VALIDATOR"
                            }
                        ],
                        "constructorArguments": "",
                        "name": "getContract",
                        "returnParams": [
                            {
                                "name": "_address",
                                "type": "address",
                                "value": "0x42b19dca30fd612b1757682c074497847f2b57e0"
                            }
                        ],
                        "signature": "getContract(string)"
                    },
                    "errorInfo": "",
                    "fromAddress": "0x1a2a1c938ce3ec39b6d47113c7955baa9dd454f2",
                    "gasUsed": 3205,
                    "id": 4,
                    "methodDecoded": true,
                    "operation": "STATICCALL",
                    "output": "0x00000000000000000000000042b19dca30fd612b1757682c074497847f2b57e0",
                    "revert": false,
                    "revertMessage": "",
                    "selector": "0x35817773",
                    "status": true,
                    "value": "0"
                },
                "nodeType": 0
            },
            "5": {
                "invocation": {
                    "address": "0x0000000000000000000000000000000000000001",
                    "callData": "0x9ec0b442f33f2f83e2191ffba153afe90f7b60bc8618f2251903d4f3000000000000000000000000000000000000000000000000000000000000001c6734b276131c27fa94464db17b44ca517b0a9134b15ee4b776596725741cc7836beea1681dda98a83406515981e1d315d5eba13a0173a5a9688f9f920d7a3f7a",
                    "decodedMethod": {
                        "callParams": [
                            {
                                "name": "hash",
                                "type": "bytes32",
                                "value": "0x3f5797649ec0b442f33f2f83e2191ffba153afe90f7b60bc8618f2251903d4f3"
                            },
                            {
                                "name": "v",
                                "type": "uint256",
                                "value": "28"
                            },
                            {
                                "name": "r",
                                "type": "bytes32",
                                "value": "0x6734b276131c27fa94464db17b44ca517b0a9134b15ee4b776596725741cc783"
                            },
                            {
                                "name": "s",
                                "type": "bytes32",
                                "value": "0x6beea1681dda98a83406515981e1d315d5eba13a0173a5a9688f9f920d7a3f7a"
                            }
                        ],
                        "constructorArguments": "",
                        "name": "ecrecover",
                        "returnParams": [
                            {
                                "name": "",
                                "type": "address",
                                "value": "0x11360eacdedd59bc433afad4fc8f0417d1fbebab"
                            }
                        ],
                        "signature": "ecrecover(bytes32,uint256,bytes32,bytes32)"
                    },
                    "errorInfo": "",
                    "fromAddress": "0x1a2a1c938ce3ec39b6d47113c7955baa9dd454f2",
                    "gasUsed": 3000,
                    "id": 5,
                    "methodDecoded": true,
                    "operation": "STATICCALL",
                    "output": "0x00000000000000000000000011360eacdedd59bc433afad4fc8f0417d1fbebab",
                    "revert": false,
                    "revertMessage": "",
                    "selector": "0x3f579764",
                    "status": true,
                    "value": "0"
                },
                "nodeType": 0
            },
            "6": {
                "invocation": {
                    "address": "0x42b19dca30fd612b1757682c074497847f2b57e0",
                    "callData": "0x00000000000000000000000011360eacdedd59bc433afad4fc8f0417d1fbebab",
                    "decodedMethod": {
                        "callParams": [
                            {
                                "name": "_addr",
                                "type": "address",
                                "value": "0x11360eacdedd59bc433afad4fc8f0417d1fbebab"
                            }
                        ],
                        "constructorArguments": "",
                        "name": "isValidator",
                        "returnParams": [
                            {
                                "name": "",
                                "type": "bool",
                                "value": true
                            }
                        ],
                        "signature": "isValidator(address)"
                    },
                    "errorInfo": "",
                    "fromAddress": "0x1a2a1c938ce3ec39b6d47113c7955baa9dd454f2",
                    "gasUsed": 2545,
                    "id": 6,
                    "methodDecoded": true,
                    "operation": "STATICCALL",
                    "output": "0x0000000000000000000000000000000000000000000000000000000000000001",
                    "revert": false,
                    "revertMessage": "",
                    "selector": "0xfacd743b",
                    "status": true,
                    "value": "0"
                },
                "nodeType": 0
            },
            "7": {
                "invocation": {
                    "address": "0x0000000000000000000000000000000000000001",
                    "callData": "0x9ec0b442f33f2f83e2191ffba153afe90f7b60bc8618f2251903d4f3000000000000000000000000000000000000000000000000000000000000001c155c24a2d7a2ffb02530cf58da40c528301dfc22b21b16267dbf4eba2cd3d087276142bddd1d82404b2e75bd12993606a0c7c7626aa74c4d90bd7e4558fbe426",
                    "decodedMethod": {
                        "callParams": [
                            {
                                "name": "hash",
                                "type": "bytes32",
                                "value": "0x3f5797649ec0b442f33f2f83e2191ffba153afe90f7b60bc8618f2251903d4f3"
                            },
                            {
                                "name": "v",
                                "type": "uint256",
                                "value": "28"
                            },
                            {
                                "name": "r",
                                "type": "bytes32",
                                "value": "0x155c24a2d7a2ffb02530cf58da40c528301dfc22b21b16267dbf4eba2cd3d087"
                            },
                            {
                                "name": "s",
                                "type": "bytes32",
                                "value": "0x276142bddd1d82404b2e75bd12993606a0c7c7626aa74c4d90bd7e4558fbe426"
                            }
                        ],
                        "constructorArguments": "",
                        "name": "ecrecover",
                        "returnParams": [
                            {
                                "name": "",
                                "type": "address",
                                "value": "0x1a15a5e25811fe1349d636a5053a0e59d53961c9"
                            }
                        ],
                        "signature": "ecrecover(bytes32,uint256,bytes32,bytes32)"
                    },
                    "errorInfo": "",
                    "fromAddress": "0x1a2a1c938ce3ec39b6d47113c7955baa9dd454f2",
                    "gasUsed": 3000,
                    "id": 7,
                    "methodDecoded": true,
                    "operation": "STATICCALL",
                    "output": "0x0000000000000000000000001a15a5e25811fe1349d636a5053a0e59d53961c9",
                    "revert": false,
                    "revertMessage": "",
                    "selector": "0x3f579764",
                    "status": true,
                    "value": "0"
                },
                "nodeType": 0
            },
            "8": {
                "invocation": {
                    "address": "0x42b19dca30fd612b1757682c074497847f2b57e0",
                    "callData": "0x0000000000000000000000001a15a5e25811fe1349d636a5053a0e59d53961c9",
                    "decodedMethod": {
                        "callParams": [
                            {
                                "name": "_addr",
                                "type": "address",
                                "value": "0x1a15a5e25811fe1349d636a5053a0e59d53961c9"
                            }
                        ],
                        "constructorArguments": "",
                        "name": "isValidator",
                        "returnParams": [
                            {
                                "name": "",
                                "type": "bool",
                                "value": true
                            }
                        ],
                        "signature": "isValidator(address)"
                    },
                    "errorInfo": "",
                    "fromAddress": "0x1a2a1c938ce3ec39b6d47113c7955baa9dd454f2",
                    "gasUsed": 2545,
                    "id": 8,
                    "methodDecoded": true,
                    "operation": "STATICCALL",
                    "output": "0x0000000000000000000000000000000000000000000000000000000000000001",
                    "revert": false,
                    "revertMessage": "",
                    "selector": "0xfacd743b",
                    "status": true,
                    "value": "0"
                },
                "nodeType": 0
            },
            "9": {
                "invocation": {
                    "address": "0x0000000000000000000000000000000000000001",
                    "callData": "0x9ec0b442f33f2f83e2191ffba153afe90f7b60bc8618f2251903d4f3000000000000000000000000000000000000000000000000000000000000001c067c5aaba1b8e5bb686cda9efdae909aff86dc83f5be79f13af3ee677fb1791175e0b03401bdf7aa6e604eb995c7670384e6fadef3d687a00fd6d33cd47a0dde",
                    "decodedMethod": {
                        "callParams": [
                            {
                                "name": "hash",
                                "type": "bytes32",
                                "value": "0x3f5797649ec0b442f33f2f83e2191ffba153afe90f7b60bc8618f2251903d4f3"
                            },
                            {
                                "name": "v",
                                "type": "uint256",
                                "value": "28"
                            },
                            {
                                "name": "r",
                                "type": "bytes32",
                                "value": "0x067c5aaba1b8e5bb686cda9efdae909aff86dc83f5be79f13af3ee677fb17911"
                            },
                            {
                                "name": "s",
                                "type": "bytes32",
                                "value": "0x75e0b03401bdf7aa6e604eb995c7670384e6fadef3d687a00fd6d33cd47a0dde"
                            }
                        ],
                        "constructorArguments": "",
                        "name": "ecrecover",
                        "returnParams": [
                            {
                                "name": "",
                                "type": "address",
                                "value": "0x70bb1fb41c8c42f6ddd53a708e2b82209495e455"
                            }
                        ],
                        "signature": "ecrecover(bytes32,uint256,bytes32,bytes32)"
                    },
                    "errorInfo": "",
                    "fromAddress": "0x1a2a1c938ce3ec39b6d47113c7955baa9dd454f2",
                    "gasUsed": 3000,
                    "id": 9,
                    "methodDecoded": true,
                    "operation": "STATICCALL",
                    "output": "0x00000000000000000000000070bb1fb41c8c42f6ddd53a708e2b82209495e455",
                    "revert": false,
                    "revertMessage": "",
                    "selector": "0x3f579764",
                    "status": true,
                    "value": "0"
                },
                "nodeType": 0
            }
        },
        "gasFlame": [
            {
                "children": [
                    {
                        "children": [
                            {
                                "children": [],
                                "depth": 0,
                                "name": "Initial Gas",
                                "value": 27800
                            },
                            {
                                "children": [
                                    {
                                        "children": [
                                            {
                                                "children": [],
                                                "depth": 2,
                                                "name": "isTokenMapped",
                                                "value": 5215
                                            },
                                            {
                                                "children": [],
                                                "depth": 2,
                                                "name": "VALIDATOR",
                                                "value": 690
                                            },
                                            {
                                                "children": [],
                                                "depth": 2,
                                                "name": "getContract",
                                                "value": 3205
                                            },
                                            {
                                                "children": [],
                                                "depth": 2,
                                                "name": "ecrecover",
                                                "value": 3000
                                            },
                                            {
                                                "children": [],
                                                "depth": 2,
                                                "name": "isValidator",
                                                "value": 2545
                                            },
                                            {
                                                "children": [],
                                                "depth": 2,
                                                "name": "ecrecover",
                                                "value": 3000
                                            },
                                            {
                                                "children": [],
                                                "depth": 2,
                                                "name": "isValidator",
                                                "value": 2545
                                            },
                                            {
                                                "children": [],
                                                "depth": 2,
                                                "name": "ecrecover",
                                                "value": 3000
                                            },
                                            {
                                                "children": [],
                                                "depth": 2,
                                                "name": "isValidator",
                                                "value": 2545
                                            },
                                            {
                                                "children": [],
                                                "depth": 2,
                                                "name": "ecrecover",
                                                "value": 3000
                                            },
                                            {
                                                "children": [],
                                                "depth": 2,
                                                "name": "isValidator",
                                                "value": 2545
                                            },
                                            {
                                                "children": [],
                                                "depth": 2,
                                                "name": "ecrecover",
                                                "value": 3000
                                            },
                                            {
                                                "children": [],
                                                "depth": 2,
                                                "name": "isValidator",
                                                "value": 2545
                                            },
                                            {
                                                "children": [],
                                                "depth": 2,
                                                "name": "checkThreshold",
                                                "value": 6872
                                            },
                                            {
                                                "children": [],
                                                "depth": 2,
                                                "name": "WETH_TOKEN",
                                                "value": 668
                                            },
                                            {
                                                "children": [],
                                                "depth": 2,
                                                "name": "getContract",
                                                "value": 3205
                                            },
                                            {
                                                "children": [
                                                    {
                                                        "children": [],
                                                        "depth": 3,
                                                        "name": "balanceOf",
                                                        "value": 2529
                                                    }
                                                ],
                                                "depth": 2,
                                                "name": "balanceOf",
                                                "value": 9815
                                            },
                                            {
                                                "children": [
                                                    {
                                                        "children": [],
                                                        "depth": 3,
                                                        "name": "transfer",
                                                        "value": 34728
                                                    }
                                                ],
                                                "depth": 2,
                                                "name": "transfer",
                                                "value": 35517
                                            }
                                        ],
                                        "depth": 1,
                                        "name": "withdrawERC20For",
                                        "value": 186831
                                    }
                                ],
                                "depth": 0,
                                "name": "Executed Gas",
                                "value": 191982
                            }
                        ],
                        "depth": -1,
                        "name": "Actual Gas Used",
                        "value": 219782
                    },
                    {
                        "children": [],
                        "depth": -1,
                        "name": "Refunded Gas",
                        "value": 0
                    }
                ],
                "depth": -2,
                "name": "Total Gas",
                "value": 219782
            }
        ],
        "isConfirmed": true,
        "mainTrace": [
            {
                "children": [
                    {
                        "children": [
                            {
                                "children": [
                                    {
                                        "children": [],
                                        "depth": 2,
                                        "id": 2,
                                        "order": 2
                                    },
                                    {
                                        "children": [],
                                        "depth": 2,
                                        "id": 3,
                                        "order": 3
                                    },
                                    {
                                        "children": [],
                                        "depth": 2,
                                        "id": 4,
                                        "order": 4
                                    },
                                    {
                                        "children": [],
                                        "depth": 2,
                                        "id": 5,
                                        "order": 5
                                    },
                                    {
                                        "children": [],
                                        "depth": 2,
                                        "id": 6,
                                        "order": 6
                                    },
                                    {
                                        "children": [],
                                        "depth": 2,
                                        "id": 7,
                                        "order": 7
                                    },
                                    {
                                        "children": [],
                                        "depth": 2,
                                        "id": 8,
                                        "order": 8
                                    },
                                    {
                                        "children": [],
                                        "depth": 2,
                                        "id": 9,
                                        "order": 9
                                    },
                                    {
                                        "children": [],
                                        "depth": 2,
                                        "id": 10,
                                        "order": 10
                                    },
                                    {
                                        "children": [],
                                        "depth": 2,
                                        "id": 11,
                                        "order": 11
                                    },
                                    {
                                        "children": [],
                                        "depth": 2,
                                        "id": 12,
                                        "order": 12
                                    },
                                    {
                                        "children": [],
                                        "depth": 2,
                                        "id": 13,
                                        "order": 13
                                    },
                                    {
                                        "children": [],
                                        "depth": 2,
                                        "id": 14,
                                        "order": 14
                                    },
                                    {
                                        "children": [],
                                        "depth": 2,
                                        "id": 15,
                                        "order": 15
                                    },
                                    {
                                        "children": [],
                                        "depth": 2,
                                        "id": 16,
                                        "order": 16
                                    },
                                    {
                                        "children": [],
                                        "depth": 2,
                                        "id": 17,
                                        "order": 17
                                    },
                                    {
                                        "children": [
                                            {
                                                "children": [],
                                                "depth": 3,
                                                "id": 19,
                                                "order": 19
                                            }
                                        ],
                                        "depth": 2,
                                        "id": 18,
                                        "order": 18
                                    },
                                    {
                                        "children": [
                                            {
                                                "children": [
                                                    {
                                                        "children": [],
                                                        "depth": 4,
                                                        "id": 22,
                                                        "order": 22
                                                    }
                                                ],
                                                "depth": 3,
                                                "id": 21,
                                                "order": 21
                                            }
                                        ],
                                        "depth": 2,
                                        "id": 20,
                                        "order": 20
                                    },
                                    {
                                        "children": [],
                                        "depth": 2,
                                        "id": 23,
                                        "order": 23
                                    }
                                ],
                                "depth": 1,
                                "id": 1,
                                "order": 1
                            }
                        ],
                        "depth": 0,
                        "id": 0,
                        "order": 0
                    }
                ],
                "depth": -1,
                "id": -1,
                "order": -1
            }
        ],
        "mainTraceNodeCount": 24,
        "parentIdMap": {
            "0": -1,
            "1": 0,
            "10": 1,
            "11": 1,
            "12": 1,
            "13": 1,
            "14": 1,
            "15": 1,
            "16": 1,
            "17": 1,
            "18": 1,
            "19": 18,
            "2": 1,
            "20": 1,
            "21": 20,
            "22": 21,
            "23": 1,
            "3": 1,
            "4": 1,
            "5": 1,
            "6": 1,
            "7": 1,
            "8": 1,
            "9": 1
        },
        "tidyTrace": [
            {
                "children": [
                    {
                        "children": [
                            {
                                "children": [
                                    {
                                        "children": [
                                            {
                                                "children": [
                                                    {
                                                        "children": [],
                                                        "depth": 4,
                                                        "id": 22,
                                                        "order": 22
                                                    }
                                                ],
                                                "depth": 3,
                                                "id": 21,
                                                "order": 21
                                            }
                                        ],
                                        "depth": 2,
                                        "id": 20,
                                        "order": 20
                                    },
                                    {
                                        "children": [],
                                        "depth": 2,
                                        "id": 23,
                                        "order": 23
                                    }
                                ],
                                "depth": 1,
                                "id": 1,
                                "order": 1
                            }
                        ],
                        "depth": 0,
                        "id": 0,
                        "order": 0
                    }
                ],
                "depth": -1,
                "id": -1,
                "order": -1
            }
        ],
        "tidyTraceNodeCount": 6
    },
    "state_change": {
        "stateChanges": [
            {
                "address": "0x1a2a1c938ce3ec39b6d47113c7955baa9dd454f2",
                "erc": "",
                "slots": [
                    {
                        "current": "0x000000000000000000000000000000000000000000000000000017312e711800",
                        "key": "0xf0ed43586928430e24c67a5e818b2783e1ad3deb4c1a992732c284cf3ce4c74a",
                        "prev": "0x0000000000000000000000000000000000000000000000000000000000000000"
                    },
                    {
                        "current": "0x000000000000000000000000098b716b8aaf21512996dc57eb0615e2383e2f96",
                        "key": "0xf0ed43586928430e24c67a5e818b2783e1ad3deb4c1a992732c284cf3ce4c748",
                        "prev": "0x0000000000000000000000000000000000000000000000000000000000000000"
                    },
                    {
                        "current": "0x000000000000000000000000a0b86991c6218b36c1d19d4a2e9eb0ce3606eb48",
                        "key": "0xf0ed43586928430e24c67a5e818b2783e1ad3deb4c1a992732c284cf3ce4c749",
                        "prev": "0x0000000000000000000000000000000000000000000000000000000000000000"
                    }
                ],
                "storageVariables": [
                    {
                        "name": "withdrawals",
                        "type": "mapping(uint256 => struct MainchainGatewayStorage.WithdrawalEntry)",
                        "value": {
                            "pairs": [
                                {
                                    "key": "2000001",
                                    "value": {
                                        "fields": [
                                            {
                                                "name": "owner",
                                                "type": "address",
                                                "value": {
                                                    "current": "0x098b716b8aaf21512996dc57eb0615e2383e2f96",
                                                    "prev": "0x0000000000000000000000000000000000000000",
                                                    "typeTag": 1
                                                }
                                            },
                                            {
                                                "name": "tokenAddress",
                                                "type": "address",
                                                "value": {
                                                    "current": "0xa0b86991c6218b36c1d19d4a2e9eb0ce3606eb48",
                                                    "prev": "0x0000000000000000000000000000000000000000",
                                                    "typeTag": 1
                                                }
                                            },
                                            {
                                                "name": "tokenNumber",
                                                "type": "uint256",
                                                "value": {
                                                    "current": "25500000000000",
                                                    "prev": "0",
                                                    "typeTag": 1
                                                }
                                            }
                                        ],
                                        "typeTag": 3
                                    }
                                }
                            ],
                            "typeTag": 4
                        }
                    }
                ]
            },
            {
                "address": "0xa0b86991c6218b36c1d19d4a2e9eb0ce3606eb48",
                "erc": "ERC-20",
                "slots": [
                    {
                        "current": "0x000000000000000000000000000000000000000000000000000017312e711800",
                        "key": "0xcc51f62453c36e0dba01d64d7c5bacf7ced6f77dd4c4971d4f67d20e222f8ba4",
                        "prev": "0x0000000000000000000000000000000000000000000000000000000000000000"
                    },
                    {
                        "current": "0x000000000000000000000000000000000000000000000000000000017f450a5d",
                        "key": "0x88e4122533f746e195fe923b322923aa4bc0150662847ec6dc38639885620995",
                        "prev": "0x00000000000000000000000000000000000000000000000000001732adb6225d"
                    }
                ],
                "storageVariables": [
                    {
                        "name": "balances",
                        "type": "mapping(address => uint256)",
                        "value": {
                            "pairs": [
                                {
                                    "key": "0x098b716b8aaf21512996dc57eb0615e2383e2f96",
                                    "value": {
                                        "current": "25500000000000",
                                        "prev": "0",
                                        "typeTag": 1
                                    }
                                },
                                {
                                    "key": "0x1a2a1c938ce3ec39b6d47113c7955baa9dd454f2",
                                    "value": {
                                        "current": "6430198365",
                                        "prev": "25506430198365",
                                        "typeTag": 1
                                    }
                                }
                            ],
                            "typeTag": 4
                        }
                    }
                ]
            }
        ]
    }
}