{
    "balance_change": {
        "balanceChanges": [
            {
                "account": "0x88fd49f38fbbecb9d9ddd36dab6903a3fd4367ee",
                "assets": [
                    {
                        "address": "0x7fc66500c84a76ad7e9c93437bfc5ac33e2ddae9",
                        "amount": "1.563053100146996183",
                        "iconUrl": "https://assets.blocksec.com/icon/62f48bc5d1faeb48ff872297b2d01aca7a06f6613f30d65440b9b7703425b7e3.png",
                        "isERC1155": false,
                        "isERC721": false,
                        "sign": false,
                        "value": "113.74237373301600944"
                    },
                    {
                        "address": "0xdac17f958d2ee523a2206206994597c13d831ec7",
                        "amount": "3,027,396.368333",
                        "iconUrl": "https://assets.blocksec.com/icon/fcea71f3193ce895be44bfdf941f7e4c9381dd587f273c2d1a27f1263d84e4ea.png",
                        "isERC1155": false,
                        "isERC721": false,
                        "sign": true,
                        "value": "3033451.1607360000053"
                    }
                ]
            },
            {
                "account": "0x1f447690a6ddf18400533b705516159e1312f892",
                "assets": [
                    {
                        "address": "0x7fc66500c84a76ad7e9c93437bfc5ac33e2ddae9",
                        "amount": "1.563053100146996183",
                        "iconUrl": "https://assets.blocksec.com/icon/62f48bc5d1faeb48ff872297b2d01aca7a06f6613f30d65440b9b7703425b7e3.png",
                        "isERC1155": false,
                        "isERC721": false,
                        "sign": true,
                        "value": "113.74237373301600944"
                    },
                    {
                        "address": "0xdac17f958d2ee523a2206206994597c13d831ec7",
                        "amount": "3,027,396.368333",
                        "iconUrl": "https://assets.blocksec.com/icon/fcea71f3193ce895be44bfdf941f7e4c9381dd587f273c2d1a27f1263d84e4ea.png",
                        "isERC1155": false,
                        "isERC721": false,
                        "sign": false,
                        "value": "3033451.1607360000053"
                    }
                ]
            }
        ]
    },
    "profile": {
        "basic_info": {
            "baseFee": "16.720166622",
            "blockNumber": 16964664,
            "callData": "0xf0d0a65000000000000000000000000088fd49f38fbbecb9d9ddd36dab6903a3fd4367ee0000000000000000000000007fc66500c84a76ad7e9c93437bfc5ac33e2ddae9",
            "debugEnable": true,
            "errorInfo": "",
            "eventCount": 18,
            "feeRecipient": "0x0000000000000000000000000000000000000000",
            "formatValue": "0",
            "gasLimit": 500000,
            "gasPrice": "16.730166622",
            "gasUsed": 340422,
            "intTxnCount": 19,
            "internalRevert": false,
            "internalRevertMessage": "",
            "isContractCreation": false,
            "isFlashloan": false,
            "maxFee": "120",
            "nonce": 8,
            "overwritedBlockNumber": -1,
            "priorityFee": "0.01",
            "receiver": "0x1be67e4c681b2995e134bef335afc16e6437205c",
            "revertMessage": "",
            "sender": "0x88fd49f38fbbecb9d9ddd36dab6903a3fd4367ee",
            "simulationEnable": true,
            "sourceTxnHash": "0xef7f6864a93f8d10dd8fafbe75b041db8c282159fe43632c26a29f176894678e",
            "status": true,
            "timestamp": "2023-04-02T23:29:35Z",
            "transactionFee": "0.005695316781794484",
            "txnHash": "0xef7f6864a93f8d10dd8fafbe75b041db8c282159fe43632c26a29f176894678e",
            "txnIndex": 4,
            "type": 2,
            "value": "0"
        },
        "fund_flow": [
            {
                "amount": "1.563053100146996183",
                "from": "0x88fd49f38fbbecb9d9ddd36dab6903a3fd4367ee",
                "id": 1,
                "isERC1155": false,
                "isERC721": false,
                "isReverted": false,
                "order": 1,
                "to": "0x1be67e4c681b2995e134bef335afc16e6437205c",
                "token": "0x7fc66500c84a76ad7e9c93437bfc5ac33e2ddae9"
            },
            {
                "amount": "1.563053100146996183",
                "from": "0x1be67e4c681b2995e134bef335afc16e6437205c",
                "id": 2,
                "isERC1155": false,
                "isERC721": false,
                "isReverted": false,
                "order": 2,
                "to": "0x1f447690a6ddf18400533b705516159e1312f892",
                "token": "0x7fc66500c84a76ad7e9c93437bfc5ac33e2ddae9"
            },
            {
                "amount": "3,027,396.368333",
                "from": "0x1f447690a6ddf18400533b705516159e1312f892",
                "id": 3,
                "isERC1155": false,
                "isERC721": false,
                "isReverted": false,
                "order": 3,
                "to": "0x1be67e4c681b2995e134bef335afc16e6437205c",
                "token": "0xdac17f958d2ee523a2206206994597c13d831ec7"
            },
            {
                "amount": "3,027,396.368333",
                "from": "0x1be67e4c681b2995e134bef335afc16e6437205c",
                "id": 4,
                "isERC1155": false,
                "isERC721": false,
                "isReverted": false,
                "order": 4,
                "to": "0x88fd49f38fbbecb9d9ddd36dab6903a3fd4367ee",
                "token": "0xdac17f958d2ee523a2206206994597c13d831ec7"
            }
        ],
        "token_infos": [
            {
                "address": "0x7fc66500c84a76ad7e9c93437bfc5ac33e2ddae9",
                "decimals": 18
            },
            {
                "address": "0xc02aaa39b223fe8d0a0e5c4f27ead9083c756cc2",
                "decimals": 18
            },
            {
                "address": "0xdac17f958d2ee523a2206206994597c13d831ec7",
                "decimals": 6
            },
            {
                "address": "0xeeeeeeeeeeeeeeeeeeeeeeeeeeeeeeeeeeeeeeee",
                "decimals": 18
            }
        ]
    },
    "address_label": {
        "labels": [
            {
                "address": "0x1f447690a6ddf18400533b705516159e1312f892",
                "label": "Uniswap V2: AAVE-USDT 2"
            },
            {
                "address": "0x7a250d5630b4cf539739df2c5dacb4c659f2488d",
                "label": "Uniswap V2: Router 2"
            },
            {
                "address": "0xdac17f958d2ee523a2206206994597c13d831ec7",
                "label": "Tether: USDT Stablecoin"
            },
            {
                "address": "0x96f68837877fd0414b55050c9e794aecdbcfca59",
                "label": "Aave Token (AAVE)"
            },
            {
                "address": "0x0000000000000000000000000000000000000002",
                "label": "Precompiled"
            },
            {
                "address": "0x0000000000000000000000000000000000000003",
                "label": "Precompiled"
            },
            {
                "address": "0xeeeeeeeeeeeeeeeeeeeeeeeeeeeeeeeeeeeeeeee",
                "label": "Ether"
            },
            {
                "address": "0x0000000000000000000000000000000000000001",
                "label": "Precompiled"
            },
            {
                "address": "0x0000000000000000000000000000000000000004",
                "label": "Precompiled"
            },
            {
                "address": "0x7fc66500c84a76ad7e9c93437bfc5ac33e2ddae9",
                "label": "Aave: AAVE Token"
            }
        ]
    },
    "trace": {
        "accountLabels": null,
        "dataMap": {
            "-1": {
                "invocation": {
                    "address": "0x88fd49f38fbbecb9d9ddd36dab6903a3fd4367ee",
                    "callData": "",
                    "decodedMethod": null,
                    "errorInfo": "",
                    "fromAddress": "",
                    "gasUsed": 0,
                    "id": -1,
                    "methodDecoded": false,
                    "operation": "",
                    "output": "",
                    "revert": false,
                    "revertMessage": "",
                    "selector": "",
                    "status": false,
                    "value": ""
                },
                "nodeType": 0
            },
            "0": {
                "invocation": {
                    "address": "0x1be67e4c681b2995e134bef335afc16e6437205c",
                    "callData": "0x00000000000000000000000088fd49f38fbbecb9d9ddd36dab6903a3fd4367ee0000000000000000000000007fc66500c84a76ad7e9c93437bfc5ac33e2ddae9",
                    "decodedMethod": null,
                    "errorInfo": "",
                    "fromAddress": "0x88fd49f38fbbecb9d9ddd36dab6903a3fd4367ee",
                    "gasUsed": 340422,
                    "id": 0,
                    "methodDecoded": false,
                    "operation": "CALL",
                    "output": "",
                    "revert": false,
                    "revertMessage": "",
                    "selector": "0xf0d0a650",
                    "status": true,
                    "value": "0"
                },
                "nodeType": 0
            },
            "1": {
                "invocation": {
                    "address": "0x7fc66500c84a76ad7e9c93437bfc5ac33e2ddae9",
                    "callData": "0x00000000000000000000000088fd49f38fbbecb9d9ddd36dab6903a3fd4367ee",
                    "decodedMethod": {
                        "callParams": [
                            {
                                "name": "account",
                                "type": "address",
                                "value": "0x88fd49f38fbbecb9d9ddd36dab6903a3fd4367ee"
                            }
                        ],
                        "constructorArguments": "",
                        "name": "balanceOf",
                        "returnParams": [
                            {
                                "decimalAvailable": true,
                                "name": "",
                                "type": "uint256",
                                "value": "1,563,053,100,146,996,183"
                            }
                        ],
                        "signature": "balanceOf(address)"
                    },
                    "errorInfo": "",
                    "fromAddress": "0x1be67e4c681b2995e134bef335afc16e6437205c",
                    "gasUsed": 9884,
                    "id": 1,
                    "methodDecoded": true,
                    "operation": "STATICCALL",
                    "output": "0x00000000000000000000000000000000000000000000000015b114835f55b3d7",
                    "revert": false,
                    "revertMessage": "",
                    "selector": "0x70a08231",
                    "status": true,
                    "value": "0"
                },
                "nodeType": 0
            },
            "10": {
                "event": {
                    "contract": "0x7fc66500c84a76ad7e9c93437bfc5ac33e2ddae9",
                    "decodedLog": {
                        "name": "Approval",
                        "params": [
                            {
                                "name": "owner",
                                "type": "address",
                                "value": "0x88fd49f38fbbecb9d9ddd36dab6903a3fd4367ee"
                            },
                            {
                                "name": "spender",
                                "type": "address",
                                "value": "0x1be67e4c681b2995e134bef335afc16e6437205c"
                            },
                            {
                                "decimalAvailable": true,
                                "name": "value",
                                "type": "uint256",
                                "value": "115,792,089,237,316,195,423,570,985,008,687,907,853,269,984,665,640,564,039,456,020,954,812,982,643,752"
                            }
                        ],
                        "signature": "Approval(address,address,uint256)"
                    },
                    "id": 10,
                    "logData": "0xffffffffffffffffffffffffffffffffffffffffffffffffea4eeb7ca0aa4c28",
                    "logDecoded": true,
                    "operation": "EVENT",
                    "revert": false,
                    "status": true,
                    "topics": [
                        "0x8c5be1e5ebec7d5bd14f71427d1e84f3dd0314c0f7b2291e5b200ac8c7c3b925",
                        "0x00000000000000000000000088fd49f38fbbecb9d9ddd36dab6903a3fd4367ee",
                        "0x0000000000000000000000001be67e4c681b2995e134bef335afc16e6437205c"
                    ]
                },
                "nodeType": 1
            },
            "11": {
                "invocation": {
                    "address": "0x7fc66500c84a76ad7e9c93437bfc5ac33e2ddae9",
                    "callData": "0x0000000000000000000000007a250d5630b4cf539739df2c5dacb4c659f2488d0000000000000000000000000000000000000000000000000000000000000000",
                    "decodedMethod": {
                        "callParams": [
                            {
                                "name": "spender",
                                "type": "address",
                                "value": "0x7a250d5630b4cf539739df2c5dacb4c659f2488d"
                            },
                            {
                                "decimalAvailable": true,
                                "name": "amount",
                                "type": "uint256",
                                "value": "0"
                            }
                        ],
                        "constructorArguments": "",
                        "name": "approve",
                        "returnParams": [
                            {
                                "name": "",
                                "type": "bool",
                                "value": true
                            }
                        ],
                        "signature": "approve(address,uint256)"
                    },
                    "errorInfo": "",
                    "fromAddress": "0x1be67e4c681b2995e134bef335afc16e6437205c",
                    "gasUsed": 5591,
                    "id": 11,
                    "methodDecoded": true,
                    "operation": "CALL",
                    "output": "0x0000000000000000000000000000000000000000000000000000000000000001",
                    "revert": false,
                    "revertMessage": "",
                    "selector": "0x095ea7b3",
                    "status": true,
                    "value": "0"
                },
                "nodeType": 0
            },
            "12": {
                "invocation": {
                    "address": "0x96f68837877fd0414b55050c9e794aecdbcfca59",
                    "callData": "0x0000000000000000000000007a250d5630b4cf539739df2c5dacb4c659f2488d0000000000000000000000000000000000000000000000000000000000000000",
                    "decodedMethod": {
                        "callParams": [
                            {
                                "name": "spender",
                                "type": "address",
                                "value": "0x7a250d5630b4cf539739df2c5dacb4c659f2488d"
                            },
                            {
                                "decimalAvailable": true,
                                "name": "amount",
                                "type": "uint256",
                                "value": "0"
                            }
                        ],
                        "constructorArguments": "",
                        "name": "approve",
                        "returnParams": [
                            {
                                "name": "",
                                "type": "bool",
                                "value": true
                            }
                        ],
                        "signature": "approve(address,uint256)"
                    },
                    "errorInfo": "",
                    "fromAddress": "0x7fc66500c84a76ad7e9c93437bfc5ac33e2ddae9",
                    "gasUsed": 4853,
                    "id": 12,
                    "methodDecoded": true,
                    "operation": "DELEGATECALL",
                    "output": "0x0000000000000000000000000000000000000000000000000000000000000001",
                    "revert": false,
                    "revertMessage": "",
                    "selector": "0x095ea7b3",
                    "status": true,
                    "value": "0"
                },
                "nodeType": 0
            },
            "13": {
                "event": {
                    "contract": "0x7fc66500c84a76ad7e9c93437bfc5ac33e2ddae9",
                    "decodedLog": {
                        "name": "Approval",
                        "params": [
                            {
                                "name": "owner",
                                "type": "address",
                                "value": "0x1be67e4c681b2995e134bef335afc16e6437205c"
                            },
                            {
                                "name": "spender",
                                "type": "address",
                                "value": "0x7a250d5630b4cf539739df2c5dacb4c659f2488d"
                            },
                            {
                                "decimalAvailable": true,
                                "name": "value",
                                "type": "uint256",
                                "value": "0"
                            }
                        ],
                        "signature": "Approval(address,address,uint256)"
                    },
                    "id": 13,
                    "logData": "0x0000000000000000000000000000000000000000000000000000000000000000",
                    "logDecoded": true,
                    "operation": "EVENT",
                    "revert": false,
                    "status": true,
                    "topics": [
                        "0x8c5be1e5ebec7d5bd14f71427d1e84f3dd0314c0f7b2291e5b200ac8c7c3b925",
                        "0x0000000000000000000000001be67e4c681b2995e134bef335afc16e6437205c",
                        "0x0000000000000000000000007a250d5630b4cf539739df2c5dacb4c659f2488d"
                    ]
                },
                "nodeType": 1
            },
            "14": {
                "invocation": {
                    "address": "0x7fc66500c84a76ad7e9c93437bfc5ac33e2ddae9",
                    "callData": "0x0000000000000000000000007a250d5630b4cf539739df2c5dacb4c659f2488d00000000000000000000000000000000000000000000000015b114835f55b3d7",
                    "decodedMethod": {
                        "callParams": [
                            {
                                "name": "spender",
                                "type": "address",
                                "value": "0x7a250d5630b4cf539739df2c5dacb4c659f2488d"
                            },
                            {
                                "decimalAvailable": true,
                                "name": "amount",
                                "type": "uint256",
                                "value": "1,563,053,100,146,996,183"
                            }
                        ],
                        "constructorArguments": "",
                        "name": "approve",
                        "returnParams": [
                            {
                                "name": "",
                                "type": "bool",
                                "value": true
                            }
                        ],
                        "signature": "approve(address,uint256)"
                    },
                    "errorInfo": "",
                    "fromAddress": "0x1be67e4c681b2995e134bef335afc16e6437205c",
                    "gasUsed": 23391,
                    "id": 14,
                    "methodDecoded": true,
                    "operation": "CALL",
                    "output": "0x0000000000000000000000000000000000000000000000000000000000000001",
                    "revert": false,
                    "revertMessage": "",
                    "selector": "0x095ea7b3",
                    "status": true,
                    "value": "0"
                },
                "nodeType": 0
            },
            "15": {
                "invocation": {
                    "address": "0x96f68837877fd0414b55050c9e794aecdbcfca59",
                    "callData": "0x0000000000000000000000007a250d5630b4cf539739df2c5dacb4c659f2488d00000000000000000000000000000000000000000000000015b114835f55b3d7",
                    "decodedMethod": {
                        "callParams": [
                            {
                                "name": "spender",
                                "type": "address",
                                "value": "0x7a250d5630b4cf539739df2c5dacb4c659f2488d"
                            },
                            {
                                "decimalAvailable": true,
                                "name": "amount",
                                "type": "uint256",
                                "value": "1,563,053,100,146,996,183"
                            }
                        ],
                        "constructorArguments": "",
                        "name": "approve",
                        "returnParams": [
                            {
                                "name": "",
                                "type": "bool",
                                "value": true
                            }
                        ],
                        "signature": "approve(address,uint256)"
                    },
                    "errorInfo": "",
                    "fromAddress": "0x7fc66500c84a76ad7e9c93437bfc5ac33e2ddae9",
                    "gasUsed": 22653,
                    "id": 15,
                    "methodDecoded": true,
                    "operation": "DELEGATECALL",
                    "output": "0x0000000000000000000000000000000000000000000000000000000000000001",
                    "revert": false,
                    "revertMessage": "",
                    "selector": "0x095ea7b3",
                    "status": true,
                    "value": "0"
                },
                "nodeType": 0
            },
            "16": {
                "event": {
                    "contract": "0x7fc66500c84a76ad7e9c93437bfc5ac33e2ddae9",
                    "decodedLog": {
                        "name": "Approval",
                        "params": [
                            {
                                "name": "owner",
                                "type": "address",
                                "value": "0x1be67e4c681b2995e134bef335afc16e6437205c"
                            },
                            {
                                "name": "spender",
                                "type": "address",
                                "value": "0x7a250d5630b4cf539739df2c5dacb4c659f2488d"
                            },
                            {
                                "decimalAvailable": true,
                                "name": "value",
                                "type": "uint256",
                                "value": "1,563,053,100,146,996,183"
                            }
                        ],
                        "signature": "Approval(address,address,uint256)"
                    },
                    "id": 16,
                    "logData": "0x00000000000000000000000000000000000000000000000015b114835f55b3d7",
                    "logDecoded": true,
                    "operation": "EVENT",
                    "revert": false,
                    "status": true,
                    "topics": [
                        "0x8c5be1e5ebec7d5bd14f71427d1e84f3dd0314c0f7b2291e5b200ac8c7c3b925",
                        "0x0000000000000000000000001be67e4c681b2995e134bef335afc16e6437205c",
                        "0x0000000000000000000000007a250d5630b4cf539739df2c5dacb4c659f2488d"
                    ]
                },
                "nodeType": 1
            },
            "17": {
                "invocation": {
                    "address": "0x7a250d5630b4cf539739df2c5dacb4c659f2488d",
                    "callData": "0x00000000000000000000000000000000000000000000000015b114835f55b3d7000000000000000000000000000000000000000000000000000000000000000100000000000000000000000000000000000000000000000000000000000000a00000000000000000000000001be67e4c681b2995e134bef335afc16e6437205c00000000000000000000000000000000000000000000000000000000642a101b00000000000000000000000000000000000000000000000000000000000000020000000000000000000000007fc66500c84a76ad7e9c93437bfc5ac33e2ddae9000000000000000000000000dac17f958d2ee523a2206206994597c13d831ec7",
                    "decodedMethod": {
                        "callParams": [
                            {
                                "name": "amountIn",
                                "type": "uint256",
                                "value": "1,563,053,100,146,996,183"
                            },
                            {
                                "name": "amountOutMin",
                                "type": "uint256",
                                "value": "1"
                            },
                            {
                                "name": "path",
                                "type": "address[]",
                                "value": [
                                    "0x7fc66500c84a76ad7e9c93437bfc5ac33e2ddae9",
                                    "0xdac17f958d2ee523a2206206994597c13d831ec7"
                                ]
                            },
                            {
                                "name": "to",
                                "type": "address",
                                "value": "0x1be67e4c681b2995e134bef335afc16e6437205c"
                            },
                            {
                                "name": "deadline",
                                "type": "uint256",
                                "value": "1,680,478,235"
                            }
                        ],
                        "constructorArguments": "",
                        "name": "swapExactTokensForTokens",
                        "returnParams": [
                            {
                                "name": "amounts",
                                "type": "uint256[]",
                                "value": [
                                    "1,563,053,100,146,996,183",
                                    "3,027,396,368,333"
                                ]
                            }
                        ],
                        "signature": "swapExactTokensForTokens(uint256,uint256,address[],address,uint256)"
                    },
                    "errorInfo": "",
                    "fromAddress": "0x1be67e4c681b2995e134bef335afc16e6437205c",
                    "gasUsed": 125622,
                    "id": 17,
                    "methodDecoded": true,
                    "operation": "CALL",
                    "output": "0x0000000000000000000000000000000000000000000000000000000000000020000000000000000000000000000000000000000000000000000000000000000200000000000000000000000000000000000000000000000015b114835f55b3d7000000000000000000000000000000000000000000000000000002c0dee297cd",
                    "revert": false,
                    "revertMessage": "",
                    "selector": "0x38ed1739",
                    "status": true,
                    "value": "0"
                },
                "nodeType": 0
            },
            "18": {
                "invocation": {
                    "address": "0x1f447690a6ddf18400533b705516159e1312f892",
                    "callData": "0x",
                    "decodedMethod": {
                        "callParams": [],
                        "constructorArguments": "",
                        "name": "getReserves",
                        "returnParams": [
                            {
                                "name": "_reserve0",
                                "type": "uint112",
                                "value": "214,398,604,812"
                            },
                            {
                                "name": "_reserve1",
                                "type": "uint112",
                                "value": "3,027,396,784,841"
                            },
                            {
                                "name": "_blockTimestampLast",
                                "type": "uint32",
                                "value": "1,680,478,175"
                            }
                        ],
                        "signature": "getReserves()"
                    },
                    "errorInfo": "",
                    "fromAddress": "0x7a250d5630b4cf539739df2c5dacb4c659f2488d",
                    "gasUsed": 2504,
                    "id": 18,
                    "methodDecoded": true,
                    "operation": "STATICCALL",
                    "output": "0x00000000000000000000000000000000000000000000000000000031eb27160c000000000000000000000000000000000000000000000000000002c0dee8f2c900000000000000000000000000000000000000000000000000000000642a0fdf",
                    "revert": false,
                    "revertMessage": "",
                    "selector": "0x0902f1ac",
                    "status": true,
                    "value": "0"
                },
                "nodeType": 0
            },
            "19": {
                "invocation": {
                    "address": "0x7fc66500c84a76ad7e9c93437bfc5ac33e2ddae9",
                    "callData": "0x0000000000000000000000001be67e4c681b2995e134bef335afc16e6437205c0000000000000000000000001f447690a6ddf18400533b705516159e1312f89200000000000000000000000000000000000000000000000015b114835f55b3d7",
                    "decodedMethod": {
                        "callParams": [
                            {
                                "name": "sender",
                                "type": "address",
                                "value": "0x1be67e4c681b2995e134bef335afc16e6437205c"
                            },
                            {
                                "name": "recipient",
                                "type": "address",
                                "value": "0x1f447690a6ddf18400533b705516159e1312f892"
                            },
                            {
                                "decimalAvailable": true,
                                "name": "amount",
                                "type": "uint256",
                                "value": "1,563,053,100,146,996,183"
                            }
                        ],
                        "constructorArguments": "",
                        "name": "transferFrom",
                        "returnParams": [
                            {
                                "name": "",
                                "type": "bool",
                                "value": true
                            }
                        ],
                        "signature": "transferFrom(address,address,uint256)"
                    },
                    "errorInfo": "",
                    "fromAddress": "0x7a250d5630b4cf539739df2c5dacb4c659f2488d",
                    "gasUsed": 45573,
                    "id": 19,
                    "methodDecoded": true,
                    "operation": "CALL",
                    "output": "0x0000000000000000000000000000000000000000000000000000000000000001",
                    "revert": false,
                    "revertMessage": "",
                    "selector": "0x23b872dd",
                    "status": true,
                    "value": "0"
                },
                "nodeType": 0
            },
            "2": {
                "invocation": {
                    "address": "0x96f68837877fd0414b55050c9e794aecdbcfca59",
                    "callData": "0x00000000000000000000000088fd49f38fbbecb9d9ddd36dab6903a3fd4367ee",
                    "decodedMethod": {
                        "callParams": [
                            {
                                "name": "account",
                                "type": "address",
                                "value": "0x88fd49f38fbbecb9d9ddd36dab6903a3fd4367ee"
                            }
                        ],
                        "constructorArguments": "",
                        "name": "balanceOf",
                        "returnParams": [
                            {
                                "decimalAvailable": true,
                                "name": "",
                                "type": "uint256",
                                "value": "1,563,053,100,146,996,183"
                            }
                        ],
                        "signature": "balanceOf(address)"
                    },
                    "errorInfo": "",
                    "fromAddress": "0x7fc66500c84a76ad7e9c93437bfc5ac33e2ddae9",
                    "gasUsed": 2649,
                    "id": 2,
                    "methodDecoded": true,
                    "operation": "DELEGATECALL",
                    "output": "0x00000000000000000000000000000000000000000000000015b114835f55b3d7",
                    "revert": false,
                    "revertMessage": "",
                    "selector": "0x70a08231",
                    "status": true,
                    "value": "0"
                },
                "nodeType": 0
            },
            "20": {
                "invocation": {
                    "address": "0x96f68837877fd0414b55050c9e794aecdbcfca59",
                    "callData": "0x0000000000000000000000001be67e4c681b2995e134bef335afc16e6437205c0000000000000000000000001f447690a6ddf18400533b705516159e1312f89200000000000000000000000000000000000000000000000015b114835f55b3d7",
                    "decodedMethod": {
                        "callParams": [
                            {
                                "name": "sender",
                                "type": "address",
                                "value": "0x1be67e4c681b2995e134bef335afc16e6437205c"
                            },
                            {
                                "name": "recipient",
                                "type": "address",
                                "value": "0x1f447690a6ddf18400533b705516159e1312f892"
                            },
                            {
                                "decimalAvailable": true,
                                "name": "amount",
                                "type": "uint256",
                                "value": "1,563,053,100,146,996,183"
                            }
                        ],
                        "constructorArguments": "",
                        "name": "transferFrom",
                        "returnParams": [
                            {
                                "name": "",
                                "type": "bool",
                                "value": true
                            }
                        ],
                        "signature": "transferFrom(address,address,uint256)"
                    },
                    "errorInfo": "",
                    "fromAddress": "0x7fc66500c84a76ad7e9c93437bfc5ac33e2ddae9",
                    "gasUsed": 44829,
                    "id": 20,
                    "methodDecoded": true,
                    "operation": "DELEGATECALL",
                    "output": "0x0000000000000000000000000000000000000000000000000000000000000001",
                    "revert": false,
                    "revertMessage": "",
                    "selector": "0x23b872dd",
                    "status": true,
                    "value": "0"
                },
                "nodeType": 0
            },
            "21": {
                "event": {
                    "contract": "0x7fc66500c84a76ad7e9c93437bfc5ac33e2ddae9",
                    "decodedLog": {
                        "name": "DelegatedPowerChanged",
                        "params": [
                            {
                                "name": "user",
                                "type": "address",
                                "value": "0x1be67e4c681b2995e134bef335afc16e6437205c"
                            },
                            {
                                "name": "amount",
                                "type": "uint256",
                                "value": "0"
                            },
                            {
                                "name": "delegationType",
                                "type": "uint8",
                                "value": "0"
                            }
                        ],
                        "signature": "DelegatedPowerChanged(address,uint256,uint8)"
                    },
                    "id": 21,
                    "logData": "0x00000000000000000000000000000000000000000000000000000000000000000000000000000000000000000000000000000000000000000000000000000000",
                    "logDecoded": true,
                    "operation": "EVENT",
                    "revert": false,
                    "status": true,
                    "topics": [
                        "0xa0a19463ee116110c9b282012d9b65cc5522dc38a9520340cbaf3142e550127f",
                        "0x0000000000000000000000001be67e4c681b2995e134bef335afc16e6437205c"
                    ]
                },
                "nodeType": 1
            },
            "22": {
                "event": {
                    "contract": "0x7fc66500c84a76ad7e9c93437bfc5ac33e2ddae9",
                    "decodedLog": {
                        "name": "DelegatedPowerChanged",
                        "params": [
                            {
                                "name": "user",
                                "type": "address",
                                "value": "0x1f447690a6ddf18400533b705516159e1312f892"
                            },
                            {
                                "name": "amount",
                                "type": "uint256",
                                "value": "1,563,053,314,545,600,995"
                            },
                            {
                                "name": "delegationType",
                                "type": "uint8",
                                "value": "0"
                            }
                        ],
                        "signature": "DelegatedPowerChanged(address,uint256,uint8)"
                    },
                    "id": 22,
                    "logData": "0x00000000000000000000000000000000000000000000000015b114b54a7cc9e30000000000000000000000000000000000000000000000000000000000000000",
                    "logDecoded": true,
                    "operation": "EVENT",
                    "revert": false,
                    "status": true,
                    "topics": [
                        "0xa0a19463ee116110c9b282012d9b65cc5522dc38a9520340cbaf3142e550127f",
                        "0x0000000000000000000000001f447690a6ddf18400533b705516159e1312f892"
                    ]
                },
                "nodeType": 1
            },
            "23": {
                "event": {
                    "contract": "0x7fc66500c84a76ad7e9c93437bfc5ac33e2ddae9",
                    "decodedLog": {
                        "name": "DelegatedPowerChanged",
                        "params": [
                            {
                                "name": "user",
                                "type": "address",
                                "value": "0x1be67e4c681b2995e134bef335afc16e6437205c"
                            },
                            {
                                "name": "amount",
                                "type": "uint256",
                                "value": "0"
                            },
                            {
                                "name": "delegationType",
                                "type": "uint8",
                                "value": "1"
                            }
                        ],
                        "signature": "DelegatedPowerChanged(address,uint256,uint8)"
                    },
                    "id": 23,
                    "logData": "0x00000000000000000000000000000000000000000000000000000000000000000000000000000000000000000000000000000000000000000000000000000001",
                    "logDecoded": true,
                    "operation": "EVENT",
                    "revert": false,
                    "status": true,
                    "topics": [
                        "0xa0a19463ee116110c9b282012d9b65cc5522dc38a9520340cbaf3142e550127f",
                        "0x0000000000000000000000001be67e4c681b2995e134bef335afc16e6437205c"
                    ]
                },
                "nodeType": 1
            },
            "24": {
                "event": {
                    "contract": "0x7fc66500c84a76ad7e9c93437bfc5ac33e2ddae9",
                    "decodedLog": {
                        "name": "DelegatedPowerChanged",
                        "params": [
                            {
                                "name": "user",
                                "type": "address",
                                "value": "0x1f447690a6ddf18400533b705516159e1312f892"
                            },
                            {
                                "name": "amount",
                                "type": "uint256",
                                "value": "1,563,053,314,545,600,995"
                            },
                            {
                                "name": "delegationType",
                                "type": "uint8",
                                "value": "1"
                            }
                        ],
                        "signature": "DelegatedPowerChanged(address,uint256,uint8)"
                    },
                    "id": 24,
                    "logData": "0x00000000000000000000000000000000000000000000000015b114b54a7cc9e30000000000000000000000000000000000000000000000000000000000000001",
                    "logDecoded": true,
                    "operation": "EVENT",
                    "revert": false,
                    "status": true,
                    "topics": [
                        "0xa0a19463ee116110c9b282012d9b65cc5522dc38a9520340cbaf3142e550127f",
                        "0x0000000000000000000000001f447690a6ddf18400533b705516159e1312f892"
                    ]
                },
                "nodeType": 1
            },
            "25": {
                "event": {
                    "contract": "0x7fc66500c84a76ad7e9c93437bfc5ac33e2ddae9",
                    "decodedLog": {
                        "name": "Transfer",
                        "params": [
                            {
                                "name": "from",
                                "type": "address",
                                "value": "0x1be67e4c681b2995e134bef335afc16e6437205c"
                            },
                            {
                                "name": "to",
                                "type": "address",
                                "value": "0x1f447690a6ddf18400533b705516159e1312f892"
                            },
                            {
                                "decimalAvailable": true,
                                "name": "value",
                                "type": "uint256",
                                "value": "1,563,053,100,146,996,183"
                            }
                        ],
                        "signature": "Transfer(address,address,uint256)"
                    },
                    "id": 25,
                    "logData": "0x00000000000000000000000000000000000000000000000015b114835f55b3d7",
                    "logDecoded": true,
                    "operation": "EVENT",
                    "revert": false,
                    "status": true,
                    "topics": [
                        "0xddf252ad1be2c89b69c2b068fc378daa952ba7f163c4a11628f55a4df523b3ef",
                        "0x0000000000000000000000001be67e4c681b2995e134bef335afc16e6437205c",
                        "0x0000000000000000000000001f447690a6ddf18400533b705516159e1312f892"
                    ]
                },
                "nodeType": 1
            },
            "26": {
                "event": {
                    "contract": "0x7fc66500c84a76ad7e9c93437bfc5ac33e2ddae9",
                    "decodedLog": {
                        "name": "Approval",
                        "params": [
                            {
                                "name": "owner",
                                "type": "address",
                                "value": "0x1be67e4c681b2995e134bef335afc16e6437205c"
                            },
                            {
                                "name": "spender",
                                "type": "address",
                                "value": "0x7a250d5630b4cf539739df2c5dacb4c659f2488d"
                            },
                            {
                                "decimalAvailable": true,
                                "name": "value",
                                "type": "uint256",
                                "value": "0"
                            }
                        ],
                        "signature": "Approval(address,address,uint256)"
                    },
                    "id": 26,
                    "logData": "0x0000000000000000000000000000000000000000000000000000000000000000",
                    "logDecoded": true,
                    "operation": "EVENT",
                    "revert": false,
                    "status": true,
                    "topics": [
                        "0x8c5be1e5ebec7d5bd14f71427d1e84f3dd0314c0f7b2291e5b200ac8c7c3b925",
                        "0x0000000000000000000000001be67e4c681b2995e134bef335afc16e6437205c",
                        "0x0000000000000000000000007a250d5630b4cf539739df2c5dacb4c659f2488d"
                    ]
                },
                "nodeType": 1
            },
            "27": {
                "invocation": {
                    "address": "0x1f447690a6ddf18400533b705516159e1312f892",
                    "callData": "0x0000000000000000000000000000000000000000000000000000000000000000000000000000000000000000000000000000000000000000000002c0dee297cd0000000000000000000000001be67e4c681b2995e134bef335afc16e6437205c00000000000000000000000000000000000000000000000000000000000000800000000000000000000000000000000000000000000000000000000000000000",
                    "decodedMethod": {
                        "callParams": [
                            {
                                "name": "amount0Out",
                                "type": "uint256",
                                "value": "0"
                            },
                            {
                                "name": "amount1Out",
                                "type": "uint256",
                                "value": "3,027,396,368,333"
                            },
                            {
                                "name": "to",
                                "type": "address",
                                "value": "0x1be67e4c681b2995e134bef335afc16e6437205c"
                            },
                            {
                                "name": "data",
                                "type": "bytes",
                                "value": "0x"
                            }
                        ],
                        "constructorArguments": "",
                        "name": "swap",
                        "returnParams": [],
                        "signature": "swap(uint256,uint256,address,bytes)"
                    },
                    "errorInfo": "",
                    "fromAddress": "0x7a250d5630b4cf539739df2c5dacb4c659f2488d",
                    "gasUsed": 67296,
                    "id": 27,
                    "methodDecoded": true,
                    "operation": "CALL",
                    "output": "",
                    "revert": false,
                    "revertMessage": "",
                    "selector": "0x022c0d9f",
                    "status": true,
                    "value": "0"
                },
                "nodeType": 0
            },
            "28": {
                "invocation": {
                    "address": "0xdac17f958d2ee523a2206206994597c13d831ec7",
                    "callData": "0x0000000000000000000000001be67e4c681b2995e134bef335afc16e6437205c000000000000000000000000000000000000000000000000000002c0dee297cd",
                    "decodedMethod": {
                        "callParams": [
                            {
                                "name": "_to",
                                "type": "address",
                                "value": "0x1be67e4c681b2995e134bef335afc16e6437205c"
                            },
                            {
                                "decimalAvailable": true,
                                "name": "_value",
                                "type": "uint256",
                                "value": "3,027,396,368,333"
                            }
                        ],
                        "constructorArguments": "",
                        "name": "transfer",
                        "returnParams": [],
                        "signature": "transfer(address,uint256)"
                    },
                    "errorInfo": "",
                    "fromAddress": "0x1f447690a6ddf18400533b705516159e1312f892",
                    "gasUsed": 41601,
                    "id": 28,
                    "methodDecoded": true,
                    "operation": "CALL",
                    "output": "",
                    "revert": false,
                    "revertMessage": "",
                    "selector": "0xa9059cbb",
                    "status": true,
                    "value": "0"
                },
                "nodeType": 0
            },
            "29": {
                "event": {
                    "contract": "0xdac17f958d2ee523a2206206994597c13d831ec7",
                    "decodedLog": {
                        "name": "Transfer",
                        "params": [
                            {
                                "name": "from",
                                "type": "address",
                                "value": "0x1f447690a6ddf18400533b705516159e1312f892"
                            },
                            {
                                "name": "to",
                                "type": "address",
                                "value": "0x1be67e4c681b2995e134bef335afc16e6437205c"
                            },
                            {
                                "decimalAvailable": true,
                                "name": "value",
                                "type": "uint256",
                                "value": "3,027,396,368,333"
                            }
                        ],
                        "signature": "Transfer(address,address,uint256)"
                    },
                    "id": 29,
                    "logData": "0x000000000000000000000000000000000000000000000000000002c0dee297cd",
                    "logDecoded": true,
                    "operation": "EVENT",
                    "revert": false,
                    "status": true,
                    "topics": [
                        "0xddf252ad1be2c89b69c2b068fc378daa952ba7f163c4a11628f55a4df523b3ef",
                        "0x0000000000000000000000001f447690a6ddf18400533b705516159e1312f892",
                        "0x0000000000000000000000001be67e4c681b2995e134bef335afc16e6437205c"
                    ]
                },
                "nodeType": 1
            },
            "3": {
                "invocation": {
                    "address": "0x7fc66500c84a76ad7e9c93437bfc5ac33e2ddae9",
                    "callData": "0x00000000000000000000000088fd49f38fbbecb9d9ddd36dab6903a3fd4367ee0000000000000000000000001be67e4c681b2995e134bef335afc16e6437205c00000000000000000000000000000000000000000000000015b114835f55b3d7",
                    "decodedMethod": {
                        "callParams": [
                            {
                                "name": "sender",
                                "type": "address",
                                "value": "0x88fd49f38fbbecb9d9ddd36dab6903a3fd4367ee"
                            },
                            {
                                "name": "recipient",
                                "type": "address",
                                "value": "0x1be67e4c681b2995e134bef335afc16e6437205c"
                            },
                            {
                                "decimalAvailable": true,
                                "name": "amount",
                                "type": "uint256",
                                "value": "1,563,053,100,146,996,183"
                            }
                        ],
                        "constructorArguments": "",
                        "name": "transferFrom",
                        "returnParams": [
                            {
                                "name": "",
                                "type": "bool",
                                "value": true
                            }
                        ],
                        "signature": "transferFrom(address,address,uint256)"
                    },
                    "errorInfo": "",
                    "fromAddress": "0x1be67e4c681b2995e134bef335afc16e6437205c",
                    "gasUsed": 178682,
                    "id": 3,
                    "methodDecoded": true,
                    "operation": "CALL",
                    "output": "0x0000000000000000000000000000000000000000000000000000000000000001",
                    "revert": false,
                    "revertMessage": "",
                    "selector": "0x23b872dd",
                    "status": true,
                    "value": "0"
                },
                "nodeType": 0
            },
            "30": {
                "invocation": {
                    "address": "0x7fc66500c84a76ad7e9c93437bfc5ac33e2ddae9",
                    "callData": "0x0000000000000000000000001f447690a6ddf18400533b705516159e1312f892",
                    "decodedMethod": {
                        "callParams": [
                            {
                                "name": "account",
                                "type": "address",
                                "value": "0x1f447690a6ddf18400533b705516159e1312f892"
                            }
                        ],
                        "constructorArguments": "",
                        "name": "balanceOf",
                        "returnParams": [
                            {
                                "decimalAvailable": true,
                                "name": "",
                                "type": "uint256",
                                "value": "1,563,053,314,545,600,995"
                            }
                        ],
                        "signature": "balanceOf(address)"
                    },
                    "errorInfo": "",
                    "fromAddress": "0x1f447690a6ddf18400533b705516159e1312f892",
                    "gasUsed": 1384,
                    "id": 30,
                    "methodDecoded": true,
                    "operation": "STATICCALL",
                    "output": "0x00000000000000000000000000000000000000000000000015b114b54a7cc9e3",
                    "revert": false,
                    "revertMessage": "",
                    "selector": "0x70a08231",
                    "status": true,
                    "value": "0"
                },
                "nodeType": 0
            },
            "31": {
                "invocation": {
                    "address": "0x96f68837877fd0414b55050c9e794aecdbcfca59",
                    "callData": "0x0000000000000000000000001f447690a6ddf18400533b705516159e1312f892",
                    "decodedMethod": {
                        "callParams": [
                            {
                                "name": "account",
                                "type": "address",
                                "value": "0x1f447690a6ddf18400533b705516159e1312f892"
                            }
                        ],
                        "constructorArguments": "",
                        "name": "balanceOf",
                        "returnParams": [
                            {
                                "decimalAvailable": true,
                                "name": "",
                                "type": "uint256",
                                "value": "1,563,053,314,545,600,995"
                            }
                        ],
                        "signature": "balanceOf(address)"
                    },
                    "errorInfo": "",
                    "fromAddress": "0x7fc66500c84a76ad7e9c93437bfc5ac33e2ddae9",
                    "gasUsed": 649,
                    "id": 31,
                    "methodDecoded": true,
                    "operation": "DELEGATECALL",
                    "output": "0x00000000000000000000000000000000000000000000000015b114b54a7cc9e3",
                    "revert": false,
                    "revertMessage": "",
                    "selector": "0x70a08231",
                    "status": true,
                    "value": "0"
                },
                "nodeType": 0
            },
            "32": {
                "invocation": {
                    "address": "0xdac17f958d2ee523a2206206994597c13d831ec7",
                    "callData": "0x0000000000000000000000001f447690a6ddf18400533b705516159e1312f892",
                    "decodedMethod": {
                        "callParams": [
                            {
                                "name": "who",
                                "type": "address",
                                "value": "0x1f447690a6ddf18400533b705516159e1312f892"
                            }
                        ],
                        "constructorArguments": "",
                        "name": "balanceOf",
                        "returnParams": [
                            {
                                "decimalAvailable": true,
                                "name": "",
                                "type": "uint256",
                                "value": "416,508"
                            }
                        ],
                        "signature": "balanceOf(address)"
                    },
                    "errorInfo": "",
                    "fromAddress": "0x1f447690a6ddf18400533b705516159e1312f892",
                    "gasUsed": 1031,
                    "id": 32,
                    "methodDecoded": true,
                    "operation": "STATICCALL",
                    "output": "0x0000000000000000000000000000000000000000000000000000000000065afc",
                    "revert": false,
                    "revertMessage": "",
                    "selector": "0x70a08231",
                    "status": true,
                    "value": "0"
                },
                "nodeType": 0
            },
            "33": {
                "event": {
                    "contract": "0x1f447690a6ddf18400533b705516159e1312f892",
                    "decodedLog": {
                        "name": "Sync",
                        "params": [
                            {
                                "name": "reserve0",
                                "type": "uint112",
                                "value": "1,563,053,314,545,600,995"
                            },
                            {
                                "name": "reserve1",
                                "type": "uint112",
                                "value": "416,508"
                            }
                        ],
                        "signature": "Sync(uint112,uint112)"
                    },
                    "id": 33,
                    "logData": "0x00000000000000000000000000000000000000000000000015b114b54a7cc9e30000000000000000000000000000000000000000000000000000000000065afc",
                    "logDecoded": true,
                    "operation": "EVENT",
                    "revert": false,
                    "status": true,
                    "topics": [
                        "0x1c411e9a96e071241c2f21f7726b17ae89e3cab4c78be50e062b03a9fffbbad1"
                    ]
                },
                "nodeType": 1
            },
            "34": {
                "event": {
                    "contract": "0x1f447690a6ddf18400533b705516159e1312f892",
                    "decodedLog": {
                        "name": "Swap",
                        "params": [
                            {
                                "name": "sender",
                                "type": "address",
                                "value": "0x7a250d5630b4cf539739df2c5dacb4c659f2488d"
                            },
                            {
                                "name": "to",
                                "type": "address",
                                "value": "0x1be67e4c681b2995e134bef335afc16e6437205c"
                            },
                            {
                                "name": "amount0In",
                                "type": "uint256",
                                "value": "1,563,053,100,146,996,183"
                            },
                            {
                                "name": "amount1In",
                                "type": "uint256",
                                "value": "0"
                            },
                            {
                                "name": "amount0Out",
                                "type": "uint256",
                                "value": "0"
                            },
                            {
                                "name": "amount1Out",
                                "type": "uint256",
                                "value": "3,027,396,368,333"
                            }
                        ],
                        "signature": "Swap(address,uint256,uint256,uint256,uint256,address)"
                    },
                    "id": 34,
                    "logData": "0x00000000000000000000000000000000000000000000000015b114835f55b3d700000000000000000000000000000000000000000000000000000000000000000000000000000000000000000000000000000000000000000000000000000000000000000000000000000000000000000000000000000000000002c0dee297cd",
                    "logDecoded": true,
                    "operation": "EVENT",
                    "revert": false,
                    "status": true,
                    "topics": [
                        "0xd78ad95fa46c994b6551d0da85fc275fe613ce37657fb8d5e3d130840159d822",
                        "0x0000000000000000000000007a250d5630b4cf539739df2c5dacb4c659f2488d",
                        "0x0000000000000000000000001be67e4c681b2995e134bef335afc16e6437205c"
                    ]
                },
                "nodeType": 1
            },
            "35": {
                "invocation": {
                    "address": "0xdac17f958d2ee523a2206206994597c13d831ec7",
                    "callData": "0x0000000000000000000000001be67e4c681b2995e134bef335afc16e6437205c",
                    "decodedMethod": {
                        "callParams": [
                            {
                                "name": "who",
                                "type": "address",
                                "value": "0x1be67e4c681b2995e134bef335afc16e6437205c"
                            }
                        ],
                        "constructorArguments": "",
                        "name": "balanceOf",
                        "returnParams": [
                            {
                                "decimalAvailable": true,
                                "name": "",
                                "type": "uint256",
                                "value": "3,027,396,368,333"
                            }
                        ],
                        "signature": "balanceOf(address)"
                    },
                    "errorInfo": "",
                    "fromAddress": "0x1be67e4c681b2995e134bef335afc16e6437205c",
                    "gasUsed": 1031,
                    "id": 35,
                    "methodDecoded": true,
                    "operation": "STATICCALL",
                    "output": "0x000000000000000000000000000000000000000000000000000002c0dee297cd",
                    "revert": false,
                    "revertMessage": "",
                    "selector": "0x70a08231",
                    "status": true,
                    "value": "0"
                },
                "nodeType": 0
            },
            "36": {
                "invocation": {
                    "address": "0xdac17f958d2ee523a2206206994597c13d831ec7",
                    "callData": "0x00000000000000000000000088fd49f38fbbecb9d9ddd36dab6903a3fd4367ee000000000000000000000000000000000000000000000000000002c0dee297cd",
                    "decodedMethod": {
                        "callParams": [
                            {
                                "name": "_to",
                                "type": "address",
                                "value": "0x88fd49f38fbbecb9d9ddd36dab6903a3fd4367ee"
                            },
                            {
                                "decimalAvailable": true,
                                "name": "_value",
                                "type": "uint256",
                                "value": "3,027,396,368,333"
                            }
                        ],
                        "constructorArguments": "",
                        "name": "transfer",
                        "returnParams": [],
                        "signature": "transfer(address,uint256)"
                    },
                    "errorInfo": "",
                    "fromAddress": "0x1be67e4c681b2995e134bef335afc16e6437205c",
                    "gasUsed": 28801,
                    "id": 36,
                    "methodDecoded": true,
                    "operation": "CALL",
                    "output": "",
                    "revert": false,
                    "revertMessage": "",
                    "selector": "0xa9059cbb",
                    "status": true,
                    "value": "0"
                },
                "nodeType": 0
            },
            "37": {
                "event": {
                    "contract": "0xdac17f958d2ee523a2206206994597c13d831ec7",
                    "decodedLog": {
                        "name": "Transfer",
                        "params": [
                            {
                                "name": "from",
                                "type": "address",
                                "value": "0x1be67e4c681b2995e134bef335afc16e6437205c"
                            },
                            {
                                "name": "to",
                                "type": "address",
                                "value": "0x88fd49f38fbbecb9d9ddd36dab6903a3fd4367ee"
                            },
                            {
                                "decimalAvailable": true,
                                "name": "value",
                                "type": "uint256",
                                "value": "3,027,396,368,333"
                            }
                        ],
                        "signature": "Transfer(address,address,uint256)"
                    },
                    "id": 37,
                    "logData": "0x000000000000000000000000000000000000000000000000000002c0dee297cd",
                    "logDecoded": true,
                    "operation": "EVENT",
                    "revert": false,
                    "status": true,
                    "topics": [
                        "0xddf252ad1be2c89b69c2b068fc378daa952ba7f163c4a11628f55a4df523b3ef",
                        "0x0000000000000000000000001be67e4c681b2995e134bef335afc16e6437205c",
                        "0x00000000000000000000000088fd49f38fbbecb9d9ddd36dab6903a3fd4367ee"
                    ]
                },
                "nodeType": 1
            },
            "4": {
                "invocation": {
                    "address": "0x96f68837877fd0414b55050c9e794aecdbcfca59",
                    "callData": "0x00000000000000000000000088fd49f38fbbecb9d9ddd36dab6903a3fd4367ee0000000000000000000000001be67e4c681b2995e134bef335afc16e6437205c00000000000000000000000000000000000000000000000015b114835f55b3d7",
                    "decodedMethod": {
                        "callParams": [
                            {
                                "name": "sender",
                                "type": "address",
                                "value": "0x88fd49f38fbbecb9d9ddd36dab6903a3fd4367ee"
                            },
                            {
                                "name": "recipient",
                                "type": "address",
                                "value": "0x1be67e4c681b2995e134bef335afc16e6437205c"
                            },
                            {
                                "decimalAvailable": true,
                                "name": "amount",
                                "type": "uint256",
                                "value": "1,563,053,100,146,996,183"
                            }
                        ],
                        "constructorArguments": "",
                        "name": "transferFrom",
                        "returnParams": [
                            {
                                "name": "",
                                "type": "bool",
                                "value": true
                            }
                        ],
                        "signature": "transferFrom(address,address,uint256)"
                    },
                    "errorInfo": "",
                    "fromAddress": "0x7fc66500c84a76ad7e9c93437bfc5ac33e2ddae9",
                    "gasUsed": 177938,
                    "id": 4,
                    "methodDecoded": true,
                    "operation": "DELEGATECALL",
                    "output": "0x0000000000000000000000000000000000000000000000000000000000000001",
                    "revert": false,
                    "revertMessage": "",
                    "selector": "0x23b872dd",
                    "status": true,
                    "value": "0"
                },
                "nodeType": 0
            },
            "5": {
                "event": {
                    "contract": "0x7fc66500c84a76ad7e9c93437bfc5ac33e2ddae9",
                    "decodedLog": {
                        "name": "DelegatedPowerChanged",
                        "params": [
                            {
                                "name": "user",
                                "type": "address",
                                "value": "0x88fd49f38fbbecb9d9ddd36dab6903a3fd4367ee"
                            },
                            {
                                "name": "amount",
                                "type": "uint256",
                                "value": "0"
                            },
                            {
                                "name": "delegationType",
                                "type": "uint8",
                                "value": "0"
                            }
                        ],
                        "signature": "DelegatedPowerChanged(address,uint256,uint8)"
                    },
                    "id": 5,
                    "logData": "0x00000000000000000000000000000000000000000000000000000000000000000000000000000000000000000000000000000000000000000000000000000000",
                    "logDecoded": true,
                    "operation": "EVENT",
                    "revert": false,
                    "status": true,
                    "topics": [
                        "0xa0a19463ee116110c9b282012d9b65cc5522dc38a9520340cbaf3142e550127f",
                        "0x00000000000000000000000088fd49f38fbbecb9d9ddd36dab6903a3fd4367ee"
                    ]
                },
                "nodeType": 1
            },
            "6": {
                "event": {
                    "contract": "0x7fc66500c84a76ad7e9c93437bfc5ac33e2ddae9",
                    "decodedLog": {
                        "name": "DelegatedPowerChanged",
                        "params": [
                            {
                                "name": "user",
                                "type": "address",
                                "value": "0x1be67e4c681b2995e134bef335afc16e6437205c"
                            },
                            {
                                "name": "amount",
                                "type": "uint256",
                                "value": "1,563,053,100,146,996,183"
                            },
                            {
                                "name": "delegationType",
                                "type": "uint8",
                                "value": "0"
                            }
                        ],
                        "signature": "DelegatedPowerChanged(address,uint256,uint8)"
                    },
                    "id": 6,
                    "logData": "0x00000000000000000000000000000000000000000000000015b114835f55b3d70000000000000000000000000000000000000000000000000000000000000000",
                    "logDecoded": true,
                    "operation": "EVENT",
                    "revert": false,
                    "status": true,
                    "topics": [
                        "0xa0a19463ee116110c9b282012d9b65cc5522dc38a9520340cbaf3142e550127f",
                        "0x0000000000000000000000001be67e4c681b2995e134bef335afc16e6437205c"
                    ]
                },
                "nodeType": 1
            },
            "7": {
                "event": {
                    "contract": "0x7fc66500c84a76ad7e9c93437bfc5ac33e2ddae9",
                    "decodedLog": {
                        "name": "DelegatedPowerChanged",
                        "params": [
                            {
                                "name": "user",
                                "type": "address",
                                "value": "0x88fd49f38fbbecb9d9ddd36dab6903a3fd4367ee"
                            },
                            {
                                "name": "amount",
                                "type": "uint256",
                                "value": "0"
                            },
                            {
                                "name": "delegationType",
                                "type": "uint8",
                                "value": "1"
                            }
                        ],
                        "signature": "DelegatedPowerChanged(address,uint256,uint8)"
                    },
                    "id": 7,
                    "logData": "0x00000000000000000000000000000000000000000000000000000000000000000000000000000000000000000000000000000000000000000000000000000001",
                    "logDecoded": true,
                    "operation": "EVENT",
                    "revert": false,
                    "status": true,
                    "topics": [
                        "0xa0a19463ee116110c9b282012d9b65cc5522dc38a9520340cbaf3142e550127f",
                        "0x00000000000000000000000088fd49f38fbbecb9d9ddd36dab6903a3fd4367ee"
                    ]
                },
                "nodeType": 1
            },
            "8": {
                "event": {
                    "contract": "0x7fc66500c84a76ad7e9c93437bfc5ac33e2ddae9",
                    "decodedLog": {
                        "name": "DelegatedPowerChanged",
                        "params": [
                            {
                                "name": "user",
                                "type": "address",
                                "value": "0x1be67e4c681b2995e134bef335afc16e6437205c"
                            },
                            {
                                "name": "amount",
                                "type": "uint256",
                                "value": "1,563,053,100,146,996,183"
                            },
                            {
                                "name": "delegationType",
                                "type": "uint8",
                                "value": "1"
                            }
                        ],
                        "signature": "DelegatedPowerChanged(address,uint256,uint8)"
                    },
                    "id": 8,
                    "logData": "0x00000000000000000000000000000000000000000000000015b114835f55b3d70000000000000000000000000000000000000000000000000000000000000001",
                    "logDecoded": true,
                    "operation": "EVENT",
                    "revert": false,
                    "status": true,
                    "topics": [
                        "0xa0a19463ee116110c9b282012d9b65cc5522dc38a9520340cbaf3142e550127f",
                        "0x0000000000000000000000001be67e4c681b2995e134bef335afc16e6437205c"
                    ]
                },
                "nodeType": 1
            },
            "9": {
                "event": {
                    "contract": "0x7fc66500c84a76ad7e9c93437bfc5ac33e2ddae9",
                    "decodedLog": {
                        "name": "Transfer",
                        "params": [
                            {
                                "name": "from",
                                "type": "address",
                                "value": "0x88fd49f38fbbecb9d9ddd36dab6903a3fd4367ee"
                            },
                            {
                                "name": "to",
                                "type": "address",
                                "value": "0x1be67e4c681b2995e134bef335afc16e6437205c"
                            },
                            {
                                "decimalAvailable": true,
                                "name": "value",
                                "type": "uint256",
                                "value": "1,563,053,100,146,996,183"
                            }
                        ],
                        "signature": "Transfer(address,address,uint256)"
                    },
                    "id": 9,
                    "logData": "0x00000000000000000000000000000000000000000000000015b114835f55b3d7",
                    "logDecoded": true,
                    "operation": "EVENT",
                    "revert": false,
                    "status": true,
                    "topics": [
                        "0xddf252ad1be2c89b69c2b068fc378daa952ba7f163c4a11628f55a4df523b3ef",
                        "0x00000000000000000000000088fd49f38fbbecb9d9ddd36dab6903a3fd4367ee",
                        "0x0000000000000000000000001be67e4c681b2995e134bef335afc16e6437205c"
                    ]
                },
                "nodeType": 1
            }
        },
        "gasFlame": [
            {
                "children": [
                    {
                        "children": [
                            {
                                "children": [],
                                "depth": 0,
                                "name": "Initial Gas",
                                "value": 21788
                            },
                            {
                                "children": [
                                    {
                                        "children": [
                                            {
                                                "children": [],
                                                "depth": 2,
                                                "name": "balanceOf",
                                                "value": 2649
                                            }
                                        ],
                                        "depth": 1,
                                        "name": "balanceOf",
                                        "value": 9884
                                    },
                                    {
                                        "children": [
                                            {
                                                "children": [],
                                                "depth": 2,
                                                "name": "transferFrom",
                                                "value": 177938
                                            }
                                        ],
                                        "depth": 1,
                                        "name": "transferFrom",
                                        "value": 178682
                                    },
                                    {
                                        "children": [
                                            {
                                                "children": [],
                                                "depth": 2,
                                                "name": "approve",
                                                "value": 4853
                                            }
                                        ],
                                        "depth": 1,
                                        "name": "approve",
                                        "value": 5591
                                    },
                                    {
                                        "children": [
                                            {
                                                "children": [],
                                                "depth": 2,
                                                "name": "approve",
                                                "value": 22653
                                            }
                                        ],
                                        "depth": 1,
                                        "name": "approve",
                                        "value": 23391
                                    },
                                    {
                                        "children": [
                                            {
                                                "children": [],
                                                "depth": 2,
                                                "name": "getReserves",
                                                "value": 2504
                                            },
                                            {
                                                "children": [
                                                    {
                                                        "children": [],
                                                        "depth": 3,
                                                        "name": "transferFrom",
                                                        "value": 44829
                                                    }
                                                ],
                                                "depth": 2,
                                                "name": "transferFrom",
                                                "value": 45573
                                            },
                                            {
                                                "children": [
                                                    {
                                                        "children": [],
                                                        "depth": 3,
                                                        "name": "transfer",
                                                        "value": 41601
                                                    },
                                                    {
                                                        "children": [
                                                            {
                                                                "children": [],
                                                                "depth": 4,
                                                                "name": "balanceOf",
                                                                "value": 649
                                                            }
                                                        ],
                                                        "depth": 3,
                                                        "name": "balanceOf",
                                                        "value": 1384
                                                    },
                                                    {
                                                        "children": [],
                                                        "depth": 3,
                                                        "name": "balanceOf",
                                                        "value": 1031
                                                    }
                                                ],
                                                "depth": 2,
                                                "name": "swap",
                                                "value": 67296
                                            }
                                        ],
                                        "depth": 1,
                                        "name": "swapExactTokensForTokens",
                                        "value": 125622
                                    },
                                    {
                                        "children": [],
                                        "depth": 1,
                                        "name": "balanceOf",
                                        "value": 1031
                                    },
                                    {
                                        "children": [],
                                        "depth": 1,
                                        "name": "transfer",
                                        "value": 28801
                                    }
                                ],
                                "depth": 0,
                                "name": "Executed Gas",
                                "value": 385934
                            }
                        ],
                        "depth": -1,
                        "name": "Actual Gas Used",
                        "value": 340422
                    },
                    {
                        "children": [],
                        "depth": -1,
                        "name": "Refunded Gas",
                        "value": 67300
                    }
                ],
                "depth": -2,
                "name": "Total Gas",
                "value": 407722
            }
        ],
        "isConfirmed": true,
        "mainTrace": [
            {
                "children": [
                    {
                        "children": [
                            {
                                "children": [
                                    {
                                        "children": [],
                                        "depth": 2,
                                        "id": 2,
                                        "order": 2
                                    }
                                ],
                                "depth": 1,
                                "id": 1,
                                "order": 1
                            },
                            {
                                "children": [
                                    {
                                        "children": [
                                            {
                                                "children": [],
                                                "depth": 3,
                                                "id": 5,
                                                "order": 5
                                            },
                                            {
                                                "children": [],
                                                "depth": 3,
                                                "id": 6,
                                                "order": 6
                                            },
                                            {
                                                "children": [],
                                                "depth": 3,
                                                "id": 7,
                                                "order": 7
                                            },
                                            {
                                                "children": [],
                                                "depth": 3,
                                                "id": 8,
                                                "order": 8
                                            },
                                            {
                                                "children": [],
                                                "depth": 3,
                                                "id": 9,
                                                "order": 9
                                            },
                                            {
                                                "children": [],
                                                "depth": 3,
                                                "id": 10,
                                                "order": 10
                                            }
                                        ],
                                        "depth": 2,
                                        "id": 4,
                                        "order": 4
                                    }
                                ],
                                "depth": 1,
                                "id": 3,
                                "order": 3
                            },
                            {
                                "children": [
                                    {
                                        "children": [
                                            {
                                                "children": [],
                                                "depth": 3,
                                                "id": 13,
                                                "order": 13
                                            }
                                        ],
                                        "depth": 2,
                                        "id": 12,
                                        "order": 12
                                    }
                                ],
                                "depth": 1,
                                "id": 11,
                                "order": 11
                            },
                            {
                                "children": [
                                    {
                                        "children": [
                                            {
                                                "children": [],
                                                "depth": 3,
                                                "id": 16,
                                                "order": 16
                                            }
                                        ],
                                        "depth": 2,
                                        "id": 15,
                                        "order": 15
                                    }
                                ],
                                "depth": 1,
                                "id": 14,
                                "order": 14
                            },
                            {
                                "children": [
                                    {
                                        "children": [],
                                        "depth": 2,
                                        "id": 18,
                                        "order": 18
                                    },
                                    {
                                        "children": [
                                            {
                                                "children": [
                                                    {
                                                        "children": [],
                                                        "depth": 4,
                                                        "id": 21,
                                                        "order": 21
                                                    },
                                                    {
                                                        "children": [],
                                                        "depth": 4,
                                                        "id": 22,
                                                        "order": 22
                                                    },
                                                    {
                                                        "children": [],
                                                        "depth": 4,
                                                        "id": 23,
                                                        "order": 23
                                                    },
                                                    {
                                                        "children": [],
                                                        "depth": 4,
                                                        "id": 24,
                                                        "order": 24
                                                    },
                                                    {
                                                        "children": [],
                                                        "depth": 4,
                                                        "id": 25,
                                                        "order": 25
                                                    },
                                                    {
                                                        "children": [],
                                                        "depth": 4,
                                                        "id": 26,
                                                        "order": 26
                                                    }
                                                ],
                                                "depth": 3,
                                                "id": 20,
                                                "order": 20
                                            }
                                        ],
                                        "depth": 2,
                                        "id": 19,
                                        "order": 19
                                    },
                                    {
                                        "children": [
                                            {
                                                "children": [
                                                    {
                                                        "children": [],
                                                        "depth": 4,
                                                        "id": 29,
                                                        "order": 29
                                                    }
                                                ],
                                                "depth": 3,
                                                "id": 28,
                                                "order": 28
                                            },
                                            {
                                                "children": [
                                                    {
                                                        "children": [],
                                                        "depth": 4,
                                                        "id": 31,
                                                        "order": 31
                                                    }
                                                ],
                                                "depth": 3,
                                                "id": 30,
                                                "order": 30
                                            },
                                            {
                                                "children": [],
                                                "depth": 3,
                                                "id": 32,
                                                "order": 32
                                            },
                                            {
                                                "children": [],
                                                "depth": 3,
                                                "id": 33,
                                                "order": 33
                                            },
                                            {
                                                "children": [],
                                                "depth": 3,
                                                "id": 34,
                                                "order": 34
                                            }
                                        ],
                                        "depth": 2,
                                        "id": 27,
                                        "order": 27
                                    }
                                ],
                                "depth": 1,
                                "id": 17,
                                "order": 17
                            },
                            {
                                "children": [],
                                "depth": 1,
                                "id": 35,
                                "order": 35
                            },
                            {
                                "children": [
                                    {
                                        "children": [],
                                        "depth": 2,
                                        "id": 37,
                                        "order": 37
                                    }
                                ],
                                "depth": 1,
                                "id": 36,
                                "order": 36
                            }
                        ],
                        "depth": 0,
                        "id": 0,
                        "order": 0
                    }
                ],
                "depth": -1,
                "id": -1,
                "order": -1
            }
        ],
        "mainTraceNodeCount": 38,
        "parentIdMap": {
            "0": -1,
            "1": 0,
            "10": 4,
            "11": 0,
            "12": 11,
            "13": 12,
            "14": 0,
            "15": 14,
            "16": 15,
            "17": 0,
            "18": 17,
            "19": 17,
            "2": 1,
            "20": 19,
            "21": 20,
            "22": 20,
            "23": 20,
            "24": 20,
            "25": 20,
            "26": 20,
            "27": 17,
            "28": 27,
            "29": 28,
            "3": 0,
            "30": 27,
            "31": 30,
            "32": 27,
            "33": 27,
            "34": 27,
            "35": 0,
            "36": 0,
            "37": 36,
            "4": 3,
            "5": 4,
            "6": 4,
            "7": 4,
            "8": 4,
            "9": 4
        },
        "tidyTrace": [
            {
                "children": [
                    {
                        "children": [
                            {
                                "children": [
                                    {
                                        "children": [
                                            {
                                                "children": [],
                                                "depth": 3,
                                                "id": 5,
                                                "order": 5
                                            },
                                            {
                                                "children": [],
                                                "depth": 3,
                                                "id": 6,
                                                "order": 6
                                            },
                                            {
                                                "children": [],
                                                "depth": 3,
                                                "id": 7,
                                                "order": 7
                                            },
                                            {
                                                "children": [],
                                                "depth": 3,
                                                "id": 8,
                                                "order": 8
                                            },
                                            {
                                                "children": [],
                                                "depth": 3,
                                                "id": 9,
                                                "order": 9
                                            },
                                            {
                                                "children": [],
                                                "depth": 3,
                                                "id": 10,
                                                "order": 10
                                            }
                                        ],
                                        "depth": 2,
                                        "id": 4,
                                        "order": 4
                                    }
                                ],
                                "depth": 1,
                                "id": 3,
                                "order": 3
                            },
                            {
                                "children": [
                                    {
                                        "children": [
                                            {
                                                "children": [],
                                                "depth": 3,
                                                "id": 13,
                                                "order": 13
                                            }
                                        ],
                                        "depth": 2,
                                        "id": 12,
                                        "order": 12
                                    }
                                ],
                                "depth": 1,
                                "id": 11,
                                "order": 11
                            },
                            {
                                "children": [
                                    {
                                        "children": [
                                            {
                                                "children": [],
                                                "depth": 3,
                                                "id": 16,
                                                "order": 16
                                            }
                                        ],
                                        "depth": 2,
                                        "id": 15,
                                        "order": 15
                                    }
                                ],
                                "depth": 1,
                                "id": 14,
                                "order": 14
                            },
                            {
                                "children": [
                                    {
                                        "children": [
                                            {
                                                "children": [
                                                    {
                                                        "children": [],
                                                        "depth": 4,
                                                        "id": 21,
                                                        "order": 21
                                                    },
                                                    {
                                                        "children": [],
                                                        "depth": 4,
                                                        "id": 22,
                                                        "order": 22
                                                    },
                                                    {
                                                        "children": [],
                                                        "depth": 4,
                                                        "id": 23,
                                                        "order": 23
                                                    },
                                                    {
                                                        "children": [],
                                                        "depth": 4,
                                                        "id": 24,
                                                        "order": 24
                                                    },
                                                    {
                                                        "children": [],
                                                        "depth": 4,
                                                        "id": 25,
                                                        "order": 25
                                                    },
                                                    {
                                                        "children": [],
                                                        "depth": 4,
                                                        "id": 26,
                                                        "order": 26
                                                    }
                                                ],
                                                "depth": 3,
                                                "id": 20,
                                                "order": 20
                                            }
                                        ],
                                        "depth": 2,
                                        "id": 19,
                                        "order": 19
                                    },
                                    {
                                        "children": [
                                            {
                                                "children": [
                                                    {
                                                        "children": [],
                                                        "depth": 4,
                                                        "id": 29,
                                                        "order": 29
                                                    }
                                                ],
                                                "depth": 3,
                                                "id": 28,
                                                "order": 28
                                            },
                                            {
                                                "children": [],
                                                "depth": 3,
                                                "id": 33,
                                                "order": 33
                                            },
                                            {
                                                "children": [],
                                                "depth": 3,
                                                "id": 34,
                                                "order": 34
                                            }
                                        ],
                                        "depth": 2,
                                        "id": 27,
                                        "order": 27
                                    }
                                ],
                                "depth": 1,
                                "id": 17,
                                "order": 17
                            },
                            {
                                "children": [
                                    {
                                        "children": [],
                                        "depth": 2,
                                        "id": 37,
                                        "order": 37
                                    }
                                ],
                                "depth": 1,
                                "id": 36,
                                "order": 36
                            }
                        ],
                        "depth": 0,
                        "id": 0,
                        "order": 0
                    }
                ],
                "depth": -1,
                "id": -1,
                "order": -1
            }
        ],
        "tidyTraceNodeCount": 31
    },
    "state_change": {
        "stateChanges": [
            {
                "address": "0x1f447690a6ddf18400533b705516159e1312f892",
                "erc": "ERC-20",
                "slots": [
                    {
                        "current": "0x642a0fdf0000000000000000000000065afc00000000000015b114b54a7cc9e3",
                        "key": "0x0000000000000000000000000000000000000000000000000000000000000008",
                        "prev": "0x642a0fdf000000000000000002c0dee8f2c900000000000000000031eb27160c"
                    }
                ],
                "storageVariables": [
                    {
                        "name": "reserve0",
                        "type": "uint112",
                        "value": {
                            "current": "1563053314545600995",
                            "prev": "214398604812",
                            "typeTag": 1
                        }
                    },
                    {
                        "name": "reserve1",
                        "type": "uint112",
                        "value": {
                            "current": "416508",
                            "prev": "3027396784841",
                            "typeTag": 1
                        }
                    },
                    {
                        "name": "blockTimestampLast",
                        "type": "uint32",
                        "value": {
                            "current": "1680478175",
                            "prev": "1680478175",
                            "typeTag": 1
                        }
                    }
                ]
            },
            {
                "address": "0x7fc66500c84a76ad7e9c93437bfc5ac33e2ddae9",
                "erc": "ERC-20",
                "slots": [
                    {
                        "current": "0x0000000000000000000000000000000000000000000000000000000000000009",
                        "key": "0x210f7dd52b54955c3cd2df2b97551c501af1a277190f495b4ae83459fefeb5d8",
                        "prev": "0x0000000000000000000000000000000000000000000000000000000000000008"
                    },
                    {
                        "current": "0x0000000000000000000000000000000000000000000000000000000000000004",
                        "key": "0x03638c5ebf37e3dce992692c33da11ad9a7cf2c7e0d9b24fbdb5d3b77f956a01",
                        "prev": "0x0000000000000000000000000000000000000000000000000000000000000003"
                    },
                    {
                        "current": "0x000000000000000000000000000000000000000000000000000000000102dc38",
                        "key": "0x7975aa22f2bbe9f2697dd6f50714eac2d86a75f390cba37d9e3cff628432a123",
                        "prev": "0x0000000000000000000000000000000000000000000000000000000000000000"
                    },
                    {
                        "current": "0x0000000000000000000000000000000000000000000000000000000000000004",
                        "key": "0xa022a8e2bdaaf0d14230fec35ae7bde7e7707c5846214b49e6f67e257598d015",
                        "prev": "0x0000000000000000000000000000000000000000000000000000000000000003"
                    },
                    {
                        "current": "0x00000000000000000000000000000000000000000000000015b114b54a7cc9e3",
                        "key": "0x09279dc272f79402eb03d859750286bb9038bce3f821c7922f5aec4e6dc9e098",
                        "prev": "0x00000000000000000000000000000000000000000000000000000031eb27160c"
                    },
                    {
                        "current": "0x0000000000000000000000000000000000000000000000000000000000000000",
                        "key": "0x922182389f988ce96d5eb83b5b7d724dba503c7b3b9458c621e3b392d28dbc6c",
                        "prev": "0x00000000000000000000000000000000000000000000000015b114835f55b3d7"
                    },
                    {
                        "current": "0x000000000000000000000000000000000000000000000000000000000102dc38",
                        "key": "0xac1b6f6e40bbb06c28bad6caa13750e1b5e44d14372a98acc66141810512e11f",
                        "prev": "0x0000000000000000000000000000000000000000000000000000000000000000"
                    },
                    {
                        "current": "0x000000000000000000000000000000000000000000000000000000000102dc38",
                        "key": "0xf6c6c43e6f7a9da82d6306f780f8be9cc5f9d01aba6edd7d9c642c4ea51ddbe3",
                        "prev": "0x0000000000000000000000000000000000000000000000000000000000000000"
                    },
                    {
                        "current": "0x0000000000000000000000000000000000000000000000000000000000000009",
                        "key": "0x17b8043d6c1468a30d738c1059caa99500de3601b9c168c52e77fd0b8fb36a18",
                        "prev": "0x0000000000000000000000000000000000000000000000000000000000000008"
                    },
                    {
                        "current": "0xffffffffffffffffffffffffffffffffffffffffffffffffea4eeb7ca0aa4c28",
                        "key": "0xeb932e969ebd751db8f600638ae127ad5e78aed9fc246dfd99d40e7553971a8c",
                        "prev": "0xffffffffffffffffffffffffffffffffffffffffffffffffffffffffffffffff"
                    },
                    {
                        "current": "0x000000000000000015b114b54a7cc9e30000000000000000000000000102dc38",
                        "key": "0x8c21a5b10b0f7a54a2a70fbcf39a6e193ccd4b3793cc96c8a467e1377fa21dbb",
                        "prev": "0x000000000000000000000031eb27160c0000000000000000000000000102dc38"
                    },
                    {
                        "current": "0x000000000000000000000000000000000000000000000000000000000102dc38",
                        "key": "0x6f841a92ed1e167ada9fe2bb30cc230e1e4219e44f6392642b37d3ae348e9c56",
                        "prev": "0x0000000000000000000000000000000000000000000000000000000000000000"
                    },
                    {
                        "current": "0x000000000000000015b114b54a7cc9e30000000000000000000000000102dc38",
                        "key": "0x28d134c7c4369e63d6990d7645a8a25de61ed790d4f0697aece1999ae8f098dd",
                        "prev": "0x000000000000000000000031eb27160c0000000000000000000000000102dc38"
                    }
                ],
                "storageVariables": [
                    {
                        "name": "_propositionPowerSnapshots",
                        "type": "mapping(address => mapping(uint256 => struct GovernancePowerDelegationERC20.Snapshot))",
                        "value": {
                            "pairs": [
                                {
                                    "key": "0x1be67e4c681b2995e134bef335afc16e6437205c",
                                    "value": {
                                        "pairs": [
                                            {
                                                "key": "8",
                                                "value": {
                                                    "fields": [
                                                        {
                                                            "name": "blockNumber",
                                                            "type": "uint128",
                                                            "value": {
                                                                "current": "16964664",
                                                                "prev": "0",
                                                                "typeTag": 1
                                                            }
                                                        },
                                                        {
                                                            "name": "value",
                                                            "type": "uint128",
                                                            "value": {
                                                                "current": "0",
                                                                "prev": "0",
                                                                "typeTag": 1
                                                            }
                                                        }
                                                    ],
                                                    "typeTag": 3
                                                }
                                            }
                                        ],
                                        "typeTag": 4
                                    }
                                },
                                {
                                    "key": "0x1f447690a6ddf18400533b705516159e1312f892",
                                    "value": {
                                        "pairs": [
                                            {
                                                "key": "94",
                                                "value": {
                                                    "fields": [
                                                        {
                                                            "name": "blockNumber",
                                                            "type": "uint128",
                                                            "value": {
                                                                "current": "16964664",
                                                                "prev": "16964664",
                                                                "typeTag": 1
                                                            }
                                                        },
                                                        {
                                                            "name": "value",
                                                            "type": "uint128",
                                                            "value": {
                                                                "current": "1563053314545600995",
                                                                "prev": "214398604812",
                                                                "typeTag": 1
                                                            }
                                                        }
                                                    ],
                                                    "typeTag": 3
                                                }
                                            }
                                        ],
                                        "typeTag": 4
                                    }
                                },
                                {
                                    "key": "0x88fd49f38fbbecb9d9ddd36dab6903a3fd4367ee",
                                    "value": {
                                        "pairs": [
                                            {
                                                "key": "3",
                                                "value": {
                                                    "fields": [
                                                        {
                                                            "name": "blockNumber",
                                                            "type": "uint128",
                                                            "value": {
                                                                "current": "16964664",
                                                                "prev": "0",
                                                                "typeTag": 1
                                                            }
                                                        },
                                                        {
                                                            "name": "value",
                                                            "type": "uint128",
                                                            "value": {
                                                                "current": "0",
                                                                "prev": "0",
                                                                "typeTag": 1
                                                            }
                                                        }
                                                    ],
                                                    "typeTag": 3
                                                }
                                            }
                                        ],
                                        "typeTag": 4
                                    }
                                }
                            ],
                            "typeTag": 4
                        }
                    },
                    {
                        "name": "_votingSnapshotsCounts",
                        "type": "mapping(address => uint256)",
                        "value": {
                            "pairs": [
                                {
                                    "key": "0x1be67e4c681b2995e134bef335afc16e6437205c",
                                    "value": {
                                        "current": "9",
                                        "prev": "8",
                                        "typeTag": 1
                                    }
                                },
                                {
                                    "key": "0x88fd49f38fbbecb9d9ddd36dab6903a3fd4367ee",
                                    "value": {
                                        "current": "4",
                                        "prev": "3",
                                        "typeTag": 1
                                    }
                                }
                            ],
                            "typeTag": 4
                        }
                    },
                    {
                        "name": "_allowances",
                        "type": "mapping(address => mapping(address => uint256))",
                        "value": {
                            "pairs": [
                                {
                                    "key": "0x88fd49f38fbbecb9d9ddd36dab6903a3fd4367ee",
                                    "value": {
                                        "pairs": [
                                            {
                                                "key": "0x1be67e4c681b2995e134bef335afc16e6437205c",
                                                "value": {
                                                    "current": "115792089237316195423570985008687907853269984665640564039456020954812982643752",
                                                    "prev": "115792089237316195423570985008687907853269984665640564039457584007913129639935",
                                                    "typeTag": 1
                                                }
                                            }
                                        ],
                                        "typeTag": 4
                                    }
                                }
                            ],
                            "typeTag": 4
                        }
                    },
                    {
                        "name": "_propositionPowerSnapshotsCounts",
                        "type": "mapping(address => uint256)",
                        "value": {
                            "pairs": [
                                {
                                    "key": "0x1be67e4c681b2995e134bef335afc16e6437205c",
                                    "value": {
                                        "current": "9",
                                        "prev": "8",
                                        "typeTag": 1
                                    }
                                },
                                {
                                    "key": "0x88fd49f38fbbecb9d9ddd36dab6903a3fd4367ee",
                                    "value": {
                                        "current": "4",
                                        "prev": "3",
                                        "typeTag": 1
                                    }
                                }
                            ],
                            "typeTag": 4
                        }
                    },
                    {
                        "name": "_balances",
                        "type": "mapping(address => uint256)",
                        "value": {
                            "pairs": [
                                {
                                    "key": "0x1f447690a6ddf18400533b705516159e1312f892",
                                    "value": {
                                        "current": "1563053314545600995",
                                        "prev": "214398604812",
                                        "typeTag": 1
                                    }
                                },
                                {
                                    "key": "0x88fd49f38fbbecb9d9ddd36dab6903a3fd4367ee",
                                    "value": {
                                        "current": "0",
                                        "prev": "1563053100146996183",
                                        "typeTag": 1
                                    }
                                }
                            ],
                            "typeTag": 4
                        }
                    },
                    {
                        "name": "_votingSnapshots",
                        "type": "mapping(address => mapping(uint256 => struct GovernancePowerDelegationERC20.Snapshot))",
                        "value": {
                            "pairs": [
                                {
                                    "key": "0x1be67e4c681b2995e134bef335afc16e6437205c",
                                    "value": {
                                        "pairs": [
                                            {
                                                "key": "8",
                                                "value": {
                                                    "fields": [
                                                        {
                                                            "name": "blockNumber",
                                                            "type": "uint128",
                                                            "value": {
                                                                "current": "16964664",
                                                                "prev": "0",
                                                                "typeTag": 1
                                                            }
                                                        },
                                                        {
                                                            "name": "value",
                                                            "type": "uint128",
                                                            "value": {
                                                                "current": "0",
                                                                "prev": "0",
                                                                "typeTag": 1
                                                            }
                                                        }
                                                    ],
                                                    "typeTag": 3
                                                }
                                            }
                                        ],
                                        "typeTag": 4
                                    }
                                },
                                {
                                    "key": "0x1f447690a6ddf18400533b705516159e1312f892",
                                    "value": {
                                        "pairs": [
                                            {
                                                "key": "94",
                                                "value": {
                                                    "fields": [
                                                        {
                                                            "name": "blockNumber",
                                                            "type": "uint128",
                                                            "value": {
                                                                "current": "16964664",
                                                                "prev": "16964664",
                                                                "typeTag": 1
                                                            }
                                                        },
                                                        {
                                                            "name": "value",
                                                            "type": "uint128",
                                                            "value": {
                                                                "current": "1563053314545600995",
                                                                "prev": "214398604812",
                                                                "typeTag": 1
                                                            }
                                                        }
                                                    ],
                                                    "typeTag": 3
                                                }
                                            }
                                        ],
                                        "typeTag": 4
                                    }
                                },
                                {
                                    "key": "0x88fd49f38fbbecb9d9ddd36dab6903a3fd4367ee",
                                    "value": {
                                        "pairs": [
                                            {
                                                "key": "3",
                                                "value": {
                                                    "fields": [
                                                        {
                                                            "name": "blockNumber",
                                                            "type": "uint128",
                                                            "value": {
                                                                "current": "16964664",
                                                                "prev": "0",
                                                                "typeTag": 1
                                                            }
                                                        },
                                                        {
                                                            "name": "value",
                                                            "type": "uint128",
                                                            "value": {
                                                                "current": "0",
                                                                "prev": "0",
                                                                "typeTag": 1
                                                            }
                                                        }
                                                    ],
                                                    "typeTag": 3
                                                }
                                            }
                                        ],
                                        "typeTag": 4
                                    }
                                }
                            ],
                            "typeTag": 4
                        }
                    }
                ]
            },
            {
                "address": "0xdac17f958d2ee523a2206206994597c13d831ec7",
                "erc": "ERC-20",
                "slots": [
                    {
                        "current": "0x0000000000000000000000000000000000000000000000000000000000065afc",
                        "key": "0xe0d7072f91c4110dc2a8ca31d1768172159fdc0f5bd1c060e6341b55de4a1d11",
                        "prev": "0x000000000000000000000000000000000000000000000000000002c0dee8f2c9"
                    },
                    {
                        "current": "0x000000000000000000000000000000000000000000000000000002c0dee297cd",
                        "key": "0xc46c160fe583c4415ea4c7a0414db7fd3c6229147bbeb702b01081713780baac",
                        "prev": "0x0000000000000000000000000000000000000000000000000000000000000000"
                    }
                ],
                "storageVariables": [
                    {
                        "name": "balances",
                        "type": "mapping(address => uint256)",
                        "value": {
                            "pairs": [
                                {
                                    "key": "0x1f447690a6ddf18400533b705516159e1312f892",
                                    "value": {
                                        "current": "416508",
                                        "prev": "3027396784841",
                                        "typeTag": 1
                                    }
                                },
                                {
                                    "key": "0x88fd49f38fbbecb9d9ddd36dab6903a3fd4367ee",
                                    "value": {
                                        "current": "3027396368333",
                                        "prev": "0",
                                        "typeTag": 1
                                    }
                                }
                            ],
                            "typeTag": 4
                        }
                    }
                ]
            }
        ]
    }
}