{
    "balance_change": {
        "balanceChanges": [
            {
                "account": "0xecb456ea5365865ebab8a2661b0c503410e9b347",
                "assets": [
                    {
                        "address": "0x6b175474e89094c44da98b954eedeac495271d0f",
                        "amount": "171.052171961643527514",
                        "iconUrl": "https://assets.blocksec.com/icon/39aead569b9c011cb6f69734d9abbc9ab6a80049fe93bbd12bb473a3e0e859a3.png",
                        "isERC1155": false,
                        "isERC721": false,
                        "sign": false,
                        "value": "171.052172"
                    }
                ]
            },
            {
                "account": "0x786b374b5eef874279f4b7b4de16940e57301a58",
                "assets": [
                    {
                        "address": "0x6b175474e89094c44da98b954eedeac495271d0f",
                        "amount": "171.052171961643527514",
                        "iconUrl": "https://assets.blocksec.com/icon/39aead569b9c011cb6f69734d9abbc9ab6a80049fe93bbd12bb473a3e0e859a3.png",
                        "isERC1155": false,
                        "isERC721": false,
                        "sign": true,
                        "value": "171.052172"
                    }
                ]
            }
        ]
    },
    "profile": {
        "basic_info": {
            "baseFee": "27.63697712",
            "blockNumber": 17728833,
            "callData": "0x89afcb440000000000000000000000006b175474e89094c44da98b954eedeac495271d0f",
            "debugEnable": true,
            "errorInfo": "",
            "eventCount": 1,
            "feeRecipient": "0xdafea492d9c6733ae3d56b7ed1adb60692c98bc5",
            "formatValue": "0",
            "gasLimit": 138943,
            "gasPrice": "27.73697712",
            "gasUsed": 72343,
            "intTxnCount": 6,
            "internalRevert": false,
            "internalRevertMessage": "",
            "isContractCreation": false,
            "isFlashloan": false,
            "maxFee": "39.432432419",
            "nonce": 97,
            "overwritedBlockNumber": -1,
            "priorityFee": "0.1",
            "receiver": "0xecb456ea5365865ebab8a2661b0c503410e9b347",
            "revertMessage": "",
            "sender": "0x71f718d3e4d1449d1502a6a7595eb84ebccb1683",
            "simulationEnable": true,
            "sourceTxnHash": "0xf517d5d4a09b0fbbe6b9c65cdea939ae988202756368d9e0433cb9fe410896b1",
            "status": true,
            "timestamp": "2023-07-19T17:51:23Z",
            "transactionFee": "0.00200657613579216",
            "txnHash": "0xf517d5d4a09b0fbbe6b9c65cdea939ae988202756368d9e0433cb9fe410896b1",
            "txnIndex": 119,
            "type": 2,
            "value": "0"
        },
        "fund_flow": [
            {
                "amount": "171.052171961643527514",
                "from": "0xecb456ea5365865ebab8a2661b0c503410e9b347",
                "id": 1,
                "isERC1155": false,
                "isERC721": false,
                "isReverted": false,
                "order": 1,
                "to": "0x786b374b5eef874279f4b7b4de16940e57301a58",
                "token": "0x6b175474e89094c44da98b954eedeac495271d0f"
            }
        ],
        "token_infos": [
            {
                "address": "0xc02aaa39b223fe8d0a0e5c4f27ead9083c756cc2",
                "decimals": 18
            },
            {
                "address": "0xeeeeeeeeeeeeeeeeeeeeeeeeeeeeeeeeeeeeeeee",
                "decimals": 18
            },
            {
                "address": "0x6b175474e89094c44da98b954eedeac495271d0f",
                "decimals": 18
            }
        ]
    },
    "address_label": {
        "labels": [
            {
                "address": "0x0000000000000000000000000000000000000002",
                "label": "Precompiled"
            },
            {
                "address": "0x0000000000000000000000000000000000000003",
                "label": "Precompiled"
            },
            {
                "address": "0xeeeeeeeeeeeeeeeeeeeeeeeeeeeeeeeeeeeeeeee",
                "label": "Ether"
            },
            {
                "address": "0x786b374b5eef874279f4b7b4de16940e57301a58",
                "label": "Curve.fi: Underlying Burner"
            },
            {
                "address": "0x6b175474e89094c44da98b954eedeac495271d0f",
                "label": "Maker: Dai Stablecoin"
            },
            {
                "address": "0xecb456ea5365865ebab8a2661b0c503410e9b347",
                "label": "Vyper_contract"
            },
            {
                "address": "0x0000000000000000000000000000000000000004",
                "label": "Precompiled"
            },
            {
                "address": "0x0000000000000000000000000000000000000001",
                "label": "Precompiled"
            }
        ]
    },
    "trace": {
        "accountLabels": null,
        "dataMap": {
            "-1": {
                "invocation": {
                    "address": "0x71f718d3e4d1449d1502a6a7595eb84ebccb1683",
                    "callData": "",
                    "decodedMethod": null,
                    "errorInfo": "",
                    "fromAddress": "",
                    "gasUsed": 0,
                    "id": -1,
                    "methodDecoded": false,
                    "operation": "",
                    "output": "",
                    "revert": false,
                    "revertMessage": "",
                    "selector": "",
                    "status": false,
                    "value": ""
                },
                "nodeType": 0
            },
            "0": {
                "invocation": {
                    "address": "0xecb456ea5365865ebab8a2661b0c503410e9b347",
                    "callData": "0x0000000000000000000000006b175474e89094c44da98b954eedeac495271d0f",
                    "decodedMethod": {
                        "callParams": [
                            {
                                "name": "account",
                                "type": "address",
                                "value": "0x6b175474e89094c44da98b954eedeac495271d0f"
                            }
                        ],
                        "constructorArguments": "",
                        "name": "burn",
                        "returnParams": [],
                        "signature": "burn(address)"
                    },
                    "errorInfo": "",
                    "fromAddress": "0x71f718d3e4d1449d1502a6a7595eb84ebccb1683",
                    "gasUsed": 72343,
                    "id": 0,
                    "methodDecoded": true,
                    "operation": "CALL",
                    "output": "",
                    "revert": false,
                    "revertMessage": "",
                    "selector": "0x89afcb44",
                    "status": true,
                    "value": "0"
                },
                "nodeType": 0
            },
            "1": {
                "invocation": {
                    "address": "0x786b374b5eef874279f4b7b4de16940e57301a58",
                    "callData": "0x0000000000000000000000006b175474e89094c44da98b954eedeac495271d0f",
                    "decodedMethod": {
                        "callParams": [
                            {
                                "name": "account",
                                "type": "address",
                                "value": "0x6b175474e89094c44da98b954eedeac495271d0f"
                            }
                        ],
                        "constructorArguments": "",
                        "name": "burn",
                        "returnParams": [],
                        "signature": "burn(address)"
                    },
                    "errorInfo": "",
                    "fromAddress": "0xecb456ea5365865ebab8a2661b0c503410e9b347",
                    "gasUsed": 39374,
                    "id": 1,
                    "methodDecoded": true,
                    "operation": "CALL",
                    "output": "0x0000000000000000000000000000000000000000000000000000000000000001",
                    "revert": false,
                    "revertMessage": "",
                    "selector": "0x89afcb44",
                    "status": true,
                    "value": "0"
                },
                "nodeType": 0
            },
            "2": {
                "invocation": {
                    "address": "0x6b175474e89094c44da98b954eedeac495271d0f",
                    "callData": "0x000000000000000000000000ecb456ea5365865ebab8a2661b0c503410e9b347",
                    "decodedMethod": {
                        "callParams": [
                            {
                                "name": "",
                                "type": "address",
                                "value": "0xecb456ea5365865ebab8a2661b0c503410e9b347"
                            }
                        ],
                        "constructorArguments": "",
                        "name": "balanceOf",
                        "returnParams": [
                            {
                                "decimalAvailable": true,
                                "name": "",
                                "type": "uint256",
                                "value": "171,052,171,961,643,527,514"
                            }
                        ],
                        "signature": "balanceOf(address)"
                    },
                    "errorInfo": "",
                    "fromAddress": "0x786b374b5eef874279f4b7b4de16940e57301a58",
                    "gasUsed": 2602,
                    "id": 2,
                    "methodDecoded": true,
                    "operation": "STATICCALL",
                    "output": "0x00000000000000000000000000000000000000000000000945d3642038cb6d5a",
                    "revert": false,
                    "revertMessage": "",
                    "selector": "0x70a08231",
                    "status": true,
                    "value": "0"
                },
                "nodeType": 0
            },
            "3": {
                "invocation": {
                    "address": "0x0000000000000000000000000000000000000004",
                    "callData": "0x",
                    "decodedMethod": {
                        "callParams": [
                            {
                                "name": "data",
                                "type": "bytes",
                                "value": "0x23b872dd"
                            }
                        ],
                        "constructorArguments": "",
                        "name": "dataCopy()",
                        "returnParams": [
                            {
                                "name": "data",
                                "type": "bytes",
                                "value": "0x23b872dd"
                            }
                        ],
                        "signature": "dataCopy(bytes)"
                    },
                    "errorInfo": "",
                    "fromAddress": "0x786b374b5eef874279f4b7b4de16940e57301a58",
                    "gasUsed": 18,
                    "id": 3,
                    "methodDecoded": true,
                    "operation": "CALL",
                    "output": "0x23b872dd",
                    "revert": false,
                    "revertMessage": "",
                    "selector": "0x23b872dd",
                    "status": true,
                    "value": "0"
                },
                "nodeType": 0
            },
            "4": {
                "invocation": {
                    "address": "0x0000000000000000000000000000000000000004",
                    "callData": "0x0000000000000000000000000000000000000000000000000000006423b872dd000000000000000000000000ecb456ea5365865ebab8a2661b0c503410e9b347000000000000000000000000786b374b5eef874279f4b7b4de16940e57301a5800000000000000000000000000000000000000000000000945d3642038cb6d5a",
                    "decodedMethod": {
                        "callParams": [
                            {
                                "name": "data",
                                "type": "bytes",
                                "value": "0x000000000000000000000000000000000000000000000000000000000000006423b872dd000000000000000000000000ecb456ea5365865ebab8a2661b0c503410e9b347000000000000000000000000786b374b5eef874279f4b7b4de16940e57301a5800000000000000000000000000000000000000000000000945d3642038cb6d5a"
                            }
                        ],
                        "constructorArguments": "",
                        "name": "dataCopy()",
                        "returnParams": [
                            {
                                "name": "data",
                                "type": "bytes",
                                "value": "0x000000000000000000000000000000000000000000000000000000000000006423b872dd000000000000000000000000ecb456ea5365865ebab8a2661b0c503410e9b347000000000000000000000000786b374b5eef874279f4b7b4de16940e57301a5800000000000000000000000000000000000000000000000945d3642038cb6d5a"
                            }
                        ],
                        "signature": "dataCopy(bytes)"
                    },
                    "errorInfo": "",
                    "fromAddress": "0x786b374b5eef874279f4b7b4de16940e57301a58",
                    "gasUsed": 30,
                    "id": 4,
                    "methodDecoded": true,
                    "operation": "CALL",
                    "output": "0x000000000000000000000000000000000000000000000000000000000000006423b872dd000000000000000000000000ecb456ea5365865ebab8a2661b0c503410e9b347000000000000000000000000786b374b5eef874279f4b7b4de16940e57301a5800000000000000000000000000000000000000000000000945d3642038cb6d5a",
                    "revert": false,
                    "revertMessage": "",
                    "selector": "0x00000000",
                    "status": true,
                    "value": "0"
                },
                "nodeType": 0
            },
            "5": {
                "invocation": {
                    "address": "0x6b175474e89094c44da98b954eedeac495271d0f",
                    "callData": "0x000000000000000000000000ecb456ea5365865ebab8a2661b0c503410e9b347000000000000000000000000786b374b5eef874279f4b7b4de16940e57301a5800000000000000000000000000000000000000000000000945d3642038cb6d5a",
                    "decodedMethod": {
                        "callParams": [
                            {
                                "name": "src",
                                "type": "address",
                                "value": "0xecb456ea5365865ebab8a2661b0c503410e9b347"
                            },
                            {
                                "name": "dst",
                                "type": "address",
                                "value": "0x786b374b5eef874279f4b7b4de16940e57301a58"
                            },
                            {
                                "decimalAvailable": true,
                                "name": "wad",
                                "type": "uint256",
                                "value": "171,052,171,961,643,527,514"
                            }
                        ],
                        "constructorArguments": "",
                        "name": "transferFrom",
                        "returnParams": [
                            {
                                "name": "",
                                "type": "bool",
                                "value": true
                            }
                        ],
                        "signature": "transferFrom(address,address,uint256)"
                    },
                    "errorInfo": "",
                    "fromAddress": "0x786b374b5eef874279f4b7b4de16940e57301a58",
                    "gasUsed": 30518,
                    "id": 5,
                    "methodDecoded": true,
                    "operation": "CALL",
                    "output": "0x0000000000000000000000000000000000000000000000000000000000000001",
                    "revert": false,
                    "revertMessage": "",
                    "selector": "0x23b872dd",
                    "status": true,
                    "value": "0"
                },
                "nodeType": 0
            },
            "6": {
                "event": {
                    "contract": "0x6b175474e89094c44da98b954eedeac495271d0f",
                    "decodedLog": {
                        "name": "Transfer",
                        "params": [
                            {
                                "name": "src",
                                "type": "address",
                                "value": "0xecb456ea5365865ebab8a2661b0c503410e9b347"
                            },
                            {
                                "name": "dst",
                                "type": "address",
                                "value": "0x786b374b5eef874279f4b7b4de16940e57301a58"
                            },
                            {
                                "decimalAvailable": true,
                                "name": "wad",
                                "type": "uint256",
                                "value": "171,052,171,961,643,527,514"
                            }
                        ],
                        "signature": "Transfer(address,address,uint256)"
                    },
                    "id": 6,
                    "logData": "0x00000000000000000000000000000000000000000000000945d3642038cb6d5a",
                    "logDecoded": true,
                    "operation": "EVENT",
                    "revert": false,
                    "status": true,
                    "topics": [
                        "0xddf252ad1be2c89b69c2b068fc378daa952ba7f163c4a11628f55a4df523b3ef",
                        "0x000000000000000000000000ecb456ea5365865ebab8a2661b0c503410e9b347",
                        "0x000000000000000000000000786b374b5eef874279f4b7b4de16940e57301a58"
                    ]
                },
                "nodeType": 1
            },
            "7": {
                "invocation": {
                    "address": "0x0000000000000000000000000000000000000004",
                    "callData": "0x000000000000000000000000000000000000000000000000000000200000000000000000000000000000000000000000000000000000000000000001",
                    "decodedMethod": {
                        "callParams": [
                            {
                                "name": "data",
                                "type": "bytes",
                                "value": "0x00000000000000000000000000000000000000000000000000000000000000200000000000000000000000000000000000000000000000000000000000000001"
                            }
                        ],
                        "constructorArguments": "",
                        "name": "dataCopy()",
                        "returnParams": [
                            {
                                "name": "data",
                                "type": "bytes",
                                "value": "0x00000000000000000000000000000000000000000000000000000000000000200000000000000000000000000000000000000000000000000000000000000001"
                            }
                        ],
                        "signature": "dataCopy(bytes)"
                    },
                    "errorInfo": "",
                    "fromAddress": "0x786b374b5eef874279f4b7b4de16940e57301a58",
                    "gasUsed": 21,
                    "id": 7,
                    "methodDecoded": true,
                    "operation": "CALL",
                    "output": "0x00000000000000000000000000000000000000000000000000000000000000200000000000000000000000000000000000000000000000000000000000000001",
                    "revert": false,
                    "revertMessage": "",
                    "selector": "0x00000000",
                    "status": true,
                    "value": "0"
                },
                "nodeType": 0
            }
        },
        "gasFlame": [
            {
                "children": [
                    {
                        "children": [
                            {
                                "children": [],
                                "depth": 0,
                                "name": "Initial Gas",
                                "value": 21432
                            },
                            {
                                "children": [
                                    {
                                        "children": [
                                            {
                                                "children": [],
                                                "depth": 2,
                                                "name": "balanceOf",
                                                "value": 2602
                                            },
                                            {
                                                "children": [],
                                                "depth": 2,
                                                "name": "dataCopy()",
                                                "value": 18
                                            },
                                            {
                                                "children": [],
                                                "depth": 2,
                                                "name": "dataCopy()",
                                                "value": 30
                                            },
                                            {
                                                "children": [],
                                                "depth": 2,
                                                "name": "transferFrom",
                                                "value": 30518
                                            },
                                            {
                                                "children": [],
                                                "depth": 2,
                                                "name": "dataCopy()",
                                                "value": 21
                                            }
                                        ],
                                        "depth": 1,
                                        "name": "burn",
                                        "value": 39374
                                    }
                                ],
                                "depth": 0,
                                "name": "Executed Gas",
                                "value": 68996
                            }
                        ],
                        "depth": -1,
                        "name": "Actual Gas Used",
                        "value": 72343
                    },
                    {
                        "children": [],
                        "depth": -1,
                        "name": "Refunded Gas",
                        "value": 18085
                    }
                ],
                "depth": -2,
                "name": "Total Gas",
                "value": 90428
            }
        ],
        "isConfirmed": true,
        "mainTrace": [
            {
                "children": [
                    {
                        "children": [
                            {
                                "children": [
                                    {
                                        "children": [],
                                        "depth": 2,
                                        "id": 2,
                                        "order": 2
                                    },
                                    {
                                        "children": [],
                                        "depth": 2,
                                        "id": 3,
                                        "order": 3
                                    },
                                    {
                                        "children": [],
                                        "depth": 2,
                                        "id": 4,
                                        "order": 4
                                    },
                                    {
                                        "children": [
                                            {
                                                "children": [],
                                                "depth": 3,
                                                "id": 6,
                                                "order": 6
                                            }
                                        ],
                                        "depth": 2,
                                        "id": 5,
                                        "order": 5
                                    },
                                    {
                                        "children": [],
                                        "depth": 2,
                                        "id": 7,
                                        "order": 7
                                    }
                                ],
                                "depth": 1,
                                "id": 1,
                                "order": 1
                            }
                        ],
                        "depth": 0,
                        "id": 0,
                        "order": 0
                    }
                ],
                "depth": -1,
                "id": -1,
                "order": -1
            }
        ],
        "mainTraceNodeCount": 8,
        "parentIdMap": {
            "0": -1,
            "1": 0,
            "2": 1,
            "3": 1,
            "4": 1,
            "5": 1,
            "6": 5,
            "7": 1
        },
        "tidyTrace": [
            {
                "children": [
                    {
                        "children": [
                            {
                                "children": [
                                    {
                                        "children": [],
                                        "depth": 2,
                                        "id": 3,
                                        "order": 3
                                    },
                                    {
                                        "children": [],
                                        "depth": 2,
                                        "id": 4,
                                        "order": 4
                                    },
                                    {
                                        "children": [
                                            {
                                                "children": [],
                                                "depth": 3,
                                                "id": 6,
                                                "order": 6
                                            }
                                        ],
                                        "depth": 2,
                                        "id": 5,
                                        "order": 5
                                    },
                                    {
                                        "children": [],
                                        "depth": 2,
                                        "id": 7,
                                        "order": 7
                                    }
                                ],
                                "depth": 1,
                                "id": 1,
                                "order": 1
                            }
                        ],
                        "depth": 0,
                        "id": 0,
                        "order": 0
                    }
                ],
                "depth": -1,
                "id": -1,
                "order": -1
            }
        ],
        "tidyTraceNodeCount": 7
    },
    "state_change": {
        "stateChanges": [
            {
                "address": "0x6b175474e89094c44da98b954eedeac495271d0f",
                "erc": "ERC-20",
                "slots": [
                    {
                        "current": "0x0000000000000000000000000000000000000000000000000000000000000000",
                        "key": "0x3e6a9ce964f8d1cde6b250b45a704b19886ccd67de341049b839dfe37b067ba6",
                        "prev": "0x00000000000000000000000000000000000000000000000945d3642038cb6d5a"
                    },
                    {
                        "current": "0x00000000000000000000000000000000000000000000000945d3642038cb6d5a",
                        "key": "0xe254ea3d42659b477b694f9ad741d86544f722610e492e308f7a9ecf6107ce17",
                        "prev": "0x0000000000000000000000000000000000000000000000000000000000000000"
                    }
                ],
                "storageVariables": [
                    {
                        "name": "balanceOf",
                        "type": "mapping(address => uint256)",
                        "value": {
                            "pairs": [
                                {
                                    "key": "0x786b374b5eef874279f4b7b4de16940e57301a58",
                                    "value": {
                                        "current": "171052171961643527514",
                                        "prev": "0",
                                        "typeTag": 1
                                    }
                                },
                                {
                                    "key": "0xecb456ea5365865ebab8a2661b0c503410e9b347",
                                    "value": {
                                        "current": "0",
                                        "prev": "171052171961643527514",
                                        "typeTag": 1
                                    }
                                }
                            ],
                            "typeTag": 4
                        }
                    }
                ]
            }
        ]
    }
}