{
    "balance_change": {
        "balanceChanges": [
            {
                "account": "0x4e2ce48f0b5d97bfd4be3f6c7b6479db1aa5b365",
                "assets": [
                    {
                        "address": "0xeeeeeeeeeeeeeeeeeeeeeeeeeeeeeeeeeeeeeeee",
                        "amount": "0.0000002",
                        "iconUrl": "https://assets.blocksec.com/image/1663669189317-3.png",
                        "isERC1155": false,
                        "isERC721": false,
                        "sign": false,
                        "value": "0.00077830600000000004"
                    },
                    {
                        "address": "0xb970e14df2161c0a2f32eba35901f2446581b482",
                        "amount": "236,577,829.418781848",
                        "iconUrl": "",
                        "isERC1155": false,
                        "isERC721": false,
                        "sign": true,
                        "value": "11828.891470000000567"
                    }
                ]
            },
            {
                "account": "0x4c385b3b33469b73713ca252dd1862bd1a8b1bd0",
                "assets": [
                    {
                        "address": "0xeeeeeeeeeeeeeeeeeeeeeeeeeeeeeeeeeeeeeeee",
                        "amount": "0.00000019999999989",
                        "iconUrl": "https://assets.blocksec.com/image/1663669189317-3.png",
                        "isERC1155": false,
                        "isERC721": false,
                        "sign": true,
                        "value": "0.00077830599961084704"
                    }
                ]
            },
            {
                "account": "0x52e81e783c31af343dfd01084f35decbced9fc18",
                "assets": [
                    {
                        "address": "0xb970e14df2161c0a2f32eba35901f2446581b482",
                        "amount": "251,427,522.896165",
                        "iconUrl": "",
                        "isERC1155": false,
                        "isERC721": false,
                        "sign": false,
                        "value": "12571.376145000000602"
                    }
                ]
            },
            {
                "account": "0xd3f64baa732061f8b3626ee44bab354f854877ac",
                "assets": [
                    {
                        "address": "0xeeeeeeeeeeeeeeeeeeeeeeeeeeeeeeeeeeeeeeee",
                        "amount": "0.000000000000000001",
                        "iconUrl": "https://assets.blocksec.com/image/1663669189317-3.png",
                        "isERC1155": false,
                        "isERC721": false,
                        "sign": true,
                        "value": "0.0000000000000038915300000000002"
                    },
                    {
                        "address": "0xb970e14df2161c0a2f32eba35901f2446581b482",
                        "amount": "7,537,763.710312817",
                        "iconUrl": "",
                        "isERC1155": false,
                        "isERC721": false,
                        "sign": true,
                        "value": "376.88818550000001806"
                    }
                ]
            },
            {
                "account": "0xf7ce62144540500cff1a2a1bb08aff612be79077",
                "assets": [
                    {
                        "address": "0xeeeeeeeeeeeeeeeeeeeeeeeeeeeeeeeeeeeeeeee",
                        "amount": "0.000000000000000109",
                        "iconUrl": "https://assets.blocksec.com/image/1663669189317-3.png",
                        "isERC1155": false,
                        "isERC721": false,
                        "sign": true,
                        "value": "0.0000000000004241767700000000218"
                    },
                    {
                        "address": "0xb970e14df2161c0a2f32eba35901f2446581b482",
                        "amount": "7,311,929.767070335",
                        "iconUrl": "",
                        "isERC1155": false,
                        "isERC721": false,
                        "sign": true,
                        "value": "365.59648835000001751"
                    }
                ]
            }
        ]
    },
    "profile": {
        "basic_info": {
            "baseFee": "57.221166233",
            "blockNumber": 19393565,
            "callData": "0x60806040526000604051610012906100e1565b604051809103906000f08015801561002e573d6000803e3d6000fd5b509050806001600160a01b031663aaf05f3d600a6040518263ffffffff1660e01b81526004016000604051808303818588803b15801561006d57600080fd5b505af1158015610081573d6000803e3d6000fd5b5050505050806001600160a01b031663c3f9020260646040518263ffffffff1660e01b81526004016000604051808303818588803b1580156100c257600080fd5b505af11580156100d6573d6000803e3d6000fd5b5050505050506100ee565b6106e18061013b83390190565b603f806100fc6000396000f3fe6080604052600080fdfea2646970667358221220c0f96cb43b1ea3e087342bbe318d80c76077add2d47d7c81ea52eb3bd886669164736f6c634300081800336080604052600080546001600160a01b03191673d3f64baa732061f8b3626ee44bab354f854877ac17905534801561003657600080fd5b5061069b806100466000396000f3fe6080604052600436106100295760003560e01c8063aaf05f3d1461002e578063c3f9020214610038575b600080fd5b610036610040565b005b610036610078565b73b970e14df2161c0a2f32eba35901f2446581b48273687d124ec49fb0aa0cb08de4438abf171f3c53b56100748183610110565b5050565b7352e81e783c31af343dfd01084f35decbced9fc1873a23846f4e81f7b5846523c1807eb4d0ca892045c73728dbac1d2a20acc87edd23ff435931e6c4c1f3773daa91e8103b219ba85ab202d3c94bcefe354f67073b970e14df2161c0a2f32eba35901f2446581b4826100eb8582610110565b6100f58482610110565b6100ff8382610110565b6101098282610110565b5050505050565b6040516370a0823160e01b81526001600160a01b038381166004830152600091908316906370a0823190602401602060405180830381865afa15801561015a573d6000803e3d6000fd5b505050506040513d601f19601f8201168201806040525081019061017e919061049a565b600080546040516001600160a01b0380881660248301529091166044820152606481018390529192509060840160408051808303601f19018152918152602080830180516323b872dd60e01b6001600160e01b0390911617905281516101208101835230815260008183018190526001600160a01b0388168285018190526001606080850182905260808501849052670297963e6c9965e060a086015286518088018852600a815269554e495a454e2d434c4960b01b8188015260c0860152601160e08601526107536101008601528651908101875291825293810182905280850186905284518481528086019095529495509093929091816020015b6040805160608082018352600080835260208301529181019190915281526020019060019003908161027b57905050905081816000815181106102c0576102c06104b3565b60200260200101819052506000630f794d0160e11b84836040516024016102e892919061059a565b60408051601f198184030181529181526020820180516001600160e01b03166001600160e01b03199094169390931790925260005491519092506001600160a01b039091169060019061033c908490610649565b60006040518083038185875af1925050503d8060008114610379576040519150601f19603f3d011682016040523d82523d6000602084013e61037e565b606091505b50506040516370a0823160e01b8152306004820152600091506001600160a01b038916906370a0823190602401602060405180830381865afa1580156103c8573d6000803e3d6000fd5b505050506040513d601f19601f820116820180604052508101906103ec919061049a565b6040513260248201526044810182905290915060009060640160408051601f198184030181529181526020820180516001600160e01b031663a9059cbb60e01b179052519091506001600160a01b038a1690610449908390610649565b6000604051808303816000865af19150503d8060008114610486576040519150601f19603f3d011682016040523d82523d6000602084013e61048b565b606091505b50505050505050505050505050565b6000602082840312156104ac57600080fd5b5051919050565b634e487b7160e01b600052603260045260246000fd5b60005b838110156104e45781810151838201526020016104cc565b50506000910152565b600081518084526105058160208601602086016104c9565b601f01601f19169290920160200192915050565b600082825180855260208086019550808260051b84010181860160005b8481101561058d57858303601f19018952815180516001600160a01b031684528481015185850152604090810151606091850182905290610579818601836104ed565b9a86019a9450505090830190600101610536565b5090979650505050505050565b604081526105b46040820184516001600160a01b03169052565b60208301516060820152600060408401516105da60808401826001600160a01b03169052565b50606084015160a0830152608084015160c083015260a084015160e083015260c084015161012061010081818601526106176101608601846104ed565b925060e08701518286015280870151610140860152505082810360208401526106408185610519565b95945050505050565b6000825161065b8184602087016104c9565b919091019291505056fea264697066735822122003b6ad04af5394af91758494c2d88e272fcbbda89cf1eec0567d50bc704a0b8d64736f6c63430008180033",
            "debugEnable": true,
            "errorInfo": "",
            "eventCount": 5,
            "feeRecipient": "0x4838b106fce9647bdf1e7877bf73ce8b0bad5f97",
            "formatValue": "0.0000002",
            "gasLimit": 2000000,
            "gasPrice": "63.969798061",
            "gasUsed": 1023333,
            "intTxnCount": 40,
            "internalRevert": true,
            "internalRevertMessage": "Call-Failed",
            "isContractCreation": true,
            "isFlashloan": false,
            "maxFee": "63.969798061",
            "nonce": 19,
            "overwritedBlockNumber": -1,
            "priorityFee": "63.969798061",
            "receiver": "0x4c385b3b33469b73713ca252dd1862bd1a8b1bd0",
            "revertMessage": "",
            "sender": "0x4e2ce48f0b5d97bfd4be3f6c7b6479db1aa5b365",
            "simulationEnable": true,
            "sourceTxnHash": "0xfcba2c38617edab9abf146bf4381edd2674873cc7bae9c6ba505a45e03a7228b",
            "status": true,
            "timestamp": "2024-03-08T23:06:47Z",
            "transactionFee": "0.065462405359157313",
            "txnHash": "0xfcba2c38617edab9abf146bf4381edd2674873cc7bae9c6ba505a45e03a7228b",
            "txnIndex": 9,
            "type": 2,
            "value": "200000000000"
        },
        "fund_flow": [
            {
                "amount": "0.0000002",
                "from": "0x4e2ce48f0b5d97bfd4be3f6c7b6479db1aa5b365",
                "id": 1,
                "isERC1155": false,
                "isERC721": false,
                "isReverted": false,
                "order": 1,
                "to": "0x4c385b3b33469b73713ca252dd1862bd1a8b1bd0",
                "token": "0xeeeeeeeeeeeeeeeeeeeeeeeeeeeeeeeeeeeeeeee"
            },
            {
                "amount": "0.00000000000000011",
                "from": "0x4c385b3b33469b73713ca252dd1862bd1a8b1bd0",
                "id": 2,
                "isERC1155": false,
                "isERC721": false,
                "isReverted": false,
                "order": 2,
                "to": "0xf7ce62144540500cff1a2a1bb08aff612be79077",
                "token": "0xeeeeeeeeeeeeeeeeeeeeeeeeeeeeeeeeeeeeeeee"
            },
            {
                "amount": "0.000000000000000001",
                "from": "0xf7ce62144540500cff1a2a1bb08aff612be79077",
                "id": 4,
                "isERC1155": false,
                "isERC721": false,
                "isReverted": false,
                "order": 3,
                "to": "0xd3f64baa732061f8b3626ee44bab354f854877ac",
                "token": "0xeeeeeeeeeeeeeeeeeeeeeeeeeeeeeeeeeeeeeeee"
            },
            {
                "amount": "251,427,522.896165",
                "from": "0x52e81e783c31af343dfd01084f35decbced9fc18",
                "id": 5,
                "isERC1155": false,
                "isERC721": false,
                "isReverted": false,
                "order": 4,
                "to": "0xd3f64baa732061f8b3626ee44bab354f854877ac",
                "token": "0xb970e14df2161c0a2f32eba35901f2446581b482"
            },
            {
                "amount": "243,889,759.185852183",
                "from": "0xd3f64baa732061f8b3626ee44bab354f854877ac",
                "id": 6,
                "isERC1155": false,
                "isERC721": false,
                "isReverted": false,
                "order": 5,
                "to": "0xf7ce62144540500cff1a2a1bb08aff612be79077",
                "token": "0xb970e14df2161c0a2f32eba35901f2446581b482"
            },
            {
                "amount": "236,577,829.418781848",
                "from": "0xf7ce62144540500cff1a2a1bb08aff612be79077",
                "id": 7,
                "isERC1155": false,
                "isERC721": false,
                "isReverted": false,
                "order": 6,
                "to": "0x4e2ce48f0b5d97bfd4be3f6c7b6479db1aa5b365",
                "token": "0xb970e14df2161c0a2f32eba35901f2446581b482"
            }
        ],
        "token_infos": [
            {
                "address": "0xb970e14df2161c0a2f32eba35901f2446581b482",
                "decimals": 9
            },
            {
                "address": "0xc02aaa39b223fe8d0a0e5c4f27ead9083c756cc2",
                "decimals": 18
            },
            {
                "address": "0xeeeeeeeeeeeeeeeeeeeeeeeeeeeeeeeeeeeeeeee",
                "decimals": 18
            }
        ]
    },
    "address_label": {
        "labels": [
            {
                "address": "0xeeeeeeeeeeeeeeeeeeeeeeeeeeeeeeeeeeeeeeee",
                "label": "Ether"
            },
            {
                "address": "0xb970e14df2161c0a2f32eba35901f2446581b482",
                "label": "REAKTOR Token: RKR Token"
            },
            {
                "address": "0xd3f64baa732061f8b3626ee44bab354f854877ac",
                "label": "TransparentUpgradeableProxy_d3f6_77ac"
            },
            {
                "address": "0x4e2ce48f0b5d97bfd4be3f6c7b6479db1aa5b365",
                "label": "Unizen_io Exploiter 3"
            },
            {
                "address": "0x0000000000000000000000000000000000000001",
                "label": "Precompiled"
            },
            {
                "address": "0x0000000000000000000000000000000000000002",
                "label": "Precompiled"
            },
            {
                "address": "0x0000000000000000000000000000000000000003",
                "label": "Precompiled"
            },
            {
                "address": "0x0000000000000000000000000000000000000004",
                "label": "Precompiled"
            }
        ]
    },
    "trace": {
        "accountLabels": null,
        "dataMap": {
            "-1": {
                "invocation": {
                    "address": "0x4e2ce48f0b5d97bfd4be3f6c7b6479db1aa5b365",
                    "callData": "",
                    "decodedMethod": null,
                    "errorInfo": "",
                    "fromAddress": "",
                    "gasUsed": 0,
                    "id": -1,
                    "methodDecoded": false,
                    "operation": "",
                    "output": "",
                    "revert": false,
                    "revertMessage": "",
                    "selector": "",
                    "status": false,
                    "value": ""
                },
                "nodeType": 0
            },
            "0": {
                "invocation": {
                    "address": "0x4c385b3b33469b73713ca252dd1862bd1a8b1bd0",
                    "callData": "0x60806040526000604051610012906100e1565b604051809103906000f08015801561002e573d6000803e3d6000fd5b509050806001600160a01b031663aaf05f3d600a6040518263ffffffff1660e01b81526004016000604051808303818588803b15801561006d57600080fd5b505af1158015610081573d6000803e3d6000fd5b5050505050806001600160a01b031663c3f9020260646040518263ffffffff1660e01b81526004016000604051808303818588803b1580156100c257600080fd5b505af11580156100d6573d6000803e3d6000fd5b5050505050506100ee565b6106e18061013b83390190565b603f806100fc6000396000f3fe6080604052600080fdfea2646970667358221220c0f96cb43b1ea3e087342bbe318d80c76077add2d47d7c81ea52eb3bd886669164736f6c634300081800336080604052600080546001600160a01b03191673d3f64baa732061f8b3626ee44bab354f854877ac17905534801561003657600080fd5b5061069b806100466000396000f3fe6080604052600436106100295760003560e01c8063aaf05f3d1461002e578063c3f9020214610038575b600080fd5b610036610040565b005b610036610078565b73b970e14df2161c0a2f32eba35901f2446581b48273687d124ec49fb0aa0cb08de4438abf171f3c53b56100748183610110565b5050565b7352e81e783c31af343dfd01084f35decbced9fc1873a23846f4e81f7b5846523c1807eb4d0ca892045c73728dbac1d2a20acc87edd23ff435931e6c4c1f3773daa91e8103b219ba85ab202d3c94bcefe354f67073b970e14df2161c0a2f32eba35901f2446581b4826100eb8582610110565b6100f58482610110565b6100ff8382610110565b6101098282610110565b5050505050565b6040516370a0823160e01b81526001600160a01b038381166004830152600091908316906370a0823190602401602060405180830381865afa15801561015a573d6000803e3d6000fd5b505050506040513d601f19601f8201168201806040525081019061017e919061049a565b600080546040516001600160a01b0380881660248301529091166044820152606481018390529192509060840160408051808303601f19018152918152602080830180516323b872dd60e01b6001600160e01b0390911617905281516101208101835230815260008183018190526001600160a01b0388168285018190526001606080850182905260808501849052670297963e6c9965e060a086015286518088018852600a815269554e495a454e2d434c4960b01b8188015260c0860152601160e08601526107536101008601528651908101875291825293810182905280850186905284518481528086019095529495509093929091816020015b6040805160608082018352600080835260208301529181019190915281526020019060019003908161027b57905050905081816000815181106102c0576102c06104b3565b60200260200101819052506000630f794d0160e11b84836040516024016102e892919061059a565b60408051601f198184030181529181526020820180516001600160e01b03166001600160e01b03199094169390931790925260005491519092506001600160a01b039091169060019061033c908490610649565b60006040518083038185875af1925050503d8060008114610379576040519150601f19603f3d011682016040523d82523d6000602084013e61037e565b606091505b50506040516370a0823160e01b8152306004820152600091506001600160a01b038916906370a0823190602401602060405180830381865afa1580156103c8573d6000803e3d6000fd5b505050506040513d601f19601f820116820180604052508101906103ec919061049a565b6040513260248201526044810182905290915060009060640160408051601f198184030181529181526020820180516001600160e01b031663a9059cbb60e01b179052519091506001600160a01b038a1690610449908390610649565b6000604051808303816000865af19150503d8060008114610486576040519150601f19603f3d011682016040523d82523d6000602084013e61048b565b606091505b50505050505050505050505050565b6000602082840312156104ac57600080fd5b5051919050565b634e487b7160e01b600052603260045260246000fd5b60005b838110156104e45781810151838201526020016104cc565b50506000910152565b600081518084526105058160208601602086016104c9565b601f01601f19169290920160200192915050565b600082825180855260208086019550808260051b84010181860160005b8481101561058d57858303601f19018952815180516001600160a01b031684528481015185850152604090810151606091850182905290610579818601836104ed565b9a86019a9450505090830190600101610536565b5090979650505050505050565b604081526105b46040820184516001600160a01b03169052565b60208301516060820152600060408401516105da60808401826001600160a01b03169052565b50606084015160a0830152608084015160c083015260a084015160e083015260c084015161012061010081818601526106176101608601846104ed565b925060e08701518286015280870151610140860152505082810360208401526106408185610519565b95945050505050565b6000825161065b8184602087016104c9565b919091019291505056fea264697066735822122003b6ad04af5394af91758494c2d88e272fcbbda89cf1eec0567d50bc704a0b8d64736f6c63430008180033",
                    "decodedMethod": null,
                    "errorInfo": "",
                    "fromAddress": "0x4e2ce48f0b5d97bfd4be3f6c7b6479db1aa5b365",
                    "gasUsed": 1023333,
                    "id": 0,
                    "methodDecoded": false,
                    "operation": "CREATE",
                    "output": "0x6080604052600080fdfea2646970667358221220c0f96cb43b1ea3e087342bbe318d80c76077add2d47d7c81ea52eb3bd886669164736f6c63430008180033",
                    "revert": false,
                    "revertMessage": "",
                    "selector": "",
                    "status": true,
                    "value": "0.0000002"
                },
                "nodeType": 0
            },
            "1": {
                "invocation": {
                    "address": "0xf7ce62144540500cff1a2a1bb08aff612be79077",
                    "callData": "0x6080604052600080546001600160a01b03191673d3f64baa732061f8b3626ee44bab354f854877ac17905534801561003657600080fd5b5061069b806100466000396000f3fe6080604052600436106100295760003560e01c8063aaf05f3d1461002e578063c3f9020214610038575b600080fd5b610036610040565b005b610036610078565b73b970e14df2161c0a2f32eba35901f2446581b48273687d124ec49fb0aa0cb08de4438abf171f3c53b56100748183610110565b5050565b7352e81e783c31af343dfd01084f35decbced9fc1873a23846f4e81f7b5846523c1807eb4d0ca892045c73728dbac1d2a20acc87edd23ff435931e6c4c1f3773daa91e8103b219ba85ab202d3c94bcefe354f67073b970e14df2161c0a2f32eba35901f2446581b4826100eb8582610110565b6100f58482610110565b6100ff8382610110565b6101098282610110565b5050505050565b6040516370a0823160e01b81526001600160a01b038381166004830152600091908316906370a0823190602401602060405180830381865afa15801561015a573d6000803e3d6000fd5b505050506040513d601f19601f8201168201806040525081019061017e919061049a565b600080546040516001600160a01b0380881660248301529091166044820152606481018390529192509060840160408051808303601f19018152918152602080830180516323b872dd60e01b6001600160e01b0390911617905281516101208101835230815260008183018190526001600160a01b0388168285018190526001606080850182905260808501849052670297963e6c9965e060a086015286518088018852600a815269554e495a454e2d434c4960b01b8188015260c0860152601160e08601526107536101008601528651908101875291825293810182905280850186905284518481528086019095529495509093929091816020015b6040805160608082018352600080835260208301529181019190915281526020019060019003908161027b57905050905081816000815181106102c0576102c06104b3565b60200260200101819052506000630f794d0160e11b84836040516024016102e892919061059a565b60408051601f198184030181529181526020820180516001600160e01b03166001600160e01b03199094169390931790925260005491519092506001600160a01b039091169060019061033c908490610649565b60006040518083038185875af1925050503d8060008114610379576040519150601f19603f3d011682016040523d82523d6000602084013e61037e565b606091505b50506040516370a0823160e01b8152306004820152600091506001600160a01b038916906370a0823190602401602060405180830381865afa1580156103c8573d6000803e3d6000fd5b505050506040513d601f19601f820116820180604052508101906103ec919061049a565b6040513260248201526044810182905290915060009060640160408051601f198184030181529181526020820180516001600160e01b031663a9059cbb60e01b179052519091506001600160a01b038a1690610449908390610649565b6000604051808303816000865af19150503d8060008114610486576040519150601f19603f3d011682016040523d82523d6000602084013e61048b565b606091505b50505050505050505050505050565b6000602082840312156104ac57600080fd5b5051919050565b634e487b7160e01b600052603260045260246000fd5b60005b838110156104e45781810151838201526020016104cc565b50506000910152565b600081518084526105058160208601602086016104c9565b601f01601f19169290920160200192915050565b600082825180855260208086019550808260051b84010181860160005b8481101561058d57858303601f19018952815180516001600160a01b031684528481015185850152604090810151606091850182905290610579818601836104ed565b9a86019a9450505090830190600101610536565b5090979650505050505050565b604081526105b46040820184516001600160a01b03169052565b60208301516060820152600060408401516105da60808401826001600160a01b03169052565b50606084015160a0830152608084015160c083015260a084015160e083015260c084015161012061010081818601526106176101608601846104ed565b925060e08701518286015280870151610140860152505082810360208401526106408185610519565b95945050505050565b6000825161065b8184602087016104c9565b919091019291505056fea264697066735822122003b6ad04af5394af91758494c2d88e272fcbbda89cf1eec0567d50bc704a0b8d64736f6c63430008180033",
                    "decodedMethod": null,
                    "errorInfo": "",
                    "fromAddress": "0x4c385b3b33469b73713ca252dd1862bd1a8b1bd0",
                    "gasUsed": 360710,
                    "id": 1,
                    "methodDecoded": false,
                    "operation": "CREATE",
                    "output": "0x6080604052600436106100295760003560e01c8063aaf05f3d1461002e578063c3f9020214610038575b600080fd5b610036610040565b005b610036610078565b73b970e14df2161c0a2f32eba35901f2446581b48273687d124ec49fb0aa0cb08de4438abf171f3c53b56100748183610110565b5050565b7352e81e783c31af343dfd01084f35decbced9fc1873a23846f4e81f7b5846523c1807eb4d0ca892045c73728dbac1d2a20acc87edd23ff435931e6c4c1f3773daa91e8103b219ba85ab202d3c94bcefe354f67073b970e14df2161c0a2f32eba35901f2446581b4826100eb8582610110565b6100f58482610110565b6100ff8382610110565b6101098282610110565b5050505050565b6040516370a0823160e01b81526001600160a01b038381166004830152600091908316906370a0823190602401602060405180830381865afa15801561015a573d6000803e3d6000fd5b505050506040513d601f19601f8201168201806040525081019061017e919061049a565b600080546040516001600160a01b0380881660248301529091166044820152606481018390529192509060840160408051808303601f19018152918152602080830180516323b872dd60e01b6001600160e01b0390911617905281516101208101835230815260008183018190526001600160a01b0388168285018190526001606080850182905260808501849052670297963e6c9965e060a086015286518088018852600a815269554e495a454e2d434c4960b01b8188015260c0860152601160e08601526107536101008601528651908101875291825293810182905280850186905284518481528086019095529495509093929091816020015b6040805160608082018352600080835260208301529181019190915281526020019060019003908161027b57905050905081816000815181106102c0576102c06104b3565b60200260200101819052506000630f794d0160e11b84836040516024016102e892919061059a565b60408051601f198184030181529181526020820180516001600160e01b03166001600160e01b03199094169390931790925260005491519092506001600160a01b039091169060019061033c908490610649565b60006040518083038185875af1925050503d8060008114610379576040519150601f19603f3d011682016040523d82523d6000602084013e61037e565b606091505b50506040516370a0823160e01b8152306004820152600091506001600160a01b038916906370a0823190602401602060405180830381865afa1580156103c8573d6000803e3d6000fd5b505050506040513d601f19601f820116820180604052508101906103ec919061049a565b6040513260248201526044810182905290915060009060640160408051601f198184030181529181526020820180516001600160e01b031663a9059cbb60e01b179052519091506001600160a01b038a1690610449908390610649565b6000604051808303816000865af19150503d8060008114610486576040519150601f19603f3d011682016040523d82523d6000602084013e61048b565b606091505b50505050505050505050505050565b6000602082840312156104ac57600080fd5b5051919050565b634e487b7160e01b600052603260045260246000fd5b60005b838110156104e45781810151838201526020016104cc565b50506000910152565b600081518084526105058160208601602086016104c9565b601f01601f19169290920160200192915050565b600082825180855260208086019550808260051b84010181860160005b8481101561058d57858303601f19018952815180516001600160a01b031684528481015185850152604090810151606091850182905290610579818601836104ed565b9a86019a9450505090830190600101610536565b5090979650505050505050565b604081526105b46040820184516001600160a01b03169052565b60208301516060820152600060408401516105da60808401826001600160a01b03169052565b50606084015160a0830152608084015160c083015260a084015160e083015260c084015161012061010081818601526106176101608601846104ed565b925060e08701518286015280870151610140860152505082810360208401526106408185610519565b95945050505050565b6000825161065b8184602087016104c9565b919091019291505056fea264697066735822122003b6ad04af5394af91758494c2d88e272fcbbda89cf1eec0567d50bc704a0b8d64736f6c63430008180033",
                    "revert": false,
                    "revertMessage": "",
                    "selector": "",
                    "status": true,
                    "value": "0"
                },
                "nodeType": 0
            },
            "10": {
                "invocation": {
                    "address": "0xf7ce62144540500cff1a2a1bb08aff612be79077",
                    "callData": "0x",
                    "decodedMethod": null,
                    "errorInfo": "",
                    "fromAddress": "0x4c385b3b33469b73713ca252dd1862bd1a8b1bd0",
                    "gasUsed": 425537,
                    "id": 10,
                    "methodDecoded": false,
                    "operation": "CALL",
                    "output": "",
                    "revert": false,
                    "revertMessage": "",
                    "selector": "0xc3f90202",
                    "status": true,
                    "value": "0.0000000000000001"
                },
                "nodeType": 0
            },
            "11": {
                "invocation": {
                    "address": "0xb970e14df2161c0a2f32eba35901f2446581b482",
                    "callData": "0x00000000000000000000000052e81e783c31af343dfd01084f35decbced9fc18",
                    "decodedMethod": {
                        "callParams": [
                            {
                                "name": "account",
                                "type": "address",
                                "value": "0x52e81e783c31af343dfd01084f35decbced9fc18"
                            }
                        ],
                        "constructorArguments": "",
                        "name": "balanceOf",
                        "returnParams": [
                            {
                                "decimalAvailable": true,
                                "name": "",
                                "type": "uint256",
                                "value": "259,203,631,851,716,494"
                            }
                        ],
                        "signature": "balanceOf(address)"
                    },
                    "errorInfo": "",
                    "fromAddress": "0xf7ce62144540500cff1a2a1bb08aff612be79077",
                    "gasUsed": 11833,
                    "id": 11,
                    "methodDecoded": true,
                    "operation": "STATICCALL",
                    "output": "0x0000000000000000000000000000000000000000000000000398e05471033f8e",
                    "revert": false,
                    "revertMessage": "",
                    "selector": "0x70a08231",
                    "status": true,
                    "value": "0"
                },
                "nodeType": 0
            },
            "12": {
                "invocation": {
                    "address": "0xd3f64baa732061f8b3626ee44bab354f854877ac",
                    "callData": "0x000000000000000000000000000000000000000000000000000000000000004000000000000000000000000000000000000000000000000000000000000001a0000000000000000000000000f7ce62144540500cff1a2a1bb08aff612be790770000000000000000000000000000000000000000000000000000000000000000000000000000000000000000b970e14df2161c0a2f32eba35901f2446581b482000000000000000000000000000000000000000000000000000000000000000100000000000000000000000000000000000000000000000000000000000000000000000000000000000000000000000000000000000000000297963e6c9965e0000000000000000000000000000000000000000000000000000000000000012000000000000000000000000000000000000000000000000000000000000000110000000000000000000000000000000000000000000000000000000000000753000000000000000000000000000000000000000000000000000000000000000a554e495a454e2d434c490000000000000000000000000000000000000000000000000000000000000000000000000000000000000000000000000000000000010000000000000000000000000000000000000000000000000000000000000020000000000000000000000000b970e14df2161c0a2f32eba35901f2446581b48200000000000000000000000000000000000000000000000000000000000000000000000000000000000000000000000000000000000000000000000000000060000000000000000000000000000000000000000000000000000000000000006423b872dd00000000000000000000000052e81e783c31af343dfd01084f35decbced9fc18000000000000000000000000d3f64baa732061f8b3626ee44bab354f854877ac0000000000000000000000000000000000000000000000000398e05471033f8e00000000000000000000000000000000000000000000000000000000",
                    "decodedMethod": null,
                    "errorInfo": "",
                    "fromAddress": "0xf7ce62144540500cff1a2a1bb08aff612be79077",
                    "gasUsed": 179569,
                    "id": 12,
                    "methodDecoded": false,
                    "operation": "CALL",
                    "output": "",
                    "revert": false,
                    "revertMessage": "",
                    "selector": "0x1ef29a02",
                    "status": true,
                    "value": "0.000000000000000001"
                },
                "nodeType": 0
            },
            "13": {
                "invocation": {
                    "address": "0xa051fc7d38baa0ace811ad9de4e9f7024e5d8a30",
                    "callData": "0x000000000000000000000000000000000000000000000000000000000000004000000000000000000000000000000000000000000000000000000000000001a0000000000000000000000000f7ce62144540500cff1a2a1bb08aff612be790770000000000000000000000000000000000000000000000000000000000000000000000000000000000000000b970e14df2161c0a2f32eba35901f2446581b482000000000000000000000000000000000000000000000000000000000000000100000000000000000000000000000000000000000000000000000000000000000000000000000000000000000000000000000000000000000297963e6c9965e0000000000000000000000000000000000000000000000000000000000000012000000000000000000000000000000000000000000000000000000000000000110000000000000000000000000000000000000000000000000000000000000753000000000000000000000000000000000000000000000000000000000000000a554e495a454e2d434c490000000000000000000000000000000000000000000000000000000000000000000000000000000000000000000000000000000000010000000000000000000000000000000000000000000000000000000000000020000000000000000000000000b970e14df2161c0a2f32eba35901f2446581b48200000000000000000000000000000000000000000000000000000000000000000000000000000000000000000000000000000000000000000000000000000060000000000000000000000000000000000000000000000000000000000000006423b872dd00000000000000000000000052e81e783c31af343dfd01084f35decbced9fc18000000000000000000000000d3f64baa732061f8b3626ee44bab354f854877ac0000000000000000000000000000000000000000000000000398e05471033f8e00000000000000000000000000000000000000000000000000000000",
                    "decodedMethod": null,
                    "errorInfo": "",
                    "fromAddress": "0xd3f64baa732061f8b3626ee44bab354f854877ac",
                    "gasUsed": 172111,
                    "id": 13,
                    "methodDecoded": false,
                    "operation": "DELEGATECALL",
                    "output": "",
                    "revert": false,
                    "revertMessage": "",
                    "selector": "0x1ef29a02",
                    "status": true,
                    "value": "0.000000000000000001"
                },
                "nodeType": 0
            },
            "14": {
                "invocation": {
                    "address": "0xb970e14df2161c0a2f32eba35901f2446581b482",
                    "callData": "0x000000000000000000000000d3f64baa732061f8b3626ee44bab354f854877ac",
                    "decodedMethod": {
                        "callParams": [
                            {
                                "name": "account",
                                "type": "address",
                                "value": "0xd3f64baa732061f8b3626ee44bab354f854877ac"
                            }
                        ],
                        "constructorArguments": "",
                        "name": "balanceOf",
                        "returnParams": [
                            {
                                "decimalAvailable": true,
                                "name": "",
                                "type": "uint256",
                                "value": "0"
                            }
                        ],
                        "signature": "balanceOf(address)"
                    },
                    "errorInfo": "",
                    "fromAddress": "0xd3f64baa732061f8b3626ee44bab354f854877ac",
                    "gasUsed": 11833,
                    "id": 14,
                    "methodDecoded": true,
                    "operation": "STATICCALL",
                    "output": "0x0000000000000000000000000000000000000000000000000000000000000000",
                    "revert": false,
                    "revertMessage": "",
                    "selector": "0x70a08231",
                    "status": true,
                    "value": "0"
                },
                "nodeType": 0
            },
            "15": {
                "invocation": {
                    "address": "0xb970e14df2161c0a2f32eba35901f2446581b482",
                    "callData": "0x00000000000000000000000052e81e783c31af343dfd01084f35decbced9fc18000000000000000000000000d3f64baa732061f8b3626ee44bab354f854877ac0000000000000000000000000000000000000000000000000398e05471033f8e",
                    "decodedMethod": {
                        "callParams": [
                            {
                                "name": "sender",
                                "type": "address",
                                "value": "0x52e81e783c31af343dfd01084f35decbced9fc18"
                            },
                            {
                                "name": "recipient",
                                "type": "address",
                                "value": "0xd3f64baa732061f8b3626ee44bab354f854877ac"
                            },
                            {
                                "decimalAvailable": true,
                                "name": "amount",
                                "type": "uint256",
                                "value": "259,203,631,851,716,494"
                            }
                        ],
                        "constructorArguments": "",
                        "name": "transferFrom",
                        "returnParams": [
                            {
                                "name": "",
                                "type": "bool",
                                "value": true
                            }
                        ],
                        "signature": "transferFrom(address,address,uint256)"
                    },
                    "errorInfo": "",
                    "fromAddress": "0xd3f64baa732061f8b3626ee44bab354f854877ac",
                    "gasUsed": 78053,
                    "id": 15,
                    "methodDecoded": true,
                    "operation": "CALL",
                    "output": "0x0000000000000000000000000000000000000000000000000000000000000001",
                    "revert": false,
                    "revertMessage": "",
                    "selector": "0x23b872dd",
                    "status": true,
                    "value": "0"
                },
                "nodeType": 0
            },
            "16": {
                "event": {
                    "contract": "0xb970e14df2161c0a2f32eba35901f2446581b482",
                    "decodedLog": {
                        "name": "Transfer",
                        "params": [
                            {
                                "name": "from",
                                "type": "address",
                                "value": "0x52e81e783c31af343dfd01084f35decbced9fc18"
                            },
                            {
                                "name": "to",
                                "type": "address",
                                "value": "0xd3f64baa732061f8b3626ee44bab354f854877ac"
                            },
                            {
                                "decimalAvailable": true,
                                "name": "value",
                                "type": "uint256",
                                "value": "251,427,522,896,165,000"
                            }
                        ],
                        "signature": "Transfer(address,address,uint256)"
                    },
                    "id": 16,
                    "logData": "0x000000000000000000000000000000000000000000000000037d3ffffcfb7888",
                    "logDecoded": true,
                    "operation": "EVENT",
                    "revert": false,
                    "status": true,
                    "topics": [
                        "0xddf252ad1be2c89b69c2b068fc378daa952ba7f163c4a11628f55a4df523b3ef",
                        "0x00000000000000000000000052e81e783c31af343dfd01084f35decbced9fc18",
                        "0x000000000000000000000000d3f64baa732061f8b3626ee44bab354f854877ac"
                    ]
                },
                "nodeType": 1
            },
            "17": {
                "event": {
                    "contract": "0xb970e14df2161c0a2f32eba35901f2446581b482",
                    "decodedLog": {
                        "name": "Approval",
                        "params": [
                            {
                                "name": "owner",
                                "type": "address",
                                "value": "0x52e81e783c31af343dfd01084f35decbced9fc18"
                            },
                            {
                                "name": "spender",
                                "type": "address",
                                "value": "0xd3f64baa732061f8b3626ee44bab354f854877ac"
                            },
                            {
                                "decimalAvailable": true,
                                "name": "value",
                                "type": "uint256",
                                "value": "128,030,296,327,437,517"
                            }
                        ],
                        "signature": "Approval(address,address,uint256)"
                    },
                    "id": 17,
                    "logData": "0x00000000000000000000000000000000000000000000000001c6dae04d15bccd",
                    "logDecoded": true,
                    "operation": "EVENT",
                    "revert": false,
                    "status": true,
                    "topics": [
                        "0x8c5be1e5ebec7d5bd14f71427d1e84f3dd0314c0f7b2291e5b200ac8c7c3b925",
                        "0x00000000000000000000000052e81e783c31af343dfd01084f35decbced9fc18",
                        "0x000000000000000000000000d3f64baa732061f8b3626ee44bab354f854877ac"
                    ]
                },
                "nodeType": 1
            },
            "18": {
                "invocation": {
                    "address": "0xb970e14df2161c0a2f32eba35901f2446581b482",
                    "callData": "0x000000000000000000000000d3f64baa732061f8b3626ee44bab354f854877ac",
                    "decodedMethod": {
                        "callParams": [
                            {
                                "name": "account",
                                "type": "address",
                                "value": "0xd3f64baa732061f8b3626ee44bab354f854877ac"
                            }
                        ],
                        "constructorArguments": "",
                        "name": "balanceOf",
                        "returnParams": [
                            {
                                "decimalAvailable": true,
                                "name": "",
                                "type": "uint256",
                                "value": "251,432,741,428,713,589"
                            }
                        ],
                        "signature": "balanceOf(address)"
                    },
                    "errorInfo": "",
                    "fromAddress": "0xd3f64baa732061f8b3626ee44bab354f854877ac",
                    "gasUsed": 7833,
                    "id": 18,
                    "methodDecoded": true,
                    "operation": "STATICCALL",
                    "output": "0x000000000000000000000000000000000000000000000000037d44bf05c2d875",
                    "revert": false,
                    "revertMessage": "",
                    "selector": "0x70a08231",
                    "status": true,
                    "value": "0"
                },
                "nodeType": 0
            },
            "19": {
                "invocation": {
                    "address": "0xb970e14df2161c0a2f32eba35901f2446581b482",
                    "callData": "0x000000000000000000000000f7ce62144540500cff1a2a1bb08aff612be79077000000000000000000000000000000000000000000000000037d44bf05c2d875",
                    "decodedMethod": {
                        "callParams": [
                            {
                                "name": "recipient",
                                "type": "address",
                                "value": "0xf7ce62144540500cff1a2a1bb08aff612be79077"
                            },
                            {
                                "decimalAvailable": true,
                                "name": "amount",
                                "type": "uint256",
                                "value": "251,432,741,428,713,589"
                            }
                        ],
                        "constructorArguments": "",
                        "name": "transfer",
                        "returnParams": [
                            {
                                "name": "",
                                "type": "bool",
                                "value": true
                            }
                        ],
                        "signature": "transfer(address,uint256)"
                    },
                    "errorInfo": "",
                    "fromAddress": "0xd3f64baa732061f8b3626ee44bab354f854877ac",
                    "gasUsed": 54399,
                    "id": 19,
                    "methodDecoded": true,
                    "operation": "CALL",
                    "output": "0x0000000000000000000000000000000000000000000000000000000000000001",
                    "revert": false,
                    "revertMessage": "",
                    "selector": "0xa9059cbb",
                    "status": true,
                    "value": "0"
                },
                "nodeType": 0
            },
            "2": {
                "invocation": {
                    "address": "0xf7ce62144540500cff1a2a1bb08aff612be79077",
                    "callData": "0x",
                    "decodedMethod": null,
                    "errorInfo": "",
                    "fromAddress": "0x4c385b3b33469b73713ca252dd1862bd1a8b1bd0",
                    "gasUsed": 95187,
                    "id": 2,
                    "methodDecoded": false,
                    "operation": "CALL",
                    "output": "",
                    "revert": false,
                    "revertMessage": "",
                    "selector": "0xaaf05f3d",
                    "status": true,
                    "value": "0.00000000000000001"
                },
                "nodeType": 0
            },
            "20": {
                "event": {
                    "contract": "0xb970e14df2161c0a2f32eba35901f2446581b482",
                    "decodedLog": {
                        "name": "Transfer",
                        "params": [
                            {
                                "name": "from",
                                "type": "address",
                                "value": "0xd3f64baa732061f8b3626ee44bab354f854877ac"
                            },
                            {
                                "name": "to",
                                "type": "address",
                                "value": "0xf7ce62144540500cff1a2a1bb08aff612be79077"
                            },
                            {
                                "decimalAvailable": true,
                                "name": "value",
                                "type": "uint256",
                                "value": "243,889,759,185,852,183"
                            }
                        ],
                        "signature": "Transfer(address,address,uint256)"
                    },
                    "id": 20,
                    "logData": "0x000000000000000000000000000000000000000000000000036278719ca0d717",
                    "logDecoded": true,
                    "operation": "EVENT",
                    "revert": false,
                    "status": true,
                    "topics": [
                        "0xddf252ad1be2c89b69c2b068fc378daa952ba7f163c4a11628f55a4df523b3ef",
                        "0x000000000000000000000000d3f64baa732061f8b3626ee44bab354f854877ac",
                        "0x000000000000000000000000f7ce62144540500cff1a2a1bb08aff612be79077"
                    ]
                },
                "nodeType": 1
            },
            "21": {
                "event": {
                    "contract": "0xd3f64baa732061f8b3626ee44bab354f854877ac",
                    "decodedLog": {
                        "name": "Swapped",
                        "params": [
                            {
                                "name": "amountIn",
                                "type": "uint256",
                                "value": "0"
                            },
                            {
                                "name": "amountOut",
                                "type": "uint256",
                                "value": "251,432,741,428,713,589"
                            },
                            {
                                "name": "srcToken",
                                "type": "address",
                                "value": "0x0000000000000000000000000000000000000000"
                            },
                            {
                                "name": "dstToken",
                                "type": "address",
                                "value": "0xb970e14df2161c0a2f32eba35901f2446581b482"
                            },
                            {
                                "name": "receiver",
                                "type": "address",
                                "value": "0xf7ce62144540500cff1a2a1bb08aff612be79077"
                            },
                            {
                                "name": "sender",
                                "type": "address",
                                "value": "0xf7ce62144540500cff1a2a1bb08aff612be79077"
                            },
                            {
                                "name": "apiId",
                                "type": "uint16",
                                "value": "17"
                            }
                        ],
                        "signature": "Swapped(uint256,uint256,address,address,address,address,uint16)"
                    },
                    "id": 21,
                    "logData": "0x0000000000000000000000000000000000000000000000000000000000000000000000000000000000000000000000000000000000000000037d44bf05c2d8750000000000000000000000000000000000000000000000000000000000000000000000000000000000000000b970e14df2161c0a2f32eba35901f2446581b482000000000000000000000000f7ce62144540500cff1a2a1bb08aff612be79077000000000000000000000000f7ce62144540500cff1a2a1bb08aff612be790770000000000000000000000000000000000000000000000000000000000000011",
                    "logDecoded": true,
                    "operation": "EVENT",
                    "revert": false,
                    "status": true,
                    "topics": [
                        "0xe3aecd3d46b48cc4869cac1e9bad367d8ebe45dd01d231fe7d442d3f85ca7565"
                    ]
                },
                "nodeType": 1
            },
            "22": {
                "invocation": {
                    "address": "0xb970e14df2161c0a2f32eba35901f2446581b482",
                    "callData": "0x000000000000000000000000f7ce62144540500cff1a2a1bb08aff612be79077",
                    "decodedMethod": {
                        "callParams": [
                            {
                                "name": "account",
                                "type": "address",
                                "value": "0xf7ce62144540500cff1a2a1bb08aff612be79077"
                            }
                        ],
                        "constructorArguments": "",
                        "name": "balanceOf",
                        "returnParams": [
                            {
                                "decimalAvailable": true,
                                "name": "",
                                "type": "uint256",
                                "value": "243,894,669,503,898,812"
                            }
                        ],
                        "signature": "balanceOf(address)"
                    },
                    "errorInfo": "",
                    "fromAddress": "0xf7ce62144540500cff1a2a1bb08aff612be79077",
                    "gasUsed": 7833,
                    "id": 22,
                    "methodDecoded": true,
                    "operation": "STATICCALL",
                    "output": "0x00000000000000000000000000000000000000000000000003627ce8e26424bc",
                    "revert": false,
                    "revertMessage": "",
                    "selector": "0x70a08231",
                    "status": true,
                    "value": "0"
                },
                "nodeType": 0
            },
            "23": {
                "invocation": {
                    "address": "0xb970e14df2161c0a2f32eba35901f2446581b482",
                    "callData": "0x0000000000000000000000004e2ce48f0b5d97bfd4be3f6c7b6479db1aa5b36500000000000000000000000000000000000000000000000003627ce8e26424bc",
                    "decodedMethod": {
                        "callParams": [
                            {
                                "name": "recipient",
                                "type": "address",
                                "value": "0x4e2ce48f0b5d97bfd4be3f6c7b6479db1aa5b365"
                            },
                            {
                                "decimalAvailable": true,
                                "name": "amount",
                                "type": "uint256",
                                "value": "243,894,669,503,898,812"
                            }
                        ],
                        "constructorArguments": "",
                        "name": "transfer",
                        "returnParams": [
                            {
                                "name": "",
                                "type": "bool",
                                "value": true
                            }
                        ],
                        "signature": "transfer(address,uint256)"
                    },
                    "errorInfo": "",
                    "fromAddress": "0xf7ce62144540500cff1a2a1bb08aff612be79077",
                    "gasUsed": 58399,
                    "id": 23,
                    "methodDecoded": true,
                    "operation": "CALL",
                    "output": "0x0000000000000000000000000000000000000000000000000000000000000001",
                    "revert": false,
                    "revertMessage": "",
                    "selector": "0xa9059cbb",
                    "status": true,
                    "value": "0"
                },
                "nodeType": 0
            },
            "24": {
                "event": {
                    "contract": "0xb970e14df2161c0a2f32eba35901f2446581b482",
                    "decodedLog": {
                        "name": "Transfer",
                        "params": [
                            {
                                "name": "from",
                                "type": "address",
                                "value": "0xf7ce62144540500cff1a2a1bb08aff612be79077"
                            },
                            {
                                "name": "to",
                                "type": "address",
                                "value": "0x4e2ce48f0b5d97bfd4be3f6c7b6479db1aa5b365"
                            },
                            {
                                "decimalAvailable": true,
                                "name": "value",
                                "type": "uint256",
                                "value": "236,577,829,418,781,848"
                            }
                        ],
                        "signature": "Transfer(address,address,uint256)"
                    },
                    "id": 24,
                    "logData": "0x00000000000000000000000000000000000000000000000003487e484c3d4c98",
                    "logDecoded": true,
                    "operation": "EVENT",
                    "revert": false,
                    "status": true,
                    "topics": [
                        "0xddf252ad1be2c89b69c2b068fc378daa952ba7f163c4a11628f55a4df523b3ef",
                        "0x000000000000000000000000f7ce62144540500cff1a2a1bb08aff612be79077",
                        "0x0000000000000000000000004e2ce48f0b5d97bfd4be3f6c7b6479db1aa5b365"
                    ]
                },
                "nodeType": 1
            },
            "25": {
                "invocation": {
                    "address": "0xb970e14df2161c0a2f32eba35901f2446581b482",
                    "callData": "0x000000000000000000000000a23846f4e81f7b5846523c1807eb4d0ca892045c",
                    "decodedMethod": {
                        "callParams": [
                            {
                                "name": "account",
                                "type": "address",
                                "value": "0xa23846f4e81f7b5846523c1807eb4d0ca892045c"
                            }
                        ],
                        "constructorArguments": "",
                        "name": "balanceOf",
                        "returnParams": [
                            {
                                "decimalAvailable": true,
                                "name": "",
                                "type": "uint256",
                                "value": "0"
                            }
                        ],
                        "signature": "balanceOf(address)"
                    },
                    "errorInfo": "",
                    "fromAddress": "0xf7ce62144540500cff1a2a1bb08aff612be79077",
                    "gasUsed": 11833,
                    "id": 25,
                    "methodDecoded": true,
                    "operation": "STATICCALL",
                    "output": "0x0000000000000000000000000000000000000000000000000000000000000000",
                    "revert": false,
                    "revertMessage": "",
                    "selector": "0x70a08231",
                    "status": true,
                    "value": "0"
                },
                "nodeType": 0
            },
            "26": {
                "invocation": {
                    "address": "0xd3f64baa732061f8b3626ee44bab354f854877ac",
                    "callData": "0x000000000000000000000000000000000000000000000000000000000000004000000000000000000000000000000000000000000000000000000000000001a0000000000000000000000000f7ce62144540500cff1a2a1bb08aff612be790770000000000000000000000000000000000000000000000000000000000000000000000000000000000000000b970e14df2161c0a2f32eba35901f2446581b482000000000000000000000000000000000000000000000000000000000000000100000000000000000000000000000000000000000000000000000000000000000000000000000000000000000000000000000000000000000297963e6c9965e0000000000000000000000000000000000000000000000000000000000000012000000000000000000000000000000000000000000000000000000000000000110000000000000000000000000000000000000000000000000000000000000753000000000000000000000000000000000000000000000000000000000000000a554e495a454e2d434c490000000000000000000000000000000000000000000000000000000000000000000000000000000000000000000000000000000000010000000000000000000000000000000000000000000000000000000000000020000000000000000000000000b970e14df2161c0a2f32eba35901f2446581b48200000000000000000000000000000000000000000000000000000000000000000000000000000000000000000000000000000000000000000000000000000060000000000000000000000000000000000000000000000000000000000000006423b872dd000000000000000000000000a23846f4e81f7b5846523c1807eb4d0ca892045c000000000000000000000000d3f64baa732061f8b3626ee44bab354f854877ac000000000000000000000000000000000000000000000000000000000000000000000000000000000000000000000000000000000000000000000000",
                    "decodedMethod": null,
                    "errorInfo": "execution reverted",
                    "fromAddress": "0xf7ce62144540500cff1a2a1bb08aff612be79077",
                    "gasUsed": 18133,
                    "id": 26,
                    "methodDecoded": false,
                    "operation": "CALL",
                    "output": "0x08c379a00000000000000000000000000000000000000000000000000000000000000020000000000000000000000000000000000000000000000000000000000000000b43616c6c2d4661696c6564000000000000000000000000000000000000000000",
                    "revert": true,
                    "revertMessage": "Call-Failed",
                    "selector": "0x1ef29a02",
                    "status": false,
                    "value": "0.000000000000000001"
                },
                "nodeType": 0
            },
            "27": {
                "invocation": {
                    "address": "0xa051fc7d38baa0ace811ad9de4e9f7024e5d8a30",
                    "callData": "0x000000000000000000000000000000000000000000000000000000000000004000000000000000000000000000000000000000000000000000000000000001a0000000000000000000000000f7ce62144540500cff1a2a1bb08aff612be790770000000000000000000000000000000000000000000000000000000000000000000000000000000000000000b970e14df2161c0a2f32eba35901f2446581b482000000000000000000000000000000000000000000000000000000000000000100000000000000000000000000000000000000000000000000000000000000000000000000000000000000000000000000000000000000000297963e6c9965e0000000000000000000000000000000000000000000000000000000000000012000000000000000000000000000000000000000000000000000000000000000110000000000000000000000000000000000000000000000000000000000000753000000000000000000000000000000000000000000000000000000000000000a554e495a454e2d434c490000000000000000000000000000000000000000000000000000000000000000000000000000000000000000000000000000000000010000000000000000000000000000000000000000000000000000000000000020000000000000000000000000b970e14df2161c0a2f32eba35901f2446581b48200000000000000000000000000000000000000000000000000000000000000000000000000000000000000000000000000000000000000000000000000000060000000000000000000000000000000000000000000000000000000000000006423b872dd000000000000000000000000a23846f4e81f7b5846523c1807eb4d0ca892045c000000000000000000000000d3f64baa732061f8b3626ee44bab354f854877ac000000000000000000000000000000000000000000000000000000000000000000000000000000000000000000000000000000000000000000000000",
                    "decodedMethod": null,
                    "errorInfo": "execution reverted",
                    "fromAddress": "0xd3f64baa732061f8b3626ee44bab354f854877ac",
                    "gasUsed": 17162,
                    "id": 27,
                    "methodDecoded": false,
                    "operation": "DELEGATECALL",
                    "output": "0x08c379a00000000000000000000000000000000000000000000000000000000000000020000000000000000000000000000000000000000000000000000000000000000b43616c6c2d4661696c6564000000000000000000000000000000000000000000",
                    "revert": true,
                    "revertMessage": "Call-Failed",
                    "selector": "0x1ef29a02",
                    "status": false,
                    "value": "0.000000000000000001"
                },
                "nodeType": 0
            },
            "28": {
                "invocation": {
                    "address": "0xb970e14df2161c0a2f32eba35901f2446581b482",
                    "callData": "0x000000000000000000000000d3f64baa732061f8b3626ee44bab354f854877ac",
                    "decodedMethod": {
                        "callParams": [
                            {
                                "name": "account",
                                "type": "address",
                                "value": "0xd3f64baa732061f8b3626ee44bab354f854877ac"
                            }
                        ],
                        "constructorArguments": "",
                        "name": "balanceOf",
                        "returnParams": [
                            {
                                "decimalAvailable": true,
                                "name": "",
                                "type": "uint256",
                                "value": "0"
                            }
                        ],
                        "signature": "balanceOf(address)"
                    },
                    "errorInfo": "",
                    "fromAddress": "0xd3f64baa732061f8b3626ee44bab354f854877ac",
                    "gasUsed": 7833,
                    "id": 28,
                    "methodDecoded": true,
                    "operation": "STATICCALL",
                    "output": "0x0000000000000000000000000000000000000000000000000000000000000000",
                    "revert": true,
                    "revertMessage": "",
                    "selector": "0x70a08231",
                    "status": true,
                    "value": "0"
                },
                "nodeType": 0
            },
            "29": {
                "invocation": {
                    "address": "0xb970e14df2161c0a2f32eba35901f2446581b482",
                    "callData": "0x000000000000000000000000a23846f4e81f7b5846523c1807eb4d0ca892045c000000000000000000000000d3f64baa732061f8b3626ee44bab354f854877ac0000000000000000000000000000000000000000000000000000000000000000",
                    "decodedMethod": {
                        "callParams": [
                            {
                                "name": "sender",
                                "type": "address",
                                "value": "0xa23846f4e81f7b5846523c1807eb4d0ca892045c"
                            },
                            {
                                "name": "recipient",
                                "type": "address",
                                "value": "0xd3f64baa732061f8b3626ee44bab354f854877ac"
                            },
                            {
                                "decimalAvailable": true,
                                "name": "amount",
                                "type": "uint256",
                                "value": "0"
                            }
                        ],
                        "constructorArguments": "",
                        "name": "transferFrom",
                        "returnParams": [],
                        "signature": "transferFrom(address,address,uint256)"
                    },
                    "errorInfo": "execution reverted",
                    "fromAddress": "0xd3f64baa732061f8b3626ee44bab354f854877ac",
                    "gasUsed": 609,
                    "id": 29,
                    "methodDecoded": true,
                    "operation": "CALL",
                    "output": "0x08c379a0000000000000000000000000000000000000000000000000000000000000002000000000000000000000000000000000000000000000000000000000000000295472616e7366657220616d6f756e74206d7573742062652067726561746572207468616e207a65726f0000000000000000000000000000000000000000000000",
                    "revert": true,
                    "revertMessage": ")Transfer amount must be greater than zero",
                    "selector": "0x23b872dd",
                    "status": false,
                    "value": "0"
                },
                "nodeType": 0
            },
            "3": {
                "invocation": {
                    "address": "0xb970e14df2161c0a2f32eba35901f2446581b482",
                    "callData": "0x000000000000000000000000687d124ec49fb0aa0cb08de4438abf171f3c53b5",
                    "decodedMethod": {
                        "callParams": [
                            {
                                "name": "account",
                                "type": "address",
                                "value": "0x687d124ec49fb0aa0cb08de4438abf171f3c53b5"
                            }
                        ],
                        "constructorArguments": "",
                        "name": "balanceOf",
                        "returnParams": [
                            {
                                "decimalAvailable": true,
                                "name": "",
                                "type": "uint256",
                                "value": "0"
                            }
                        ],
                        "signature": "balanceOf(address)"
                    },
                    "errorInfo": "",
                    "fromAddress": "0xf7ce62144540500cff1a2a1bb08aff612be79077",
                    "gasUsed": 29833,
                    "id": 3,
                    "methodDecoded": true,
                    "operation": "STATICCALL",
                    "output": "0x0000000000000000000000000000000000000000000000000000000000000000",
                    "revert": false,
                    "revertMessage": "",
                    "selector": "0x70a08231",
                    "status": true,
                    "value": "0"
                },
                "nodeType": 0
            },
            "30": {
                "invocation": {
                    "address": "0xb970e14df2161c0a2f32eba35901f2446581b482",
                    "callData": "0x000000000000000000000000f7ce62144540500cff1a2a1bb08aff612be79077",
                    "decodedMethod": {
                        "callParams": [
                            {
                                "name": "account",
                                "type": "address",
                                "value": "0xf7ce62144540500cff1a2a1bb08aff612be79077"
                            }
                        ],
                        "constructorArguments": "",
                        "name": "balanceOf",
                        "returnParams": [
                            {
                                "decimalAvailable": true,
                                "name": "",
                                "type": "uint256",
                                "value": "0"
                            }
                        ],
                        "signature": "balanceOf(address)"
                    },
                    "errorInfo": "",
                    "fromAddress": "0xf7ce62144540500cff1a2a1bb08aff612be79077",
                    "gasUsed": 7833,
                    "id": 30,
                    "methodDecoded": true,
                    "operation": "STATICCALL",
                    "output": "0x0000000000000000000000000000000000000000000000000000000000000000",
                    "revert": false,
                    "revertMessage": "",
                    "selector": "0x70a08231",
                    "status": true,
                    "value": "0"
                },
                "nodeType": 0
            },
            "31": {
                "invocation": {
                    "address": "0xb970e14df2161c0a2f32eba35901f2446581b482",
                    "callData": "0x0000000000000000000000004e2ce48f0b5d97bfd4be3f6c7b6479db1aa5b3650000000000000000000000000000000000000000000000000000000000000000",
                    "decodedMethod": {
                        "callParams": [
                            {
                                "name": "recipient",
                                "type": "address",
                                "value": "0x4e2ce48f0b5d97bfd4be3f6c7b6479db1aa5b365"
                            },
                            {
                                "decimalAvailable": true,
                                "name": "amount",
                                "type": "uint256",
                                "value": "0"
                            }
                        ],
                        "constructorArguments": "",
                        "name": "transfer",
                        "returnParams": [],
                        "signature": "transfer(address,uint256)"
                    },
                    "errorInfo": "execution reverted",
                    "fromAddress": "0xf7ce62144540500cff1a2a1bb08aff612be79077",
                    "gasUsed": 631,
                    "id": 31,
                    "methodDecoded": true,
                    "operation": "CALL",
                    "output": "0x08c379a0000000000000000000000000000000000000000000000000000000000000002000000000000000000000000000000000000000000000000000000000000000295472616e7366657220616d6f756e74206d7573742062652067726561746572207468616e207a65726f0000000000000000000000000000000000000000000000",
                    "revert": true,
                    "revertMessage": ")Transfer amount must be greater than zero",
                    "selector": "0xa9059cbb",
                    "status": false,
                    "value": "0"
                },
                "nodeType": 0
            },
            "32": {
                "invocation": {
                    "address": "0xb970e14df2161c0a2f32eba35901f2446581b482",
                    "callData": "0x000000000000000000000000728dbac1d2a20acc87edd23ff435931e6c4c1f37",
                    "decodedMethod": {
                        "callParams": [
                            {
                                "name": "account",
                                "type": "address",
                                "value": "0x728dbac1d2a20acc87edd23ff435931e6c4c1f37"
                            }
                        ],
                        "constructorArguments": "",
                        "name": "balanceOf",
                        "returnParams": [
                            {
                                "decimalAvailable": true,
                                "name": "",
                                "type": "uint256",
                                "value": "0"
                            }
                        ],
                        "signature": "balanceOf(address)"
                    },
                    "errorInfo": "",
                    "fromAddress": "0xf7ce62144540500cff1a2a1bb08aff612be79077",
                    "gasUsed": 11833,
                    "id": 32,
                    "methodDecoded": true,
                    "operation": "STATICCALL",
                    "output": "0x0000000000000000000000000000000000000000000000000000000000000000",
                    "revert": false,
                    "revertMessage": "",
                    "selector": "0x70a08231",
                    "status": true,
                    "value": "0"
                },
                "nodeType": 0
            },
            "33": {
                "invocation": {
                    "address": "0xd3f64baa732061f8b3626ee44bab354f854877ac",
                    "callData": "0x000000000000000000000000000000000000000000000000000000000000004000000000000000000000000000000000000000000000000000000000000001a0000000000000000000000000f7ce62144540500cff1a2a1bb08aff612be790770000000000000000000000000000000000000000000000000000000000000000000000000000000000000000b970e14df2161c0a2f32eba35901f2446581b482000000000000000000000000000000000000000000000000000000000000000100000000000000000000000000000000000000000000000000000000000000000000000000000000000000000000000000000000000000000297963e6c9965e0000000000000000000000000000000000000000000000000000000000000012000000000000000000000000000000000000000000000000000000000000000110000000000000000000000000000000000000000000000000000000000000753000000000000000000000000000000000000000000000000000000000000000a554e495a454e2d434c490000000000000000000000000000000000000000000000000000000000000000000000000000000000000000000000000000000000010000000000000000000000000000000000000000000000000000000000000020000000000000000000000000b970e14df2161c0a2f32eba35901f2446581b48200000000000000000000000000000000000000000000000000000000000000000000000000000000000000000000000000000000000000000000000000000060000000000000000000000000000000000000000000000000000000000000006423b872dd000000000000000000000000728dbac1d2a20acc87edd23ff435931e6c4c1f37000000000000000000000000d3f64baa732061f8b3626ee44bab354f854877ac000000000000000000000000000000000000000000000000000000000000000000000000000000000000000000000000000000000000000000000000",
                    "decodedMethod": null,
                    "errorInfo": "execution reverted",
                    "fromAddress": "0xf7ce62144540500cff1a2a1bb08aff612be79077",
                    "gasUsed": 18133,
                    "id": 33,
                    "methodDecoded": false,
                    "operation": "CALL",
                    "output": "0x08c379a00000000000000000000000000000000000000000000000000000000000000020000000000000000000000000000000000000000000000000000000000000000b43616c6c2d4661696c6564000000000000000000000000000000000000000000",
                    "revert": true,
                    "revertMessage": "Call-Failed",
                    "selector": "0x1ef29a02",
                    "status": false,
                    "value": "0.000000000000000001"
                },
                "nodeType": 0
            },
            "34": {
                "invocation": {
                    "address": "0xa051fc7d38baa0ace811ad9de4e9f7024e5d8a30",
                    "callData": "0x000000000000000000000000000000000000000000000000000000000000004000000000000000000000000000000000000000000000000000000000000001a0000000000000000000000000f7ce62144540500cff1a2a1bb08aff612be790770000000000000000000000000000000000000000000000000000000000000000000000000000000000000000b970e14df2161c0a2f32eba35901f2446581b482000000000000000000000000000000000000000000000000000000000000000100000000000000000000000000000000000000000000000000000000000000000000000000000000000000000000000000000000000000000297963e6c9965e0000000000000000000000000000000000000000000000000000000000000012000000000000000000000000000000000000000000000000000000000000000110000000000000000000000000000000000000000000000000000000000000753000000000000000000000000000000000000000000000000000000000000000a554e495a454e2d434c490000000000000000000000000000000000000000000000000000000000000000000000000000000000000000000000000000000000010000000000000000000000000000000000000000000000000000000000000020000000000000000000000000b970e14df2161c0a2f32eba35901f2446581b48200000000000000000000000000000000000000000000000000000000000000000000000000000000000000000000000000000000000000000000000000000060000000000000000000000000000000000000000000000000000000000000006423b872dd000000000000000000000000728dbac1d2a20acc87edd23ff435931e6c4c1f37000000000000000000000000d3f64baa732061f8b3626ee44bab354f854877ac000000000000000000000000000000000000000000000000000000000000000000000000000000000000000000000000000000000000000000000000",
                    "decodedMethod": null,
                    "errorInfo": "execution reverted",
                    "fromAddress": "0xd3f64baa732061f8b3626ee44bab354f854877ac",
                    "gasUsed": 17162,
                    "id": 34,
                    "methodDecoded": false,
                    "operation": "DELEGATECALL",
                    "output": "0x08c379a00000000000000000000000000000000000000000000000000000000000000020000000000000000000000000000000000000000000000000000000000000000b43616c6c2d4661696c6564000000000000000000000000000000000000000000",
                    "revert": true,
                    "revertMessage": "Call-Failed",
                    "selector": "0x1ef29a02",
                    "status": false,
                    "value": "0.000000000000000001"
                },
                "nodeType": 0
            },
            "35": {
                "invocation": {
                    "address": "0xb970e14df2161c0a2f32eba35901f2446581b482",
                    "callData": "0x000000000000000000000000d3f64baa732061f8b3626ee44bab354f854877ac",
                    "decodedMethod": {
                        "callParams": [
                            {
                                "name": "account",
                                "type": "address",
                                "value": "0xd3f64baa732061f8b3626ee44bab354f854877ac"
                            }
                        ],
                        "constructorArguments": "",
                        "name": "balanceOf",
                        "returnParams": [
                            {
                                "decimalAvailable": true,
                                "name": "",
                                "type": "uint256",
                                "value": "0"
                            }
                        ],
                        "signature": "balanceOf(address)"
                    },
                    "errorInfo": "",
                    "fromAddress": "0xd3f64baa732061f8b3626ee44bab354f854877ac",
                    "gasUsed": 7833,
                    "id": 35,
                    "methodDecoded": true,
                    "operation": "STATICCALL",
                    "output": "0x0000000000000000000000000000000000000000000000000000000000000000",
                    "revert": true,
                    "revertMessage": "",
                    "selector": "0x70a08231",
                    "status": true,
                    "value": "0"
                },
                "nodeType": 0
            },
            "36": {
                "invocation": {
                    "address": "0xb970e14df2161c0a2f32eba35901f2446581b482",
                    "callData": "0x000000000000000000000000728dbac1d2a20acc87edd23ff435931e6c4c1f37000000000000000000000000d3f64baa732061f8b3626ee44bab354f854877ac0000000000000000000000000000000000000000000000000000000000000000",
                    "decodedMethod": {
                        "callParams": [
                            {
                                "name": "sender",
                                "type": "address",
                                "value": "0x728dbac1d2a20acc87edd23ff435931e6c4c1f37"
                            },
                            {
                                "name": "recipient",
                                "type": "address",
                                "value": "0xd3f64baa732061f8b3626ee44bab354f854877ac"
                            },
                            {
                                "decimalAvailable": true,
                                "name": "amount",
                                "type": "uint256",
                                "value": "0"
                            }
                        ],
                        "constructorArguments": "",
                        "name": "transferFrom",
                        "returnParams": [],
                        "signature": "transferFrom(address,address,uint256)"
                    },
                    "errorInfo": "execution reverted",
                    "fromAddress": "0xd3f64baa732061f8b3626ee44bab354f854877ac",
                    "gasUsed": 609,
                    "id": 36,
                    "methodDecoded": true,
                    "operation": "CALL",
                    "output": "0x08c379a0000000000000000000000000000000000000000000000000000000000000002000000000000000000000000000000000000000000000000000000000000000295472616e7366657220616d6f756e74206d7573742062652067726561746572207468616e207a65726f0000000000000000000000000000000000000000000000",
                    "revert": true,
                    "revertMessage": ")Transfer amount must be greater than zero",
                    "selector": "0x23b872dd",
                    "status": false,
                    "value": "0"
                },
                "nodeType": 0
            },
            "37": {
                "invocation": {
                    "address": "0xb970e14df2161c0a2f32eba35901f2446581b482",
                    "callData": "0x000000000000000000000000f7ce62144540500cff1a2a1bb08aff612be79077",
                    "decodedMethod": {
                        "callParams": [
                            {
                                "name": "account",
                                "type": "address",
                                "value": "0xf7ce62144540500cff1a2a1bb08aff612be79077"
                            }
                        ],
                        "constructorArguments": "",
                        "name": "balanceOf",
                        "returnParams": [
                            {
                                "decimalAvailable": true,
                                "name": "",
                                "type": "uint256",
                                "value": "0"
                            }
                        ],
                        "signature": "balanceOf(address)"
                    },
                    "errorInfo": "",
                    "fromAddress": "0xf7ce62144540500cff1a2a1bb08aff612be79077",
                    "gasUsed": 7833,
                    "id": 37,
                    "methodDecoded": true,
                    "operation": "STATICCALL",
                    "output": "0x0000000000000000000000000000000000000000000000000000000000000000",
                    "revert": false,
                    "revertMessage": "",
                    "selector": "0x70a08231",
                    "status": true,
                    "value": "0"
                },
                "nodeType": 0
            },
            "38": {
                "invocation": {
                    "address": "0xb970e14df2161c0a2f32eba35901f2446581b482",
                    "callData": "0x0000000000000000000000004e2ce48f0b5d97bfd4be3f6c7b6479db1aa5b3650000000000000000000000000000000000000000000000000000000000000000",
                    "decodedMethod": {
                        "callParams": [
                            {
                                "name": "recipient",
                                "type": "address",
                                "value": "0x4e2ce48f0b5d97bfd4be3f6c7b6479db1aa5b365"
                            },
                            {
                                "decimalAvailable": true,
                                "name": "amount",
                                "type": "uint256",
                                "value": "0"
                            }
                        ],
                        "constructorArguments": "",
                        "name": "transfer",
                        "returnParams": [],
                        "signature": "transfer(address,uint256)"
                    },
                    "errorInfo": "execution reverted",
                    "fromAddress": "0xf7ce62144540500cff1a2a1bb08aff612be79077",
                    "gasUsed": 631,
                    "id": 38,
                    "methodDecoded": true,
                    "operation": "CALL",
                    "output": "0x08c379a0000000000000000000000000000000000000000000000000000000000000002000000000000000000000000000000000000000000000000000000000000000295472616e7366657220616d6f756e74206d7573742062652067726561746572207468616e207a65726f0000000000000000000000000000000000000000000000",
                    "revert": true,
                    "revertMessage": ")Transfer amount must be greater than zero",
                    "selector": "0xa9059cbb",
                    "status": false,
                    "value": "0"
                },
                "nodeType": 0
            },
            "39": {
                "invocation": {
                    "address": "0xb970e14df2161c0a2f32eba35901f2446581b482",
                    "callData": "0x000000000000000000000000daa91e8103b219ba85ab202d3c94bcefe354f670",
                    "decodedMethod": {
                        "callParams": [
                            {
                                "name": "account",
                                "type": "address",
                                "value": "0xdaa91e8103b219ba85ab202d3c94bcefe354f670"
                            }
                        ],
                        "constructorArguments": "",
                        "name": "balanceOf",
                        "returnParams": [
                            {
                                "decimalAvailable": true,
                                "name": "",
                                "type": "uint256",
                                "value": "0"
                            }
                        ],
                        "signature": "balanceOf(address)"
                    },
                    "errorInfo": "",
                    "fromAddress": "0xf7ce62144540500cff1a2a1bb08aff612be79077",
                    "gasUsed": 11833,
                    "id": 39,
                    "methodDecoded": true,
                    "operation": "STATICCALL",
                    "output": "0x0000000000000000000000000000000000000000000000000000000000000000",
                    "revert": false,
                    "revertMessage": "",
                    "selector": "0x70a08231",
                    "status": true,
                    "value": "0"
                },
                "nodeType": 0
            },
            "4": {
                "invocation": {
                    "address": "0xd3f64baa732061f8b3626ee44bab354f854877ac",
                    "callData": "0x000000000000000000000000000000000000000000000000000000000000004000000000000000000000000000000000000000000000000000000000000001a0000000000000000000000000f7ce62144540500cff1a2a1bb08aff612be790770000000000000000000000000000000000000000000000000000000000000000000000000000000000000000b970e14df2161c0a2f32eba35901f2446581b482000000000000000000000000000000000000000000000000000000000000000100000000000000000000000000000000000000000000000000000000000000000000000000000000000000000000000000000000000000000297963e6c9965e0000000000000000000000000000000000000000000000000000000000000012000000000000000000000000000000000000000000000000000000000000000110000000000000000000000000000000000000000000000000000000000000753000000000000000000000000000000000000000000000000000000000000000a554e495a454e2d434c490000000000000000000000000000000000000000000000000000000000000000000000000000000000000000000000000000000000010000000000000000000000000000000000000000000000000000000000000020000000000000000000000000b970e14df2161c0a2f32eba35901f2446581b48200000000000000000000000000000000000000000000000000000000000000000000000000000000000000000000000000000000000000000000000000000060000000000000000000000000000000000000000000000000000000000000006423b872dd000000000000000000000000687d124ec49fb0aa0cb08de4438abf171f3c53b5000000000000000000000000d3f64baa732061f8b3626ee44bab354f854877ac000000000000000000000000000000000000000000000000000000000000000000000000000000000000000000000000000000000000000000000000",
                    "decodedMethod": null,
                    "errorInfo": "execution reverted",
                    "fromAddress": "0xf7ce62144540500cff1a2a1bb08aff612be79077",
                    "gasUsed": 34633,
                    "id": 4,
                    "methodDecoded": false,
                    "operation": "CALL",
                    "output": "0x08c379a00000000000000000000000000000000000000000000000000000000000000020000000000000000000000000000000000000000000000000000000000000000b43616c6c2d4661696c6564000000000000000000000000000000000000000000",
                    "revert": true,
                    "revertMessage": "Call-Failed",
                    "selector": "0x1ef29a02",
                    "status": false,
                    "value": "0.000000000000000001"
                },
                "nodeType": 0
            },
            "40": {
                "invocation": {
                    "address": "0xd3f64baa732061f8b3626ee44bab354f854877ac",
                    "callData": "0x000000000000000000000000000000000000000000000000000000000000004000000000000000000000000000000000000000000000000000000000000001a0000000000000000000000000f7ce62144540500cff1a2a1bb08aff612be790770000000000000000000000000000000000000000000000000000000000000000000000000000000000000000b970e14df2161c0a2f32eba35901f2446581b482000000000000000000000000000000000000000000000000000000000000000100000000000000000000000000000000000000000000000000000000000000000000000000000000000000000000000000000000000000000297963e6c9965e0000000000000000000000000000000000000000000000000000000000000012000000000000000000000000000000000000000000000000000000000000000110000000000000000000000000000000000000000000000000000000000000753000000000000000000000000000000000000000000000000000000000000000a554e495a454e2d434c490000000000000000000000000000000000000000000000000000000000000000000000000000000000000000000000000000000000010000000000000000000000000000000000000000000000000000000000000020000000000000000000000000b970e14df2161c0a2f32eba35901f2446581b48200000000000000000000000000000000000000000000000000000000000000000000000000000000000000000000000000000000000000000000000000000060000000000000000000000000000000000000000000000000000000000000006423b872dd000000000000000000000000daa91e8103b219ba85ab202d3c94bcefe354f670000000000000000000000000d3f64baa732061f8b3626ee44bab354f854877ac000000000000000000000000000000000000000000000000000000000000000000000000000000000000000000000000000000000000000000000000",
                    "decodedMethod": null,
                    "errorInfo": "execution reverted",
                    "fromAddress": "0xf7ce62144540500cff1a2a1bb08aff612be79077",
                    "gasUsed": 18133,
                    "id": 40,
                    "methodDecoded": false,
                    "operation": "CALL",
                    "output": "0x08c379a00000000000000000000000000000000000000000000000000000000000000020000000000000000000000000000000000000000000000000000000000000000b43616c6c2d4661696c6564000000000000000000000000000000000000000000",
                    "revert": true,
                    "revertMessage": "Call-Failed",
                    "selector": "0x1ef29a02",
                    "status": false,
                    "value": "0.000000000000000001"
                },
                "nodeType": 0
            },
            "41": {
                "invocation": {
                    "address": "0xa051fc7d38baa0ace811ad9de4e9f7024e5d8a30",
                    "callData": "0x000000000000000000000000000000000000000000000000000000000000004000000000000000000000000000000000000000000000000000000000000001a0000000000000000000000000f7ce62144540500cff1a2a1bb08aff612be790770000000000000000000000000000000000000000000000000000000000000000000000000000000000000000b970e14df2161c0a2f32eba35901f2446581b482000000000000000000000000000000000000000000000000000000000000000100000000000000000000000000000000000000000000000000000000000000000000000000000000000000000000000000000000000000000297963e6c9965e0000000000000000000000000000000000000000000000000000000000000012000000000000000000000000000000000000000000000000000000000000000110000000000000000000000000000000000000000000000000000000000000753000000000000000000000000000000000000000000000000000000000000000a554e495a454e2d434c490000000000000000000000000000000000000000000000000000000000000000000000000000000000000000000000000000000000010000000000000000000000000000000000000000000000000000000000000020000000000000000000000000b970e14df2161c0a2f32eba35901f2446581b48200000000000000000000000000000000000000000000000000000000000000000000000000000000000000000000000000000000000000000000000000000060000000000000000000000000000000000000000000000000000000000000006423b872dd000000000000000000000000daa91e8103b219ba85ab202d3c94bcefe354f670000000000000000000000000d3f64baa732061f8b3626ee44bab354f854877ac000000000000000000000000000000000000000000000000000000000000000000000000000000000000000000000000000000000000000000000000",
                    "decodedMethod": null,
                    "errorInfo": "execution reverted",
                    "fromAddress": "0xd3f64baa732061f8b3626ee44bab354f854877ac",
                    "gasUsed": 17162,
                    "id": 41,
                    "methodDecoded": false,
                    "operation": "DELEGATECALL",
                    "output": "0x08c379a00000000000000000000000000000000000000000000000000000000000000020000000000000000000000000000000000000000000000000000000000000000b43616c6c2d4661696c6564000000000000000000000000000000000000000000",
                    "revert": true,
                    "revertMessage": "Call-Failed",
                    "selector": "0x1ef29a02",
                    "status": false,
                    "value": "0.000000000000000001"
                },
                "nodeType": 0
            },
            "42": {
                "invocation": {
                    "address": "0xb970e14df2161c0a2f32eba35901f2446581b482",
                    "callData": "0x000000000000000000000000d3f64baa732061f8b3626ee44bab354f854877ac",
                    "decodedMethod": {
                        "callParams": [
                            {
                                "name": "account",
                                "type": "address",
                                "value": "0xd3f64baa732061f8b3626ee44bab354f854877ac"
                            }
                        ],
                        "constructorArguments": "",
                        "name": "balanceOf",
                        "returnParams": [
                            {
                                "decimalAvailable": true,
                                "name": "",
                                "type": "uint256",
                                "value": "0"
                            }
                        ],
                        "signature": "balanceOf(address)"
                    },
                    "errorInfo": "",
                    "fromAddress": "0xd3f64baa732061f8b3626ee44bab354f854877ac",
                    "gasUsed": 7833,
                    "id": 42,
                    "methodDecoded": true,
                    "operation": "STATICCALL",
                    "output": "0x0000000000000000000000000000000000000000000000000000000000000000",
                    "revert": true,
                    "revertMessage": "",
                    "selector": "0x70a08231",
                    "status": true,
                    "value": "0"
                },
                "nodeType": 0
            },
            "43": {
                "invocation": {
                    "address": "0xb970e14df2161c0a2f32eba35901f2446581b482",
                    "callData": "0x000000000000000000000000daa91e8103b219ba85ab202d3c94bcefe354f670000000000000000000000000d3f64baa732061f8b3626ee44bab354f854877ac0000000000000000000000000000000000000000000000000000000000000000",
                    "decodedMethod": {
                        "callParams": [
                            {
                                "name": "sender",
                                "type": "address",
                                "value": "0xdaa91e8103b219ba85ab202d3c94bcefe354f670"
                            },
                            {
                                "name": "recipient",
                                "type": "address",
                                "value": "0xd3f64baa732061f8b3626ee44bab354f854877ac"
                            },
                            {
                                "decimalAvailable": true,
                                "name": "amount",
                                "type": "uint256",
                                "value": "0"
                            }
                        ],
                        "constructorArguments": "",
                        "name": "transferFrom",
                        "returnParams": [],
                        "signature": "transferFrom(address,address,uint256)"
                    },
                    "errorInfo": "execution reverted",
                    "fromAddress": "0xd3f64baa732061f8b3626ee44bab354f854877ac",
                    "gasUsed": 609,
                    "id": 43,
                    "methodDecoded": true,
                    "operation": "CALL",
                    "output": "0x08c379a0000000000000000000000000000000000000000000000000000000000000002000000000000000000000000000000000000000000000000000000000000000295472616e7366657220616d6f756e74206d7573742062652067726561746572207468616e207a65726f0000000000000000000000000000000000000000000000",
                    "revert": true,
                    "revertMessage": ")Transfer amount must be greater than zero",
                    "selector": "0x23b872dd",
                    "status": false,
                    "value": "0"
                },
                "nodeType": 0
            },
            "44": {
                "invocation": {
                    "address": "0xb970e14df2161c0a2f32eba35901f2446581b482",
                    "callData": "0x000000000000000000000000f7ce62144540500cff1a2a1bb08aff612be79077",
                    "decodedMethod": {
                        "callParams": [
                            {
                                "name": "account",
                                "type": "address",
                                "value": "0xf7ce62144540500cff1a2a1bb08aff612be79077"
                            }
                        ],
                        "constructorArguments": "",
                        "name": "balanceOf",
                        "returnParams": [
                            {
                                "decimalAvailable": true,
                                "name": "",
                                "type": "uint256",
                                "value": "0"
                            }
                        ],
                        "signature": "balanceOf(address)"
                    },
                    "errorInfo": "",
                    "fromAddress": "0xf7ce62144540500cff1a2a1bb08aff612be79077",
                    "gasUsed": 7833,
                    "id": 44,
                    "methodDecoded": true,
                    "operation": "STATICCALL",
                    "output": "0x0000000000000000000000000000000000000000000000000000000000000000",
                    "revert": false,
                    "revertMessage": "",
                    "selector": "0x70a08231",
                    "status": true,
                    "value": "0"
                },
                "nodeType": 0
            },
            "45": {
                "invocation": {
                    "address": "0xb970e14df2161c0a2f32eba35901f2446581b482",
                    "callData": "0x0000000000000000000000004e2ce48f0b5d97bfd4be3f6c7b6479db1aa5b3650000000000000000000000000000000000000000000000000000000000000000",
                    "decodedMethod": {
                        "callParams": [
                            {
                                "name": "recipient",
                                "type": "address",
                                "value": "0x4e2ce48f0b5d97bfd4be3f6c7b6479db1aa5b365"
                            },
                            {
                                "decimalAvailable": true,
                                "name": "amount",
                                "type": "uint256",
                                "value": "0"
                            }
                        ],
                        "constructorArguments": "",
                        "name": "transfer",
                        "returnParams": [],
                        "signature": "transfer(address,uint256)"
                    },
                    "errorInfo": "execution reverted",
                    "fromAddress": "0xf7ce62144540500cff1a2a1bb08aff612be79077",
                    "gasUsed": 631,
                    "id": 45,
                    "methodDecoded": true,
                    "operation": "CALL",
                    "output": "0x08c379a0000000000000000000000000000000000000000000000000000000000000002000000000000000000000000000000000000000000000000000000000000000295472616e7366657220616d6f756e74206d7573742062652067726561746572207468616e207a65726f0000000000000000000000000000000000000000000000",
                    "revert": true,
                    "revertMessage": ")Transfer amount must be greater than zero",
                    "selector": "0xa9059cbb",
                    "status": false,
                    "value": "0"
                },
                "nodeType": 0
            },
            "5": {
                "invocation": {
                    "address": "0xa051fc7d38baa0ace811ad9de4e9f7024e5d8a30",
                    "callData": "0x000000000000000000000000000000000000000000000000000000000000004000000000000000000000000000000000000000000000000000000000000001a0000000000000000000000000f7ce62144540500cff1a2a1bb08aff612be790770000000000000000000000000000000000000000000000000000000000000000000000000000000000000000b970e14df2161c0a2f32eba35901f2446581b482000000000000000000000000000000000000000000000000000000000000000100000000000000000000000000000000000000000000000000000000000000000000000000000000000000000000000000000000000000000297963e6c9965e0000000000000000000000000000000000000000000000000000000000000012000000000000000000000000000000000000000000000000000000000000000110000000000000000000000000000000000000000000000000000000000000753000000000000000000000000000000000000000000000000000000000000000a554e495a454e2d434c490000000000000000000000000000000000000000000000000000000000000000000000000000000000000000000000000000000000010000000000000000000000000000000000000000000000000000000000000020000000000000000000000000b970e14df2161c0a2f32eba35901f2446581b48200000000000000000000000000000000000000000000000000000000000000000000000000000000000000000000000000000000000000000000000000000060000000000000000000000000000000000000000000000000000000000000006423b872dd000000000000000000000000687d124ec49fb0aa0cb08de4438abf171f3c53b5000000000000000000000000d3f64baa732061f8b3626ee44bab354f854877ac000000000000000000000000000000000000000000000000000000000000000000000000000000000000000000000000000000000000000000000000",
                    "decodedMethod": null,
                    "errorInfo": "execution reverted",
                    "fromAddress": "0xd3f64baa732061f8b3626ee44bab354f854877ac",
                    "gasUsed": 27162,
                    "id": 5,
                    "methodDecoded": false,
                    "operation": "DELEGATECALL",
                    "output": "0x08c379a00000000000000000000000000000000000000000000000000000000000000020000000000000000000000000000000000000000000000000000000000000000b43616c6c2d4661696c6564000000000000000000000000000000000000000000",
                    "revert": true,
                    "revertMessage": "Call-Failed",
                    "selector": "0x1ef29a02",
                    "status": false,
                    "value": "0.000000000000000001"
                },
                "nodeType": 0
            },
            "6": {
                "invocation": {
                    "address": "0xb970e14df2161c0a2f32eba35901f2446581b482",
                    "callData": "0x000000000000000000000000d3f64baa732061f8b3626ee44bab354f854877ac",
                    "decodedMethod": {
                        "callParams": [
                            {
                                "name": "account",
                                "type": "address",
                                "value": "0xd3f64baa732061f8b3626ee44bab354f854877ac"
                            }
                        ],
                        "constructorArguments": "",
                        "name": "balanceOf",
                        "returnParams": [
                            {
                                "decimalAvailable": true,
                                "name": "",
                                "type": "uint256",
                                "value": "0"
                            }
                        ],
                        "signature": "balanceOf(address)"
                    },
                    "errorInfo": "",
                    "fromAddress": "0xd3f64baa732061f8b3626ee44bab354f854877ac",
                    "gasUsed": 11833,
                    "id": 6,
                    "methodDecoded": true,
                    "operation": "STATICCALL",
                    "output": "0x0000000000000000000000000000000000000000000000000000000000000000",
                    "revert": true,
                    "revertMessage": "",
                    "selector": "0x70a08231",
                    "status": true,
                    "value": "0"
                },
                "nodeType": 0
            },
            "7": {
                "invocation": {
                    "address": "0xb970e14df2161c0a2f32eba35901f2446581b482",
                    "callData": "0x000000000000000000000000687d124ec49fb0aa0cb08de4438abf171f3c53b5000000000000000000000000d3f64baa732061f8b3626ee44bab354f854877ac0000000000000000000000000000000000000000000000000000000000000000",
                    "decodedMethod": {
                        "callParams": [
                            {
                                "name": "sender",
                                "type": "address",
                                "value": "0x687d124ec49fb0aa0cb08de4438abf171f3c53b5"
                            },
                            {
                                "name": "recipient",
                                "type": "address",
                                "value": "0xd3f64baa732061f8b3626ee44bab354f854877ac"
                            },
                            {
                                "decimalAvailable": true,
                                "name": "amount",
                                "type": "uint256",
                                "value": "0"
                            }
                        ],
                        "constructorArguments": "",
                        "name": "transferFrom",
                        "returnParams": [],
                        "signature": "transferFrom(address,address,uint256)"
                    },
                    "errorInfo": "execution reverted",
                    "fromAddress": "0xd3f64baa732061f8b3626ee44bab354f854877ac",
                    "gasUsed": 609,
                    "id": 7,
                    "methodDecoded": true,
                    "operation": "CALL",
                    "output": "0x08c379a0000000000000000000000000000000000000000000000000000000000000002000000000000000000000000000000000000000000000000000000000000000295472616e7366657220616d6f756e74206d7573742062652067726561746572207468616e207a65726f0000000000000000000000000000000000000000000000",
                    "revert": true,
                    "revertMessage": ")Transfer amount must be greater than zero",
                    "selector": "0x23b872dd",
                    "status": false,
                    "value": "0"
                },
                "nodeType": 0
            },
            "8": {
                "invocation": {
                    "address": "0xb970e14df2161c0a2f32eba35901f2446581b482",
                    "callData": "0x000000000000000000000000f7ce62144540500cff1a2a1bb08aff612be79077",
                    "decodedMethod": {
                        "callParams": [
                            {
                                "name": "account",
                                "type": "address",
                                "value": "0xf7ce62144540500cff1a2a1bb08aff612be79077"
                            }
                        ],
                        "constructorArguments": "",
                        "name": "balanceOf",
                        "returnParams": [
                            {
                                "decimalAvailable": true,
                                "name": "",
                                "type": "uint256",
                                "value": "0"
                            }
                        ],
                        "signature": "balanceOf(address)"
                    },
                    "errorInfo": "",
                    "fromAddress": "0xf7ce62144540500cff1a2a1bb08aff612be79077",
                    "gasUsed": 11833,
                    "id": 8,
                    "methodDecoded": true,
                    "operation": "STATICCALL",
                    "output": "0x0000000000000000000000000000000000000000000000000000000000000000",
                    "revert": false,
                    "revertMessage": "",
                    "selector": "0x70a08231",
                    "status": true,
                    "value": "0"
                },
                "nodeType": 0
            },
            "9": {
                "invocation": {
                    "address": "0xb970e14df2161c0a2f32eba35901f2446581b482",
                    "callData": "0x0000000000000000000000004e2ce48f0b5d97bfd4be3f6c7b6479db1aa5b3650000000000000000000000000000000000000000000000000000000000000000",
                    "decodedMethod": {
                        "callParams": [
                            {
                                "name": "recipient",
                                "type": "address",
                                "value": "0x4e2ce48f0b5d97bfd4be3f6c7b6479db1aa5b365"
                            },
                            {
                                "decimalAvailable": true,
                                "name": "amount",
                                "type": "uint256",
                                "value": "0"
                            }
                        ],
                        "constructorArguments": "",
                        "name": "transfer",
                        "returnParams": [],
                        "signature": "transfer(address,uint256)"
                    },
                    "errorInfo": "execution reverted",
                    "fromAddress": "0xf7ce62144540500cff1a2a1bb08aff612be79077",
                    "gasUsed": 631,
                    "id": 9,
                    "methodDecoded": true,
                    "operation": "CALL",
                    "output": "0x08c379a0000000000000000000000000000000000000000000000000000000000000002000000000000000000000000000000000000000000000000000000000000000295472616e7366657220616d6f756e74206d7573742062652067726561746572207468616e207a65726f0000000000000000000000000000000000000000000000",
                    "revert": true,
                    "revertMessage": ")Transfer amount must be greater than zero",
                    "selector": "0xa9059cbb",
                    "status": false,
                    "value": "0"
                },
                "nodeType": 0
            }
        },
        "gasFlame": [
            {
                "children": [
                    {
                        "children": [
                            {
                                "children": [],
                                "depth": 0,
                                "name": "Initial Gas",
                                "value": 85374
                            },
                            {
                                "children": [
                                    {
                                        "children": [],
                                        "depth": 1,
                                        "name": "contract creation",
                                        "value": 360710
                                    },
                                    {
                                        "children": [
                                            {
                                                "children": [],
                                                "depth": 2,
                                                "name": "balanceOf",
                                                "value": 29833
                                            },
                                            {
                                                "children": [
                                                    {
                                                        "children": [
                                                            {
                                                                "children": [],
                                                                "depth": 4,
                                                                "name": "balanceOf",
                                                                "value": 11833
                                                            },
                                                            {
                                                                "children": [],
                                                                "depth": 4,
                                                                "name": "transferFrom",
                                                                "value": 609
                                                            }
                                                        ],
                                                        "depth": 3,
                                                        "name": "0x1ef29a02",
                                                        "value": 27162
                                                    }
                                                ],
                                                "depth": 2,
                                                "name": "0x1ef29a02",
                                                "value": 34633
                                            },
                                            {
                                                "children": [],
                                                "depth": 2,
                                                "name": "balanceOf",
                                                "value": 11833
                                            },
                                            {
                                                "children": [],
                                                "depth": 2,
                                                "name": "transfer",
                                                "value": 631
                                            }
                                        ],
                                        "depth": 1,
                                        "name": "0xaaf05f3d",
                                        "value": 95187
                                    },
                                    {
                                        "children": [
                                            {
                                                "children": [],
                                                "depth": 2,
                                                "name": "balanceOf",
                                                "value": 11833
                                            },
                                            {
                                                "children": [
                                                    {
                                                        "children": [
                                                            {
                                                                "children": [],
                                                                "depth": 4,
                                                                "name": "balanceOf",
                                                                "value": 11833
                                                            },
                                                            {
                                                                "children": [],
                                                                "depth": 4,
                                                                "name": "transferFrom",
                                                                "value": 78053
                                                            },
                                                            {
                                                                "children": [],
                                                                "depth": 4,
                                                                "name": "balanceOf",
                                                                "value": 7833
                                                            },
                                                            {
                                                                "children": [],
                                                                "depth": 4,
                                                                "name": "transfer",
                                                                "value": 54399
                                                            }
                                                        ],
                                                        "depth": 3,
                                                        "name": "0x1ef29a02",
                                                        "value": 172111
                                                    }
                                                ],
                                                "depth": 2,
                                                "name": "0x1ef29a02",
                                                "value": 179569
                                            },
                                            {
                                                "children": [],
                                                "depth": 2,
                                                "name": "balanceOf",
                                                "value": 7833
                                            },
                                            {
                                                "children": [],
                                                "depth": 2,
                                                "name": "transfer",
                                                "value": 58399
                                            },
                                            {
                                                "children": [],
                                                "depth": 2,
                                                "name": "balanceOf",
                                                "value": 11833
                                            },
                                            {
                                                "children": [
                                                    {
                                                        "children": [
                                                            {
                                                                "children": [],
                                                                "depth": 4,
                                                                "name": "balanceOf",
                                                                "value": 7833
                                                            },
                                                            {
                                                                "children": [],
                                                                "depth": 4,
                                                                "name": "transferFrom",
                                                                "value": 609
                                                            }
                                                        ],
                                                        "depth": 3,
                                                        "name": "0x1ef29a02",
                                                        "value": 17162
                                                    }
                                                ],
                                                "depth": 2,
                                                "name": "0x1ef29a02",
                                                "value": 18133
                                            },
                                            {
                                                "children": [],
                                                "depth": 2,
                                                "name": "balanceOf",
                                                "value": 7833
                                            },
                                            {
                                                "children": [],
                                                "depth": 2,
                                                "name": "transfer",
                                                "value": 631
                                            },
                                            {
                                                "children": [],
                                                "depth": 2,
                                                "name": "balanceOf",
                                                "value": 11833
                                            },
                                            {
                                                "children": [
                                                    {
                                                        "children": [
                                                            {
                                                                "children": [],
                                                                "depth": 4,
                                                                "name": "balanceOf",
                                                                "value": 7833
                                                            },
                                                            {
                                                                "children": [],
                                                                "depth": 4,
                                                                "name": "transferFrom",
                                                                "value": 609
                                                            }
                                                        ],
                                                        "depth": 3,
                                                        "name": "0x1ef29a02",
                                                        "value": 17162
                                                    }
                                                ],
                                                "depth": 2,
                                                "name": "0x1ef29a02",
                                                "value": 18133
                                            },
                                            {
                                                "children": [],
                                                "depth": 2,
                                                "name": "balanceOf",
                                                "value": 7833
                                            },
                                            {
                                                "children": [],
                                                "depth": 2,
                                                "name": "transfer",
                                                "value": 631
                                            },
                                            {
                                                "children": [],
                                                "depth": 2,
                                                "name": "balanceOf",
                                                "value": 11833
                                            },
                                            {
                                                "children": [
                                                    {
                                                        "children": [
                                                            {
                                                                "children": [],
                                                                "depth": 4,
                                                                "name": "balanceOf",
                                                                "value": 7833
                                                            },
                                                            {
                                                                "children": [],
                                                                "depth": 4,
                                                                "name": "transferFrom",
                                                                "value": 609
                                                            }
                                                        ],
                                                        "depth": 3,
                                                        "name": "0x1ef29a02",
                                                        "value": 17162
                                                    }
                                                ],
                                                "depth": 2,
                                                "name": "0x1ef29a02",
                                                "value": 18133
                                            },
                                            {
                                                "children": [],
                                                "depth": 2,
                                                "name": "balanceOf",
                                                "value": 7833
                                            },
                                            {
                                                "children": [],
                                                "depth": 2,
                                                "name": "transfer",
                                                "value": 631
                                            }
                                        ],
                                        "depth": 1,
                                        "name": "0xc3f90202",
                                        "value": 425537
                                    }
                                ],
                                "depth": 0,
                                "name": "Executed Gas",
                                "value": 940759
                            }
                        ],
                        "depth": -1,
                        "name": "Actual Gas Used",
                        "value": 1023333
                    },
                    {
                        "children": [],
                        "depth": -1,
                        "name": "Refunded Gas",
                        "value": 2800
                    }
                ],
                "depth": -2,
                "name": "Total Gas",
                "value": 1026133
            }
        ],
        "isConfirmed": true,
        "mainTrace": [
            {
                "children": [
                    {
                        "children": [
                            {
                                "children": [],
                                "depth": 1,
                                "id": 1,
                                "order": 1
                            },
                            {
                                "children": [
                                    {
                                        "children": [],
                                        "depth": 2,
                                        "id": 3,
                                        "order": 3
                                    },
                                    {
                                        "children": [
                                            {
                                                "children": [
                                                    {
                                                        "children": [],
                                                        "depth": 4,
                                                        "id": 6,
                                                        "order": 6
                                                    },
                                                    {
                                                        "children": [],
                                                        "depth": 4,
                                                        "id": 7,
                                                        "order": 7
                                                    }
                                                ],
                                                "depth": 3,
                                                "id": 5,
                                                "order": 5
                                            }
                                        ],
                                        "depth": 2,
                                        "id": 4,
                                        "order": 4
                                    },
                                    {
                                        "children": [],
                                        "depth": 2,
                                        "id": 8,
                                        "order": 8
                                    },
                                    {
                                        "children": [],
                                        "depth": 2,
                                        "id": 9,
                                        "order": 9
                                    }
                                ],
                                "depth": 1,
                                "id": 2,
                                "order": 2
                            },
                            {
                                "children": [
                                    {
                                        "children": [],
                                        "depth": 2,
                                        "id": 11,
                                        "order": 11
                                    },
                                    {
                                        "children": [
                                            {
                                                "children": [
                                                    {
                                                        "children": [],
                                                        "depth": 4,
                                                        "id": 14,
                                                        "order": 14
                                                    },
                                                    {
                                                        "children": [
                                                            {
                                                                "children": [],
                                                                "depth": 5,
                                                                "id": 16,
                                                                "order": 16
                                                            },
                                                            {
                                                                "children": [],
                                                                "depth": 5,
                                                                "id": 17,
                                                                "order": 17
                                                            }
                                                        ],
                                                        "depth": 4,
                                                        "id": 15,
                                                        "order": 15
                                                    },
                                                    {
                                                        "children": [],
                                                        "depth": 4,
                                                        "id": 18,
                                                        "order": 18
                                                    },
                                                    {
                                                        "children": [
                                                            {
                                                                "children": [],
                                                                "depth": 5,
                                                                "id": 20,
                                                                "order": 20
                                                            }
                                                        ],
                                                        "depth": 4,
                                                        "id": 19,
                                                        "order": 19
                                                    },
                                                    {
                                                        "children": [],
                                                        "depth": 4,
                                                        "id": 21,
                                                        "order": 21
                                                    }
                                                ],
                                                "depth": 3,
                                                "id": 13,
                                                "order": 13
                                            }
                                        ],
                                        "depth": 2,
                                        "id": 12,
                                        "order": 12
                                    },
                                    {
                                        "children": [],
                                        "depth": 2,
                                        "id": 22,
                                        "order": 22
                                    },
                                    {
                                        "children": [
                                            {
                                                "children": [],
                                                "depth": 3,
                                                "id": 24,
                                                "order": 24
                                            }
                                        ],
                                        "depth": 2,
                                        "id": 23,
                                        "order": 23
                                    },
                                    {
                                        "children": [],
                                        "depth": 2,
                                        "id": 25,
                                        "order": 25
                                    },
                                    {
                                        "children": [
                                            {
                                                "children": [
                                                    {
                                                        "children": [],
                                                        "depth": 4,
                                                        "id": 28,
                                                        "order": 28
                                                    },
                                                    {
                                                        "children": [],
                                                        "depth": 4,
                                                        "id": 29,
                                                        "order": 29
                                                    }
                                                ],
                                                "depth": 3,
                                                "id": 27,
                                                "order": 27
                                            }
                                        ],
                                        "depth": 2,
                                        "id": 26,
                                        "order": 26
                                    },
                                    {
                                        "children": [],
                                        "depth": 2,
                                        "id": 30,
                                        "order": 30
                                    },
                                    {
                                        "children": [],
                                        "depth": 2,
                                        "id": 31,
                                        "order": 31
                                    },
                                    {
                                        "children": [],
                                        "depth": 2,
                                        "id": 32,
                                        "order": 32
                                    },
                                    {
                                        "children": [
                                            {
                                                "children": [
                                                    {
                                                        "children": [],
                                                        "depth": 4,
                                                        "id": 35,
                                                        "order": 35
                                                    },
                                                    {
                                                        "children": [],
                                                        "depth": 4,
                                                        "id": 36,
                                                        "order": 36
                                                    }
                                                ],
                                                "depth": 3,
                                                "id": 34,
                                                "order": 34
                                            }
                                        ],
                                        "depth": 2,
                                        "id": 33,
                                        "order": 33
                                    },
                                    {
                                        "children": [],
                                        "depth": 2,
                                        "id": 37,
                                        "order": 37
                                    },
                                    {
                                        "children": [],
                                        "depth": 2,
                                        "id": 38,
                                        "order": 38
                                    },
                                    {
                                        "children": [],
                                        "depth": 2,
                                        "id": 39,
                                        "order": 39
                                    },
                                    {
                                        "children": [
                                            {
                                                "children": [
                                                    {
                                                        "children": [],
                                                        "depth": 4,
                                                        "id": 42,
                                                        "order": 42
                                                    },
                                                    {
                                                        "children": [],
                                                        "depth": 4,
                                                        "id": 43,
                                                        "order": 43
                                                    }
                                                ],
                                                "depth": 3,
                                                "id": 41,
                                                "order": 41
                                            }
                                        ],
                                        "depth": 2,
                                        "id": 40,
                                        "order": 40
                                    },
                                    {
                                        "children": [],
                                        "depth": 2,
                                        "id": 44,
                                        "order": 44
                                    },
                                    {
                                        "children": [],
                                        "depth": 2,
                                        "id": 45,
                                        "order": 45
                                    }
                                ],
                                "depth": 1,
                                "id": 10,
                                "order": 10
                            }
                        ],
                        "depth": 0,
                        "id": 0,
                        "order": 0
                    }
                ],
                "depth": -1,
                "id": -1,
                "order": -1
            }
        ],
        "mainTraceNodeCount": 46,
        "parentIdMap": {
            "0": -1,
            "1": 0,
            "10": 0,
            "11": 10,
            "12": 10,
            "13": 12,
            "14": 13,
            "15": 13,
            "16": 15,
            "17": 15,
            "18": 13,
            "19": 13,
            "2": 0,
            "20": 19,
            "21": 13,
            "22": 10,
            "23": 10,
            "24": 23,
            "25": 10,
            "26": 10,
            "27": 26,
            "28": 27,
            "29": 27,
            "3": 2,
            "30": 10,
            "31": 10,
            "32": 10,
            "33": 10,
            "34": 33,
            "35": 34,
            "36": 34,
            "37": 10,
            "38": 10,
            "39": 10,
            "4": 2,
            "40": 10,
            "41": 40,
            "42": 41,
            "43": 41,
            "44": 10,
            "45": 10,
            "5": 4,
            "6": 5,
            "7": 5,
            "8": 2,
            "9": 2
        },
        "tidyTrace": [
            {
                "children": [
                    {
                        "children": [
                            {
                                "children": [],
                                "depth": 1,
                                "id": 1,
                                "order": 1
                            },
                            {
                                "children": [
                                    {
                                        "children": [
                                            {
                                                "children": [
                                                    {
                                                        "children": [],
                                                        "depth": 4,
                                                        "id": 7,
                                                        "order": 7
                                                    }
                                                ],
                                                "depth": 3,
                                                "id": 5,
                                                "order": 5
                                            }
                                        ],
                                        "depth": 2,
                                        "id": 4,
                                        "order": 4
                                    },
                                    {
                                        "children": [],
                                        "depth": 2,
                                        "id": 9,
                                        "order": 9
                                    }
                                ],
                                "depth": 1,
                                "id": 2,
                                "order": 2
                            },
                            {
                                "children": [
                                    {
                                        "children": [
                                            {
                                                "children": [
                                                    {
                                                        "children": [
                                                            {
                                                                "children": [],
                                                                "depth": 5,
                                                                "id": 16,
                                                                "order": 16
                                                            },
                                                            {
                                                                "children": [],
                                                                "depth": 5,
                                                                "id": 17,
                                                                "order": 17
                                                            }
                                                        ],
                                                        "depth": 4,
                                                        "id": 15,
                                                        "order": 15
                                                    },
                                                    {
                                                        "children": [
                                                            {
                                                                "children": [],
                                                                "depth": 5,
                                                                "id": 20,
                                                                "order": 20
                                                            }
                                                        ],
                                                        "depth": 4,
                                                        "id": 19,
                                                        "order": 19
                                                    },
                                                    {
                                                        "children": [],
                                                        "depth": 4,
                                                        "id": 21,
                                                        "order": 21
                                                    }
                                                ],
                                                "depth": 3,
                                                "id": 13,
                                                "order": 13
                                            }
                                        ],
                                        "depth": 2,
                                        "id": 12,
                                        "order": 12
                                    },
                                    {
                                        "children": [
                                            {
                                                "children": [],
                                                "depth": 3,
                                                "id": 24,
                                                "order": 24
                                            }
                                        ],
                                        "depth": 2,
                                        "id": 23,
                                        "order": 23
                                    },
                                    {
                                        "children": [
                                            {
                                                "children": [
                                                    {
                                                        "children": [],
                                                        "depth": 4,
                                                        "id": 29,
                                                        "order": 29
                                                    }
                                                ],
                                                "depth": 3,
                                                "id": 27,
                                                "order": 27
                                            }
                                        ],
                                        "depth": 2,
                                        "id": 26,
                                        "order": 26
                                    },
                                    {
                                        "children": [],
                                        "depth": 2,
                                        "id": 31,
                                        "order": 31
                                    },
                                    {
                                        "children": [
                                            {
                                                "children": [
                                                    {
                                                        "children": [],
                                                        "depth": 4,
                                                        "id": 36,
                                                        "order": 36
                                                    }
                                                ],
                                                "depth": 3,
                                                "id": 34,
                                                "order": 34
                                            }
                                        ],
                                        "depth": 2,
                                        "id": 33,
                                        "order": 33
                                    },
                                    {
                                        "children": [],
                                        "depth": 2,
                                        "id": 38,
                                        "order": 38
                                    },
                                    {
                                        "children": [
                                            {
                                                "children": [
                                                    {
                                                        "children": [],
                                                        "depth": 4,
                                                        "id": 43,
                                                        "order": 43
                                                    }
                                                ],
                                                "depth": 3,
                                                "id": 41,
                                                "order": 41
                                            }
                                        ],
                                        "depth": 2,
                                        "id": 40,
                                        "order": 40
                                    },
                                    {
                                        "children": [],
                                        "depth": 2,
                                        "id": 45,
                                        "order": 45
                                    }
                                ],
                                "depth": 1,
                                "id": 10,
                                "order": 10
                            }
                        ],
                        "depth": 0,
                        "id": 0,
                        "order": 0
                    }
                ],
                "depth": -1,
                "id": -1,
                "order": -1
            }
        ],
        "tidyTraceNodeCount": 30
    },
    "state_change": {
        "stateChanges": [
            {
                "address": "0xb970e14df2161c0a2f32eba35901f2446581b482",
                "erc": "ERC-20",
                "slots": [
                    {
                        "current": "0x0007131b9bf2360c2e19e31eed8fe06528265e74642d385230ba2d2d884ed250",
                        "key": "0x314e601c63fdf571fffe7e81b46d9f411a26a0ff0641dbfecc18aa4f8fb9f27f",
                        "prev": "0x0000000000000000000000000000000000000000000000000000000000000000"
                    },
                    {
                        "current": "0x00000000000000000000000000000000000000000000000001c6dae04d15bccd",
                        "key": "0x01ea786743e7075c43459b23eae85ef2b327f7896972a40ec6ddcd698a137bc3",
                        "prev": "0x000000000000000000000000000000000000000000000000055fbb34be18fc5b"
                    },
                    {
                        "current": "0x000000000000000000a8a9354c86867d421cc97a68b19febebc14ecffa9e7573",
                        "key": "0x8aaea26e0f4d99a6067dfb2ae0be621cf295f1a1ce23f2907ee84c1fb4f754bf",
                        "prev": "0x0007c06645e0f2f1fa5de7ee369fa04ed116f839c03702edfcfe5ce94df48041"
                    },
                    {
                        "current": "0x000000000000000000e1bd052b32bb0cd170f8a2677f703d4233378c96a9bf6f",
                        "key": "0x5a0817e5737e6d9f16b0c8994593bcb7b70f83cf10ca084615ac8cbc2985cca1",
                        "prev": "0x00000000000000000194992a528159157ac344c942f460672d1c6eff77c3af98"
                    },
                    {
                        "current": "0x00ab6cb0ac979d4039f47f9a1dabbecb2de8a87ef600d94732842c120d4ebecf",
                        "key": "0xd51a513205eec5f62425a1711e28cc1f1789d2ef1ddb99be55eedbf992849964",
                        "prev": "0x00ab160b57a03ecd544334e3f6725b909d63abdb9240b6be957e4da6e979728d"
                    },
                    {
                        "current": "0xfa64da90fb68198632c4dd3023a28989e2924ad9b42ce7ffe7317224dc86f5ce",
                        "key": "0x000000000000000000000000000000000000000000000000000000000000000a",
                        "prev": "0xfa653136505f77f9187627e64adbecc47317477d17ed0a8884375090005c4210"
                    },
                    {
                        "current": "0x0000000000000000000000000000000000000000000000027528e4d27cae8a92",
                        "key": "0x000000000000000000000000000000000000000000000000000000000000000b",
                        "prev": "0x0000000000000000000000000000000000000000000000027500af3143063a4e"
                    },
                    {
                        "current": "0x000000000000000000eba252d56510ffef1c232b074cd5c891605b8864769023",
                        "key": "0xd23e2e08eb455a2bc63029cbd4eef2c2d0a17796d01c7193b03fde951679b296",
                        "prev": "0x0000000000000000000000000000000000000000000000000000000000000000"
                    }
                ],
                "storageVariables": [
                    {
                        "name": "_tFeeTotal",
                        "type": "uint256",
                        "value": {
                            "current": "45335737241611176594",
                            "prev": "45324419275969411662",
                            "typeTag": 1
                        }
                    },
                    {
                        "name": "_allowances",
                        "type": "mapping(address => mapping(address => uint256))",
                        "value": {
                            "pairs": [
                                {
                                    "key": "0x52e81e783c31af343dfd01084f35decbced9fc18",
                                    "value": {
                                        "pairs": [
                                            {
                                                "key": "0xd3f64baa732061f8b3626ee44bab354f854877ac",
                                                "value": {
                                                    "current": "128030296327437517",
                                                    "prev": "387233928179154011",
                                                    "typeTag": 1
                                                }
                                            }
                                        ],
                                        "typeTag": 4
                                    }
                                }
                            ],
                            "typeTag": 4
                        }
                    },
                    {
                        "name": "_rOwned",
                        "type": "mapping(address => uint256)",
                        "value": {
                            "pairs": [
                                {
                                    "key": "0x4e2ce48f0b5d97bfd4be3f6c7b6479db1aa5b365",
                                    "value": {
                                        "current": "12499806975642809540622731063043612393487853202844267358692725272823648848",
                                        "prev": "0",
                                        "typeTag": 1
                                    }
                                },
                                {
                                    "key": "0x52e81e783c31af343dfd01084f35decbced9fc18",
                                    "value": {
                                        "current": "16154511482399409843174619630431078756089642779613754739",
                                        "prev": "13695822025679306187168505324962500497277471273301531948367714059724030017",
                                        "typeTag": 1
                                    }
                                },
                                {
                                    "key": "0xb970e14df2161c0a2f32eba35901f2446581b482",
                                    "value": {
                                        "current": "302880999809255176219616285858671397625252229340846860520071768752029351631",
                                        "prev": "302282992284236927907139595343642831076357123935590906612257110940261642893",
                                        "typeTag": 1
                                    }
                                },
                                {
                                    "key": "0xd3f64baa732061f8b3626ee44bab354f854877ac",
                                    "value": {
                                        "current": "21621439392773301896577717362936354684460701795266183023",
                                        "prev": "38752818357085238017693660814480485599293323852889960344",
                                        "typeTag": 1
                                    }
                                },
                                {
                                    "key": "0xf7ce62144540500cff1a2a1bb08aff612be79077",
                                    "value": {
                                        "current": "22569260713774281283940731081058408932788652441374986275",
                                        "prev": "0",
                                        "typeTag": 1
                                    }
                                }
                            ],
                            "typeTag": 4
                        }
                    },
                    {
                        "name": "_rTotal",
                        "type": "uint256",
                        "value": {
                            "current": "113256405341706565282012957500635260666565456121704063959805011747361121564110",
                            "prev": "113257003349231583530325434191150289233114351227109319913712826405172889272848",
                            "typeTag": 1
                        }
                    }
                ]
            },
            {
                "address": "0xf7ce62144540500cff1a2a1bb08aff612be79077",
                "erc": "",
                "slots": [
                    {
                        "current": "0x000000000000000000000000d3f64baa732061f8b3626ee44bab354f854877ac",
                        "key": "0x0000000000000000000000000000000000000000000000000000000000000000",
                        "prev": "0x0000000000000000000000000000000000000000000000000000000000000000"
                    }
                ],
                "storageVariables": []
            }
        ]
    }
}